{
  "_format": "hh-sol-artifact-1",
  "contractName": "HubProviderSet",
  "sourceName": "contracts/hub/HubProviderSet.sol",
  "abi": [
    {
      "inputs": [],
      "name": "AmountZero",
      "type": "error"
    },
    {
      "inputs": [
        {
          "internalType": "address",
          "name": "validator",
          "type": "address"
        }
      ],
      "name": "Exists",
      "type": "error"
    },
    {
      "inputs": [
        {
          "internalType": "string",
          "name": "src",
          "type": "string"
        },
        {
          "internalType": "string",
          "name": "msg",
          "type": "string"
        }
      ],
      "name": "StakeRequirement",
      "type": "error"
    },
    {
      "inputs": [
        {
          "internalType": "string",
          "name": "only",
          "type": "string"
        }
      ],
      "name": "Unauthorized",
      "type": "error"
    },
    {
      "anonymous": false,
      "inputs": [
        {
          "indexed": true,
          "internalType": "address",
          "name": "delegator",
          "type": "address"
        },
        {
          "indexed": true,
          "internalType": "address",
          "name": "provider",
          "type": "address"
        },
        {
          "indexed": false,
          "internalType": "uint256",
          "name": "amount",
          "type": "uint256"
        }
      ],
      "name": "Delegated",
      "type": "event"
    },
    {
      "anonymous": false,
      "inputs": [
        {
          "indexed": true,
          "internalType": "address",
          "name": "delegator",
          "type": "address"
        },
        {
          "indexed": true,
          "internalType": "address",
          "name": "provider",
          "type": "address"
        },
        {
          "indexed": true,
          "internalType": "bool",
          "name": "restake",
          "type": "bool"
        },
        {
          "indexed": false,
          "internalType": "uint256",
          "name": "amount",
          "type": "uint256"
        }
      ],
      "name": "DelegatorRewardClaimed",
      "type": "event"
    },
    {
      "anonymous": false,
      "inputs": [
        {
          "indexed": true,
          "internalType": "address",
          "name": "provider",
          "type": "address"
        },
        {
          "indexed": false,
          "internalType": "uint256",
          "name": "amount",
          "type": "uint256"
        }
      ],
      "name": "DelegatorRewardDistributed",
      "type": "event"
    },
    {
      "anonymous": false,
      "inputs": [
        {
          "indexed": false,
          "internalType": "uint8",
          "name": "version",
          "type": "uint8"
        }
      ],
      "name": "Initialized",
      "type": "event"
    },
    {
      "anonymous": false,
      "inputs": [
        {
          "indexed": true,
          "internalType": "address",
          "name": "provider",
          "type": "address"
        },
        {
          "indexed": false,
          "internalType": "uint256[4]",
          "name": "blsKey",
          "type": "uint256[4]"
        }
      ],
      "name": "NewProvider",
      "type": "event"
    },
    {
      "anonymous": false,
      "inputs": [
        {
          "indexed": true,
          "internalType": "address",
          "name": "previousOwner",
          "type": "address"
        },
        {
          "indexed": true,
          "internalType": "address",
          "name": "newOwner",
          "type": "address"
        }
      ],
      "name": "OwnershipTransferStarted",
      "type": "event"
    },
    {
      "anonymous": false,
      "inputs": [
        {
          "indexed": true,
          "internalType": "address",
          "name": "previousOwner",
          "type": "address"
        },
        {
          "indexed": true,
          "internalType": "address",
          "name": "newOwner",
          "type": "address"
        }
      ],
      "name": "OwnershipTransferred",
      "type": "event"
    },
    {
      "anonymous": false,
      "inputs": [
        {
          "indexed": true,
          "internalType": "address",
          "name": "provider",
          "type": "address"
        },
        {
          "indexed": false,
          "internalType": "uint256",
          "name": "amount",
          "type": "uint256"
        }
      ],
      "name": "ProviderRewardClaimed",
      "type": "event"
    },
    {
      "anonymous": false,
      "inputs": [
        {
          "indexed": true,
          "internalType": "address",
          "name": "provider",
          "type": "address"
        },
        {
          "indexed": false,
          "internalType": "uint256",
          "name": "amount",
          "type": "uint256"
        }
      ],
      "name": "ProviderRewardDistributed",
      "type": "event"
    },
    {
      "anonymous": false,
      "inputs": [
        {
          "indexed": true,
          "internalType": "address",
          "name": "provider",
          "type": "address"
        },
        {
          "indexed": false,
          "internalType": "uint256",
          "name": "amount",
          "type": "uint256"
        }
      ],
      "name": "Staked",
      "type": "event"
    },
    {
      "anonymous": false,
      "inputs": [
        {
          "indexed": true,
          "internalType": "address",
          "name": "delegator",
          "type": "address"
        },
        {
          "indexed": true,
          "internalType": "address",
          "name": "provider",
          "type": "address"
        },
        {
          "indexed": false,
          "internalType": "uint256",
          "name": "amount",
          "type": "uint256"
        }
      ],
      "name": "Undelegated",
      "type": "event"
    },
    {
      "anonymous": false,
      "inputs": [
        {
          "indexed": true,
          "internalType": "address",
          "name": "provider",
          "type": "address"
        },
        {
          "indexed": false,
          "internalType": "uint256",
          "name": "amount",
          "type": "uint256"
        }
      ],
      "name": "Unstaked",
      "type": "event"
    },
    {
      "anonymous": false,
      "inputs": [
        {
          "indexed": true,
          "internalType": "address",
          "name": "account",
          "type": "address"
        },
        {
          "indexed": true,
          "internalType": "address",
          "name": "to",
          "type": "address"
        },
        {
          "indexed": false,
          "internalType": "uint256",
          "name": "amount",
          "type": "uint256"
        }
      ],
      "name": "Withdrawal",
      "type": "event"
    },
    {
      "anonymous": false,
      "inputs": [
        {
          "indexed": true,
          "internalType": "address",
          "name": "account",
          "type": "address"
        },
        {
          "indexed": false,
          "internalType": "uint256",
          "name": "amount",
          "type": "uint256"
        }
      ],
      "name": "WithdrawalRegistered",
      "type": "event"
    },
    {
      "inputs": [],
      "name": "ACTIVE_PROVIDER_SET_SIZE",
      "outputs": [
        {
          "internalType": "uint256",
          "name": "",
          "type": "uint256"
        }
      ],
      "stateMutability": "view",
      "type": "function"
    },
    {
      "inputs": [],
      "name": "MAX_COMMISSION",
      "outputs": [
        {
          "internalType": "uint256",
          "name": "",
          "type": "uint256"
        }
      ],
      "stateMutability": "view",
      "type": "function"
    },
    {
      "inputs": [],
      "name": "MAX_PROVIDER_SET_SIZE",
      "outputs": [
        {
          "internalType": "uint256",
          "name": "",
          "type": "uint256"
        }
      ],
      "stateMutability": "view",
      "type": "function"
    },
    {
      "inputs": [],
      "name": "NEW_VALIDATOR_SIG",
      "outputs": [
        {
          "internalType": "bytes32",
          "name": "",
          "type": "bytes32"
        }
      ],
      "stateMutability": "view",
      "type": "function"
    },
    {
      "inputs": [],
      "name": "REWARD_PRECISION",
      "outputs": [
        {
          "internalType": "uint256",
          "name": "",
          "type": "uint256"
        }
      ],
      "stateMutability": "view",
      "type": "function"
    },
    {
      "inputs": [],
      "name": "WITHDRAWAL_WAIT_PERIOD",
      "outputs": [
        {
          "internalType": "uint256",
          "name": "",
          "type": "uint256"
        }
      ],
      "stateMutability": "view",
      "type": "function"
    },
    {
      "inputs": [],
      "name": "acceptOwnership",
      "outputs": [],
      "stateMutability": "nonpayable",
      "type": "function"
    },
    {
      "inputs": [],
      "name": "bls",
      "outputs": [
        {
          "internalType": "contract IBLS",
          "name": "",
          "type": "address"
        }
      ],
      "stateMutability": "view",
      "type": "function"
    },
    {
      "inputs": [
        {
          "internalType": "address",
          "name": "provider",
          "type": "address"
        },
        {
          "internalType": "bool",
          "name": "restake",
          "type": "bool"
        }
      ],
      "name": "claimDelegatorReward",
      "outputs": [],
      "stateMutability": "nonpayable",
      "type": "function"
    },
    {
      "inputs": [],
      "name": "claimProviderReward",
      "outputs": [],
      "stateMutability": "nonpayable",
      "type": "function"
    },
    {
      "inputs": [],
      "name": "currentEpochId",
      "outputs": [
        {
          "internalType": "uint256",
          "name": "",
          "type": "uint256"
        }
      ],
      "stateMutability": "view",
      "type": "function"
    },
    {
      "inputs": [
        {
          "internalType": "address",
          "name": "provider",
          "type": "address"
        },
        {
          "internalType": "bool",
          "name": "restake",
          "type": "bool"
        }
      ],
      "name": "delegate",
      "outputs": [],
      "stateMutability": "payable",
      "type": "function"
    },
    {
      "inputs": [
        {
          "internalType": "address",
          "name": "provider",
          "type": "address"
        },
        {
          "internalType": "address",
          "name": "delegator",
          "type": "address"
        }
      ],
      "name": "delegationOf",
      "outputs": [
        {
          "internalType": "uint256",
          "name": "",
          "type": "uint256"
        }
      ],
      "stateMutability": "view",
      "type": "function"
    },
    {
      "inputs": [
        {
          "internalType": "uint256",
          "name": "",
          "type": "uint256"
        }
      ],
      "name": "epochEndBlocks",
      "outputs": [
        {
          "internalType": "uint256",
          "name": "",
          "type": "uint256"
        }
      ],
      "stateMutability": "view",
      "type": "function"
    },
    {
      "inputs": [],
      "name": "epochReward",
      "outputs": [
        {
          "internalType": "uint256",
          "name": "",
          "type": "uint256"
        }
      ],
      "stateMutability": "view",
      "type": "function"
    },
    {
      "inputs": [],
      "name": "epochSize",
      "outputs": [
        {
          "internalType": "uint256",
          "name": "",
          "type": "uint256"
        }
      ],
      "stateMutability": "view",
      "type": "function"
    },
    {
      "inputs": [
        {
          "internalType": "uint256",
          "name": "",
          "type": "uint256"
        }
      ],
      "name": "epochs",
      "outputs": [
        {
          "internalType": "uint256",
          "name": "startBlock",
          "type": "uint256"
        },
        {
          "internalType": "uint256",
          "name": "endBlock",
          "type": "uint256"
        },
        {
          "internalType": "bytes32",
          "name": "epochRoot",
          "type": "bytes32"
        }
      ],
      "stateMutability": "view",
      "type": "function"
    },
    {
      "inputs": [],
      "name": "getCurrentProviderSet",
      "outputs": [
        {
          "internalType": "address[]",
          "name": "",
          "type": "address[]"
        }
      ],
      "stateMutability": "view",
      "type": "function"
    },
    {
      "inputs": [
        {
          "internalType": "address",
          "name": "provider",
          "type": "address"
        },
        {
          "internalType": "address",
          "name": "delegator",
          "type": "address"
        }
      ],
      "name": "getDelegatorReward",
      "outputs": [
        {
          "internalType": "uint256",
          "name": "",
          "type": "uint256"
        }
      ],
      "stateMutability": "view",
      "type": "function"
    },
    {
      "inputs": [
        {
          "internalType": "uint256",
          "name": "blockNumber",
          "type": "uint256"
        }
      ],
      "name": "getEpochByBlock",
      "outputs": [
        {
          "components": [
            {
              "internalType": "uint256",
              "name": "startBlock",
              "type": "uint256"
            },
            {
              "internalType": "uint256",
              "name": "endBlock",
              "type": "uint256"
            },
            {
              "internalType": "bytes32",
              "name": "epochRoot",
              "type": "bytes32"
            }
          ],
          "internalType": "struct Epoch",
          "name": "",
          "type": "tuple"
        }
      ],
      "stateMutability": "view",
      "type": "function"
    },
    {
      "inputs": [
        {
          "internalType": "address",
          "name": "provider",
          "type": "address"
        }
      ],
      "name": "getProvider",
      "outputs": [
        {
          "components": [
            {
              "internalType": "uint256[4]",
              "name": "blsKey",
              "type": "uint256[4]"
            },
            {
              "internalType": "uint256",
              "name": "stake",
              "type": "uint256"
            },
            {
              "internalType": "uint256",
              "name": "totalStake",
              "type": "uint256"
            },
            {
              "internalType": "uint256",
              "name": "commission",
              "type": "uint256"
            },
            {
              "internalType": "uint256",
              "name": "withdrawableRewards",
              "type": "uint256"
            },
            {
              "internalType": "bool",
              "name": "active",
              "type": "bool"
            }
          ],
          "internalType": "struct Provider",
          "name": "",
          "type": "tuple"
        }
      ],
      "stateMutability": "view",
      "type": "function"
    },
    {
      "inputs": [
        {
          "internalType": "address",
          "name": "provider",
          "type": "address"
        }
      ],
      "name": "getProviderReward",
      "outputs": [
        {
          "internalType": "uint256",
          "name": "",
          "type": "uint256"
        }
      ],
      "stateMutability": "view",
      "type": "function"
    },
    {
      "inputs": [
        {
          "components": [
            {
              "internalType": "uint256",
              "name": "epochReward",
              "type": "uint256"
            },
            {
              "internalType": "uint256",
              "name": "minStake",
              "type": "uint256"
            },
            {
              "internalType": "uint256",
              "name": "minDelegation",
              "type": "uint256"
            },
            {
              "internalType": "uint256",
              "name": "epochSize",
              "type": "uint256"
            }
          ],
          "internalType": "struct IHubProviderSetBase.InitStruct",
          "name": "init",
          "type": "tuple"
        },
        {
          "internalType": "address[]",
          "name": "providerAddresses",
          "type": "address[]"
        },
        {
          "internalType": "uint256[4][]",
          "name": "providerPubkeys",
          "type": "uint256[4][]"
        },
        {
          "internalType": "uint256[]",
          "name": "providerStakes",
          "type": "uint256[]"
        },
        {
          "internalType": "contract IBLS",
          "name": "newBls",
          "type": "address"
        },
        {
          "internalType": "uint256[2]",
          "name": "newMessage",
          "type": "uint256[2]"
        },
        {
          "internalType": "address",
          "name": "governance",
          "type": "address"
        }
      ],
      "name": "initialize",
      "outputs": [],
      "stateMutability": "nonpayable",
      "type": "function"
    },
    {
      "inputs": [
        {
          "internalType": "uint256",
          "name": "",
          "type": "uint256"
        }
      ],
      "name": "message",
      "outputs": [
        {
          "internalType": "uint256",
          "name": "",
          "type": "uint256"
        }
      ],
      "stateMutability": "view",
      "type": "function"
    },
    {
      "inputs": [],
      "name": "minDelegation",
      "outputs": [
        {
          "internalType": "uint256",
          "name": "",
          "type": "uint256"
        }
      ],
      "stateMutability": "view",
      "type": "function"
    },
    {
      "inputs": [],
      "name": "minStake",
      "outputs": [
        {
          "internalType": "uint256",
          "name": "",
          "type": "uint256"
        }
      ],
      "stateMutability": "view",
      "type": "function"
    },
    {
      "inputs": [],
      "name": "owner",
      "outputs": [
        {
          "internalType": "address",
          "name": "",
          "type": "address"
        }
      ],
      "stateMutability": "view",
      "type": "function"
    },
    {
      "inputs": [],
      "name": "pendingOwner",
      "outputs": [
        {
          "internalType": "address",
          "name": "",
          "type": "address"
        }
      ],
      "stateMutability": "view",
      "type": "function"
    },
    {
      "inputs": [
        {
          "internalType": "address",
          "name": "account",
          "type": "address"
        }
      ],
      "name": "pendingWithdrawals",
      "outputs": [
        {
          "internalType": "uint256",
          "name": "",
          "type": "uint256"
        }
      ],
      "stateMutability": "view",
      "type": "function"
    },
    {
      "inputs": [
        {
          "internalType": "uint256[2]",
          "name": "signature",
          "type": "uint256[2]"
        },
        {
          "internalType": "uint256[4]",
          "name": "pubkey",
          "type": "uint256[4]"
        }
      ],
      "name": "register",
      "outputs": [],
      "stateMutability": "nonpayable",
      "type": "function"
    },
    {
      "inputs": [],
      "name": "renounceOwnership",
      "outputs": [],
      "stateMutability": "nonpayable",
      "type": "function"
    },
    {
      "inputs": [
        {
          "internalType": "uint256",
          "name": "newCommission",
          "type": "uint256"
        }
      ],
      "name": "setCommission",
      "outputs": [],
      "stateMutability": "nonpayable",
      "type": "function"
    },
    {
      "inputs": [
        {
          "internalType": "uint256",
          "name": "n",
          "type": "uint256"
        }
      ],
      "name": "sortedProviders",
      "outputs": [
        {
          "internalType": "address[]",
          "name": "",
          "type": "address[]"
        }
      ],
      "stateMutability": "view",
      "type": "function"
    },
    {
      "inputs": [],
      "name": "stake",
      "outputs": [],
      "stateMutability": "payable",
      "type": "function"
    },
    {
      "inputs": [],
      "name": "totalActiveStake",
      "outputs": [
        {
          "internalType": "uint256",
          "name": "activeStake",
          "type": "uint256"
        }
      ],
      "stateMutability": "view",
      "type": "function"
    },
    {
      "inputs": [],
      "name": "totalStake",
      "outputs": [
        {
          "internalType": "uint256",
          "name": "",
          "type": "uint256"
        }
      ],
      "stateMutability": "view",
      "type": "function"
    },
    {
      "inputs": [
        {
          "internalType": "address",
          "name": "newOwner",
          "type": "address"
        }
      ],
      "name": "transferOwnership",
      "outputs": [],
      "stateMutability": "nonpayable",
      "type": "function"
    },
    {
      "inputs": [
        {
          "internalType": "address",
          "name": "provider",
          "type": "address"
        },
        {
          "internalType": "uint256",
          "name": "amount",
          "type": "uint256"
        }
      ],
      "name": "undelegate",
      "outputs": [],
      "stateMutability": "nonpayable",
      "type": "function"
    },
    {
      "inputs": [
        {
          "internalType": "uint256",
          "name": "amount",
          "type": "uint256"
        }
      ],
      "name": "unstake",
      "outputs": [],
      "stateMutability": "nonpayable",
      "type": "function"
    },
    {
      "inputs": [
        {
          "internalType": "address",
          "name": "",
          "type": "address"
        }
      ],
      "name": "whitelist",
      "outputs": [
        {
          "internalType": "bool",
          "name": "",
          "type": "bool"
        }
      ],
      "stateMutability": "view",
      "type": "function"
    },
    {
      "inputs": [
        {
          "internalType": "address",
          "name": "to",
          "type": "address"
        }
      ],
      "name": "withdraw",
      "outputs": [],
      "stateMutability": "nonpayable",
      "type": "function"
    },
    {
      "inputs": [
        {
          "internalType": "address",
          "name": "account",
          "type": "address"
        }
      ],
      "name": "withdrawable",
      "outputs": [
        {
          "internalType": "uint256",
          "name": "amount",
          "type": "uint256"
        }
      ],
      "stateMutability": "view",
      "type": "function"
    }
  ],
  "bytecode": "0x608060405234801561001057600080fd5b5061354e806100206000396000f3fe6080604052600436106102515760003560e01c8063715018a611610139578063b986662c116100b6578063daacab091161007a578063daacab09146106dc578063e30c3978146106fc578063ea0fee4f1461071a578063eacdc5ff1461072f578063f2fde38b14610745578063f3f437031461076557600080fd5b8063b986662c14610605578063b9ed5eaa14610625578063c6b61e4c14610645578063ce513b6f1461069c578063d1e8507b146106bc57600080fd5b8063982ef0a7116100fd578063982ef0a71461057c5780639b19251a1461058f578063a211005b146105cf578063a90049d0146105e5578063ae97dde8146102ec57600080fd5b8063715018a6146104eb57806379ba5097146105005780638b0e9f3f146105155780638da5cb5b1461052a57806395b0b0271461055c57600080fd5b80633d6aa5e1116101d257806351cff8d91161019657806351cff8d91461042657806355f21eb7146104465780635689762f14610473578063572d356e14610493578063628da527146104a957806367da7817146104c957600080fd5b80633d6aa5e1146103735780633daef80d1461038f5780633fd50001146103a457806346df33d2146103c45780634d99dd161461040657600080fd5b80633107946c116102195780633107946c146102ec57806334f74d7614610301578063355e6b4314610335578063375b3c0a146103555780633a4b66f11461036b57600080fd5b806302985992146102565780631604e4161461027f5780631f6590b81461029557806328f73148146102b75780632e17de78146102cc575b600080fd5b34801561026257600080fd5b5061026c60055481565b6040519081526020015b60405180910390f35b34801561028b57600080fd5b5061026c60035481565b3480156102a157600080fd5b506102b56102b0366004612dc6565b610785565b005b3480156102c357600080fd5b5061026c6108f3565b3480156102d857600080fd5b506102b56102e7366004612e01565b6109bd565b3480156102f857600080fd5b5061026c606481565b34801561030d57600080fd5b5061026c7fbddc396dfed8423aa810557cfed0b5b9e7b7516dac77d0b0cdf3cfbca88518bc81565b34801561034157600080fd5b506102b5610350366004612e01565b610ad5565b34801561036157600080fd5b5061026c60045481565b6102b5610b75565b34801561037f57600080fd5b5061026c670de0b6b3a764000081565b34801561039b57600080fd5b506102b5610c47565b3480156103b057600080fd5b5061026c6103bf366004612e01565b610cb7565b3480156103d057600080fd5b506103e46103df366004612e01565b610cd8565b6040805182518152602080840151908201529181015190820152606001610276565b34801561041257600080fd5b506102b5610421366004612e3a565b610d50565b34801561043257600080fd5b506102b5610441366004612e66565b610e60565b34801561045257600080fd5b50610466610461366004612e66565b610f90565b6040516102769190612e8a565b34801561047f57600080fd5b5061026c61048e366004612ef4565b61102c565b34801561049f57600080fd5b5061026c60005481565b3480156104b557600080fd5b5061026c6104c4366004612ef4565b61104c565b3480156104d557600080fd5b506104de61107d565b6040516102769190612f2d565b3480156104f757600080fd5b506102b561108e565b34801561050c57600080fd5b506102b56110a2565b34801561052157600080fd5b50600b5461026c565b34801561053657600080fd5b5060aa546001600160a01b03165b6040516001600160a01b039091168152602001610276565b34801561056857600080fd5b50600654610544906001600160a01b031681565b6102b561058a366004612f88565b611119565b34801561059b57600080fd5b506105bf6105aa366004612e66565b60126020526000908152604090205460ff1681565b6040519015158152602001610276565b3480156105db57600080fd5b5061026c6101f481565b3480156105f157600080fd5b506102b5610600366004612f88565b611184565b34801561061157600080fd5b5061026c610620366004612e66565b611225565b34801561063157600080fd5b506104de610640366004612e01565b61123a565b34801561065157600080fd5b50610681610660366004612e01565b60116020526000908152604090208054600182015460029092015490919083565b60408051938452602084019290925290820152606001610276565b3480156106a857600080fd5b5061026c6106b7366004612e66565b611346565b3480156106c857600080fd5b5061026c6106d7366004612e01565b611374565b3480156106e857600080fd5b506102b56106f7366004613040565b61138b565b34801561070857600080fd5b5060dc546001600160a01b0316610544565b34801561072657600080fd5b5061026c600181565b34801561073b57600080fd5b5061026c60015481565b34801561075157600080fd5b506102b5610760366004612e66565b6115f0565b34801561077157600080fd5b5061026c610780366004612e66565b611661565b60065460405163ebbdac9160e01b815260009182916001600160a01b039091169063ebbdac91906107bf9087908790600790600401613128565b6040805180830381865afa1580156107db573d6000803e3d6000fd5b505050506040513d601f19601f820116820180604052508101906107ff919061316c565b9150915080801561080d5750815b6108525760405162461bcd60e51b8152602060048201526011602482015270494e56414c49445f5349474e415455524560781b60448201526064015b60405180910390fd5b6040805161014081019091526108ac9033908060c081018760048282608080828437600092018290525092845250506020820181905260408201819052606082018190526080820152600160a09091015260099190611688565b336001600160a01b03167fd4abe01038cf895b5ff0bc31bf5072f3a5cd606b82c2a8d2637f13c46294434f846040516108e5919061319b565b60405180910390a250505050565b6000806009600101546064111561090c57600a5461090f565b60645b90508060000361092157600091505090565b600061092d6009611a87565b905061093a600982611ae8565b5461094482610f90565b6020015161095291906131c0565b61095c90846131c0565b925060015b828110156109b757610974600983611b06565b9150610981600983611ae8565b5461098b83610f90565b6020015161099991906131c0565b6109a390856131c0565b9350806109af816131d3565b915050610961565b50505090565b60006109ca600e33611c08565b336000908152600c60205260409020600701546109e791906131ec565b905060006109f483611c65565b905081811315610a17576040516396906e6360e01b81526004016108499061320c565b6000610a238284613266565b905060045481128015610a3557508015155b15610a53576040516396906e6360e01b815260040161084990613286565b610a5b610c47565b610a7633610a6b846000196132d9565b600e91906000611c78565b80600003610a9957336000908152600c60205260409020600b01805460ff191690555b610aa33385611d8f565b60405184815233907f0f5bb82176feb1b5e747e28471aa92156a04d9f3ab9f45f28e2d704232b93f75906020016108e5565b610ade33610f90565b60a00151610b1a5760405163973d02cb60e01b8152602060048201526008602482015267282927ab24a222a960c11b6044820152606401610849565b6064811115610b605760405162461bcd60e51b815260206004820152601260248201527124a72b20a624a22fa1a7a6a6a4a9a9a4a7a760711b6044820152606401610849565b336000908152600c6020526040902060090155565b610b7e33610f90565b60a00151610bba5760405163973d02cb60e01b8152602060048201526008602482015267282927ab24a222a960c11b6044820152606401610849565b336000908152600c6020526040902060070154600454610bda82346131c0565b1015610bf9576040516396906e6360e01b815260040161084990613309565b610c01610c47565b610c0f600e33346000611c78565b60405134815233907f9e71bc8eea02a63969f509818f2dafb9254532904319f9dbda79b67bd34a5f3d9060200160405180910390a250565b336000908152600c60205260408120600a810154600390910191819003610c6c575050565b60006007830155610c7d3382611d8f565b60405181815233907ffa4564fbd335a94ce3643f49a8c2450e624a52749b31619b62e9861eead776b6906020015b60405180910390a25050565b60028181548110610cc757600080fd5b600091825260209091200154905081565b6040805160608101825260008082526020820181905291810182905290610d00600284611dfb565b905060116000610d118360016131c0565b81526020019081526020016000206040518060600160405290816000820154815260200160018201548152602001600282015481525050915050919050565b6000610d5d600984611ae8565b33600090815260058201602052604090205490915080831115610d93576040516396906e6360e01b815260040161084990613352565b610d9e823385611eb0565b6000610daa848361337c565b905060055481108015610dbc57508015155b15610dda576040516396906e6360e01b81526004016108499061338f565b610de5856000611184565b6000610df085611c65565b9050610e0e866000610e04846000196132d9565b600e929190611c78565b610e183386611d8f565b6040518581526001600160a01b0387169033907f4d10bd049775c77bd7f255195afba5088028ecb3c7c277d393ccff7934f2f92c9060200160405180910390a3505050505050565b610e68611f45565b6001600160a01b038116610e7e57610e7e6133ea565b3360009081526010602052604081206001549091908190610ea0908490611f9e565b80855560405182815291935091506001600160a01b0385169033907f2717ead6b9200dd235aad468c9809ea400fe33ac69b5bfaa6d3e90fc922b63989060200160405180910390a36000846001600160a01b03168360405160006040518083038185875af1925050503d8060008114610f35576040519150601f19603f3d011682016040523d82523d6000602084013e610f3a565b606091505b5050905080610f7f5760405162461bcd60e51b815260206004820152601160248201527015d2551211149055d05317d19052531151607a1b6044820152606401610849565b50505050610f8d6001604655565b50565b610f98612cdc565b6001600160a01b0382166000908152600c60205260409020600301604080516101408101909152908160c081018260048282826020028201915b815481526020019060010190808311610fd25750505091835250506004820154602082015260058201546040820152600682015460608201526007820154608082015260089091015460ff16151560a09091015292915050565b60006110438261103d600986611ae8565b90612017565b90505b92915050565b60006110438261105d600986611ae8565b906001600160a01b03166000908152600591909101602052604090205490565b6060611089606461123a565b905090565b611096612046565b6110a060006120a0565b565b60dc5433906001600160a01b031681146111105760405162461bcd60e51b815260206004820152602960248201527f4f776e61626c6532537465703a2063616c6c6572206973206e6f7420746865206044820152683732bb9037bbb732b960b91b6064820152608401610849565b610f8d816120a0565b6000611126600984611ae8565b600580543360009081529183016020526040909120549192509061114b9034906131c0565b101561116a576040516396906e6360e01b815260040161084990613400565b6111748383611184565b61117f3384346120b9565b505050565b6000611191600984611ae8565b9050600061119f823361217f565b9050806000036111af5750505050565b82156111c5576111c03385836120b9565b6111cf565b6111cf3382611d8f565b821515846001600160a01b0316336001600160a01b03167f6b2cd13395c5d2d1f95934a6a8f884d2cb71e846eb99d6759f7e6a39c060b2d08460405161121791815260200190565b60405180910390a450505050565b600061123082610f90565b6080015192915050565b6060600060096001015483111561125357600a54611255565b825b905060008167ffffffffffffffff81111561127257611272613451565b60405190808252806020026020018201604052801561129b578160200160208202803683370190505b509050816000036112ad579392505050565b60006112b96009611a87565b905080826000815181106112cf576112cf613467565b6001600160a01b039092166020928302919091019091015260015b8381101561133c576112fd600983611b06565b91508183828151811061131257611312613467565b6001600160a01b039092166020928302919091019091015280611334816131d3565b9150506112ea565b5090949350505050565b6001546001600160a01b0382166000908152601060205260408120909161136d9190611f9e565b5092915050565b6007816002811061138457600080fd5b0154905081565b604554610100900460ff16158080156113ab5750604554600160ff909116105b806113c55750303b1580156113c5575060455460ff166001145b6114285760405162461bcd60e51b815260206004820152602e60248201527f496e697469616c697a61626c653a20636f6e747261637420697320616c72656160448201526d191e481a5b9a5d1a585b1a5e995960921b6064820152608401610849565b6045805460ff19166001179055801561144b576045805461ff0019166101001790555b6001805560608b0135600055611460826120a0565b6114686121c6565b8a3560035560208b013560045560408b013560055560005b898110156115735760006040518060c001604052808b8b858181106114a7576114a7613467565b9050608002016004806020026040519081016040528092919082600460200280828437600092019190915250505081526020018989858181106114ec576114ec613467565b90506020020135815260200189898581811061150a5761150a613467565b90506020020135815260200160008152602001600081526020016001151581525090506115608c8c8481811061154257611542613467565b90506020020160208101906115579190612e66565b60099083611688565b508061156b816131d3565b915050611480565b50600680546001600160a01b0319166001600160a01b03861617905561159c6007846002612d1a565b5080156115e3576045805461ff0019169055604051600181527f7f26b83ff96e1f2b6a682f133852f6798a09c465da95921460cefb38474024989060200160405180910390a15b5050505050505050505050565b6115f8612046565b60dc80546001600160a01b0383166001600160a01b0319909116811790915561162960aa546001600160a01b031690565b6001600160a01b03167f38d16b8cac22d99fc7c124b9cd0de2d3fa1faef420bfe791d8c362d765e2270060405160405180910390a350565b6001546001600160a01b0382166000908152601060205260408120909161104691906121f5565b6001600160a01b03821661169e5761169e6133ea565b8060200151816040015110156116b6576116b66133ea565b6116c08383612279565b156116e95760405163cda981d560e01b81526001600160a01b0383166004820152602401610849565b806020015160000361176f576001600160a01b0382166000908152600380850160205260409091208251839291909101906117279082906004612d54565b506020820151600482015560408201516005820155606082015160068201556080820151600782015560a0909101516008909101805460ff1916911515919091179055505050565b82546000906001600160a01b03165b6001600160a01b03811615611806576001600160a01b0381166000908152600386016020526040908190206008015490840151919250829110156117e1576001600160a01b0390811660009081526003860160205260409020600101541661177e565b6001600160a01b0390811660009081526003860160205260409020600201541661177e565b6040518060a00160405280836001600160a01b0316815260200160006001600160a01b0316815260200160006001600160a01b0316815260200160011515815260200184815250856003016000866001600160a01b03166001600160a01b0316815260200190815260200160002060008201518160000160006101000a8154816001600160a01b0302191690836001600160a01b0316021790555060208201518160010160006101000a8154816001600160a01b0302191690836001600160a01b0316021790555060408201518160020160006101000a8154816001600160a01b0302191690836001600160a01b0316021790555060608201518160020160146101000a81548160ff02191690831515021790555060808201518160030160008201518160000190600461193b929190612d54565b506020820151600482015560408201516005820155606082015160068201556080820151600782015560a0909101516008909101805460ff191691151591909117905550506001600160a01b0382166119ac5784546001600160a01b0319166001600160a01b038516178555611a42565b6001600160a01b03821660009081526003860160205260409081902060080154908401511015611a0e576001600160a01b038281166000908152600387016020526040902060010180546001600160a01b031916918616919091179055611a42565b6001600160a01b038281166000908152600387016020526040902060020180546001600160a01b0319169186169190911790555b611a4c85856122ca565b600185018054906000611a5e836131d3565b91905055508260200151856002016000828254611a7b91906131c0565b90915550505050505050565b80546001600160a01b03168015611ae3575b6001600160a01b0381811660009081526003840160205260409020600201541615611ae3576001600160a01b03908116600090815260038301602052604090206002015416611a99565b919050565b6001600160a01b031660009081526004919091016020526040902090565b60006001600160a01b038216611b2f576040516365e52d5160e11b815260040160405180910390fd5b6001600160a01b0382811660009081526003850160205260409020600101541615611b86576001600160a01b038083166000908152600385016020526040902060010154611b7f91859116612617565b9050611046565b506001600160a01b038082166000908152600384016020526040902054165b6001600160a01b03811615801590611bde57506001600160a01b0380821660009081526003850160205260409020600101548382169116145b15611046576001600160a01b03808216600090815260038501602052604090205491925016611ba5565b6001600160a01b038116600090815260208390526040812054611c2d57506000611046565b82600101611c3b848461266d565b81548110611c4b57611c4b613467565b906000526020600020906003020160010154905092915050565b60008181811215611046576110466133ea565b6001600160a01b03831660009081526020859052604081205490819003611d2257600180860154611ca8916131c0565b6001600160a01b0385811660008181526020898152604080832086905580516060810182529384528382018981529084018881526001808d0180548083018255908652939094209451600390930290940180546001600160a01b031916929095169190911784555190830155516002909101559050611d88565b600085600101611d32878761266d565b81548110611d4257611d42613467565b9060005260206000209060030201905083816001016000828254611d6691906131ec565b9250508190555082816002016000828254611d8191906131ec565b9091555050505b5050505050565b611dc08160018054611da191906131c0565b6001600160a01b038516600090815260106020526040902091906126a1565b816001600160a01b03167f655c1cd0236fb6dc4916f34c8ff10e3b18fcaea5b344dfc16c36fbb1bdfc5df282604051610cab91815260200190565b81546000908103611e0e57506000611046565b82546000905b80821015611e5b576000611e2883836127c7565b60008781526020902090915085908201541115611e4757809150611e55565b611e528160016131c0565b92505b50611e14565b600082118015611e87575083611e8486611e7660018661337c565b600091825260209091200190565b54145b15611ea057611e9760018361337c565b92505050611046565b509050611046565b505092915050565b6001600160a01b038216600090815260058401602052604081208054839290611eda90849061337c565b9091555050825481908490600090611ef390849061337c565b90915550506001830154611f1190611f0c90839061347d565b611c65565b6001600160a01b038316600090815260038501602052604081208054909190611f3b9084906131ec565b9091555050505050565b600260465403611f975760405162461bcd60e51b815260206004820152601f60248201527f5265656e7472616e637947756172643a207265656e7472616e742063616c6c006044820152606401610849565b6002604655565b81546000905b836001015481101561200957600081815260028501602090815260409182902082518084019093528054835260010154908201819052841015611fe75750612009565b8051611ff390846131c0565b9250508080612001906131d3565b915050611fa4565b9250929050565b6001604655565b6001600160a01b038116600090815260048301602052604081205461203c84846127e2565b611043919061337c565b60aa546001600160a01b031633146110a05760405162461bcd60e51b815260206004820181905260248201527f4f776e61626c653a2063616c6c6572206973206e6f7420746865206f776e65726044820152606401610849565b60dc80546001600160a01b0319169055610f8d81612861565b6120c282610f90565b60a001516121075760405163973d02cb60e01b815260206004820152601160248201527024a72b20a624a22fab20a624a220aa27a960791b6044820152606401610849565b612116826000610e0484611c65565b61212d8382612126600986611ae8565b91906128b3565b816001600160a01b0316836001600160a01b03167fe5541a6b6103d4fa7e021ed54fad39c66f27a76bd13d374cf6240ae6bd0bb72b8360405161217291815260200190565b60405180910390a3505050565b600061218b8383612017565b6001600160a01b03831660009081526004850160205260408120805492935083929091906121ba9084906131c0565b90915550909392505050565b604554610100900460ff166121ed5760405162461bcd60e51b815260040161084990613494565b6110a0612939565b60008060018460010154612209919061337c565b90505b8354811061136d57600081815260028501602090815260409182902082518084019093528054835260010154908201819052841061224a575061136d565b805161225690846131c0565b925081600003612266575061136d565b5080612271816134df565b91505061220c565b60006001600160a01b03821615801590611043575082546001600160a01b03838116911614806110435750506001600160a01b03908116600090815260039290920160205260409091205416151590565b60005b82546001600160a01b0383811691161480159061231757506001600160a01b0382811660009081526003850160205260408082205490921681522060020154600160a01b900460ff165b156125e9576001600160a01b0380831660009081526003850160205260408082205483168083528183205484168352912060010154909116810361249f576001600160a01b0381811660009081526003860160205260408082205483168252808220600290810154909316808352912090910154909250600160a01b900460ff1615612400576001600160a01b0380821660008181526003870160205260408082206002808201805460ff60a01b1990811690915588871685528385208201805482169055825487168552928420018054909216600160a01b17909155919052541692506125e3565b6001600160a01b038082166000908152600386016020526040902060020154811690841603612436578092506124368484612960565b506001600160a01b0380831660009081526003850160205260408082205483168083528183206002808201805460ff60a01b19908116909155825487168652938520018054909316600160a01b179092559182905254909161249a91869116612b13565b6125e3565b6001600160a01b03818116600090815260038601602052604080822054831682528082206001015490921680825291902060020154909250600160a01b900460ff1615612549576001600160a01b0380821660008181526003870160205260408082206002808201805460ff60a01b1990811690915588871685528385208201805482169055825487168552928420018054909216600160a01b17909155919052541692506125e3565b6001600160a01b03808216600090815260038601602052604090206001015481169084160361257f5780925061257f8484612b13565b506001600160a01b0380831660009081526003850160205260408082205483168083528183206002808201805460ff60a01b19908116909155825487168652938520018054909316600160a01b17909255918290525490916125e391869116612960565b506122cd565b505080546001600160a01b03166000908152600390910160205260409020600201805460ff60a01b19169055565b60005b6001600160a01b0382811660009081526003850160205260409020600201541615612667576001600160a01b0391821660009081526003840160205260409020600201549091169061261a565b50919050565b6001600160a01b03811660009081526020839052604081205490819003612696576126966133ea565b61104360018261337c565b816000036126b1576126b16133ea565b82546001840154818103612708576040805180820182528581526020808201868152600085815260028a0190925292812091518255915160019182015586018054916126fc836131d3565b91905055505050505050565b6000600286018161271a60018561337c565b81526020019081526020016000206001015490508084101561273e5761273e6133ea565b8381101561278d576040805180820182528681526020808201878152600086815260028b019092529281209151825591516001918201558701805491612783836131d3565b91905055506127bf565b8460028701600061279f60018661337c565b81526020019081526020016000206000016000828254611d8191906131c0565b505050505050565b60006127d660028484186134f6565b611043908484166131c0565b6001600160a01b03811660009081526005830160205260408120546001840154829161281291611f0c919061347d565b6001600160a01b0384166000908152600386016020526040812054919250906128449061283f90846131ec565b612cc6565b9050612858670de0b6b3a7640000826134f6565b95945050505050565b60aa80546001600160a01b038381166001600160a01b0319831681179093556040519116919082907f8be0079c531659141344cd1fd0a4f28419497f9722a3daafe3b4186f6b6457e090600090a35050565b6001600160a01b0382166000908152600584016020526040812080548392906128dd9084906131c0565b90915550508254819084906000906128f69084906131c0565b9091555050600183015461290f90611f0c90839061347d565b6001600160a01b038316600090815260038501602052604081208054909190611f3b908490613266565b604554610100900460ff166120105760405162461bcd60e51b815260040161084990613494565b6001600160a01b038082166000818152600385016020526040808220600281018054915482871680865293852060010154959094526001600160a01b0319909116938516938417905592169080156129e3576001600160a01b038181166000908152600387016020526040902080546001600160a01b0319169186169190911790555b6001600160a01b038381166000908152600387016020526040902080546001600160a01b0319169184169182179055612a345784546001600160a01b0319166001600160a01b038416178555612ac9565b6001600160a01b038083166000908152600387016020526040902060010154811690851603612a95576001600160a01b038281166000908152600387016020526040902060010180546001600160a01b031916918516919091179055612ac9565b6001600160a01b038281166000908152600387016020526040902060020180546001600160a01b0319169185169190911790555b50506001600160a01b039081166000818152600390940160205260408085206001018054939094166001600160a01b03199384168117909455928452919092208054909216179055565b6001600160a01b038082166000818152600385016020526040808220600181018054915482871680865293852060020154959094526001600160a01b031990911693851693841790559216908015612b96576001600160a01b038181166000908152600387016020526040902080546001600160a01b0319169186169190911790555b6001600160a01b038381166000908152600387016020526040902080546001600160a01b0319169184169182179055612be75784546001600160a01b0319166001600160a01b038416178555612c7c565b6001600160a01b038083166000908152600387016020526040902060020154811690851603612c48576001600160a01b038281166000908152600387016020526040902060020180546001600160a01b031916918516919091179055612c7c565b6001600160a01b038281166000908152600387016020526040902060010180546001600160a01b0319169185169190911790555b50506001600160a01b039081166000818152600390940160205260408085206002018054939094166001600160a01b03199384168117909455928452919092208054909216179055565b600080821215612cd857612cd86133ea565b5090565b6040518060c00160405280612cef612d82565b8152602001600081526020016000815260200160008152602001600081526020016000151581525090565b8260028101928215612d48579160200282015b82811115612d48578235825591602001919060010190612d2d565b50612cd8929150612da0565b8260048101928215612d48579160200282015b82811115612d48578251825591602001919060010190612d67565b60405180608001604052806004906020820280368337509192915050565b5b80821115612cd85760008155600101612da1565b806040810183101561104657600080fd5b60008060c08385031215612dd957600080fd5b612de38484612db5565b91508360c084011115612df557600080fd5b50926040919091019150565b600060208284031215612e1357600080fd5b5035919050565b6001600160a01b0381168114610f8d57600080fd5b8035611ae381612e1a565b60008060408385031215612e4d57600080fd5b8235612e5881612e1a565b946020939093013593505050565b600060208284031215612e7857600080fd5b8135612e8381612e1a565b9392505050565b81516101208201908260005b6004811015612eb5578251825260209283019290910190600101612e96565b50505060208301516080830152604083015160a0830152606083015160c0830152608083015160e083015260a083015161136d61010084018215159052565b60008060408385031215612f0757600080fd5b8235612f1281612e1a565b91506020830135612f2281612e1a565b809150509250929050565b6020808252825182820181905260009190848201906040850190845b81811015612f6e5783516001600160a01b031683529284019291840191600101612f49565b50909695505050505050565b8015158114610f8d57600080fd5b60008060408385031215612f9b57600080fd5b8235612fa681612e1a565b91506020830135612f2281612f7a565b60008083601f840112612fc857600080fd5b50813567ffffffffffffffff811115612fe057600080fd5b6020830191508360208260051b850101111561200957600080fd5b60008083601f84011261300d57600080fd5b50813567ffffffffffffffff81111561302557600080fd5b6020830191508360208260071b850101111561200957600080fd5b6000806000806000806000806000808a8c0361016081121561306157600080fd5b608081121561306f57600080fd5b508a995060808b013567ffffffffffffffff8082111561308e57600080fd5b61309a8e838f01612fb6565b909b50995060a08d01359150808211156130b357600080fd5b6130bf8e838f01612ffb565b909950975060c08d01359150808211156130d857600080fd5b506130e58d828e01612fb6565b90965094506130f8905060e08c01612e2f565b92506131088c6101008d01612db5565b91506131176101408c01612e2f565b90509295989b9194979a5092959850565b61010081016040858337608084604084013760c082018360005b6002811015613161578154835260209092019160019182019101613142565b505050949350505050565b6000806040838503121561317f57600080fd5b825161318a81612f7a565b6020840151909250612f2281612f7a565b60808181019083833792915050565b634e487b7160e01b600052601160045260246000fd5b80820180821115611046576110466131aa565b6000600182016131e5576131e56131aa565b5060010190565b8082018281126000831280158216821582161715611ea857611ea86131aa565b604081526000613233604083016007815266756e7374616b6560c81b602082015260400190565b8281036020840152612e83816014815273494e53554646494349454e545f42414c414e434560601b602082015260400190565b818103600083128015838313168383128216171561136d5761136d6131aa565b6040815260006132ad604083016007815266756e7374616b6560c81b602082015260400190565b8281036020840152612e8381600d81526c5354414b455f544f4f5f4c4f5760981b602082015260400190565b80820260008212600160ff1b841416156132f5576132f56131aa565b8181058314821517611046576110466131aa565b6040815260056040820152647374616b6560d81b606082015260806020820152600061104660808301600d81526c5354414b455f544f4f5f4c4f5760981b602082015260400190565b60408152600061323360408301600a815269756e64656c656761746560b01b602082015260400190565b81810381811115611046576110466131aa565b6040815260006133b960408301600a815269756e64656c656761746560b01b602082015260400190565b8281036020840152612e8381601281527144454c45474154494f4e5f544f4f5f4c4f5760701b602082015260400190565b634e487b7160e01b600052600160045260246000fd5b60408152600860408201526764656c656761746560c01b606082015260806020820152600061104660808301601281527144454c45474154494f4e5f544f4f5f4c4f5760701b602082015260400190565b634e487b7160e01b600052604160045260246000fd5b634e487b7160e01b600052603260045260246000fd5b8082028115828204841417611046576110466131aa565b6020808252602b908201527f496e697469616c697a61626c653a20636f6e7472616374206973206e6f74206960408201526a6e697469616c697a696e6760a81b606082015260800190565b6000816134ee576134ee6131aa565b506000190190565b60008261351357634e487b7160e01b600052601260045260246000fd5b50049056fea2646970667358221220f050eca5606301c43692ef9ed82d5358eb69547d6caa9465ee1c5d36d540490264736f6c63430008110033",
  "linkReferences": {},
  "deployedLinkReferences": {}
}