{
  "_format": "hh-sol-artifact-1",
  "contractName": "CheckpointManager",
  "sourceName": "contracts/root/CheckpointManager.sol",
  "abi": [
    {
      "anonymous": false,
      "inputs": [
        {
          "indexed": false,
          "internalType": "uint8",
          "name": "version",
          "type": "uint8"
        }
      ],
      "name": "Initialized",
      "type": "event"
    },
    {
      "inputs": [],
      "name": "bls",
      "outputs": [
        {
          "internalType": "contract IBLS",
          "name": "",
          "type": "address"
        }
      ],
      "stateMutability": "view",
      "type": "function"
    },
    {
      "inputs": [],
      "name": "bn256G2",
      "outputs": [
        {
          "internalType": "contract IBN256G2",
          "name": "",
          "type": "address"
        }
      ],
      "stateMutability": "view",
      "type": "function"
    },
    {
      "inputs": [
        {
          "internalType": "uint256",
          "name": "",
          "type": "uint256"
        }
      ],
      "name": "checkpointBlockNumbers",
      "outputs": [
        {
          "internalType": "uint256",
          "name": "",
          "type": "uint256"
        }
      ],
      "stateMutability": "view",
      "type": "function"
    },
    {
      "inputs": [
        {
          "internalType": "uint256",
          "name": "",
          "type": "uint256"
        }
      ],
      "name": "checkpoints",
      "outputs": [
        {
          "internalType": "uint256",
          "name": "epoch",
          "type": "uint256"
        },
        {
          "internalType": "uint256",
          "name": "blockNumber",
          "type": "uint256"
        },
        {
          "internalType": "bytes32",
          "name": "eventRoot",
          "type": "bytes32"
        }
      ],
      "stateMutability": "view",
      "type": "function"
    },
    {
      "inputs": [],
      "name": "currentCheckpointBlockNumber",
      "outputs": [
        {
          "internalType": "uint256",
          "name": "",
          "type": "uint256"
        }
      ],
      "stateMutability": "view",
      "type": "function"
    },
    {
      "inputs": [],
      "name": "currentEpoch",
      "outputs": [
        {
          "internalType": "uint256",
          "name": "",
          "type": "uint256"
        }
      ],
      "stateMutability": "view",
      "type": "function"
    },
    {
      "inputs": [
        {
          "internalType": "uint256",
          "name": "",
          "type": "uint256"
        }
      ],
      "name": "currentValidatorSet",
      "outputs": [
        {
          "internalType": "address",
          "name": "_address",
          "type": "address"
        },
        {
          "internalType": "uint256",
          "name": "votingPower",
          "type": "uint256"
        }
      ],
      "stateMutability": "view",
      "type": "function"
    },
    {
      "inputs": [],
      "name": "currentValidatorSetHash",
      "outputs": [
        {
          "internalType": "bytes32",
          "name": "",
          "type": "bytes32"
        }
      ],
      "stateMutability": "view",
      "type": "function"
    },
    {
      "inputs": [],
      "name": "currentValidatorSetLength",
      "outputs": [
        {
          "internalType": "uint256",
          "name": "",
          "type": "uint256"
        }
      ],
      "stateMutability": "view",
      "type": "function"
    },
    {
      "inputs": [],
      "name": "domain",
      "outputs": [
        {
          "internalType": "bytes32",
          "name": "",
          "type": "bytes32"
        }
      ],
      "stateMutability": "view",
      "type": "function"
    },
    {
      "inputs": [
        {
          "internalType": "uint256",
          "name": "blockNumber",
          "type": "uint256"
        },
        {
          "internalType": "bytes32",
          "name": "leaf",
          "type": "bytes32"
        },
        {
          "internalType": "uint256",
          "name": "leafIndex",
          "type": "uint256"
        },
        {
          "internalType": "bytes32[]",
          "name": "proof",
          "type": "bytes32[]"
        }
      ],
      "name": "getEventMembershipByBlockNumber",
      "outputs": [
        {
          "internalType": "bool",
          "name": "",
          "type": "bool"
        }
      ],
      "stateMutability": "view",
      "type": "function"
    },
    {
      "inputs": [
        {
          "internalType": "uint256",
          "name": "epoch",
          "type": "uint256"
        },
        {
          "internalType": "bytes32",
          "name": "leaf",
          "type": "bytes32"
        },
        {
          "internalType": "uint256",
          "name": "leafIndex",
          "type": "uint256"
        },
        {
          "internalType": "bytes32[]",
          "name": "proof",
          "type": "bytes32[]"
        }
      ],
      "name": "getEventMembershipByEpoch",
      "outputs": [
        {
          "internalType": "bool",
          "name": "",
          "type": "bool"
        }
      ],
      "stateMutability": "view",
      "type": "function"
    },
    {
      "inputs": [
        {
          "internalType": "uint256",
          "name": "blockNumber",
          "type": "uint256"
        }
      ],
      "name": "getEventRootByBlock",
      "outputs": [
        {
          "internalType": "bytes32",
          "name": "",
          "type": "bytes32"
        }
      ],
      "stateMutability": "view",
      "type": "function"
    },
    {
      "inputs": [
        {
          "internalType": "contract IBLS",
          "name": "newBls",
          "type": "address"
        },
        {
          "internalType": "contract IBN256G2",
          "name": "newBn256G2",
          "type": "address"
        },
        {
          "internalType": "bytes32",
          "name": "newDomain",
          "type": "bytes32"
        },
        {
          "components": [
            {
              "internalType": "address",
              "name": "_address",
              "type": "address"
            },
            {
              "internalType": "uint256[4]",
              "name": "blsKey",
              "type": "uint256[4]"
            },
            {
              "internalType": "uint256",
              "name": "votingPower",
              "type": "uint256"
            }
          ],
          "internalType": "struct ICheckpointManager.Validator[]",
          "name": "newValidatorSet",
          "type": "tuple[]"
        }
      ],
      "name": "initialize",
      "outputs": [],
      "stateMutability": "nonpayable",
      "type": "function"
    },
    {
      "inputs": [
        {
          "internalType": "uint256",
          "name": "chainId",
          "type": "uint256"
        },
        {
          "components": [
            {
              "internalType": "bytes32",
              "name": "blockHash",
              "type": "bytes32"
            },
            {
              "internalType": "uint256",
              "name": "blockRound",
              "type": "uint256"
            },
            {
              "internalType": "bytes32",
              "name": "currentValidatorSetHash",
              "type": "bytes32"
            }
          ],
          "internalType": "struct ICheckpointManager.CheckpointMetadata",
          "name": "checkpointMetadata",
          "type": "tuple"
        },
        {
          "components": [
            {
              "internalType": "uint256",
              "name": "epoch",
              "type": "uint256"
            },
            {
              "internalType": "uint256",
              "name": "blockNumber",
              "type": "uint256"
            },
            {
              "internalType": "bytes32",
              "name": "eventRoot",
              "type": "bytes32"
            }
          ],
          "internalType": "struct ICheckpointManager.Checkpoint",
          "name": "checkpoint",
          "type": "tuple"
        },
        {
          "internalType": "uint256[2]",
          "name": "signature",
          "type": "uint256[2]"
        },
        {
          "components": [
            {
              "internalType": "address",
              "name": "_address",
              "type": "address"
            },
            {
              "internalType": "uint256[4]",
              "name": "blsKey",
              "type": "uint256[4]"
            },
            {
              "internalType": "uint256",
              "name": "votingPower",
              "type": "uint256"
            }
          ],
          "internalType": "struct ICheckpointManager.Validator[]",
          "name": "newValidatorSet",
          "type": "tuple[]"
        },
        {
          "internalType": "bytes",
          "name": "bitmap",
          "type": "bytes"
        }
      ],
      "name": "submit",
      "outputs": [],
      "stateMutability": "nonpayable",
      "type": "function"
    },
    {
      "inputs": [],
      "name": "totalVotingPower",
      "outputs": [
        {
          "internalType": "uint256",
          "name": "",
          "type": "uint256"
        }
      ],
      "stateMutability": "view",
      "type": "function"
    }
  ],
  "bytecode": "0x608060405234801561001057600080fd5b506115fd806100206000396000f3fe608060405234801561001057600080fd5b50600436106101005760003560e01c806395b0b02711610097578063d4c8e3e811610066578063d4c8e3e814610274578063e416d67714610287578063e9193d2b14610290578063f896f1a5146102a357600080fd5b806395b0b027146101e3578063b8a242521461020e578063bb1853ca14610258578063c2fb26a61461026b57600080fd5b8063671b3793116100d3578063671b37931461016c5780636969a25c14610175578063729e7c6e146101c757806376671808146101da57600080fd5b80631d1d4f26146101055780633569ed93146101215780635036759a1461013457806361a0220814610149575b600080fd5b61010e60025481565b6040519081526020015b60405180910390f35b61010e61012f366004610f13565b6102ac565b610147610142366004610f90565b6102e0565b005b61015c610157366004611003565b610437565b6040519015158152602001610118565b61010e60045481565b6101a8610183366004610f13565b600960205260009081526040902080546005909101546001600160a01b039091169082565b604080516001600160a01b039093168352602083019190915201610118565b61015c6101d5366004611003565b6104aa565b61010e60015481565b6006546101f6906001600160a01b031681565b6040516001600160a01b039091168152602001610118565b61023d61021c366004610f13565b60086020526000908152604090208054600182015460029092015490919083565b60408051938452602084019290925290820152606001610118565b6101476102663660046110ab565b610509565b61010e60055481565b6007546101f6906001600160a01b031681565b61010e60035481565b61010e61029e366004610f13565b610774565b61010e600b5481565b60006008816102bc600a85610795565b6102c79060016111a3565b8152602001908152602001600020600201549050919050565b600054610100900460ff16158080156103005750600054600160ff909116105b8061031a5750303b15801561031a575060005460ff166001145b6103825760405162461bcd60e51b815260206004820152602e60248201527f496e697469616c697a61626c653a20636f6e747261637420697320616c72656160448201526d191e481a5b9a5d1a585b1a5e995960921b60648201526084015b60405180910390fd5b6000805460ff1916600117905580156103a5576000805461ff0019166101001790555b600680546001600160a01b038089166001600160a01b0319928316179092556007805492881692909116919091179055600584905560028290556103e98383610844565b801561042f576000805461ff0019169055604051600181527f7f26b83ff96e1f2b6a682f133852f6798a09c465da95921460cefb38474024989060200160405180910390a15b505050505050565b600080610443876102ac565b9050806104925760405162461bcd60e51b815260206004820152601e60248201527f4e4f5f4556454e545f524f4f545f464f525f424c4f434b5f4e554d42455200006044820152606401610379565b61049f868683878761094a565b979650505050505050565b600085815260086020526040812060020154806104925760405162461bcd60e51b815260206004820152601760248201527f4e4f5f4556454e545f524f4f545f464f525f45504f43480000000000000000006044820152606401610379565b8660400135600b541461055e5760405162461bcd60e51b815260206004820152601a60248201527f494e56414c49445f56414c494441544f525f5345545f484153480000000000006044820152606401610379565b600088876020013589600001358a602001358a600001358b604001358d604001358b8b6040516020016105929291906111b6565b60408051601f198184030181528282528051602091820120908301999099528101969096526060860194909452608085019290925260a084015260c083015260e08201526101008101919091526101200160408051601f198184030181528282528051602091820120908301520160408051601f198184030181529082905260065460055463a850a90960e01b8452919350610691926001600160a01b039091169163a850a9099161064991908690600401611219565b6040805180830381865afa158015610665573d6000803e3d6000fd5b505050506040513d601f19601f82011682018060405250810190610689919061126f565b878585610a63565b60018054600091826106a2836112fd565b9190505590506106b28189610da3565b8735600081815260086020908152604091829020838155908b01356001820155908a013560029091015581101561072257600a805460018101825560009190915260208901357fc65a7bb8d6351c1cf70c95a316cc6a92839c986682d98bc35f958f4883f9d2a890910155610756565b600a805460208a0135919061073990600190611316565b8154811061074957610749611329565b6000918252602090912001555b60208801356003556107688686610844565b50505050505050505050565b600a818154811061078457600080fd5b600091825260209091200154905081565b815460009081036107a85750600061083e565b82546000905b808210156107f55760006107c28383610e6a565b600087815260209020909150859082015411156107e1578091506107ef565b6107ec8160016111a3565b92505b506107ae565b60008211801561082157508361081e86610810600186611316565b600091825260209091200190565b54145b1561083a57610831600183611316565b9250505061083e565b5090505b92915050565b6002819055604051819061085e90849083906020016111b6565b60408051601f198184030181529190528051602090910120600b556000805b8281101561094157600085858381811061089957610899611329565b905060c0020160a001359050600081116108e95760405162461bcd60e51b8152602060048201526011602482015270564f54494e475f504f5745525f5a45524f60781b6044820152606401610379565b6108f381846111a3565b925085858381811061090757610907611329565b905060c0020160096000848152602001908152602001600020818161092c9190611356565b905050508061093a906112fd565b905061087d565b50600455505050565b600081610958816002611499565b861061099b5760405162461bcd60e51b81526020600482015260126024820152710929cac82989288be988a828cbe929c888ab60731b6044820152606401610379565b8660005b82811015610a555760008686838181106109bb576109bb611329565b9050602002013590506002896109d191906114bb565b600003610a09576040805160208101859052908101829052606001604051602081830303815290604052805190602001209250610a36565b60408051602081018390529081018490526060016040516020818303038152906040528051906020012092505b610a4160028a6114cf565b98505080610a4e906112fd565b905061099f565b509094149695505050505050565b600254610a6e610ef5565b6000805b83811015610c1957610a85868683610e8c565b15610c115781600003610ad9576000818152600960205260409081902081516080810190925260010160048282826020028201915b815481526020019060010190808311610aba5750505050509250610bf2565b60008181526009602052604080822081516080810190925260010160048282826020028201915b815481526020019060010190808311610b0057505060075488516020808b01516040808d01516060808f01518b51958c0151848d0151928d01519451630cbe96a560e41b81526004810198909852602488019590955260448701929092526064860191909152608485019390935260a484019190915260c483019190915260e48201529495506001600160a01b03169363cbe96a50935061010401915050608060405180830381865afa158015610bbb573d6000803e3d6000fd5b505050506040513d601f19601f82011682018060405250810190610bdf91906114e3565b6060880152604087015260208601528452505b600081815260096020526040902060050154610c0e90836111a3565b91505b600101610a72565b5080600003610c5c5760405162461bcd60e51b815260206004820152600f60248201526e4249544d41505f49535f454d50545960881b6044820152606401610379565b60036004546002610c6d919061133f565b610c7791906114cf565b8111610cc55760405162461bcd60e51b815260206004820152601960248201527f494e53554646494349454e545f564f54494e475f504f574552000000000000006044820152606401610379565b60065460405163ebbdac9160e01b815260009182916001600160a01b039091169063ebbdac9190610cfe908b9088908e90600401611519565b6040805180830381865afa158015610d1a573d6000803e3d6000fd5b505050506040513d601f19601f82011682018060405250810190610d3e9190611594565b91509150818015610d4c5750805b610d985760405162461bcd60e51b815260206004820152601d60248201527f5349474e41545552455f564552494649434154494f4e5f4641494c45440000006044820152606401610379565b505050505050505050565b600082815260086020908152604091829020825160608101845281548082526001830154938201939093526002909101549281019290925282351015610e1b5760405162461bcd60e51b815260206004820152600d60248201526c0929cac82989288be8aa09e869609b1b6044820152606401610379565b8060200151826020013511610e655760405162461bcd60e51b815260206004820152601060248201526f115354151657d0d21150d2d413d2539560821b6044820152606401610379565b505050565b6000610e7960028484186114cf565b610e85908484166111a3565b9392505050565b600080610e9a6008846114cf565b90506000610ea96008856114bb565b9050848210610ebd57600092505050610e85565b6000600160ff83161b878785818110610ed857610ed8611329565b9050013560f81c60f81b60f81c60ff161611925050509392505050565b60405180608001604052806004906020820280368337509192915050565b600060208284031215610f2557600080fd5b5035919050565b6001600160a01b0381168114610f4157600080fd5b50565b60008083601f840112610f5657600080fd5b50813567ffffffffffffffff811115610f6e57600080fd5b60208301915083602060c083028501011115610f8957600080fd5b9250929050565b600080600080600060808688031215610fa857600080fd5b8535610fb381610f2c565b94506020860135610fc381610f2c565b935060408601359250606086013567ffffffffffffffff811115610fe657600080fd5b610ff288828901610f44565b969995985093965092949392505050565b60008060008060006080868803121561101b57600080fd5b853594506020860135935060408601359250606086013567ffffffffffffffff8082111561104857600080fd5b818801915088601f83011261105c57600080fd5b81358181111561106b57600080fd5b8960208260051b850101111561108057600080fd5b9699959850939650602001949392505050565b6000606082840312156110a557600080fd5b50919050565b600080600080600080600080610160898b0312156110c857600080fd5b883597506110d98a60208b01611093565b96506110e88a60808b01611093565b955061012089018a8111156110fc57600080fd5b60e08a0195503567ffffffffffffffff8082111561111957600080fd5b6111258c838d01610f44565b90965094506101408b013591508082111561113f57600080fd5b818b0191508b601f83011261115357600080fd5b81358181111561116257600080fd5b8c602082850101111561117457600080fd5b6020830194508093505050509295985092959890939650565b634e487b7160e01b600052601160045260246000fd5b8082018082111561083e5761083e61118d565b60208082528181018390526000908460408401835b8681101561120e5782356111de81610f2c565b6001600160a01b0316825260808385018584013760a0838101359083015260c092830192909101906001016111cb565b509695505050505050565b82815260006020604081840152835180604085015260005b8181101561124d57858101830151858201606001528201611231565b506000606082860101526060601f19601f830116850101925050509392505050565b60006040828403121561128157600080fd5b82601f83011261129057600080fd5b6040516040810181811067ffffffffffffffff821117156112c157634e487b7160e01b600052604160045260246000fd5b80604052508060408401858111156112d857600080fd5b845b818110156112f25780518352602092830192016112da565b509195945050505050565b60006001820161130f5761130f61118d565b5060010190565b8181038181111561083e5761083e61118d565b634e487b7160e01b600052603260045260246000fd5b808202811582820484141761083e5761083e61118d565b813561136181610f2c565b81546001600160a01b0319166001600160a01b0391909116178155602082810160005b60048110156113a457813560018286018101919091559183019101611384565b50505060a082013560058201555050565b600181815b808511156113f05781600019048211156113d6576113d661118d565b808516156113e357918102915b93841c93908002906113ba565b509250929050565b6000826114075750600161083e565b816114145750600061083e565b816001811461142a576002811461143457611450565b600191505061083e565b60ff8411156114455761144561118d565b50506001821b61083e565b5060208310610133831016604e8410600b8410161715611473575081810a61083e565b61147d83836113b5565b80600019048211156114915761149161118d565b029392505050565b6000610e8583836113f8565b634e487b7160e01b600052601260045260246000fd5b6000826114ca576114ca6114a5565b500690565b6000826114de576114de6114a5565b500490565b600080600080608085870312156114f957600080fd5b505082516020840151604085015160609095015191969095509092509050565b61010081016040858337604082018460005b600481101561154a57815183526020928301929091019060010161152b565b50505060c082018360005b6002811015611574578151835260209283019290910190600101611555565b505050949350505050565b8051801515811461158f57600080fd5b919050565b600080604083850312156115a757600080fd5b6115b08361157f565b91506115be6020840161157f565b9050925092905056fea264697066735822122005ea8ed6212da1959472fdad135c6800fa9c754a57c94adeb641f55ce452750664736f6c63430008110033",
  "linkReferences": {},
  "deployedLinkReferences": {}
}