{
  "_format": "hh-sol-artifact-1",
  "contractName": "ChildValidatorSet",
  "sourceName": "contracts/child/ChildValidatorSet.sol",
  "abi": [
    {
      "inputs": [],
      "name": "AmountZero",
      "type": "error"
    },
    {
      "inputs": [
        {
          "internalType": "address",
          "name": "validator",
          "type": "address"
        }
      ],
      "name": "Exists",
      "type": "error"
    },
    {
      "inputs": [
        {
          "internalType": "address",
          "name": "validator",
          "type": "address"
        }
      ],
      "name": "NoTokensDelegated",
      "type": "error"
    },
    {
      "inputs": [
        {
          "internalType": "address",
          "name": "validator",
          "type": "address"
        }
      ],
      "name": "NotFound",
      "type": "error"
    },
    {
      "inputs": [
        {
          "internalType": "string",
          "name": "src",
          "type": "string"
        },
        {
          "internalType": "string",
          "name": "msg",
          "type": "string"
        }
      ],
      "name": "StakeRequirement",
      "type": "error"
    },
    {
      "inputs": [
        {
          "internalType": "string",
          "name": "only",
          "type": "string"
        }
      ],
      "name": "Unauthorized",
      "type": "error"
    },
    {
      "anonymous": false,
      "inputs": [
        {
          "indexed": true,
          "internalType": "address",
          "name": "validator",
          "type": "address"
        }
      ],
      "name": "AddedToWhitelist",
      "type": "event"
    },
    {
      "anonymous": false,
      "inputs": [
        {
          "indexed": true,
          "internalType": "address",
          "name": "delegator",
          "type": "address"
        },
        {
          "indexed": true,
          "internalType": "address",
          "name": "validator",
          "type": "address"
        },
        {
          "indexed": false,
          "internalType": "uint256",
          "name": "amount",
          "type": "uint256"
        }
      ],
      "name": "Delegated",
      "type": "event"
    },
    {
      "anonymous": false,
      "inputs": [
        {
          "indexed": true,
          "internalType": "address",
          "name": "delegator",
          "type": "address"
        },
        {
          "indexed": true,
          "internalType": "address",
          "name": "validator",
          "type": "address"
        },
        {
          "indexed": true,
          "internalType": "bool",
          "name": "restake",
          "type": "bool"
        },
        {
          "indexed": false,
          "internalType": "uint256",
          "name": "amount",
          "type": "uint256"
        }
      ],
      "name": "DelegatorRewardClaimed",
      "type": "event"
    },
    {
      "anonymous": false,
      "inputs": [
        {
          "indexed": true,
          "internalType": "address",
          "name": "validator",
          "type": "address"
        },
        {
          "indexed": false,
          "internalType": "uint256",
          "name": "amount",
          "type": "uint256"
        }
      ],
      "name": "DelegatorRewardDistributed",
      "type": "event"
    },
    {
      "anonymous": false,
      "inputs": [
        {
          "indexed": true,
          "internalType": "address",
          "name": "key",
          "type": "address"
        },
        {
          "indexed": true,
          "internalType": "uint256",
          "name": "epoch",
          "type": "uint256"
        },
        {
          "indexed": true,
          "internalType": "uint256",
          "name": "pbftRound",
          "type": "uint256"
        }
      ],
      "name": "DoubleSignerSlashed",
      "type": "event"
    },
    {
      "anonymous": false,
      "inputs": [
        {
          "indexed": false,
          "internalType": "uint8",
          "name": "version",
          "type": "uint8"
        }
      ],
      "name": "Initialized",
      "type": "event"
    },
    {
      "anonymous": false,
      "inputs": [
        {
          "indexed": true,
          "internalType": "uint256",
          "name": "id",
          "type": "uint256"
        },
        {
          "indexed": true,
          "internalType": "uint256",
          "name": "startBlock",
          "type": "uint256"
        },
        {
          "indexed": true,
          "internalType": "uint256",
          "name": "endBlock",
          "type": "uint256"
        },
        {
          "indexed": false,
          "internalType": "bytes32",
          "name": "epochRoot",
          "type": "bytes32"
        }
      ],
      "name": "NewEpoch",
      "type": "event"
    },
    {
      "anonymous": false,
      "inputs": [
        {
          "indexed": true,
          "internalType": "address",
          "name": "validator",
          "type": "address"
        },
        {
          "indexed": false,
          "internalType": "uint256[4]",
          "name": "blsKey",
          "type": "uint256[4]"
        }
      ],
      "name": "NewValidator",
      "type": "event"
    },
    {
      "anonymous": false,
      "inputs": [
        {
          "indexed": true,
          "internalType": "address",
          "name": "previousOwner",
          "type": "address"
        },
        {
          "indexed": true,
          "internalType": "address",
          "name": "newOwner",
          "type": "address"
        }
      ],
      "name": "OwnershipTransferStarted",
      "type": "event"
    },
    {
      "anonymous": false,
      "inputs": [
        {
          "indexed": true,
          "internalType": "address",
          "name": "previousOwner",
          "type": "address"
        },
        {
          "indexed": true,
          "internalType": "address",
          "name": "newOwner",
          "type": "address"
        }
      ],
      "name": "OwnershipTransferred",
      "type": "event"
    },
    {
      "anonymous": false,
      "inputs": [
        {
          "indexed": true,
          "internalType": "address",
          "name": "validator",
          "type": "address"
        }
      ],
      "name": "RemovedFromWhitelist",
      "type": "event"
    },
    {
      "anonymous": false,
      "inputs": [
        {
          "indexed": true,
          "internalType": "address",
          "name": "validator",
          "type": "address"
        },
        {
          "indexed": false,
          "internalType": "uint256",
          "name": "amount",
          "type": "uint256"
        }
      ],
      "name": "Staked",
      "type": "event"
    },
    {
      "anonymous": false,
      "inputs": [
        {
          "indexed": true,
          "internalType": "address",
          "name": "delegator",
          "type": "address"
        },
        {
          "indexed": true,
          "internalType": "address",
          "name": "validator",
          "type": "address"
        },
        {
          "indexed": false,
          "internalType": "uint256",
          "name": "amount",
          "type": "uint256"
        }
      ],
      "name": "Undelegated",
      "type": "event"
    },
    {
      "anonymous": false,
      "inputs": [
        {
          "indexed": true,
          "internalType": "address",
          "name": "validator",
          "type": "address"
        },
        {
          "indexed": false,
          "internalType": "uint256",
          "name": "amount",
          "type": "uint256"
        }
      ],
      "name": "Unstaked",
      "type": "event"
    },
    {
      "anonymous": false,
      "inputs": [
        {
          "indexed": true,
          "internalType": "address",
          "name": "validator",
          "type": "address"
        },
        {
          "indexed": false,
          "internalType": "uint256",
          "name": "amount",
          "type": "uint256"
        }
      ],
      "name": "ValidatorRewardClaimed",
      "type": "event"
    },
    {
      "anonymous": false,
      "inputs": [
        {
          "indexed": true,
          "internalType": "address",
          "name": "validator",
          "type": "address"
        },
        {
          "indexed": false,
          "internalType": "uint256",
          "name": "amount",
          "type": "uint256"
        }
      ],
      "name": "ValidatorRewardDistributed",
      "type": "event"
    },
    {
      "anonymous": false,
      "inputs": [
        {
          "indexed": true,
          "internalType": "address",
          "name": "account",
          "type": "address"
        },
        {
          "indexed": true,
          "internalType": "address",
          "name": "to",
          "type": "address"
        },
        {
          "indexed": false,
          "internalType": "uint256",
          "name": "amount",
          "type": "uint256"
        }
      ],
      "name": "Withdrawal",
      "type": "event"
    },
    {
      "anonymous": false,
      "inputs": [
        {
          "indexed": true,
          "internalType": "address",
          "name": "account",
          "type": "address"
        },
        {
          "indexed": false,
          "internalType": "uint256",
          "name": "amount",
          "type": "uint256"
        }
      ],
      "name": "WithdrawalRegistered",
      "type": "event"
    },
    {
      "inputs": [],
      "name": "ACTIVE_VALIDATOR_SET_SIZE",
      "outputs": [
        {
          "internalType": "uint256",
          "name": "",
          "type": "uint256"
        }
      ],
      "stateMutability": "view",
      "type": "function"
    },
    {
      "inputs": [],
      "name": "DOUBLE_SIGNING_SLASHING_PERCENT",
      "outputs": [
        {
          "internalType": "uint256",
          "name": "",
          "type": "uint256"
        }
      ],
      "stateMutability": "view",
      "type": "function"
    },
    {
      "inputs": [],
      "name": "MAX_COMMISSION",
      "outputs": [
        {
          "internalType": "uint256",
          "name": "",
          "type": "uint256"
        }
      ],
      "stateMutability": "view",
      "type": "function"
    },
    {
      "inputs": [],
      "name": "MAX_VALIDATOR_SET_SIZE",
      "outputs": [
        {
          "internalType": "uint256",
          "name": "",
          "type": "uint256"
        }
      ],
      "stateMutability": "view",
      "type": "function"
    },
    {
      "inputs": [],
      "name": "NATIVE_TOKEN_CONTRACT",
      "outputs": [
        {
          "internalType": "address",
          "name": "",
          "type": "address"
        }
      ],
      "stateMutability": "view",
      "type": "function"
    },
    {
      "inputs": [],
      "name": "NATIVE_TRANSFER_PRECOMPILE",
      "outputs": [
        {
          "internalType": "address",
          "name": "",
          "type": "address"
        }
      ],
      "stateMutability": "view",
      "type": "function"
    },
    {
      "inputs": [],
      "name": "NATIVE_TRANSFER_PRECOMPILE_GAS",
      "outputs": [
        {
          "internalType": "uint256",
          "name": "",
          "type": "uint256"
        }
      ],
      "stateMutability": "view",
      "type": "function"
    },
    {
      "inputs": [],
      "name": "NEW_VALIDATOR_SIG",
      "outputs": [
        {
          "internalType": "bytes32",
          "name": "",
          "type": "bytes32"
        }
      ],
      "stateMutability": "view",
      "type": "function"
    },
    {
      "inputs": [],
      "name": "REWARD_PRECISION",
      "outputs": [
        {
          "internalType": "uint256",
          "name": "",
          "type": "uint256"
        }
      ],
      "stateMutability": "view",
      "type": "function"
    },
    {
      "inputs": [],
      "name": "SYSTEM",
      "outputs": [
        {
          "internalType": "address",
          "name": "",
          "type": "address"
        }
      ],
      "stateMutability": "view",
      "type": "function"
    },
    {
      "inputs": [],
      "name": "VALIDATOR_PKCHECK_PRECOMPILE",
      "outputs": [
        {
          "internalType": "address",
          "name": "",
          "type": "address"
        }
      ],
      "stateMutability": "view",
      "type": "function"
    },
    {
      "inputs": [],
      "name": "VALIDATOR_PKCHECK_PRECOMPILE_GAS",
      "outputs": [
        {
          "internalType": "uint256",
          "name": "",
          "type": "uint256"
        }
      ],
      "stateMutability": "view",
      "type": "function"
    },
    {
      "inputs": [],
      "name": "WITHDRAWAL_WAIT_PERIOD",
      "outputs": [
        {
          "internalType": "uint256",
          "name": "",
          "type": "uint256"
        }
      ],
      "stateMutability": "view",
      "type": "function"
    },
    {
      "inputs": [],
      "name": "acceptOwnership",
      "outputs": [],
      "stateMutability": "nonpayable",
      "type": "function"
    },
    {
      "inputs": [
        {
          "internalType": "address[]",
          "name": "whitelistAddreses",
          "type": "address[]"
        }
      ],
      "name": "addToWhitelist",
      "outputs": [],
      "stateMutability": "nonpayable",
      "type": "function"
    },
    {
      "inputs": [],
      "name": "bls",
      "outputs": [
        {
          "internalType": "contract IBLS",
          "name": "",
          "type": "address"
        }
      ],
      "stateMutability": "view",
      "type": "function"
    },
    {
      "inputs": [
        {
          "internalType": "address",
          "name": "validator",
          "type": "address"
        },
        {
          "internalType": "bool",
          "name": "restake",
          "type": "bool"
        }
      ],
      "name": "claimDelegatorReward",
      "outputs": [],
      "stateMutability": "nonpayable",
      "type": "function"
    },
    {
      "inputs": [],
      "name": "claimValidatorReward",
      "outputs": [],
      "stateMutability": "nonpayable",
      "type": "function"
    },
    {
      "inputs": [
        {
          "internalType": "uint256",
          "name": "id",
          "type": "uint256"
        },
        {
          "components": [
            {
              "internalType": "uint256",
              "name": "startBlock",
              "type": "uint256"
            },
            {
              "internalType": "uint256",
              "name": "endBlock",
              "type": "uint256"
            },
            {
              "internalType": "bytes32",
              "name": "epochRoot",
              "type": "bytes32"
            }
          ],
          "internalType": "struct Epoch",
          "name": "epoch",
          "type": "tuple"
        },
        {
          "components": [
            {
              "internalType": "uint256",
              "name": "epochId",
              "type": "uint256"
            },
            {
              "components": [
                {
                  "internalType": "address",
                  "name": "validator",
                  "type": "address"
                },
                {
                  "internalType": "uint256",
                  "name": "signedBlocks",
                  "type": "uint256"
                }
              ],
              "internalType": "struct UptimeData[]",
              "name": "uptimeData",
              "type": "tuple[]"
            },
            {
              "internalType": "uint256",
              "name": "totalBlocks",
              "type": "uint256"
            }
          ],
          "internalType": "struct Uptime",
          "name": "uptime",
          "type": "tuple"
        }
      ],
      "name": "commitEpoch",
      "outputs": [],
      "stateMutability": "nonpayable",
      "type": "function"
    },
    {
      "inputs": [
        {
          "internalType": "uint256",
          "name": "curEpochId",
          "type": "uint256"
        },
        {
          "components": [
            {
              "internalType": "uint256",
              "name": "startBlock",
              "type": "uint256"
            },
            {
              "internalType": "uint256",
              "name": "endBlock",
              "type": "uint256"
            },
            {
              "internalType": "bytes32",
              "name": "epochRoot",
              "type": "bytes32"
            }
          ],
          "internalType": "struct Epoch",
          "name": "epoch",
          "type": "tuple"
        },
        {
          "components": [
            {
              "internalType": "uint256",
              "name": "epochId",
              "type": "uint256"
            },
            {
              "components": [
                {
                  "internalType": "address",
                  "name": "validator",
                  "type": "address"
                },
                {
                  "internalType": "uint256",
                  "name": "signedBlocks",
                  "type": "uint256"
                }
              ],
              "internalType": "struct UptimeData[]",
              "name": "uptimeData",
              "type": "tuple[]"
            },
            {
              "internalType": "uint256",
              "name": "totalBlocks",
              "type": "uint256"
            }
          ],
          "internalType": "struct Uptime",
          "name": "uptime",
          "type": "tuple"
        },
        {
          "internalType": "uint256",
          "name": "blockNumber",
          "type": "uint256"
        },
        {
          "internalType": "uint256",
          "name": "pbftRound",
          "type": "uint256"
        },
        {
          "internalType": "uint256",
          "name": "epochId",
          "type": "uint256"
        },
        {
          "components": [
            {
              "internalType": "bytes32",
              "name": "blockHash",
              "type": "bytes32"
            },
            {
              "internalType": "bytes",
              "name": "bitmap",
              "type": "bytes"
            },
            {
              "internalType": "bytes",
              "name": "signature",
              "type": "bytes"
            }
          ],
          "internalType": "struct IChildValidatorSetBase.DoubleSignerSlashingInput[]",
          "name": "inputs",
          "type": "tuple[]"
        }
      ],
      "name": "commitEpochWithDoubleSignerSlashing",
      "outputs": [],
      "stateMutability": "nonpayable",
      "type": "function"
    },
    {
      "inputs": [],
      "name": "currentEpochId",
      "outputs": [
        {
          "internalType": "uint256",
          "name": "",
          "type": "uint256"
        }
      ],
      "stateMutability": "view",
      "type": "function"
    },
    {
      "inputs": [
        {
          "internalType": "address",
          "name": "validator",
          "type": "address"
        },
        {
          "internalType": "bool",
          "name": "restake",
          "type": "bool"
        }
      ],
      "name": "delegate",
      "outputs": [],
      "stateMutability": "payable",
      "type": "function"
    },
    {
      "inputs": [
        {
          "internalType": "address",
          "name": "validator",
          "type": "address"
        },
        {
          "internalType": "address",
          "name": "delegator",
          "type": "address"
        }
      ],
      "name": "delegationOf",
      "outputs": [
        {
          "internalType": "uint256",
          "name": "",
          "type": "uint256"
        }
      ],
      "stateMutability": "view",
      "type": "function"
    },
    {
      "inputs": [
        {
          "internalType": "uint256",
          "name": "",
          "type": "uint256"
        },
        {
          "internalType": "uint256",
          "name": "",
          "type": "uint256"
        },
        {
          "internalType": "address",
          "name": "",
          "type": "address"
        }
      ],
      "name": "doubleSignerSlashes",
      "outputs": [
        {
          "internalType": "bool",
          "name": "",
          "type": "bool"
        }
      ],
      "stateMutability": "view",
      "type": "function"
    },
    {
      "inputs": [
        {
          "internalType": "uint256",
          "name": "",
          "type": "uint256"
        }
      ],
      "name": "epochEndBlocks",
      "outputs": [
        {
          "internalType": "uint256",
          "name": "",
          "type": "uint256"
        }
      ],
      "stateMutability": "view",
      "type": "function"
    },
    {
      "inputs": [],
      "name": "epochReward",
      "outputs": [
        {
          "internalType": "uint256",
          "name": "",
          "type": "uint256"
        }
      ],
      "stateMutability": "view",
      "type": "function"
    },
    {
      "inputs": [],
      "name": "epochSize",
      "outputs": [
        {
          "internalType": "uint256",
          "name": "",
          "type": "uint256"
        }
      ],
      "stateMutability": "view",
      "type": "function"
    },
    {
      "inputs": [
        {
          "internalType": "uint256",
          "name": "",
          "type": "uint256"
        }
      ],
      "name": "epochs",
      "outputs": [
        {
          "internalType": "uint256",
          "name": "startBlock",
          "type": "uint256"
        },
        {
          "internalType": "uint256",
          "name": "endBlock",
          "type": "uint256"
        },
        {
          "internalType": "bytes32",
          "name": "epochRoot",
          "type": "bytes32"
        }
      ],
      "stateMutability": "view",
      "type": "function"
    },
    {
      "inputs": [],
      "name": "getCurrentValidatorSet",
      "outputs": [
        {
          "internalType": "address[]",
          "name": "",
          "type": "address[]"
        }
      ],
      "stateMutability": "view",
      "type": "function"
    },
    {
      "inputs": [
        {
          "internalType": "address",
          "name": "validator",
          "type": "address"
        },
        {
          "internalType": "address",
          "name": "delegator",
          "type": "address"
        }
      ],
      "name": "getDelegatorReward",
      "outputs": [
        {
          "internalType": "uint256",
          "name": "",
          "type": "uint256"
        }
      ],
      "stateMutability": "view",
      "type": "function"
    },
    {
      "inputs": [
        {
          "internalType": "uint256",
          "name": "blockNumber",
          "type": "uint256"
        }
      ],
      "name": "getEpochByBlock",
      "outputs": [
        {
          "components": [
            {
              "internalType": "uint256",
              "name": "startBlock",
              "type": "uint256"
            },
            {
              "internalType": "uint256",
              "name": "endBlock",
              "type": "uint256"
            },
            {
              "internalType": "bytes32",
              "name": "epochRoot",
              "type": "bytes32"
            }
          ],
          "internalType": "struct Epoch",
          "name": "",
          "type": "tuple"
        }
      ],
      "stateMutability": "view",
      "type": "function"
    },
    {
      "inputs": [
        {
          "internalType": "address",
          "name": "validator",
          "type": "address"
        }
      ],
      "name": "getValidator",
      "outputs": [
        {
          "components": [
            {
              "internalType": "uint256[4]",
              "name": "blsKey",
              "type": "uint256[4]"
            },
            {
              "internalType": "uint256",
              "name": "stake",
              "type": "uint256"
            },
            {
              "internalType": "uint256",
              "name": "totalStake",
              "type": "uint256"
            },
            {
              "internalType": "uint256",
              "name": "commission",
              "type": "uint256"
            },
            {
              "internalType": "uint256",
              "name": "withdrawableRewards",
              "type": "uint256"
            },
            {
              "internalType": "bool",
              "name": "active",
              "type": "bool"
            }
          ],
          "internalType": "struct Validator",
          "name": "",
          "type": "tuple"
        }
      ],
      "stateMutability": "view",
      "type": "function"
    },
    {
      "inputs": [
        {
          "internalType": "address",
          "name": "validator",
          "type": "address"
        }
      ],
      "name": "getValidatorReward",
      "outputs": [
        {
          "internalType": "uint256",
          "name": "",
          "type": "uint256"
        }
      ],
      "stateMutability": "view",
      "type": "function"
    },
    {
      "inputs": [
        {
          "components": [
            {
              "internalType": "uint256",
              "name": "epochReward",
              "type": "uint256"
            },
            {
              "internalType": "uint256",
              "name": "minStake",
              "type": "uint256"
            },
            {
              "internalType": "uint256",
              "name": "minDelegation",
              "type": "uint256"
            },
            {
              "internalType": "uint256",
              "name": "epochSize",
              "type": "uint256"
            }
          ],
          "internalType": "struct IChildValidatorSetBase.InitStruct",
          "name": "init",
          "type": "tuple"
        },
        {
          "internalType": "address[]",
          "name": "validatorAddresses",
          "type": "address[]"
        },
        {
          "internalType": "uint256[4][]",
          "name": "validatorPubkeys",
          "type": "uint256[4][]"
        },
        {
          "internalType": "uint256[]",
          "name": "validatorStakes",
          "type": "uint256[]"
        },
        {
          "internalType": "contract IBLS",
          "name": "newBls",
          "type": "address"
        },
        {
          "internalType": "uint256[2]",
          "name": "newMessage",
          "type": "uint256[2]"
        },
        {
          "internalType": "address",
          "name": "governance",
          "type": "address"
        }
      ],
      "name": "initialize",
      "outputs": [],
      "stateMutability": "nonpayable",
      "type": "function"
    },
    {
      "inputs": [
        {
          "internalType": "uint256",
          "name": "",
          "type": "uint256"
        }
      ],
      "name": "message",
      "outputs": [
        {
          "internalType": "uint256",
          "name": "",
          "type": "uint256"
        }
      ],
      "stateMutability": "view",
      "type": "function"
    },
    {
      "inputs": [],
      "name": "minDelegation",
      "outputs": [
        {
          "internalType": "uint256",
          "name": "",
          "type": "uint256"
        }
      ],
      "stateMutability": "view",
      "type": "function"
    },
    {
      "inputs": [],
      "name": "minStake",
      "outputs": [
        {
          "internalType": "uint256",
          "name": "",
          "type": "uint256"
        }
      ],
      "stateMutability": "view",
      "type": "function"
    },
    {
      "inputs": [
        {
          "internalType": "uint256",
          "name": "",
          "type": "uint256"
        },
        {
          "internalType": "address",
          "name": "sender",
          "type": "address"
        },
        {
          "internalType": "bytes",
          "name": "data",
          "type": "bytes"
        }
      ],
      "name": "onStateReceive",
      "outputs": [],
      "stateMutability": "nonpayable",
      "type": "function"
    },
    {
      "inputs": [],
      "name": "owner",
      "outputs": [
        {
          "internalType": "address",
          "name": "",
          "type": "address"
        }
      ],
      "stateMutability": "view",
      "type": "function"
    },
    {
      "inputs": [],
      "name": "pendingOwner",
      "outputs": [
        {
          "internalType": "address",
          "name": "",
          "type": "address"
        }
      ],
      "stateMutability": "view",
      "type": "function"
    },
    {
      "inputs": [
        {
          "internalType": "address",
          "name": "account",
          "type": "address"
        }
      ],
      "name": "pendingWithdrawals",
      "outputs": [
        {
          "internalType": "uint256",
          "name": "",
          "type": "uint256"
        }
      ],
      "stateMutability": "view",
      "type": "function"
    },
    {
      "inputs": [
        {
          "internalType": "uint256[2]",
          "name": "signature",
          "type": "uint256[2]"
        },
        {
          "internalType": "uint256[4]",
          "name": "pubkey",
          "type": "uint256[4]"
        }
      ],
      "name": "register",
      "outputs": [],
      "stateMutability": "nonpayable",
      "type": "function"
    },
    {
      "inputs": [
        {
          "internalType": "address[]",
          "name": "whitelistAddreses",
          "type": "address[]"
        }
      ],
      "name": "removeFromWhitelist",
      "outputs": [],
      "stateMutability": "nonpayable",
      "type": "function"
    },
    {
      "inputs": [],
      "name": "renounceOwnership",
      "outputs": [],
      "stateMutability": "nonpayable",
      "type": "function"
    },
    {
      "inputs": [
        {
          "internalType": "uint256",
          "name": "newCommission",
          "type": "uint256"
        }
      ],
      "name": "setCommission",
      "outputs": [],
      "stateMutability": "nonpayable",
      "type": "function"
    },
    {
      "inputs": [
        {
          "internalType": "uint256",
          "name": "n",
          "type": "uint256"
        }
      ],
      "name": "sortedValidators",
      "outputs": [
        {
          "internalType": "address[]",
          "name": "",
          "type": "address[]"
        }
      ],
      "stateMutability": "view",
      "type": "function"
    },
    {
      "inputs": [],
      "name": "stake",
      "outputs": [],
      "stateMutability": "payable",
      "type": "function"
    },
    {
      "inputs": [],
      "name": "totalActiveStake",
      "outputs": [
        {
          "internalType": "uint256",
          "name": "activeStake",
          "type": "uint256"
        }
      ],
      "stateMutability": "view",
      "type": "function"
    },
    {
      "inputs": [],
      "name": "totalStake",
      "outputs": [
        {
          "internalType": "uint256",
          "name": "",
          "type": "uint256"
        }
      ],
      "stateMutability": "view",
      "type": "function"
    },
    {
      "inputs": [
        {
          "internalType": "address",
          "name": "newOwner",
          "type": "address"
        }
      ],
      "name": "transferOwnership",
      "outputs": [],
      "stateMutability": "nonpayable",
      "type": "function"
    },
    {
      "inputs": [
        {
          "internalType": "address",
          "name": "validator",
          "type": "address"
        },
        {
          "internalType": "uint256",
          "name": "amount",
          "type": "uint256"
        }
      ],
      "name": "undelegate",
      "outputs": [],
      "stateMutability": "nonpayable",
      "type": "function"
    },
    {
      "inputs": [
        {
          "internalType": "uint256",
          "name": "amount",
          "type": "uint256"
        }
      ],
      "name": "unstake",
      "outputs": [],
      "stateMutability": "nonpayable",
      "type": "function"
    },
    {
      "inputs": [
        {
          "internalType": "address",
          "name": "",
          "type": "address"
        }
      ],
      "name": "whitelist",
      "outputs": [
        {
          "internalType": "bool",
          "name": "",
          "type": "bool"
        }
      ],
      "stateMutability": "view",
      "type": "function"
    },
    {
      "inputs": [
        {
          "internalType": "address",
          "name": "to",
          "type": "address"
        }
      ],
      "name": "withdraw",
      "outputs": [],
      "stateMutability": "nonpayable",
      "type": "function"
    },
    {
      "inputs": [
        {
          "internalType": "address",
          "name": "account",
          "type": "address"
        }
      ],
      "name": "withdrawable",
      "outputs": [
        {
          "internalType": "uint256",
          "name": "amount",
          "type": "uint256"
        }
      ],
      "stateMutability": "view",
      "type": "function"
    }
  ],
  "bytecode": "0x608060405234801561001057600080fd5b50615cd380620000216000396000f3fe6080604052600436106103505760003560e01c8063715018a6116101c6578063ae97dde8116100f7578063e0563ab111610095578063eacdc5ff1161006f578063eacdc5ff14610997578063eeb49945146109ad578063f2fde38b146109cd578063f3f43703146109ed57600080fd5b8063e0563ab11461094e578063e30c397814610964578063ea0fee4f1461098257600080fd5b8063c6b61e4c116100d1578063c6b61e4c14610897578063ce513b6f146108ee578063d1e8507b1461090e578063daacab091461092e57600080fd5b8063ae97dde8146103e7578063b16a503914610861578063bd8499af1461088157600080fd5b806395b0b027116101645780639a91e6d71161013e5780639a91e6d7146107e75780639b19251a146107fc578063a77af2291461082c578063a90049d01461084157600080fd5b806395b0b0271461079d57806397e5230d146107bd578063982ef0a7146107d457600080fd5b80637f649783116101a05780637f649783146107345780638b0e9f3f146107545780638da5cb5b14610769578063947287cf1461078757600080fd5b8063715018a6146106b857806378f61932146106cd57806379ba50971461071f57600080fd5b8063375b3c0a116102a05780634d99dd161161023e578063548db17411610218578063548db174146106425780635689762f14610662578063572d356e14610682578063628da5271461069857600080fd5b80634d99dd16146105e757806351351d531461060757806351cff8d91461062257600080fd5b80633d6aa5e11161027a5780633d6aa5e1146105495780633fd5000114610565578063410899c91461058557806346df33d2146105a557600080fd5b8063375b3c0a146105155780633a4b66f11461052b5780633b878c221461053357600080fd5b80632153f7fa1161030d5780632e17de78116102e75780632e17de781461048157806333378ada146104a157806334f74d76146104c1578063355e6b43146104f557600080fd5b80632153f7fa1461041e578063284017f51461043e57806328f731481461046c57600080fd5b80630209fdd01461035557806302985992146103805780631604e416146103a45780631904bb2e146103ba5780631bce714d146103e75780631f6590b8146103fc575b600080fd5b34801561036157600080fd5b5061036a610a0d565b6040516103779190614fed565b60405180910390f35b34801561038c57600080fd5b5061039660055481565b604051908152602001610377565b3480156103b057600080fd5b5061039660035481565b3480156103c657600080fd5b506103da6103d536600461505a565b610a1e565b6040516103779190615077565b3480156103f357600080fd5b50610396606481565b34801561040857600080fd5b5061041c6104173660046150f2565b610aaa565b005b34801561042a57600080fd5b5061036a61043936600461512d565b610c6d565b34801561044a57600080fd5b5061045461202081565b6040516001600160a01b039091168152602001610377565b34801561047857600080fd5b50610396610d78565b34801561048d57600080fd5b5061041c61049c36600461512d565b610e42565b3480156104ad57600080fd5b506103966104bc36600461505a565b610f5f565b3480156104cd57600080fd5b506103967fbddc396dfed8423aa810557cfed0b5b9e7b7516dac77d0b0cdf3cfbca88518bc81565b34801561050157600080fd5b5061041c61051036600461512d565b610f74565b34801561052157600080fd5b5061039660045481565b61041c611017565b34801561053f57600080fd5b5061045461101081565b34801561055557600080fd5b50610396670de0b6b3a764000081565b34801561057157600080fd5b5061039661058036600461512d565b6110ea565b34801561059157600080fd5b5061041c6105a0366004615158565b61110b565b3480156105b157600080fd5b506105c56105c036600461512d565b6113a7565b6040805182518152602080840151908201529181015190820152606001610377565b3480156105f357600080fd5b5061041c6106023660046151af565b61141f565b34801561061357600080fd5b506104546002600160a01b0381565b34801561062e57600080fd5b5061041c61063d36600461505a565b61152f565b34801561064e57600080fd5b5061041c61065d36600461521f565b61165f565b34801561066e57600080fd5b5061039661067d366004615260565b6116b8565b34801561068e57600080fd5b5061039660005481565b3480156106a457600080fd5b506103966106b3366004615260565b6116d8565b3480156106c457600080fd5b5061041c611709565b3480156106d957600080fd5b5061070f6106e8366004615299565b61014060209081526000938452604080852082529284528284209052825290205460ff1681565b6040519015158152602001610377565b34801561072b57600080fd5b5061041c61171d565b34801561074057600080fd5b5061041c61074f36600461521f565b611794565b34801561076057600080fd5b50600b54610396565b34801561077557600080fd5b506078546001600160a01b0316610454565b34801561079357600080fd5b5061039661520881565b3480156107a957600080fd5b50600654610454906001600160a01b031681565b3480156107c957600080fd5b50610396620249f081565b61041c6107e23660046152eb565b6117e8565b3480156107f357600080fd5b5061041c61184e565b34801561080857600080fd5b5061070f61081736600461505a565b60126020526000908152604090205460ff1681565b34801561083857600080fd5b50610396600a81565b34801561084d57600080fd5b5061041c61085c3660046152eb565b6118bb565b34801561086d57600080fd5b5061041c61087c366004615319565b61195c565b34801561088d57600080fd5b506103966101f481565b3480156108a357600080fd5b506108d36108b236600461512d565b60116020526000908152604090208054600182015460029092015490919083565b60408051938452602084019290925290820152606001610377565b3480156108fa57600080fd5b5061039661090936600461505a565b611c05565b34801561091a57600080fd5b5061039661092936600461512d565b611c33565b34801561093a57600080fd5b5061041c610949366004615400565b611c4a565b34801561095a57600080fd5b5061045461203081565b34801561097057600080fd5b5060aa546001600160a01b0316610454565b34801561098e57600080fd5b50610396600181565b3480156109a357600080fd5b5061039660015481565b3480156109b957600080fd5b5061041c6109c83660046154e7565b611f08565b3480156109d957600080fd5b5061041c6109e836600461505a565b612002565b3480156109f957600080fd5b50610396610a0836600461505a565b612073565b6060610a196064610c6d565b905090565b610a26614ec6565b610a3160098361209a565b604080516101408101909152908160c081018260048282826020028201915b815481526020019060010190808311610a505750505091835250506004820154602082015260058201546040820152600682015460608201526007820154608082015260089091015460ff16151560a09091015292915050565b3360009081526012602052604090205460ff16610afb5760405163973d02cb60e01b815260206004820152600960248201526815d2125511531254d560ba1b60448201526064015b60405180910390fd5b60065460405163ebbdac9160e01b815260009182916001600160a01b039091169063ebbdac9190610b35908790879060079060040161556f565b6040805180830381865afa158015610b51573d6000803e3d6000fd5b505050506040513d601f19601f82011682018060405250810190610b7591906155b3565b91509150808015610b835750815b610bc35760405162461bcd60e51b8152602060048201526011602482015270494e56414c49445f5349474e415455524560781b6044820152606401610af2565b604080516101408101909152610c1d9033908060c081018760048282608080828437600092018290525092845250506020820181905260408201819052606082018190526080820152600160a090910152600991906120b8565b610c26336124b7565b336001600160a01b03167fcab5c47e498c5b85fd42d656842253cfe070f7648c3a198275347b47dec5d27b84604051610c5f91906155e2565b60405180910390a250505050565b60606000600960010154831115610c8657600a54610c88565b825b90506000816001600160401b03811115610ca457610ca46155f1565b604051908082528060200260200182016040528015610ccd578160200160208202803683370190505b50905081600003610cdf579392505050565b6000610ceb6009612500565b90508082600081518110610d0157610d01615607565b6001600160a01b039092166020928302919091019091015260015b83811015610d6e57610d2f600983612561565b915081838281518110610d4457610d44615607565b6001600160a01b039092166020928302919091019091015280610d6681615633565b915050610d1c565b5090949350505050565b60008060096001015460641115610d9157600a54610d94565b60645b905080600003610da657600091505090565b6000610db26009612500565b9050610dbf600982612663565b54610dc982610a1e565b60200151610dd7919061564c565b610de1908461564c565b925060015b82811015610e3c57610df9600983612561565b9150610e06600983612663565b54610e1083610a1e565b60200151610e1e919061564c565b610e28908561564c565b935080610e3481615633565b915050610de6565b50505090565b6000610e4f600e33612681565b336000908152600c6020526040902060070154610e6c919061565f565b90506000610e79836126de565b905081811315610e9c576040516396906e6360e01b8152600401610af29061567f565b6000610ea882846156d9565b905060045481128015610eba57508015155b15610ed8576040516396906e6360e01b8152600401610af2906156f9565b610ee061184e565b610efb33610ef08460001961574c565b600e919060006126f1565b80600003610f23576000610f1060093361209a565b600801805460ff19169115159190911790555b610f2d3385612808565b60405184815233907f0f5bb82176feb1b5e747e28471aa92156a04d9f3ab9f45f28e2d704232b93f7590602001610c5f565b6000610f6a82610a1e565b6080015192915050565b610f7d33610a1e565b60a00151610fba5760405163973d02cb60e01b81526020600482015260096024820152682b20a624a220aa27a960b91b6044820152606401610af2565b60648111156110005760405162461bcd60e51b815260206004820152601260248201527124a72b20a624a22fa1a7a6a6a4a9a9a4a7a760711b6044820152606401610af2565b600061100d60093361209a565b6006019190915550565b61102033610a1e565b60a0015161105d5760405163973d02cb60e01b81526020600482015260096024820152682b20a624a220aa27a960b91b6044820152606401610af2565b336000908152600c602052604090206007015460045461107d823461564c565b101561109c576040516396906e6360e01b8152600401610af29061577c565b6110a461184e565b6110b2600e333460006126f1565b60405134815233907f9e71bc8eea02a63969f509818f2dafb9254532904319f9dbda79b67bd34a5f3d9060200160405180910390a250565b600281815481106110fa57600080fd5b600091825260209091200154905081565b336002600160a01b031461114f5760405163973d02cb60e01b815260206004820152600a60248201526914d654d5115350d0531360b21b6044820152606401610af2565b600180546000918261116083615633565b9190505590508084146111ab5760405162461bcd60e51b815260206004820152601360248201527215539156141150d5115117d15413d0d217d251606a1b6044820152606401610af2565b82356020840135116111f55760405162461bcd60e51b81526020600482015260136024820152721393d7d09313d0d2d4d7d0d3d3535255151151606a1b6044820152606401610af2565b600054611207843560208601356157c5565b61121290600161564c565b61121c91906157ee565b156112775760405162461bcd60e51b815260206004820152602560248201527f45504f43485f4d5553545f42455f444956495349424c455f42595f45504f43486044820152645f53495a4560d81b6064820152608401610af2565b8235601160006112886001856157c5565b81526020019081526020016000206001015460016112a6919061564c565b146112e95760405162461bcd60e51b8152602060048201526013602482015272494e56414c49445f53544152545f424c4f434b60681b6044820152606401610af2565b60008181526011602090815260408083209186013560018084018290558735845591870135600280850191909155805492830181559093527f405787fa12a823e0f2b7631cc41b3ba8828b3321ca811111fa75cd3aa3bb5ace019190915561135083612874565b611358612a06565b83602001358460000135867f0ce8712c4dee4bd5a691f0bc1c39594671591e77395f8ebf6a3fb5f63fbea66a876040013560405161139891815260200190565b60405180910390a45050505050565b60408051606081018252600080825260208201819052918101829052906113cf600284612b96565b9050601160006113e083600161564c565b81526020019081526020016000206040518060600160405290816000820154815260200160018201548152602001600282015481525050915050919050565b600061142c600984612663565b33600090815260058201602052604090205490915080831115611462576040516396906e6360e01b8152600401610af290615802565b61146d823385612c4b565b600061147984836157c5565b90506005548110801561148b57508015155b156114a9576040516396906e6360e01b8152600401610af29061582c565b6114b48560006118bb565b60006114bf856126de565b90506114dd8660006114d38460001961574c565b600e9291906126f1565b6114e73386612808565b6040518581526001600160a01b0387169033907f4d10bd049775c77bd7f255195afba5088028ecb3c7c277d393ccff7934f2f92c9060200160405180910390a3505050505050565b611537612ce0565b6001600160a01b03811661154d5761154d615887565b336000908152601060205260408120600154909190819061156f908490612d39565b80855560405182815291935091506001600160a01b0385169033907f2717ead6b9200dd235aad468c9809ea400fe33ac69b5bfaa6d3e90fc922b63989060200160405180910390a36000846001600160a01b03168360405160006040518083038185875af1925050503d8060008114611604576040519150601f19603f3d011682016040523d82523d6000602084013e611609565b606091505b505090508061164e5760405162461bcd60e51b815260206004820152601160248201527015d2551211149055d05317d19052531151607a1b6044820152606401610af2565b5050505061165c600160dc55565b50565b611667612db2565b60005b818110156116b3576116a183838381811061168757611687615607565b905060200201602081019061169c919061505a565b6124b7565b806116ab81615633565b91505061166a565b505050565b60006116cf826116c9600986612663565b90612e0c565b90505b92915050565b60006116cf826116e9600986612663565b906001600160a01b03166000908152600591909101602052604090205490565b611711612db2565b61171b6000612e3b565b565b60aa5433906001600160a01b0316811461178b5760405162461bcd60e51b815260206004820152602960248201527f4f776e61626c6532537465703a2063616c6c6572206973206e6f7420746865206044820152683732bb9037bbb732b960b91b6064820152608401610af2565b61165c81612e3b565b61179c612db2565b60005b818110156116b3576117d68383838181106117bc576117bc615607565b90506020020160208101906117d1919061505a565b612e54565b806117e081615633565b91505061179f565b60006117f5600984612663565b600580543360009081529183016020526040909120549192509061181a90349061564c565b1015611839576040516396906e6360e01b8152600401610af29061589d565b61184383836118bb565b6116b3338434612ea0565b600061185b60093361209a565b60078101549091506000819003611870575050565b600060078301556118813382612808565b60405181815233907f378c825c0ac073cbae19612eb73cde31c0972f0c8ba2dedb659840f32550df2b906020015b60405180910390a25050565b60006118c8600984612663565b905060006118d68233612f66565b9050806000036118e65750505050565b82156118fc576118f7338583612ea0565b611906565b6119063382612808565b821515846001600160a01b0316336001600160a01b03167f6b2cd13395c5d2d1f95934a6a8f884d2cb71e846eb99d6759f7e6a39c060b2d08460405161194e91815260200190565b60405180910390a450505050565b80600281101561197e5760405162461bcd60e51b8152600401610af2906158ee565b6119888383612fad565b6119cb5760405162461bcd60e51b8152602060048201526014602482015273424c4f434b484153485f4e4f545f554e4951554560601b6044820152606401610af2565b60005b81811015611ab157611a9f8787878787868181106119ee576119ee615607565b9050602002810190611a009190615916565b604080516020810195909552840192909252606083015235608082015260a00160405160208183030381529060405280519060200120858584818110611a4857611a48615607565b9050602002810190611a5a9190615916565b611a68906020810190615936565b878786818110611a7a57611a7a615607565b9050602002810190611a8c9190615916565b611a9a906040810190615936565b61305d565b80611aa981615633565b9150506119ce565b50600a546000611ac082610c6d565b90506000826001600160401b03811115611adc57611adc6155f1565b604051908082528060200260200182016040528015611b05578160200160208202803683370190505b50905060005b83811015611bea576000805b86811015611bd557611b5a898983818110611b3457611b34615607565b9050602002810190611b469190615916565b611b54906020810190615936565b85613161565b15611b6d5781611b6981615633565b9250505b6001821115611bc357611b9a858481518110611b8b57611b8b615607565b60200260200101518b8d6131cb565b6001848481518110611bae57611bae615607565b91151560209283029190910190910152611bd5565b80611bcd81615633565b915050611b17565b50508080611be290615633565b915050611b0b565b50611bf78c8c8c846132f2565b505050505050505050505050565b6001546001600160a01b03821660009081526010602052604081209091611c2c9190612d39565b5092915050565b60078160028110611c4357600080fd5b0154905081565b604554610100900460ff1615808015611c6a5750604554600160ff909116105b80611c845750303b158015611c84575060455460ff166001145b611ce75760405162461bcd60e51b815260206004820152602e60248201527f496e697469616c697a61626c653a20636f6e747261637420697320616c72656160448201526d191e481a5b9a5d1a585b1a5e995960921b6064820152608401610af2565b6045805460ff191660011790558015611d0a576045805461ff0019166101001790555b336002600160a01b0314611d4e5760405163973d02cb60e01b815260206004820152600a60248201526914d654d5115350d0531360b21b6044820152606401610af2565b6001805560608b0135600055611d6382612e3b565b611d6b613701565b8a3560035560208b013560045560408b013560055560005b89811015611e8b57611da08b8b838181106117bc576117bc615607565b60006040518060c001604052808b8b85818110611dbf57611dbf615607565b905060800201600480602002604051908101604052809291908260046020028082843760009201919091525050508152602001898985818110611e0457611e04615607565b905060200201358152602001898985818110611e2257611e22615607565b9050602002013581526020016000815260200160008152602001600115158152509050611e788c8c84818110611e5a57611e5a615607565b9050602002016020810190611e6f919061505a565b600990836120b8565b5080611e8381615633565b915050611d83565b50600680546001600160a01b0319166001600160a01b038616179055611eb46007846002614f04565b508015611efb576045805461ff0019169055604051600181527f7f26b83ff96e1f2b6a682f133852f6798a09c465da95921460cefb38474024989060200160405180910390a15b5050505050505050505050565b6110013314611f4e5760405162461bcd60e51b815260206004820152601260248201527127a7262cafa9aa20aa22a922a1a2a4ab22a960711b6044820152606401610af2565b600080611f5d838501856159c6565b9092509050611f6e600983836120b8565b816001600160a01b03167fcab5c47e498c5b85fd42d656842253cfe070f7648c3a198275347b47dec5d27b8260000151604051611fab9190615a91565b60405180910390a2816001600160a01b03167f9e71bc8eea02a63969f509818f2dafb9254532904319f9dbda79b67bd34a5f3d8260200151604051611ff291815260200190565b60405180910390a2505050505050565b61200a612db2565b60aa80546001600160a01b0383166001600160a01b0319909116811790915561203b6078546001600160a01b031690565b6001600160a01b03167f38d16b8cac22d99fc7c124b9cd0de2d3fa1faef420bfe791d8c362d765e2270060405160405180910390a350565b6001546001600160a01b038216600090815260106020526040812090916116d29190613730565b6001600160a01b031660009081526003918201602052604090200190565b6001600160a01b0382166120ce576120ce615887565b8060200151816040015110156120e6576120e6615887565b6120f083836137b4565b156121195760405163cda981d560e01b81526001600160a01b0383166004820152602401610af2565b806020015160000361219f576001600160a01b0382166000908152600380850160205260409091208251839291909101906121579082906004614f3e565b506020820151600482015560408201516005820155606082015160068201556080820151600782015560a0909101516008909101805460ff1916911515919091179055505050565b82546000906001600160a01b03165b6001600160a01b03811615612236576001600160a01b038116600090815260038601602052604090819020600801549084015191925082911015612211576001600160a01b039081166000908152600386016020526040902060010154166121ae565b6001600160a01b039081166000908152600386016020526040902060020154166121ae565b6040518060a00160405280836001600160a01b0316815260200160006001600160a01b0316815260200160006001600160a01b0316815260200160011515815260200184815250856003016000866001600160a01b03166001600160a01b0316815260200190815260200160002060008201518160000160006101000a8154816001600160a01b0302191690836001600160a01b0316021790555060208201518160010160006101000a8154816001600160a01b0302191690836001600160a01b0316021790555060408201518160020160006101000a8154816001600160a01b0302191690836001600160a01b0316021790555060608201518160020160146101000a81548160ff02191690831515021790555060808201518160030160008201518160000190600461236b929190614f3e565b506020820151600482015560408201516005820155606082015160068201556080820151600782015560a0909101516008909101805460ff191691151591909117905550506001600160a01b0382166123dc5784546001600160a01b0319166001600160a01b038516178555612472565b6001600160a01b0382166000908152600386016020526040908190206008015490840151101561243e576001600160a01b038281166000908152600387016020526040902060010180546001600160a01b031916918616919091179055612472565b6001600160a01b038281166000908152600387016020526040902060020180546001600160a01b0319169186169190911790555b61247c8585613805565b60018501805490600061248e83615633565b919050555082602001518560020160008282546124ab919061564c565b90915550505050505050565b6001600160a01b038116600081815260126020526040808220805460ff19169055517fcdd2e9b91a56913d370075169cefa1602ba36be5301664f752192bb1709df7579190a250565b80546001600160a01b0316801561255c575b6001600160a01b038181166000908152600384016020526040902060020154161561255c576001600160a01b03908116600090815260038301602052604090206002015416612512565b919050565b60006001600160a01b03821661258a576040516365e52d5160e11b815260040160405180910390fd5b6001600160a01b03828116600090815260038501602052604090206001015416156125e1576001600160a01b0380831660009081526003850160205260409020600101546125da91859116613b52565b90506116d2565b506001600160a01b038082166000908152600384016020526040902054165b6001600160a01b0381161580159061263957506001600160a01b0380821660009081526003850160205260409020600101548382169116145b156116d2576001600160a01b03808216600090815260038501602052604090205491925016612600565b6001600160a01b031660009081526004919091016020526040902090565b6001600160a01b0381166000908152602083905260408120546126a6575060006116d2565b826001016126b48484613ba8565b815481106126c4576126c4615607565b906000526020600020906003020160010154905092915050565b600081818112156116d2576116d2615887565b6001600160a01b0383166000908152602085905260408120549081900361279b576001808601546127219161564c565b6001600160a01b0385811660008181526020898152604080832086905580516060810182529384528382018981529084018881526001808d0180548083018255908652939094209451600390930290940180546001600160a01b031916929095169190911784555190830155516002909101559050612801565b6000856001016127ab8787613ba8565b815481106127bb576127bb615607565b90600052602060002090600302019050838160010160008282546127df919061565f565b92505081905550828160020160008282546127fa919061565f565b9091555050505b5050505050565b612839816001805461281a919061564c565b6001600160a01b03851660009081526010602052604090209190613bdc565b816001600160a01b03167f655c1cd0236fb6dc4916f34c8ff10e3b18fcaea5b344dfc16c36fbb1bdfc5df2826040516118af91815260200190565b6001805461288291906157c5565b8135146128c75760405162461bcd60e51b8152602060048201526013602482015272115413d0d217d393d517d0d3d3535255151151606a1b6044820152606401610af2565b60006128d66020830183615ac2565b915050606481118015906128ec5750600a548111155b6129085760405162461bcd60e51b8152600401610af2906158ee565b6000612912610d78565b60035490915060005b838110156128015760006129326020870187615ac2565b8381811061294257612942615607565b9050604002018036038101906129589190615b0b565b805190915060009061296c9060099061209a565b9050600061297e604089013587615b62565b6020840151845161299190600990612663565b5460048501546129a1919061564c565b6129ab9088615b62565b6129b59190615b62565b6129bf9190615b79565b90506000806129d2856000015184613d02565b915091506129e4856000015183613dcc565b84516129f09082613e37565b5050505050806129ff90615633565b905061291b565b600f60005b8154811015612b8b576000828281548110612a2857612a28615607565b6000918252602080832060408051606081018252600390940290910180546001600160a01b0316808552600182015493850193909352600201549083015290925090612a7560098361209a565b9050612a826009836137b4565b15612a9257612a92600983613e81565b612aae83602001518260040154612aa9919061565f565b61426b565b6004820155604083015160208401516005830154612ada9291612ad09161565f565b612aa9919061565f565b6005820155604080516101408101909152612b61908390838160c081018260048282826020028201915b815481526020019060010190808311612b045750505091835250506004820154602082015260058201546040820152600682015460608201526007820154608082015260089091015460ff16151560a090910152600991906120b8565b506001600160a01b03166000908152600e602052604081205550612b8481615633565b9050612a0b565b5061165c600e614281565b81546000908103612ba9575060006116d2565b82546000905b80821015612bf6576000612bc3838361428f565b60008781526020902090915085908201541115612be257809150612bf0565b612bed81600161564c565b92505b50612baf565b600082118015612c22575083612c1f86612c116001866157c5565b600091825260209091200190565b54145b15612c3b57612c326001836157c5565b925050506116d2565b5090506116d2565b505092915050565b6001600160a01b038216600090815260058401602052604081208054839290612c759084906157c5565b9091555050825481908490600090612c8e9084906157c5565b90915550506001830154612cac90612ca7908390615b62565b6126de565b6001600160a01b038316600090815260038501602052604081208054909190612cd690849061565f565b9091555050505050565b600260dc5403612d325760405162461bcd60e51b815260206004820152601f60248201527f5265656e7472616e637947756172643a207265656e7472616e742063616c6c006044820152606401610af2565b600260dc55565b81546000905b8360010154811015612da457600081815260028501602090815260409182902082518084019093528054835260010154908201819052841015612d825750612da4565b8051612d8e908461564c565b9250508080612d9c90615633565b915050612d3f565b9250929050565b600160dc55565b6078546001600160a01b0316331461171b5760405162461bcd60e51b815260206004820181905260248201527f4f776e61626c653a2063616c6c6572206973206e6f7420746865206f776e65726044820152606401610af2565b6001600160a01b0381166000908152600483016020526040812054612e3184846142aa565b6116cf91906157c5565b60aa80546001600160a01b031916905561165c81614324565b6001600160a01b038116600081815260126020526040808220805460ff19166001179055517fa850ae9193f515cbae8d35e8925bd2be26627fc91bce650b8652ed254e9cab039190a250565b612ea982610a1e565b60a00151612eee5760405163973d02cb60e01b815260206004820152601160248201527024a72b20a624a22fab20a624a220aa27a960791b6044820152606401610af2565b612efd8260006114d3846126de565b612f148382612f0d600986612663565b9190614376565b816001600160a01b0316836001600160a01b03167fe5541a6b6103d4fa7e021ed54fad39c66f27a76bd13d374cf6240ae6bd0bb72b83604051612f5991815260200190565b60405180910390a3505050565b6000612f728383612e0c565b6001600160a01b0383166000908152600485016020526040812080549293508392909190612fa190849061564c565b90915550909392505050565b600081815b81811015613052576000612fc782600161564c565b90505b8281101561303f57858582818110612fe457612fe4615607565b9050602002810190612ff69190615916565b3586868481811061300957613009615607565b905060200281019061301b9190615916565b350361302d57600093505050506116d2565b8061303781615633565b915050612fca565b508061304a81615633565b915050612fb2565b506001949350505050565b6000806120306001600160a01b0316620249f08888888888604051602001613089959493929190615bb6565b60408051601f19818403018152908290526130a391615bef565b6000604051808303818686fa925050503d80600081146130df576040519150601f19603f3d011682016040523d82523d6000602084013e6130e4565b606091505b50915091506000818060200190518101906130ff9190615c1e565b905082801561310b5750805b6131575760405162461bcd60e51b815260206004820152601d60248201527f5349474e41545552455f564552494649434154494f4e5f4641494c45440000006044820152606401610af2565b5050505050505050565b60008061316f600884615b79565b9050600061317e6008856157ee565b9050848210613192576000925050506131c4565b6000600160ff83161b8787858181106131ad576131ad615607565b9050013560f81c60f81b60f81c60ff161611925050505b9392505050565b60008281526101406020908152604080832084845282528083206001600160a01b038716845290915290205460ff161561320457505050565b60008281526101406020908152604080832084845282528083206001600160a01b03871684529091528120805460ff1916600117905561324560098561209a565b60058101546004820154919250906064613260600a84615b62565b61326a9190615b79565b83600501600082825461327d91906157c5565b9091555060649050613290600a83615b62565b61329a9190615b79565b8360040160008282546132ad91906157c5565b9091555050604051849086906001600160a01b038916907f2d7432ca38933aadba9547f33f0568008e240e52e66f1a16c6182e742bce3b1390600090a4505050505050565b600180546000918261330383615633565b91905055905080851461334e5760405162461bcd60e51b815260206004820152601360248201527215539156141150d5115117d15413d0d217d251606a1b6044820152606401610af2565b83356020850135116133985760405162461bcd60e51b81526020600482015260136024820152721393d7d09313d0d2d4d7d0d3d3535255151151606a1b6044820152606401610af2565b8335601160006133a96001856157c5565b81526020019081526020016000206001015460016133c7919061564c565b1461340a5760405162461bcd60e51b8152602060048201526013602482015272494e56414c49445f53544152545f424c4f434b60681b6044820152606401610af2565b600081815260116020908152604080832087830135600180830182905589358355928901356002808401919091558054938401815585527f405787fa12a823e0f2b7631cc41b3ba8828b3321ca811111fa75cd3aa3bb5ace90920191909155919061347790860186615ac2565b9150506064811180159061348d5750600a548111155b6134a95760405162461bcd60e51b8152600401610af2906158ee565b60006134b3610d78565b90506000805460646134c59190615b62565b6134d4893560208b01356157c5565b6003546134e19190615b62565b6134ec906064615b62565b6134f69190615b79565b905060005b838110156136a55786818151811061351557613515615607565b602002602001015161369557600061353060208a018a615ac2565b8381811061354057613540615607565b9050604002018036038101906135569190615b0b565b805190915060009061356a9060099061209a565b9050600061357c60408c013587615b62565b6020840151845161358f90600990612663565b54600485015461359f919061564c565b6135a99088615b62565b6135b39190615b62565b6135bd9190615b79565b90506000806135d0856000015184613d02565b91509150818460070160008282546135e8919061564c565b909155505084516040518481526001600160a01b03909116907f65da9d8bbc1fc112cfb499f15f17b3bfe4c5070dfca6a3e30f7f5f7f17bd86849060200160405180910390a2845161364890829061364290600990612663565b906143fc565b84600001516001600160a01b03167f520e62b73478b262ede881cd483440f8e7b8a4651b0ff9154aeb3510089ddbac8260405161368791815260200190565b60405180910390a250505050505b61369e81615633565b90506134fb565b506136ae612a06565b876020013588600001358a7f0ce8712c4dee4bd5a691f0bc1c39594671591e77395f8ebf6a3fb5f63fbea66a8b604001356040516136ee91815260200190565b60405180910390a4505050505050505050565b604554610100900460ff166137285760405162461bcd60e51b8152600401610af290615c3b565b61171b614475565b6000806001846001015461374491906157c5565b90505b83548110611c2c5760008181526002850160209081526040918290208251808401909352805483526001015490820181905284106137855750611c2c565b8051613791908461564c565b9250816000036137a15750611c2c565b50806137ac81615c86565b915050613747565b60006001600160a01b038216158015906116cf575082546001600160a01b03838116911614806116cf5750506001600160a01b03908116600090815260039290920160205260409091205416151590565b60005b82546001600160a01b0383811691161480159061385257506001600160a01b0382811660009081526003850160205260408082205490921681522060020154600160a01b900460ff165b15613b24576001600160a01b038083166000908152600385016020526040808220548316808352818320548416835291206001015490911681036139da576001600160a01b0381811660009081526003860160205260408082205483168252808220600290810154909316808352912090910154909250600160a01b900460ff161561393b576001600160a01b0380821660008181526003870160205260408082206002808201805460ff60a01b1990811690915588871685528385208201805482169055825487168552928420018054909216600160a01b1790915591905254169250613b1e565b6001600160a01b03808216600090815260038601602052604090206002015481169084160361397157809250613971848461449c565b506001600160a01b0380831660009081526003850160205260408082205483168083528183206002808201805460ff60a01b19908116909155825487168652938520018054909316600160a01b17909255918290525490916139d59186911661464f565b613b1e565b6001600160a01b03818116600090815260038601602052604080822054831682528082206001015490921680825291902060020154909250600160a01b900460ff1615613a84576001600160a01b0380821660008181526003870160205260408082206002808201805460ff60a01b1990811690915588871685528385208201805482169055825487168552928420018054909216600160a01b1790915591905254169250613b1e565b6001600160a01b038082166000908152600386016020526040902060010154811690841603613aba57809250613aba848461464f565b506001600160a01b0380831660009081526003850160205260408082205483168083528183206002808201805460ff60a01b19908116909155825487168652938520018054909316600160a01b1790925591829052549091613b1e9186911661449c565b50613808565b505080546001600160a01b03166000908152600390910160205260409020600201805460ff60a01b19169055565b60005b6001600160a01b0382811660009081526003850160205260409020600201541615613ba2576001600160a01b03918216600090815260038401602052604090206002015490911690613b55565b50919050565b6001600160a01b03811660009081526020839052604081205490819003613bd157613bd1615887565b6116cf6001826157c5565b81600003613bec57613bec615887565b82546001840154818103613c43576040805180820182528581526020808201868152600085815260028a019092529281209151825591516001918201558601805491613c3783615633565b91905055505050505050565b60006002860181613c556001856157c5565b815260200190815260200160002060010154905080841015613c7957613c79615887565b83811015613cc8576040805180820182528681526020808201878152600086815260028b019092529281209151825591516001918201558701805491613cbe83615633565b9190505550613cfa565b84600287016000613cda6001866157c5565b815260200190815260200160002060000160008282546127fa919061564c565b505050505050565b6000806000613d1085610a1e565b60208101519091506000613d25600988612663565b5490506000829003613d405760008094509450505050612da4565b80600003613d575785600094509450505050612da4565b6000613d63828461564c565b613d6d8489615b62565b613d779190615b79565b90506000613d8582896157c5565b905060006064828760600151613d9b9190615b62565b613da59190615b79565b9050613db1818461564c565b613dbb82846157c5565b975097505050505050509250929050565b6000613dd960098461209a565b905081816007016000828254613def919061564c565b90915550506040518281526001600160a01b038416907f65da9d8bbc1fc112cfb499f15f17b3bfe4c5070dfca6a3e30f7f5f7f17bd86849060200160405180910390a2505050565b613e4681613642600985612663565b816001600160a01b03167f520e62b73478b262ede881cd483440f8e7b8a4651b0ff9154aeb3510089ddbac826040516118af91815260200190565b6001600160a01b038116613e9757613e97615887565b613ea182826137b4565b613ec957604051634b2990ed60e11b81526001600160a01b0382166004820152602401610af2565b6001600160a01b03818116600090815260038401602052604081206001015490918291161580613f1657506001600160a01b03838116600090815260038601602052604090206002015416155b15613f22575081613f8e565b506001600160a01b038083166000908152600385016020526040902060020154165b6001600160a01b0381811660009081526003860160205260409020600101541615613f8e576001600160a01b03908116600090815260038501602052604090206001015416613f44565b6001600160a01b0381811660009081526003860160205260409020600101541615613fda576001600160a01b038082166000908152600386016020526040902060010154169150613ffd565b6001600160a01b0380821660009081526003860160205260409020600201541691505b6001600160a01b038082166000908152600386016020526040808220548584168352912080546001600160a01b0319169190921690811790915580156140d6576001600160a01b03808216600090815260038701602052604090206001015481169083160361409e576001600160a01b038181166000908152600387016020526040902060010180546001600160a01b0319169185169190911790556140f0565b6001600160a01b038181166000908152600387016020526040902060020180546001600160a01b0319169185169190911790556140f0565b84546001600160a01b0319166001600160a01b0384161785555b6001600160a01b038281166000818152600388016020526040902060020154600160a01b900460ff1615918616146141cb5761412d868487614802565b6001600160a01b03858116600090815260038801602052604080822060018082015488861680865284862092830180549288166001600160a01b03199384168117909155865284862080548316821790556002938401805494909301805494909716938216841787559285529284208054909316821790925590549152815460ff60a01b1916600160a01b9182900460ff1615159091021790559193915b80156141db576141db86856148fa565b6001600160a01b0383166000908152600387016020526040812080546001600160a01b0319908116825560018083018054909216909155600290910180546001600160a81b0319169055870180549161423383615c86565b90915550506001600160a01b0383166000908152600387016020526040812060070154600288018054919290916127fa9084906157c5565b60008082121561427d5761427d615887565b5090565b61165c600182016000614f6c565b600061429e6002848418615b79565b6116cf9084841661564c565b6001600160a01b0381166000908152600583016020526040812054600184015482916142da91612ca79190615b62565b6001600160a01b03841660009081526003860160205260408120549192509061430790612aa9908461565f565b905061431b670de0b6b3a764000082615b79565b95945050505050565b607880546001600160a01b038381166001600160a01b0319831681179093556040519116919082907f8be0079c531659141344cd1fd0a4f28419497f9722a3daafe3b4186f6b6457e090600090a35050565b6001600160a01b0382166000908152600584016020526040812080548392906143a090849061564c565b90915550508254819084906000906143b990849061564c565b909155505060018301546143d290612ca7908390615b62565b6001600160a01b038316600090815260038501602052604081208054909190612cd69084906156d9565b80600003614408575050565b815460000361443b576002820154604051636130835f60e01b81526001600160a01b039091166004820152602401610af2565b815461444f670de0b6b3a764000083615b62565b6144599190615b79565b82600101600082825461446c919061564c565b90915550505050565b604554610100900460ff16612dab5760405162461bcd60e51b8152600401610af290615c3b565b6001600160a01b038082166000818152600385016020526040808220600281018054915482871680865293852060010154959094526001600160a01b03199091169385169384179055921690801561451f576001600160a01b038181166000908152600387016020526040902080546001600160a01b0319169186169190911790555b6001600160a01b038381166000908152600387016020526040902080546001600160a01b03191691841691821790556145705784546001600160a01b0319166001600160a01b038416178555614605565b6001600160a01b0380831660009081526003870160205260409020600101548116908516036145d1576001600160a01b038281166000908152600387016020526040902060010180546001600160a01b031916918516919091179055614605565b6001600160a01b038281166000908152600387016020526040902060020180546001600160a01b0319169185169190911790555b50506001600160a01b039081166000818152600390940160205260408085206001018054939094166001600160a01b03199384168117909455928452919092208054909216179055565b6001600160a01b038082166000818152600385016020526040808220600181018054915482871680865293852060020154959094526001600160a01b0319909116938516938417905592169080156146d2576001600160a01b038181166000908152600387016020526040902080546001600160a01b0319169186169190911790555b6001600160a01b038381166000908152600387016020526040902080546001600160a01b03191691841691821790556147235784546001600160a01b0319166001600160a01b0384161785556147b8565b6001600160a01b038083166000908152600387016020526040902060020154811690851603614784576001600160a01b038281166000908152600387016020526040902060020180546001600160a01b0319169185169190911790556147b8565b6001600160a01b038281166000908152600387016020526040902060010180546001600160a01b0319169185169190911790555b50506001600160a01b039081166000818152600390940160205260408085206002018054939094166001600160a01b03199384168117909455928452919092208054909216179055565b6001600160a01b038082166000908152600385016020526040808220548584168352912080546001600160a01b031916919092169081179091558061485f5783546001600160a01b0319166001600160a01b0384161784556148f4565b6001600160a01b0380821660009081526003860160205260409020600101548116908316036148c0576001600160a01b038181166000908152600386016020526040902060010180546001600160a01b0319169185169190911790556148f4565b6001600160a01b038181166000908152600386016020526040902060020180546001600160a01b0319169185169190911790555b50505050565b60005b82546001600160a01b0383811691161480159061493f57506001600160a01b0382166000908152600384016020526040902060020154600160a01b900460ff16155b15614e9b576001600160a01b0380831660008181526003860160205260408082205484168083529120600101549092169003614c09576001600160a01b038181166000908152600386016020526040808220600290810154909316808352912090910154909250600160a01b900460ff1615614a26576001600160a01b0380831660009081526003860160205260408082206002908101805460ff60a01b1990811690915593851683529120018054909116600160a01b179055614a03848261449c565b6001600160a01b0380821660009081526003860160205260409020600201541691505b6001600160a01b0382811660009081526003860160205260408082206001015490921681522060020154600160a01b900460ff16158015614a9957506001600160a01b038281166000908152600386016020526040808220600290810154909316825290200154600160a01b900460ff16155b15614ad4576001600160a01b03821660009081526003850160205260409020600201805460ff60a01b1916600160a01b179055915081614e95565b6001600160a01b038281166000908152600386016020526040808220600290810154909316825290200154600160a01b900460ff16614b89576001600160a01b0380831660008181526003870160205260408082206001810154909416825281206002908101805460ff60a01b19908116909155929091529091018054909116600160a01b179055614b66848361464f565b6001600160a01b0380821660009081526003860160205260409020600201541691505b6001600160a01b0380821660009081526003860160205260408082206002908101805487861685528385208301805460ff600160a01b9384900416151590920260ff60a01b19928316178155825482169092559054909416835291200180549091169055614bf7848261449c565b83546001600160a01b03169250614e95565b6001600160a01b0381811660009081526003860160205260408082206001015490921680825291902060020154909250600160a01b900460ff1615614cb9576001600160a01b0380831660009081526003860160205260408082206002908101805460ff60a01b1990811690915593851683529120018054909116600160a01b179055614c96848261464f565b6001600160a01b0380821660009081526003860160205260409020600101541691505b6001600160a01b038281166000908152600386016020526040808220600290810154909316825290200154600160a01b900460ff16158015614d2c57506001600160a01b0382811660009081526003860160205260408082206001015490921681522060020154600160a01b900460ff16155b15614d67576001600160a01b03821660009081526003850160205260409020600201805460ff60a01b1916600160a01b179055915081614e95565b6001600160a01b0382811660009081526003860160205260408082206001015490921681522060020154600160a01b900460ff16614e14576001600160a01b03808316600081815260038701602052604080822060029081018054909516835290822001805460ff60a01b19908116909155919052815416600160a01b179055614df1848361449c565b6001600160a01b0380821660009081526003860160205260409020600101541691505b6001600160a01b038082166000908152600386016020526040808220600290810180548786168552838520808401805460ff600160a01b9485900416151590930260ff60a01b1993841617905582548216909255600190910154909416835291200180549091169055614e87848261464f565b83546001600160a01b031692505b506148fd565b506001600160a01b03166000908152600390910160205260409020600201805460ff60a01b19169055565b6040518060c00160405280614ed9614f8d565b8152602001600081526020016000815260200160008152602001600081526020016000151581525090565b8260028101928215614f32579160200282015b82811115614f32578235825591602001919060010190614f17565b5061427d929150614fab565b8260048101928215614f32579160200282015b82811115614f32578251825591602001919060010190614f51565b508054600082556003029060005260206000209081019061165c9190614fc0565b60405180608001604052806004906020820280368337509192915050565b5b8082111561427d5760008155600101614fac565b5b8082111561427d5780546001600160a01b03191681556000600182018190556002820155600301614fc1565b6020808252825182820181905260009190848201906040850190845b8181101561502e5783516001600160a01b031683529284019291840191600101615009565b50909695505050505050565b6001600160a01b038116811461165c57600080fd5b803561255c8161503a565b60006020828403121561506c57600080fd5b81356131c48161503a565b81516101208201908260005b60048110156150a2578251825260209283019290910190600101615083565b50505060208301516080830152604083015160a0830152606083015160c0830152608083015160e083015260a0830151611c2c61010084018215159052565b80604081018310156116d257600080fd5b60008060c0838503121561510557600080fd5b61510f84846150e1565b91508360c08401111561512157600080fd5b50926040919091019150565b60006020828403121561513f57600080fd5b5035919050565b600060608284031215613ba257600080fd5b600080600060a0848603121561516d57600080fd5b8335925061517e8560208601615146565b915060808401356001600160401b0381111561519957600080fd5b6151a586828701615146565b9150509250925092565b600080604083850312156151c257600080fd5b82356151cd8161503a565b946020939093013593505050565b60008083601f8401126151ed57600080fd5b5081356001600160401b0381111561520457600080fd5b6020830191508360208260051b8501011115612da457600080fd5b6000806020838503121561523257600080fd5b82356001600160401b0381111561524857600080fd5b615254858286016151db565b90969095509350505050565b6000806040838503121561527357600080fd5b823561527e8161503a565b9150602083013561528e8161503a565b809150509250929050565b6000806000606084860312156152ae57600080fd5b833592506020840135915060408401356152c78161503a565b809150509250925092565b801515811461165c57600080fd5b803561255c816152d2565b600080604083850312156152fe57600080fd5b82356153098161503a565b9150602083013561528e816152d2565b600080600080600080600080610120898b03121561533657600080fd5b883597506153478a60208b01615146565b965060808901356001600160401b038082111561536357600080fd5b61536f8c838d01615146565b975060a08b0135965060c08b0135955060e08b013594506101008b013591508082111561539b57600080fd5b506153a88b828c016151db565b999c989b5096995094979396929594505050565b60008083601f8401126153ce57600080fd5b5081356001600160401b038111156153e557600080fd5b6020830191508360208260071b8501011115612da457600080fd5b6000806000806000806000806000808a8c0361016081121561542157600080fd5b608081121561542f57600080fd5b508a995060808b01356001600160401b038082111561544d57600080fd5b6154598e838f016151db565b909b50995060a08d013591508082111561547257600080fd5b61547e8e838f016153bc565b909950975060c08d013591508082111561549757600080fd5b506154a48d828e016151db565b90965094506154b7905060e08c0161504f565b92506154c78c6101008d016150e1565b91506154d66101408c0161504f565b90509295989b9194979a5092959850565b600080600080606085870312156154fd57600080fd5b84359350602085013561550f8161503a565b925060408501356001600160401b038082111561552b57600080fd5b818701915087601f83011261553f57600080fd5b81358181111561554e57600080fd5b88602082850101111561556057600080fd5b95989497505060200194505050565b61010081016040858337608084604084013760c082018360005b60028110156155a8578154835260209092019160019182019101615589565b505050949350505050565b600080604083850312156155c657600080fd5b82516155d1816152d2565b602084015190925061528e816152d2565b60808181019083833792915050565b634e487b7160e01b600052604160045260246000fd5b634e487b7160e01b600052603260045260246000fd5b634e487b7160e01b600052601160045260246000fd5b6000600182016156455761564561561d565b5060010190565b808201808211156116d2576116d261561d565b8082018281126000831280158216821582161715612c4357612c4361561d565b6040815260006156a6604083016007815266756e7374616b6560c81b602082015260400190565b82810360208401526131c4816014815273494e53554646494349454e545f42414c414e434560601b602082015260400190565b8181036000831280158383131683831282161715611c2c57611c2c61561d565b604081526000615720604083016007815266756e7374616b6560c81b602082015260400190565b82810360208401526131c481600d81526c5354414b455f544f4f5f4c4f5760981b602082015260400190565b80820260008212600160ff1b841416156157685761576861561d565b81810583148215176116d2576116d261561d565b6040815260056040820152647374616b6560d81b60608201526080602082015260006116d260808301600d81526c5354414b455f544f4f5f4c4f5760981b602082015260400190565b818103818111156116d2576116d261561d565b634e487b7160e01b600052601260045260246000fd5b6000826157fd576157fd6157d8565b500690565b6040815260006156a660408301600a815269756e64656c656761746560b01b602082015260400190565b60408152600061585660408301600a815269756e64656c656761746560b01b602082015260400190565b82810360208401526131c481601281527144454c45474154494f4e5f544f4f5f4c4f5760701b602082015260400190565b634e487b7160e01b600052600160045260246000fd5b60408152600860408201526764656c656761746560c01b60608201526080602082015260006116d260808301601281527144454c45474154494f4e5f544f4f5f4c4f5760701b602082015260400190565b6020808252600e908201526d0929cac82989288be988a9c8ea8960931b604082015260600190565b60008235605e1983360301811261592c57600080fd5b9190910192915050565b6000808335601e1984360301811261594d57600080fd5b8301803591506001600160401b0382111561596757600080fd5b602001915036819003821315612da457600080fd5b60405160c081016001600160401b038111828210171561599e5761599e6155f1565b60405290565b604051608081016001600160401b038111828210171561599e5761599e6155f1565b6000808284036101408112156159db57600080fd5b83356159e68161503a565b92506020610120601f1983018113156159fe57600080fd5b615a0661597c565b925086603f870112615a1757600080fd5b615a1f6159a4565b8060a0880189811115615a3157600080fd5b8489015b81811015615a4c5780358452928501928501615a35565b5090855235838501525060c0860135604084015260e086013560608401526101008601356080840152615a808187016152e0565b60a084015250929590945092505050565b60808101818360005b6004811015615ab9578151835260209283019290910190600101615a9a565b50505092915050565b6000808335601e19843603018112615ad957600080fd5b8301803591506001600160401b03821115615af357600080fd5b6020019150600681901b3603821315612da457600080fd5b600060408284031215615b1d57600080fd5b604051604081018181106001600160401b0382111715615b3f57615b3f6155f1565b6040528235615b4d8161503a565b81526020928301359281019290925250919050565b80820281158282048414176116d2576116d261561d565b600082615b8857615b886157d8565b500490565b81835281816020850137506000828201602090810191909152601f909101601f19169091010190565b858152606060208201526000615bd0606083018688615b8d565b8281036040840152615be3818587615b8d565b98975050505050505050565b6000825160005b81811015615c105760208186018101518583015201615bf6565b506000920191825250919050565b600060208284031215615c3057600080fd5b81516131c4816152d2565b6020808252602b908201527f496e697469616c697a61626c653a20636f6e7472616374206973206e6f74206960408201526a6e697469616c697a696e6760a81b606082015260800190565b600081615c9557615c9561561d565b50600019019056fea26469706673582212203b82ac40a66563bbdfc8ca48bf7ef68f4efbe235282a7658b49fae2f268a9e3864736f6c63430008110033",
  "linkReferences": {},
  "deployedLinkReferences": {}
}