{
  "_format": "hh-sol-artifact-1",
  "contractName": "StateReceiver",
  "sourceName": "contracts/child/StateReceiver.sol",
  "abi": [
    {
      "inputs": [
        {
          "internalType": "string",
          "name": "only",
          "type": "string"
        }
      ],
      "name": "Unauthorized",
      "type": "error"
    },
    {
      "anonymous": false,
      "inputs": [
        {
          "indexed": true,
          "internalType": "uint256",
          "name": "startId",
          "type": "uint256"
        },
        {
          "indexed": true,
          "internalType": "uint256",
          "name": "endId",
          "type": "uint256"
        },
        {
          "indexed": false,
          "internalType": "bytes32",
          "name": "root",
          "type": "bytes32"
        }
      ],
      "name": "NewCommitment",
      "type": "event"
    },
    {
      "anonymous": false,
      "inputs": [
        {
          "indexed": true,
          "internalType": "uint256",
          "name": "counter",
          "type": "uint256"
        },
        {
          "indexed": true,
          "internalType": "bool",
          "name": "status",
          "type": "bool"
        },
        {
          "indexed": false,
          "internalType": "bytes",
          "name": "message",
          "type": "bytes"
        }
      ],
      "name": "StateSyncResult",
      "type": "event"
    },
    {
      "inputs": [],
      "name": "NATIVE_TOKEN_CONTRACT",
      "outputs": [
        {
          "internalType": "address",
          "name": "",
          "type": "address"
        }
      ],
      "stateMutability": "view",
      "type": "function"
    },
    {
      "inputs": [],
      "name": "NATIVE_TRANSFER_PRECOMPILE",
      "outputs": [
        {
          "internalType": "address",
          "name": "",
          "type": "address"
        }
      ],
      "stateMutability": "view",
      "type": "function"
    },
    {
      "inputs": [],
      "name": "NATIVE_TRANSFER_PRECOMPILE_GAS",
      "outputs": [
        {
          "internalType": "uint256",
          "name": "",
          "type": "uint256"
        }
      ],
      "stateMutability": "view",
      "type": "function"
    },
    {
      "inputs": [],
      "name": "SYSTEM",
      "outputs": [
        {
          "internalType": "address",
          "name": "",
          "type": "address"
        }
      ],
      "stateMutability": "view",
      "type": "function"
    },
    {
      "inputs": [],
      "name": "VALIDATOR_PKCHECK_PRECOMPILE",
      "outputs": [
        {
          "internalType": "address",
          "name": "",
          "type": "address"
        }
      ],
      "stateMutability": "view",
      "type": "function"
    },
    {
      "inputs": [],
      "name": "VALIDATOR_PKCHECK_PRECOMPILE_GAS",
      "outputs": [
        {
          "internalType": "uint256",
          "name": "",
          "type": "uint256"
        }
      ],
      "stateMutability": "view",
      "type": "function"
    },
    {
      "inputs": [
        {
          "internalType": "bytes32[][]",
          "name": "proofs",
          "type": "bytes32[][]"
        },
        {
          "components": [
            {
              "internalType": "uint256",
              "name": "id",
              "type": "uint256"
            },
            {
              "internalType": "address",
              "name": "sender",
              "type": "address"
            },
            {
              "internalType": "address",
              "name": "receiver",
              "type": "address"
            },
            {
              "internalType": "bytes",
              "name": "data",
              "type": "bytes"
            }
          ],
          "internalType": "struct StateReceiver.StateSync[]",
          "name": "objs",
          "type": "tuple[]"
        }
      ],
      "name": "batchExecute",
      "outputs": [],
      "stateMutability": "nonpayable",
      "type": "function"
    },
    {
      "inputs": [
        {
          "components": [
            {
              "internalType": "uint256",
              "name": "startId",
              "type": "uint256"
            },
            {
              "internalType": "uint256",
              "name": "endId",
              "type": "uint256"
            },
            {
              "internalType": "bytes32",
              "name": "root",
              "type": "bytes32"
            }
          ],
          "internalType": "struct StateReceiver.StateSyncCommitment",
          "name": "commitment",
          "type": "tuple"
        },
        {
          "internalType": "bytes",
          "name": "signature",
          "type": "bytes"
        },
        {
          "internalType": "bytes",
          "name": "bitmap",
          "type": "bytes"
        }
      ],
      "name": "commit",
      "outputs": [],
      "stateMutability": "nonpayable",
      "type": "function"
    },
    {
      "inputs": [],
      "name": "commitmentCounter",
      "outputs": [
        {
          "internalType": "uint256",
          "name": "",
          "type": "uint256"
        }
      ],
      "stateMutability": "view",
      "type": "function"
    },
    {
      "inputs": [
        {
          "internalType": "uint256",
          "name": "",
          "type": "uint256"
        }
      ],
      "name": "commitmentIds",
      "outputs": [
        {
          "internalType": "uint256",
          "name": "",
          "type": "uint256"
        }
      ],
      "stateMutability": "view",
      "type": "function"
    },
    {
      "inputs": [
        {
          "internalType": "uint256",
          "name": "",
          "type": "uint256"
        }
      ],
      "name": "commitments",
      "outputs": [
        {
          "internalType": "uint256",
          "name": "startId",
          "type": "uint256"
        },
        {
          "internalType": "uint256",
          "name": "endId",
          "type": "uint256"
        },
        {
          "internalType": "bytes32",
          "name": "root",
          "type": "bytes32"
        }
      ],
      "stateMutability": "view",
      "type": "function"
    },
    {
      "inputs": [
        {
          "internalType": "bytes32[]",
          "name": "proof",
          "type": "bytes32[]"
        },
        {
          "components": [
            {
              "internalType": "uint256",
              "name": "id",
              "type": "uint256"
            },
            {
              "internalType": "address",
              "name": "sender",
              "type": "address"
            },
            {
              "internalType": "address",
              "name": "receiver",
              "type": "address"
            },
            {
              "internalType": "bytes",
              "name": "data",
              "type": "bytes"
            }
          ],
          "internalType": "struct StateReceiver.StateSync",
          "name": "obj",
          "type": "tuple"
        }
      ],
      "name": "execute",
      "outputs": [],
      "stateMutability": "nonpayable",
      "type": "function"
    },
    {
      "inputs": [
        {
          "internalType": "uint256",
          "name": "id",
          "type": "uint256"
        }
      ],
      "name": "getCommitmentByStateSyncId",
      "outputs": [
        {
          "components": [
            {
              "internalType": "uint256",
              "name": "startId",
              "type": "uint256"
            },
            {
              "internalType": "uint256",
              "name": "endId",
              "type": "uint256"
            },
            {
              "internalType": "bytes32",
              "name": "root",
              "type": "bytes32"
            }
          ],
          "internalType": "struct StateReceiver.StateSyncCommitment",
          "name": "",
          "type": "tuple"
        }
      ],
      "stateMutability": "view",
      "type": "function"
    },
    {
      "inputs": [
        {
          "internalType": "uint256",
          "name": "id",
          "type": "uint256"
        }
      ],
      "name": "getRootByStateSyncId",
      "outputs": [
        {
          "internalType": "bytes32",
          "name": "",
          "type": "bytes32"
        }
      ],
      "stateMutability": "view",
      "type": "function"
    },
    {
      "inputs": [],
      "name": "lastCommittedId",
      "outputs": [
        {
          "internalType": "uint256",
          "name": "",
          "type": "uint256"
        }
      ],
      "stateMutability": "view",
      "type": "function"
    },
    {
      "inputs": [
        {
          "internalType": "uint256",
          "name": "",
          "type": "uint256"
        }
      ],
      "name": "processedStateSyncs",
      "outputs": [
        {
          "internalType": "bool",
          "name": "",
          "type": "bool"
        }
      ],
      "stateMutability": "view",
      "type": "function"
    }
  ],
  "bytecode": "0x608060405234801561001057600080fd5b5061130f806100206000396000f3fe608060405234801561001057600080fd5b50600436106101005760003560e01c80639017c12711610097578063c59a18f711610066578063c59a18f71461022d578063c6df461714610240578063e0563ab114610253578063eb70ef441461025c57600080fd5b80639017c127146101fe578063947287cf1461021157806397e5230d1461021a578063ad240c2a1461022457600080fd5b806349ce8997116100d357806349ce89971461015e57806350d5b95b146101a857806351351d53146101bd578063544c5e0f146101cb57600080fd5b8063196f1b2d1461010557806323e281cf1461012b578063284017f5146101345780633b878c2214610155575b600080fd5b610118610113366004610c8d565b610291565b6040519081526020015b60405180910390f35b61011860325481565b61013d61202081565b6040516001600160a01b039091168152602001610122565b61013d61101081565b61018d61016c366004610c8d565b60356020526000908152604090208054600182015460029092015490919083565b60408051938452602084019290925290820152606001610122565b6101bb6101b6366004610cf2565b610310565b005b61013d6002600160a01b0381565b6101ee6101d9366004610c8d565b60346020526000908152604090205460ff1681565b6040519015158152602001610122565b6101bb61020c366004610d62565b6103ba565b61011861520881565b610118620249f081565b61011860335481565b61011861023b366004610c8d565b6104dc565b6101bb61024e366004610e10565b6104fd565b61013d61203081565b61026f61026a366004610c8d565b6106e1565b6040805182518152602080840151908201529181015190820152606001610122565b6000806035816102a26036866107a4565b815260208101919091526040016000206002015490508061030a5760405162461bcd60e51b815260206004820152601d60248201527f537461746552656365697665723a204e4f5f524f4f545f464f525f494400000060448201526064015b60405180910390fd5b92915050565b600061031c82356106e1565b805190915061036f90610330908435610eaf565b82604001518686866040516020016103489190610f07565b6040516020818303038152906040528051906020012061085190949392919063ffffffff16565b6103ab5760405162461bcd60e51b815260206004820152600d60248201526c24a72b20a624a22fa82927a7a360991b6044820152606401610301565b6103b48261096a565b50505050565b8260005b818110156104d45760006103f58585848181106103dd576103dd610fa4565b90506020028101906103ef9190610fba565b356106e1565b9050600061048d826000015187878681811061041357610413610fa4565b90506020028101906104259190610fba565b610430919035610eaf565b83604001518a8a8781811061044757610447610fa4565b90506020028101906104599190610fda565b8a8a8981811061046b5761046b610fa4565b905060200281019061047d9190610fba565b6040516020016103489190610f07565b90508061049e5750506001016103be565b6104ca8686858181106104b3576104b3610fa4565b90506020028101906104c59190610fba565b61096a565b50506001016103be565b505050505050565b603681815481106104ec57600080fd5b600091825260209091200154905081565b336002600160a01b03146105415760405163973d02cb60e01b815260206004820152600a60248201526914d654d5115350d0531360b21b6044820152606401610301565b60335461054f906001611024565b8535146105915760405162461bcd60e51b815260206004820152601060248201526f1253959053125117d4d510549517d25160821b6044820152606401610301565b8435602086013510156105d75760405162461bcd60e51b815260206004820152600e60248201526d1253959053125117d1539117d25160921b6044820152606401610301565b6040805186356020808301919091528701358183015290860135606082015261061c906080016040516020818303038152906040528051906020012085858585610b67565b6032805486916035916000918261063283611037565b90915550815260208082019290925260409081016000208335815591830135600183015582013560028201555050603680546001810182556000919091526020868101357f4a11f94e20a93c79f6ec743a1954ec4fc2c08429ae2122118bf234b2185c81b89092018290556033829055604080519088013581528735917f11efd893530b26afc66d488ff54cb15df117cb6e0e4a08c6dcb166d766c3bf3b910160405180910390a35050505050565b60408051606081018252600080825260208201819052918101829052906107096036846107a4565b60365490915081036107695760405162461bcd60e51b815260206004820152602360248201527f537461746552656365697665723a204e4f5f434f4d4d49544d454e545f464f5260448201526217d25160ea1b6064820152608401610301565b600090815260356020908152604091829020825160608101845281548152600182015492810192909252600201549181019190915292915050565b815460009081036107b75750600061030a565b82546000905b808210156108045760006107d18383610c6b565b600087815260209020909150859082015411156107f0578091506107fe565b6107fb816001611024565b92505b506107bd565b60008211801561083057508361082d8661081f600186610eaf565b600091825260209091200190565b54145b1561084957610840600183610eaf565b9250505061030a565b509392505050565b60008161085f816002611134565b86106108a25760405162461bcd60e51b81526020600482015260126024820152710929cac82989288be988a828cbe929c888ab60731b6044820152606401610301565b8660005b8281101561095c5760008686838181106108c2576108c2610fa4565b9050602002013590506002896108d89190611156565b60000361091057604080516020810185905290810182905260600160405160208183030381529060405280519060200120925061093d565b60408051602081018390529081018490526060016040516020818303038152906040528051906020012092505b61094860028a61116a565b9850508061095590611037565b90506108a6565b509094149695505050505050565b803560009081526034602052604090205460ff16156109da5760405162461bcd60e51b815260206004820152602660248201527f537461746552656365697665723a2053544154455f53594e435f49535f50524f60448201526510d154d4d15160d21b6064820152608401610301565b6109ea606082016040830161117e565b6001600160a01b03163b600003610a3e576040805160208082526000908201819052918335917f31c652130602f3ce96ceaf8a4c2b8b49f049166c6fcf2eb31943a75ec7c936ae910160405180910390a350565b8035600090815260346020526040808220805460ff191660011790558190610a6c906060850190850161117e565b6001600160a01b03168335610a87604086016020870161117e565b610a946060870187611199565b604051602401610aa794939291906111e0565b60408051601f198184030181529181526020820180516001600160e01b031663eeb4994560e01b17905251610adc9190611239565b6000604051808303816000865af19150503d8060008114610b19576040519150601f19603f3d011682016040523d82523d6000602084013e610b1e565b606091505b509150915081151583600001357f31c652130602f3ce96ceaf8a4c2b8b49f049166c6fcf2eb31943a75ec7c936ae83604051610b5a919061124b565b60405180910390a3505050565b6000806120306001600160a01b0316620249f08888888888604051602001610b9395949392919061127e565b60408051601f1981840301815290829052610bad91611239565b6000604051808303818686fa925050503d8060008114610be9576040519150601f19603f3d011682016040523d82523d6000602084013e610bee565b606091505b5091509150600081806020019051810190610c0991906112b7565b9050828015610c155750805b610c615760405162461bcd60e51b815260206004820152601d60248201527f5349474e41545552455f564552494649434154494f4e5f4641494c45440000006044820152606401610301565b5050505050505050565b6000610c7a600284841861116a565b610c8690848416611024565b9392505050565b600060208284031215610c9f57600080fd5b5035919050565b60008083601f840112610cb857600080fd5b50813567ffffffffffffffff811115610cd057600080fd5b6020830191508360208260051b8501011115610ceb57600080fd5b9250929050565b600080600060408486031215610d0757600080fd5b833567ffffffffffffffff80821115610d1f57600080fd5b610d2b87838801610ca6565b90955093506020860135915080821115610d4457600080fd5b50840160808187031215610d5757600080fd5b809150509250925092565b60008060008060408587031215610d7857600080fd5b843567ffffffffffffffff80821115610d9057600080fd5b610d9c88838901610ca6565b90965094506020870135915080821115610db557600080fd5b50610dc287828801610ca6565b95989497509550505050565b60008083601f840112610de057600080fd5b50813567ffffffffffffffff811115610df857600080fd5b602083019150836020828501011115610ceb57600080fd5b600080600080600085870360a0811215610e2957600080fd5b6060811215610e3757600080fd5b50859450606086013567ffffffffffffffff80821115610e5657600080fd5b610e6289838a01610dce565b90965094506080880135915080821115610e7b57600080fd5b50610e8888828901610dce565b969995985093965092949392505050565b634e487b7160e01b600052601160045260246000fd5b8181038181111561030a5761030a610e99565b80356001600160a01b0381168114610ed957600080fd5b919050565b81835281816020850137506000828201602090810191909152601f909101601f19169091010190565b60208152813560208201526000610f2060208401610ec2565b60018060a01b03808216604085015280610f3c60408701610ec2565b16606085015250506060830135601e19843603018112610f5b57600080fd5b830160208101903567ffffffffffffffff811115610f7857600080fd5b803603821315610f8757600080fd5b608080850152610f9b60a085018284610ede565b95945050505050565b634e487b7160e01b600052603260045260246000fd5b60008235607e19833603018112610fd057600080fd5b9190910192915050565b6000808335601e19843603018112610ff157600080fd5b83018035915067ffffffffffffffff82111561100c57600080fd5b6020019150600581901b3603821315610ceb57600080fd5b8082018082111561030a5761030a610e99565b60006001820161104957611049610e99565b5060010190565b600181815b8085111561108b57816000190482111561107157611071610e99565b8085161561107e57918102915b93841c9390800290611055565b509250929050565b6000826110a25750600161030a565b816110af5750600061030a565b81600181146110c557600281146110cf576110eb565b600191505061030a565b60ff8411156110e0576110e0610e99565b50506001821b61030a565b5060208310610133831016604e8410600b841016171561110e575081810a61030a565b6111188383611050565b806000190482111561112c5761112c610e99565b029392505050565b6000610c868383611093565b634e487b7160e01b600052601260045260246000fd5b60008261116557611165611140565b500690565b60008261117957611179611140565b500490565b60006020828403121561119057600080fd5b610c8682610ec2565b6000808335601e198436030181126111b057600080fd5b83018035915067ffffffffffffffff8211156111cb57600080fd5b602001915036819003821315610ceb57600080fd5b8481526001600160a01b038416602082015260606040820181905260009061120b9083018486610ede565b9695505050505050565b60005b83811015611230578181015183820152602001611218565b50506000910152565b60008251610fd0818460208701611215565b602081526000825180602084015261126a816040850160208701611215565b601f01601f19169190910160400192915050565b858152606060208201526000611298606083018688610ede565b82810360408401526112ab818587610ede565b98975050505050505050565b6000602082840312156112c957600080fd5b81518015158114610c8657600080fdfea26469706673582212204b0c9f10f03c1226a3b8e8854878f761f79eb199f2fd9a0dcdd75eac9995c07564736f6c63430008110033",
  "linkReferences": {},
  "deployedLinkReferences": {}
}