{
  "_format": "hh-sol-artifact-1",
  "contractName": "L2StateSender",
  "sourceName": "contracts/child/L2StateSender.sol",
  "abi": [
    {
      "anonymous": false,
      "inputs": [
        {
          "indexed": true,
          "internalType": "uint256",
          "name": "id",
          "type": "uint256"
        },
        {
          "indexed": true,
          "internalType": "address",
          "name": "sender",
          "type": "address"
        },
        {
          "indexed": true,
          "internalType": "address",
          "name": "receiver",
          "type": "address"
        },
        {
          "indexed": false,
          "internalType": "bytes",
          "name": "data",
          "type": "bytes"
        }
      ],
      "name": "L2StateSynced",
      "type": "event"
    },
    {
      "inputs": [],
      "name": "counter",
      "outputs": [
        {
          "internalType": "uint256",
          "name": "",
          "type": "uint256"
        }
      ],
      "stateMutability": "view",
      "type": "function"
    },
    {
      "inputs": [
        {
          "internalType": "address",
          "name": "receiver",
          "type": "address"
        },
        {
          "internalType": "bytes",
          "name": "data",
          "type": "bytes"
        }
      ],
      "name": "syncState",
      "outputs": [],
      "stateMutability": "nonpayable",
      "type": "function"
    }
  ],
  "bytecode": "0x608060405234801561001057600080fd5b50610239806100206000396000f3fe608060405234801561001057600080fd5b50600436106100365760003560e01c806316f198311461003b57806361bc221a14610050575b600080fd5b61004e61004936600461011c565b61006b565b005b61005960005481565b60405190815260200160405180910390f35b6108008111156100b65760405162461bcd60e51b815260206004820152601260248201527108ab0868a8a88a6be9a82b0be988a9c8ea8960731b604482015260640160405180910390fd5b826001600160a01b0316336001600160a01b031660008081546100d8906101ad565b9190508190557fedaf3c471ebd67d60c29efe34b639ede7d6a1d92eaeb3f503e784971e67118a5858560405161010f9291906101d4565b60405180910390a4505050565b60008060006040848603121561013157600080fd5b83356001600160a01b038116811461014857600080fd5b9250602084013567ffffffffffffffff8082111561016557600080fd5b818601915086601f83011261017957600080fd5b81358181111561018857600080fd5b87602082850101111561019a57600080fd5b6020830194508093505050509250925092565b6000600182016101cd57634e487b7160e01b600052601160045260246000fd5b5060010190565b60208152816020820152818360408301376000818301604090810191909152601f909201601f1916010191905056fea264697066735822122025c8b63e0888fc8f500a5ce6bf1553db80a3f3339c5c12f5ba280a7b7466c5f664736f6c63430008110033",
  "linkReferences": {},
  "deployedLinkReferences": {}
}