{
  "_format": "hh-sol-artifact-1",
  "contractName": "StateSender",
  "sourceName": "contracts/root/StateSender.sol",
  "abi": [
    {
      "anonymous": false,
      "inputs": [
        {
          "indexed": true,
          "internalType": "uint256",
          "name": "id",
          "type": "uint256"
        },
        {
          "indexed": true,
          "internalType": "address",
          "name": "sender",
          "type": "address"
        },
        {
          "indexed": true,
          "internalType": "address",
          "name": "receiver",
          "type": "address"
        },
        {
          "indexed": false,
          "internalType": "bytes",
          "name": "data",
          "type": "bytes"
        }
      ],
      "name": "StateSynced",
      "type": "event"
    },
    {
      "inputs": [],
      "name": "MAX_LENGTH",
      "outputs": [
        {
          "internalType": "uint256",
          "name": "",
          "type": "uint256"
        }
      ],
      "stateMutability": "view",
      "type": "function"
    },
    {
      "inputs": [],
      "name": "counter",
      "outputs": [
        {
          "internalType": "uint256",
          "name": "",
          "type": "uint256"
        }
      ],
      "stateMutability": "view",
      "type": "function"
    },
    {
      "inputs": [
        {
          "internalType": "address",
          "name": "receiver",
          "type": "address"
        },
        {
          "internalType": "bytes",
          "name": "data",
          "type": "bytes"
        }
      ],
      "name": "syncState",
      "outputs": [],
      "stateMutability": "nonpayable",
      "type": "function"
    }
  ],
  "bytecode": "0x608060405234801561001057600080fd5b50610297806100206000396000f3fe608060405234801561001057600080fd5b50600436106100415760003560e01c806316f198311461004657806361bc221a1461005b578063a6f9885c14610076575b600080fd5b61005961005436600461017a565b61007f565b005b61006460005481565b60405190815260200160405180910390f35b61006461080081565b6001600160a01b0383166100cd5760405162461bcd60e51b815260206004820152601060248201526f24a72b20a624a22fa922a1a2a4ab22a960811b60448201526064015b60405180910390fd5b6108008111156101145760405162461bcd60e51b815260206004820152601260248201527108ab0868a8a88a6be9a82b0be988a9c8ea8960731b60448201526064016100c4565b826001600160a01b0316336001600160a01b031660008081546101369061020b565b9190508190557fd1d7f6609674cc5871fdb4b0bcd4f0a214118411de9e38983866514f22659165858560405161016d929190610232565b60405180910390a4505050565b60008060006040848603121561018f57600080fd5b83356001600160a01b03811681146101a657600080fd5b9250602084013567ffffffffffffffff808211156101c357600080fd5b818601915086601f8301126101d757600080fd5b8135818111156101e657600080fd5b8760208285010111156101f857600080fd5b6020830194508093505050509250925092565b60006001820161022b57634e487b7160e01b600052601160045260246000fd5b5060010190565b60208152816020820152818360408301376000818301604090810191909152601f909201601f1916010191905056fea26469706673582212205a1ba30322d7585ff3ef32240bc1cf527147c769cbeaf0c55fdf5523649a36ae64736f6c63430008110033",
  "linkReferences": {},
  "deployedLinkReferences": {}
}