{
  "_format": "hh-sol-artifact-1",
  "contractName": "ExitHelper",
  "sourceName": "contracts/root/ExitHelper.sol",
  "abi": [
    {
      "anonymous": false,
      "inputs": [
        {
          "indexed": true,
          "internalType": "uint256",
          "name": "id",
          "type": "uint256"
        },
        {
          "indexed": true,
          "internalType": "bool",
          "name": "success",
          "type": "bool"
        },
        {
          "indexed": false,
          "internalType": "bytes",
          "name": "returnData",
          "type": "bytes"
        }
      ],
      "name": "ExitProcessed",
      "type": "event"
    },
    {
      "anonymous": false,
      "inputs": [
        {
          "indexed": false,
          "internalType": "uint8",
          "name": "version",
          "type": "uint8"
        }
      ],
      "name": "Initialized",
      "type": "event"
    },
    {
      "inputs": [
        {
          "components": [
            {
              "internalType": "uint256",
              "name": "blockNumber",
              "type": "uint256"
            },
            {
              "internalType": "uint256",
              "name": "leafIndex",
              "type": "uint256"
            },
            {
              "internalType": "bytes",
              "name": "unhashedLeaf",
              "type": "bytes"
            },
            {
              "internalType": "bytes32[]",
              "name": "proof",
              "type": "bytes32[]"
            }
          ],
          "internalType": "struct IExitHelper.BatchExitInput[]",
          "name": "inputs",
          "type": "tuple[]"
        }
      ],
      "name": "batchExit",
      "outputs": [],
      "stateMutability": "nonpayable",
      "type": "function"
    },
    {
      "inputs": [],
      "name": "checkpointManager",
      "outputs": [
        {
          "internalType": "contract ICheckpointManager",
          "name": "",
          "type": "address"
        }
      ],
      "stateMutability": "view",
      "type": "function"
    },
    {
      "inputs": [
        {
          "internalType": "uint256",
          "name": "blockNumber",
          "type": "uint256"
        },
        {
          "internalType": "uint256",
          "name": "leafIndex",
          "type": "uint256"
        },
        {
          "internalType": "bytes",
          "name": "unhashedLeaf",
          "type": "bytes"
        },
        {
          "internalType": "bytes32[]",
          "name": "proof",
          "type": "bytes32[]"
        }
      ],
      "name": "exit",
      "outputs": [],
      "stateMutability": "nonpayable",
      "type": "function"
    },
    {
      "inputs": [
        {
          "internalType": "contract ICheckpointManager",
          "name": "newCheckpointManager",
          "type": "address"
        }
      ],
      "name": "initialize",
      "outputs": [],
      "stateMutability": "nonpayable",
      "type": "function"
    },
    {
      "inputs": [
        {
          "internalType": "uint256",
          "name": "",
          "type": "uint256"
        }
      ],
      "name": "processedExits",
      "outputs": [
        {
          "internalType": "bool",
          "name": "",
          "type": "bool"
        }
      ],
      "stateMutability": "view",
      "type": "function"
    }
  ],
  "bytecode": "0x608060405234801561001057600080fd5b50610b6f806100206000396000f3fe608060405234801561001057600080fd5b50600436106100575760003560e01c806350607b351461005c578063aa209cc314610071578063bd88ea7914610084578063c0857ba0146100bc578063c4d66de8146100e7575b600080fd5b61006f61006a36600461070d565b6100fa565b005b61006f61007f36600461074f565b61022c565b6100a7610092366004610800565b60016020526000908152604090205460ff1681565b60405190151581526020015b60405180910390f35b6002546100cf906001600160a01b031681565b6040516001600160a01b0390911681526020016100b3565b61006f6100f5366004610831565b61029c565b6002546001600160a01b03166101575760405162461bcd60e51b815260206004820152601b60248201527f4578697448656c7065723a204e4f545f494e495449414c495a4544000000000060448201526064015b60405180910390fd5b8060005b818110156102265761021e84848381811061017857610178610855565b905060200281019061018a919061086b565b3585858481811061019d5761019d610855565b90506020028101906101af919061086b565b602001358686858181106101c5576101c5610855565b90506020028101906101d7919061086b565b6101e590604081019061088b565b8888878181106101f7576101f7610855565b9050602002810190610209919061086b565b6102179060608101906108d2565b600161042e565b60010161015b565b50505050565b6002546001600160a01b03166102845760405162461bcd60e51b815260206004820152601b60248201527f4578697448656c7065723a204e4f545f494e495449414c495a45440000000000604482015260640161014e565b610294868686868686600061042e565b505050505050565b600054610100900460ff16158080156102bc5750600054600160ff909116105b806102d65750303b1580156102d6575060005460ff166001145b6103395760405162461bcd60e51b815260206004820152602e60248201527f496e697469616c697a61626c653a20636f6e747261637420697320616c72656160448201526d191e481a5b9a5d1a585b1a5e995960921b606482015260840161014e565b6000805460ff19166001179055801561035c576000805461ff0019166101001790555b6001600160a01b0382161580159061037d57506001600160a01b0382163b15155b6103c95760405162461bcd60e51b815260206004820152601b60248201527f4578697448656c7065723a20494e56414c49445f414444524553530000000000604482015260640161014e565b600280546001600160a01b0319166001600160a01b038416179055801561042a576000805461ff0019169055604051600181527f7f26b83ff96e1f2b6a682f133852f6798a09c465da95921460cefb38474024989060200160405180910390a15b5050565b600080808061043f888a018a610932565b935093509350935084156104725760008481526001602052604090205460ff161561046d57505050506106b8565b6104dc565b60008481526001602052604090205460ff16156104dc5760405162461bcd60e51b815260206004820152602260248201527f4578697448656c7065723a20455849545f414c52454144595f50524f43455353604482015261115160f21b606482015260840161014e565b6002546040516001600160a01b03909116906361a02208908d90610503908d908d90610a12565b6040519081900381206001600160e01b031960e085901b16825261053092918f908d908d90600401610a22565b602060405180830381865afa15801561054d573d6000803e3d6000fd5b505050506040513d601f19601f820116820180604052508101906105719190610a6f565b6105bd5760405162461bcd60e51b815260206004820152601960248201527f4578697448656c7065723a20494e56414c49445f50524f4f4600000000000000604482015260640161014e565b6000848152600160208190526040808320805460ff19169092179091555181906001600160a01b038516906105fa90889088908790602401610ae1565b60408051601f198184030181529181526020820180516001600160e01b031663f43cda8b60e01b1790525161062f9190610b14565b6000604051808303816000865af19150503d806000811461066c576040519150601f19603f3d011682016040523d82523d6000602084013e610671565b606091505b5091509150811515867f8bbfa0c9bee3785c03700d2a909592286efb83fc7e7002be5764424b9842f7ec836040516106a99190610b26565b60405180910390a35050505050505b50505050505050565b60008083601f8401126106d357600080fd5b50813567ffffffffffffffff8111156106eb57600080fd5b6020830191508360208260051b850101111561070657600080fd5b9250929050565b6000806020838503121561072057600080fd5b823567ffffffffffffffff81111561073757600080fd5b610743858286016106c1565b90969095509350505050565b6000806000806000806080878903121561076857600080fd5b8635955060208701359450604087013567ffffffffffffffff8082111561078e57600080fd5b818901915089601f8301126107a257600080fd5b8135818111156107b157600080fd5b8a60208285010111156107c357600080fd5b6020830196508095505060608901359150808211156107e157600080fd5b506107ee89828a016106c1565b979a9699509497509295939492505050565b60006020828403121561081257600080fd5b5035919050565b6001600160a01b038116811461082e57600080fd5b50565b60006020828403121561084357600080fd5b813561084e81610819565b9392505050565b634e487b7160e01b600052603260045260246000fd5b60008235607e1983360301811261088157600080fd5b9190910192915050565b6000808335601e198436030181126108a257600080fd5b83018035915067ffffffffffffffff8211156108bd57600080fd5b60200191503681900382131561070657600080fd5b6000808335601e198436030181126108e957600080fd5b83018035915067ffffffffffffffff82111561090457600080fd5b6020019150600581901b360382131561070657600080fd5b634e487b7160e01b600052604160045260246000fd5b6000806000806080858703121561094857600080fd5b84359350602085013561095a81610819565b9250604085013561096a81610819565b9150606085013567ffffffffffffffff8082111561098757600080fd5b818701915087601f83011261099b57600080fd5b8135818111156109ad576109ad61091c565b604051601f8201601f19908116603f011681019083821181831017156109d5576109d561091c565b816040528281528a60208487010111156109ee57600080fd5b82602086016020830137600060208483010152809550505050505092959194509250565b8183823760009101908152919050565b85815284602082015283604082015260806060820152816080820152600060018060fb1b03831115610a5357600080fd5b8260051b808560a08501379190910160a0019695505050505050565b600060208284031215610a8157600080fd5b8151801515811461084e57600080fd5b60005b83811015610aac578181015183820152602001610a94565b50506000910152565b60008151808452610acd816020860160208601610a91565b601f01601f19169290920160200192915050565b8381526001600160a01b0383166020820152606060408201819052600090610b0b90830184610ab5565b95945050505050565b60008251610881818460208701610a91565b60208152600061084e6020830184610ab556fea2646970667358221220d1fe04c6bd7bef6d05271323f0fa65a4fdf6085c16965cb881c977f55a15d47564736f6c63430008110033",
  "linkReferences": {},
  "deployedLinkReferences": {}
}