{
  "_format": "hh-sol-artifact-1",
  "contractName": "BLS",
  "sourceName": "contracts/common/BLS.sol",
  "abi": [
    {
      "inputs": [
        {
          "internalType": "bytes32",
          "name": "domain",
          "type": "bytes32"
        },
        {
          "internalType": "bytes",
          "name": "message",
          "type": "bytes"
        }
      ],
      "name": "expandMsgTo96",
      "outputs": [
        {
          "internalType": "bytes",
          "name": "",
          "type": "bytes"
        }
      ],
      "stateMutability": "pure",
      "type": "function"
    },
    {
      "inputs": [
        {
          "internalType": "bytes32",
          "name": "domain",
          "type": "bytes32"
        },
        {
          "internalType": "bytes",
          "name": "messages",
          "type": "bytes"
        }
      ],
      "name": "hashToField",
      "outputs": [
        {
          "internalType": "uint256[2]",
          "name": "",
          "type": "uint256[2]"
        }
      ],
      "stateMutability": "view",
      "type": "function"
    },
    {
      "inputs": [
        {
          "internalType": "bytes32",
          "name": "domain",
          "type": "bytes32"
        },
        {
          "internalType": "bytes",
          "name": "message",
          "type": "bytes"
        }
      ],
      "name": "hashToPoint",
      "outputs": [
        {
          "internalType": "uint256[2]",
          "name": "",
          "type": "uint256[2]"
        }
      ],
      "stateMutability": "view",
      "type": "function"
    },
    {
      "inputs": [
        {
          "internalType": "uint256[2]",
          "name": "point",
          "type": "uint256[2]"
        }
      ],
      "name": "isOnCurveG1",
      "outputs": [
        {
          "internalType": "bool",
          "name": "_isOnCurve",
          "type": "bool"
        }
      ],
      "stateMutability": "pure",
      "type": "function"
    },
    {
      "inputs": [
        {
          "internalType": "uint256[4]",
          "name": "point",
          "type": "uint256[4]"
        }
      ],
      "name": "isOnCurveG2",
      "outputs": [
        {
          "internalType": "bool",
          "name": "_isOnCurve",
          "type": "bool"
        }
      ],
      "stateMutability": "pure",
      "type": "function"
    },
    {
      "inputs": [
        {
          "internalType": "uint256[2]",
          "name": "signature",
          "type": "uint256[2]"
        }
      ],
      "name": "isValidSignature",
      "outputs": [
        {
          "internalType": "bool",
          "name": "",
          "type": "bool"
        }
      ],
      "stateMutability": "view",
      "type": "function"
    },
    {
      "inputs": [
        {
          "internalType": "uint256",
          "name": "_x",
          "type": "uint256"
        }
      ],
      "name": "mapToPoint",
      "outputs": [
        {
          "internalType": "uint256[2]",
          "name": "p",
          "type": "uint256[2]"
        }
      ],
      "stateMutability": "pure",
      "type": "function"
    },
    {
      "inputs": [
        {
          "internalType": "uint256[2]",
          "name": "signature",
          "type": "uint256[2]"
        },
        {
          "internalType": "uint256[4][]",
          "name": "pubkeys",
          "type": "uint256[4][]"
        },
        {
          "internalType": "uint256[2][]",
          "name": "messages",
          "type": "uint256[2][]"
        }
      ],
      "name": "verifyMultiple",
      "outputs": [
        {
          "internalType": "bool",
          "name": "checkResult",
          "type": "bool"
        },
        {
          "internalType": "bool",
          "name": "callSuccess",
          "type": "bool"
        }
      ],
      "stateMutability": "view",
      "type": "function"
    },
    {
      "inputs": [
        {
          "internalType": "uint256[2]",
          "name": "signature",
          "type": "uint256[2]"
        },
        {
          "internalType": "uint256[4][]",
          "name": "pubkeys",
          "type": "uint256[4][]"
        },
        {
          "internalType": "uint256[2]",
          "name": "message",
          "type": "uint256[2]"
        }
      ],
      "name": "verifyMultipleSameMsg",
      "outputs": [
        {
          "internalType": "bool",
          "name": "checkResult",
          "type": "bool"
        },
        {
          "internalType": "bool",
          "name": "callSuccess",
          "type": "bool"
        }
      ],
      "stateMutability": "view",
      "type": "function"
    },
    {
      "inputs": [
        {
          "internalType": "uint256[2]",
          "name": "signature",
          "type": "uint256[2]"
        },
        {
          "internalType": "uint256[4]",
          "name": "pubkey",
          "type": "uint256[4]"
        },
        {
          "internalType": "uint256[2]",
          "name": "message",
          "type": "uint256[2]"
        }
      ],
      "name": "verifySingle",
      "outputs": [
        {
          "internalType": "bool",
          "name": "",
          "type": "bool"
        },
        {
          "internalType": "bool",
          "name": "",
          "type": "bool"
        }
      ],
      "stateMutability": "view",
      "type": "function"
    }
  ],
  "bytecode": "0x608060405234801561001057600080fd5b50612e62806100206000396000f3fe608060405234801561001057600080fd5b506004361061009e5760003560e01c806391ec2d2b1161006657806391ec2d2b1461013b578063a850a9091461015b578063d58e77331461016e578063e242cce914610181578063ebbdac911461019457600080fd5b8063115000fe146100a3578063247dd9fb146100cb5780633e5476ce146100de5780638669026f146101085780639141376314610128575b600080fd5b6100b66100b13660046127eb565b6101a7565b60405190151581526020015b60405180910390f35b6100b66100d9366004612869565b61030e565b6100f16100ec366004612926565b6103b8565b6040805192151583529015156020830152016100c2565b61011b6101163660046129b5565b6107e8565b6040516100c29190612a3f565b6100f1610136366004612a70565b610904565b61014e6101493660046129b5565b610dee565b6040516100c29190612b6f565b61011b6101693660046129b5565b61108b565b61011b61017c366004612b89565b61126d565b6100b661018f366004612869565b611643565b6100f16101a2366004612ba2565b6116a2565b600081516020830151600080516020612e0d833981519152828309600080516020612e0d8339815191528283098182830101600080516020612e0d8339815191528283840108600080516020612e0d8339815191528682600080516020612e0d83398151915203860109935050600080516020612e0d8339815191528483600080516020612e0d833981519152038301099150600080516020612e0d8339815191527f2b149d40ceb8aaae81be18991be06ac3b5b4c5e559dbefa33267e6dc24a138e584089450600080516020612e0d8339815191527e9713b03af0fed4cd2cafadeed8fdf4a74fa084e52d1852e4a2bd0685c315d2830893506040870151925060608701519150600080516020612e0d8339815191528083600080516020612e0d833981519152038508600080516020612e0d833981519152848608099050600080516020612e0d833981519152828460011b0994149290931491909116949350505050565b8051600090600080516020612e0d83398151915211158061034157506020820151600080516020612e0d83398151915211155b1561034e57506000919050565b60405163e242cce960e01b8152309063e242cce990610371908590600401612a3f565b602060405180830381865afa15801561038e573d6000803e3d6000fd5b505050506040513d601f19601f820116820180604052508101906103b29190612c05565b92915050565b60008083806103e25760405162461bcd60e51b81526004016103d990612c27565b60405180910390fd5b60006103ef826001612c7e565b6103fa906006612c91565b905060008167ffffffffffffffff8111156104175761041761277b565b604051908082528060200260200182016040528015610440578160200160208202803683370190505b50905088600060200201358160008151811061045e5761045e612bef565b602090810291909101015288600160200201358160018151811061048457610484612bef565b6020026020010181815250507f198e9393920d483a7260bfb731fb5d25f1aa493335a9e71297e485b7aef312c2816002815181106104c4576104c4612bef565b6020026020010181815250507f1800deef121f1e76426a00665e5c4479674322d4f75edadd46debd5cd992f6ed8160038151811061050457610504612bef565b6020026020010181815250507f275dc4a288d1afb3cbb1ac09187524c7db36395df7be3b99e673b13a075a65ec8160048151811061054457610544612bef565b6020026020010181815250507f1d9befcd05a5323e6da4d435f3b617cdb3af83285c2df711ef39c01571827f9d8160058151811061058457610584612bef565b60200260200101818152505060005b838110156107a3578635826105a9836006612c91565b6105b4906006612c7e565b815181106105c4576105c4612bef565b60209081029190910101528660016020020135826105e3836006612c91565b6105ee906007612c7e565b815181106105fe576105fe612bef565b60200260200101818152505088888281811061061c5761061c612bef565b90506080020160016004811061063457610634612bef565b602002013582610645836006612c91565b610650906008612c7e565b8151811061066057610660612bef565b60200260200101818152505088888281811061067e5761067e612bef565b90506080020160006004811061069657610696612bef565b6020020135826106a7836006612c91565b6106b2906009612c7e565b815181106106c2576106c2612bef565b6020026020010181815250508888828181106106e0576106e0612bef565b9050608002016003600481106106f8576106f8612bef565b602002013582610709836006612c91565b61071490600a612c7e565b8151811061072457610724612bef565b60200260200101818152505088888281811061074257610742612bef565b90506080020160026004811061075a5761075a612bef565b60200201358261076b836006612c91565b61077690600b612c7e565b8151811061078657610786612bef565b60209081029190910101528061079b81612ca8565b915050610593565b506107ac612721565b602081602085026020850160085afa9450846107d25760008095509550505050506107df565b5115159450600193505050505b94509492505050565b6107f061273f565b6040516391ec2d2b60e01b815260009030906391ec2d2b906108189087908790600401612cc1565b600060405180830381865afa158015610835573d6000803e3d6000fd5b505050506040513d6000823e601f3d908101601f1916820160405261085d9190810190612ce2565b9050600080600080601885016001600160c01b0381511693506030860190506001600160c01b038151169450600080516020612e0d83398151915285600080516020612e0d833981519152600160c01b870908604887015160608801516001600160c01b0390811697501694509250600080516020612e0d83398151915290508481600160c01b860908604080518082019091529283526020830152509695505050505050565b60008084806109255760405162461bcd60e51b81526004016103d990612c27565b8084146109925760405162461bcd60e51b815260206004820152603560248201527f424c533a206e756d626572206f66207075626c6963206b65797320616e64206d604482015274195cdcd859d95cc81b5d5cdd08189948195c5d585b605a1b60648201526084016103d9565b600061099f826001612c7e565b6109aa906006612c91565b905060008167ffffffffffffffff8111156109c7576109c761277b565b6040519080825280602002602001820160405280156109f0578160200160208202803683370190505b509050896000602002013581600081518110610a0e57610a0e612bef565b6020908102919091010152896001602002013581600181518110610a3457610a34612bef565b6020026020010181815250507f198e9393920d483a7260bfb731fb5d25f1aa493335a9e71297e485b7aef312c281600281518110610a7457610a74612bef565b6020026020010181815250507f1800deef121f1e76426a00665e5c4479674322d4f75edadd46debd5cd992f6ed81600381518110610ab457610ab4612bef565b6020026020010181815250507f275dc4a288d1afb3cbb1ac09187524c7db36395df7be3b99e673b13a075a65ec81600481518110610af457610af4612bef565b6020026020010181815250507f1d9befcd05a5323e6da4d435f3b617cdb3af83285c2df711ef39c01571827f9d81600581518110610b3457610b34612bef565b60200260200101818152505060005b83811015610da857878782818110610b5d57610b5d612bef565b905060400201600060028110610b7557610b75612bef565b602002013582610b86836006612c91565b610b91906006612c7e565b81518110610ba157610ba1612bef565b602002602001018181525050878782818110610bbf57610bbf612bef565b905060400201600160028110610bd757610bd7612bef565b602002013582610be8836006612c91565b610bf3906007612c7e565b81518110610c0357610c03612bef565b602002602001018181525050898982818110610c2157610c21612bef565b905060800201600160048110610c3957610c39612bef565b602002013582610c4a836006612c91565b610c55906008612c7e565b81518110610c6557610c65612bef565b602002602001018181525050898982818110610c8357610c83612bef565b905060800201600060048110610c9b57610c9b612bef565b602002013582610cac836006612c91565b610cb7906009612c7e565b81518110610cc757610cc7612bef565b602002602001018181525050898982818110610ce557610ce5612bef565b905060800201600360048110610cfd57610cfd612bef565b602002013582610d0e836006612c91565b610d1990600a612c7e565b81518110610d2957610d29612bef565b602002602001018181525050898982818110610d4757610d47612bef565b905060800201600260048110610d5f57610d5f612bef565b602002013582610d70836006612c91565b610d7b90600b612c7e565b81518110610d8b57610d8b612bef565b602090810291909101015280610da081612ca8565b915050610b43565b50610db1612721565b602081602085026020850160085afa945084610dd7576000809550955050505050610de4565b5115159450600193505050505b9550959350505050565b80516060906000610e00826020612c7e565b610e0b906040612c7e565b610e16906004612c7e565b67ffffffffffffffff811115610e2e57610e2e61277b565b6040519080825280601f01601f191660200182016040528015610e58576020820181803683370190505b5060408051606080825260808201909252919250600091906020820181803683370190505090506060820160005b84811015610ea05760208188018101518383015201610e86565b5083016000815360010160608153600101600081536001810187905260210160208153506000600283604051610ed69190612d59565b602060405180830381855afa158015610ef3573d6000803e3d6000fd5b5050506040513d601f19601f82011682018060405250810190610f169190612d75565b9050600060429450848452816020850152600160408501536041840188905260206061850153600284604051610f4c9190612d59565b602060405180830381855afa158015610f69573d6000803e3d6000fd5b5050506040513d601f19601f82011682018060405250810190610f8c9190612d75565b905080602084015280821880602086015250600260408501536041840188905260206061850153600284604051610fc39190612d59565b602060405180830381855afa158015610fe0573d6000803e3d6000fd5b5050506040513d601f19601f820116820180604052508101906110039190612d75565b90508060408401528082188060208601525060036040850153604184018890526020606185015360028460405161103a9190612d59565b602060405180830381855afa158015611057573d6000803e3d6000fd5b5050506040513d601f19601f8201168201806040525081019061107a9190612d75565b606084015250909695505050505050565b61109361273f565b604051638669026f60e01b81526000903090638669026f906110bb9087908790600401612cc1565b6040805180830381865afa1580156110d7573d6000803e3d6000fd5b505050506040513d601f19601f820116820180604052508101906110fb9190612d8e565b805160405163d58e773360e01b81526004810191909152909150600090309063d58e7733906024016040805180830381865afa15801561113f573d6000803e3d6000fd5b505050506040513d601f19601f820116820180604052508101906111639190612d8e565b602083015160405163d58e773360e01b81526004810191909152909150600090309063d58e7733906024016040805180830381865afa1580156111aa573d6000803e3d6000fd5b505050506040513d601f19601f820116820180604052508101906111ce9190612d8e565b90506111d861275d565b825181526020808401518282015282516040808401919091529083015160608301526000908460808460066107d05a03fa9050808061121357fe5b50806112615760405162461bcd60e51b815260206004820152601760248201527f424c533a20626e206164642063616c6c206661696c656400000000000000000060448201526064016103d9565b50919695505050505050565b61127561273f565b600080516020612e0d83398151915282106112de5760405162461bcd60e51b815260206004820152602360248201527f6d6170546f506f696e7446543a20696e76616c6964206669656c6420656c656d604482015262195b9d60ea1b60648201526084016103d9565b8160006112ea82611871565b9150506000600080516020612e0d8339815191528061130b5761130b612de3565b8384099050600080516020612e0d8339815191526004820890506000600080516020612e0d83398151915277b3c4d79d41a91759a9e4c7e359b6b89eaec68e62effffffd850990506000600080516020612e0d83398151915283830990506113728161189a565b9050600080516020612e0d8339815191528283099150600080516020612e0d8339815191528183099150600080516020612e0d8339815191528286099150600080516020612e0d8339815191526113d783600080516020612e0d833981519152612df9565b7759e26bcea0d48bacd4f263f1acdb5c4f5763473177fffffe089450600080516020612e0d8339815191528586099150600080516020612e0d8339815191528583099150600080516020612e0d833981519152600383089150600061143b83611871565b9093509050801561148357846114665761146383600080516020612e0d833981519152612df9565b92505b505060408051808201909152938452602084015250909392505050565b600080516020612e0d833981519152600187086114ae90600080516020612e0d833981519152612df9565b9550600080516020612e0d8339815191528687099250600080516020612e0d8339815191528684099250600080516020612e0d8339815191526003840892506114f683611871565b9093509050801561151e57846114665761146383600080516020612e0d833981519152612df9565b600080516020612e0d8339815191528485099550600080516020612e0d8339815191528687099550600080516020612e0d8339815191528287099550600080516020612e0d8339815191528287099550600080516020612e0d833981519152600187089550600080516020612e0d8339815191528687099250600080516020612e0d8339815191528684099250600080516020612e0d8339815191526003840892506115c983611871565b9093509050806116265760405162461bcd60e51b815260206004820152602260248201527f424c533a20626164206674206d617070696e6720696d706c656d656e7461746960448201526137b760f11b60648201526084016103d9565b846114665761146383600080516020612e0d833981519152612df9565b600081516020830151600080516020612e0d833981519152828309600080516020612e0d8339815191528382099050600080516020612e0d833981519152600382089050600080516020612e0d83398151915282830914949350505050565b6000806000604051806101800160405280876000600281106116c6576116c6612bef565b60200201358152602001876001600281106116e3576116e3612bef565b602002013581526020017f198e9393920d483a7260bfb731fb5d25f1aa493335a9e71297e485b7aef312c281526020017f1800deef121f1e76426a00665e5c4479674322d4f75edadd46debd5cd992f6ed81526020017f275dc4a288d1afb3cbb1ac09187524c7db36395df7be3b99e673b13a075a65ec81526020017f1d9befcd05a5323e6da4d435f3b617cdb3af83285c2df711ef39c01571827f9d81526020018560006002811061179857611798612bef565b60200201358152602001856001600281106117b5576117b5612bef565b60200201358152602001866001600481106117d2576117d2612bef565b60200201358152602001866000600481106117ef576117ef612bef565b602002013581526020018660036004811061180c5761180c612bef565b602002013581526020018660026004811061182957611829612bef565b60200201359052905061183a612721565b60006020826101808560085afa90508061185d5760008094509450505050611869565b50511515925060019150505b935093915050565b60008061187d836118a5565b915082600080516020612e0d833981519152838409149050915091565b60006103b282611fda565b6000600080516020612e0d8339815191528083840991508083830981838209828283098385830984848309858484098684850997508684840987858409945087898a09985087898a09985087898a09985087898a09985087898a09985087878a09985087898a09985087898a09985087898a099850878a8a09985087898a09985087898a09985087898a09985087898a099850878a8a09985087898a09985087898a09985087898a09985087898a09985087898a09985087848a09985087898a09985087898a09985087898a09985087898a09985087898a09985087848a09985087898a09985087898a09985087898a099850878a8a09985087898a09985087898a09985087898a09985087898a09985087848a09985087898a09985087898a09985087898a09985087898a09985087898a099850878a8a09985087898a09985087898a09985087898a09985087898a09985087878a09985087898a09985087898a09985087898a09985087898a09985087898a09985087898a09985087898a09985087818a09985087898a09985087898a09985087898a09985087898a09985087898a09985087898a09985087898a09985087898a09985087898a09985087898a09985087868a09985087898a09985087898a09985087898a09985087898a09985087878a09985087898a09985087898a09985087898a09985087898a09985087848a09985087898a09985087898a09985087898a09985087898a09985087898a09985087898a09985087898a09985087868a09985087898a09985087898a09985087898a09985087898a09985087898a09985087898a099850878a8a09985087898a09985087898a09985087898a09985087898a09985087898a09985087898a09985087898a09985087828a09985087898a09985087898a09985087898a09985087898a09985087898a09985087818a09985087898a09985087898a09985087898a09985087868a09985087898a09985087898a09985087898a09985087898a09985087898a09985087898a09985087898a09985087898a09985087878a09985087898a09985087898a09985087898a09985087898a09985087898a09985087898a09985087898a09985087898a09985087898a09985087868a09985087898a09985087898a09985087898a09985087878a09985087898a09985087898a09985087898a09985087898a09985087898a09985087898a09985087898a09985087898a09985087828a09985087898a09985087898a09985087898a09985087898a09985087828a09985087898a09985087898a09985087898a09985087898a09985087898a09985087868a09985087898a09985087898a09985087898a09985087848a09985087898a09985087898a09985087898a09985087898a09985087898a09985087898a09985087898a09985087898a09985087898a09985087898a09985087828a09985087898a09985087898a09985087898a09985087898a09985087868a09985087898a09985087898a09985087898a09985087898a09985087898a09985087838a09985087898a09985087898a09985087898a09985087898a09985087898a09985087898a09985087898a09985087828a09985087898a09985087898a099850878a8a09985087898a09985087898a09985087898a09985087898a09985087898a09985087898a09985087898a09985087848a09985087898a09985087898a09985087898a09985087898a09985087898a09985087898a09985087848a09985087898a09985087898a09985087898a09985087898a09985087898a09985087868a09985087898a09985087898a099850878a8a09985087898a09985087898a09985087898a09985087898a09985087898a09985087898a09985087898a09985087818a09985050868889099750868889099750868889099750868889099750868889099750868889099750868489099750868889099750868889099750868889099750868889099750868889099750868989099750868889099750868889099750868889099750868889099750868889099750868889099750868989099750868889099750868889099750868889099750868889099750868889099750868689099750868889099750868889099750868889099750868889099750868889099750868889099750868889099750868889099750868889099750868189099750508587880996508587880996508587880996508585880996508587880996508587880996508587880996508585880996508587880996508587880996508587880996508587880996508587880996508587880996508587880996508587880996508583880996508587880996508587880996508587880996508587880996508581880996508587880996508587880996508587880996508587880996508583880996508587880996508587880996508587880996508584880996508587880996508587880996508587880996508587880996508587880996508581880996505050505050808283099392505050565b6000600080516020612e0d8339815191528083840991508083830981838209828283098385830984848309858484098684850997508684840987858409945087898a09985087898a09985087898a09985087898a09985087898a09985087878a09985087898a09985087898a09985087898a099850878a8a09985087898a09985087898a09985087898a09985087898a099850878a8a09985087898a09985087898a09985087898a09985087898a09985087898a09985087848a09985087898a09985087898a09985087898a09985087898a09985087898a09985087848a09985087898a09985087898a09985087898a099850878a8a09985087898a09985087898a09985087898a09985087898a09985087848a09985087898a09985087898a09985087898a09985087898a09985087898a099850878a8a09985087898a09985087898a09985087898a09985087898a09985087878a09985087898a09985087898a09985087898a09985087898a09985087898a09985087898a09985087898a09985087818a09985087898a09985087898a09985087898a09985087898a09985087898a09985087898a09985087898a09985087898a09985087898a09985087898a09985087868a09985087898a09985087898a09985087898a09985087898a09985087878a09985087898a09985087898a09985087898a09985087898a09985087848a09985087898a09985087898a09985087898a09985087898a09985087898a09985087898a09985087898a09985087868a09985087898a09985087898a09985087898a09985087898a09985087898a09985087898a099850878a8a09985087898a09985087898a09985087898a09985087898a09985087898a09985087898a09985087898a09985087828a09985087898a09985087898a09985087898a09985087898a09985087898a09985087818a09985087898a09985087898a09985087898a09985087868a09985087898a09985087898a09985087898a09985087898a09985087898a09985087898a09985087898a09985087898a09985087878a09985087898a09985087898a09985087898a09985087898a09985087898a09985087898a09985087898a09985087898a09985087898a09985087868a09985087898a09985087898a09985087898a09985087878a09985087898a09985087898a09985087898a09985087898a09985087898a09985087898a09985087898a09985087898a09985087828a09985087898a09985087898a09985087898a09985087898a09985087828a09985087898a09985087898a09985087898a09985087898a09985087898a09985087868a09985087898a09985087898a09985087898a09985087848a09985087898a09985087898a09985087898a09985087898a09985087898a09985087898a09985087898a09985087898a09985087898a09985087898a09985087828a09985087898a09985087898a09985087898a09985087898a09985087868a09985087898a09985087898a09985087898a09985087898a09985087898a09985087838a09985087898a09985087898a09985087898a09985087898a09985087898a09985087898a09985087898a09985087828a09985087898a09985087898a099850878a8a09985087898a09985087898a09985087898a09985087898a09985087898a09985087898a09985087898a09985087848a09985087898a09985087898a09985087898a09985087898a09985087898a09985087898a09985087848a09985087898a09985087898a09985087898a09985087898a09985087898a09985087868a09985087898a09985087898a099850878a8a09985087898a09985087898a09985087898a09985087898a09985087898a09985087898a09985087898a09985087818a09985050868889099750868889099750868889099750868889099750868889099750868889099750868489099750868889099750868889099750868889099750868889099750868889099750868989099750868889099750868889099750868889099750868889099750868889099750868889099750868989099750868889099750868889099750868889099750868889099750868889099750868689099750868889099750868889099750868889099750868889099750868889099750868889099750868889099750868889099750868889099750868189099750508587880996508587880996508587880996508585880996508587880996508587880996508587880996508585880996508587880996508587880996508587880996508587880996508587880996508587880996508587880996508587880996508583880996508587880996508587880996508587880996508587880996508581880996505050838586099450838586099450838586099450838586099450838186099450508284850993508284850993508284850993508281850993508284850993508284850993508285850993508284850993508284850993508284850993508284850993508284850993508284850993508281850995945050505050565b60405180602001604052806001906020820280368337509192915050565b60405180604001604052806002906020820280368337509192915050565b60405180608001604052806004906020820280368337509192915050565b634e487b7160e01b600052604160045260246000fd5b6040805190810167ffffffffffffffff811182821017156127b4576127b461277b565b60405290565b604051601f8201601f1916810167ffffffffffffffff811182821017156127e3576127e361277b565b604052919050565b6000608082840312156127fd57600080fd5b82601f83011261280c57600080fd5b6040516080810181811067ffffffffffffffff8211171561282f5761282f61277b565b60405280608084018581111561284457600080fd5b845b8181101561285e578035835260209283019201612846565b509195945050505050565b60006040828403121561287b57600080fd5b82601f83011261288a57600080fd5b612892612791565b8060408401858111156128a457600080fd5b845b818110156128be5780358452602093840193016128a6565b509095945050505050565b80604081018310156103b257600080fd5b60008083601f8401126128ec57600080fd5b50813567ffffffffffffffff81111561290457600080fd5b6020830191508360208260071b850101111561291f57600080fd5b9250929050565b60008060008060a0858703121561293c57600080fd5b61294686866128c9565b9350604085013567ffffffffffffffff81111561296257600080fd5b61296e878288016128da565b9094509250612982905086606087016128c9565b905092959194509250565b600067ffffffffffffffff8211156129a7576129a761277b565b50601f01601f191660200190565b600080604083850312156129c857600080fd5b82359150602083013567ffffffffffffffff8111156129e657600080fd5b8301601f810185136129f757600080fd5b8035612a0a612a058261298d565b6127ba565b818152866020838501011115612a1f57600080fd5b816020840160208301376000602083830101528093505050509250929050565b60408101818360005b6002811015612a67578151835260209283019290910190600101612a48565b50505092915050565b600080600080600060808688031215612a8857600080fd5b612a9287876128c9565b9450604086013567ffffffffffffffff80821115612aaf57600080fd5b612abb89838a016128da565b90965094506060880135915080821115612ad457600080fd5b818801915088601f830112612ae857600080fd5b813581811115612af757600080fd5b8960208260061b8501011115612b0c57600080fd5b9699959850939650602001949392505050565b60005b83811015612b3a578181015183820152602001612b22565b50506000910152565b60008151808452612b5b816020860160208601612b1f565b601f01601f19169290920160200192915050565b602081526000612b826020830184612b43565b9392505050565b600060208284031215612b9b57600080fd5b5035919050565b60008060006101008486031215612bb857600080fd5b612bc285856128c9565b925060c0840185811115612bd557600080fd5b604085019250612be586826128c9565b9150509250925092565b634e487b7160e01b600052603260045260246000fd5b600060208284031215612c1757600080fd5b81518015158114612b8257600080fd5b60208082526021908201527f424c533a206e756d626572206f66207075626c6963206b6579206973207a65726040820152606f60f81b606082015260800190565b634e487b7160e01b600052601160045260246000fd5b808201808211156103b2576103b2612c68565b80820281158282048414176103b2576103b2612c68565b600060018201612cba57612cba612c68565b5060010190565b828152604060208201526000612cda6040830184612b43565b949350505050565b600060208284031215612cf457600080fd5b815167ffffffffffffffff811115612d0b57600080fd5b8201601f81018413612d1c57600080fd5b8051612d2a612a058261298d565b818152856020838501011115612d3f57600080fd5b612d50826020830160208601612b1f565b95945050505050565b60008251612d6b818460208701612b1f565b9190910192915050565b600060208284031215612d8757600080fd5b5051919050565b600060408284031215612da057600080fd5b82601f830112612daf57600080fd5b612db7612791565b806040840185811115612dc957600080fd5b845b818110156128be578051845260209384019301612dcb565b634e487b7160e01b600052601260045260246000fd5b818103818111156103b2576103b2612c6856fe30644e72e131a029b85045b68181585d97816a916871ca8d3c208c16d87cfd47a2646970667358221220046fd04cf652b14b5d4629e14b0659a560d128e873764c278e0250d47ac47cde64736f6c63430008110033",
  "linkReferences": {},
  "deployedLinkReferences": {}
}