{
  "contractName": "ChildERC20Proxified",
  "abi": [
    {
      "inputs": [],
      "payable": false,
      "stateMutability": "nonpayable",
      "type": "constructor"
    },
    {
      "anonymous": false,
      "inputs": [
        {
          "indexed": true,
          "internalType": "address",
          "name": "owner",
          "type": "address"
        },
        {
          "indexed": true,
          "internalType": "address",
          "name": "spender",
          "type": "address"
        },
        {
          "indexed": false,
          "internalType": "uint256",
          "name": "value",
          "type": "uint256"
        }
      ],
      "name": "Approval",
      "type": "event"
    },
    {
      "anonymous": false,
      "inputs": [
        {
          "indexed": true,
          "internalType": "address",
          "name": "previousAddress",
          "type": "address"
        },
        {
          "indexed": true,
          "internalType": "address",
          "name": "newAddress",
          "type": "address"
        }
      ],
      "name": "ChildChainChanged",
      "type": "event"
    },
    {
      "anonymous": false,
      "inputs": [
        {
          "indexed": true,
          "internalType": "address",
          "name": "token",
          "type": "address"
        },
        {
          "indexed": true,
          "internalType": "address",
          "name": "from",
          "type": "address"
        },
        {
          "indexed": false,
          "internalType": "uint256",
          "name": "amount",
          "type": "uint256"
        },
        {
          "indexed": false,
          "internalType": "uint256",
          "name": "input1",
          "type": "uint256"
        },
        {
          "indexed": false,
          "internalType": "uint256",
          "name": "output1",
          "type": "uint256"
        }
      ],
      "name": "Deposit",
      "type": "event"
    },
    {
      "anonymous": false,
      "inputs": [
        {
          "indexed": true,
          "internalType": "address",
          "name": "token",
          "type": "address"
        },
        {
          "indexed": true,
          "internalType": "address",
          "name": "from",
          "type": "address"
        },
        {
          "indexed": true,
          "internalType": "address",
          "name": "to",
          "type": "address"
        },
        {
          "indexed": false,
          "internalType": "uint256",
          "name": "amount",
          "type": "uint256"
        },
        {
          "indexed": false,
          "internalType": "uint256",
          "name": "input1",
          "type": "uint256"
        },
        {
          "indexed": false,
          "internalType": "uint256",
          "name": "input2",
          "type": "uint256"
        },
        {
          "indexed": false,
          "internalType": "uint256",
          "name": "output1",
          "type": "uint256"
        },
        {
          "indexed": false,
          "internalType": "uint256",
          "name": "output2",
          "type": "uint256"
        }
      ],
      "name": "LogFeeTransfer",
      "type": "event"
    },
    {
      "anonymous": false,
      "inputs": [
        {
          "indexed": true,
          "internalType": "address",
          "name": "token",
          "type": "address"
        },
        {
          "indexed": true,
          "internalType": "address",
          "name": "from",
          "type": "address"
        },
        {
          "indexed": true,
          "internalType": "address",
          "name": "to",
          "type": "address"
        },
        {
          "indexed": false,
          "internalType": "uint256",
          "name": "amount",
          "type": "uint256"
        },
        {
          "indexed": false,
          "internalType": "uint256",
          "name": "input1",
          "type": "uint256"
        },
        {
          "indexed": false,
          "internalType": "uint256",
          "name": "input2",
          "type": "uint256"
        },
        {
          "indexed": false,
          "internalType": "uint256",
          "name": "output1",
          "type": "uint256"
        },
        {
          "indexed": false,
          "internalType": "uint256",
          "name": "output2",
          "type": "uint256"
        }
      ],
      "name": "LogTransfer",
      "type": "event"
    },
    {
      "anonymous": false,
      "inputs": [
        {
          "indexed": true,
          "internalType": "address",
          "name": "previousOwner",
          "type": "address"
        },
        {
          "indexed": true,
          "internalType": "address",
          "name": "newOwner",
          "type": "address"
        }
      ],
      "name": "OwnershipTransferred",
      "type": "event"
    },
    {
      "anonymous": false,
      "inputs": [
        {
          "indexed": true,
          "internalType": "address",
          "name": "previousAddress",
          "type": "address"
        },
        {
          "indexed": true,
          "internalType": "address",
          "name": "newAddress",
          "type": "address"
        }
      ],
      "name": "ParentChanged",
      "type": "event"
    },
    {
      "anonymous": false,
      "inputs": [
        {
          "indexed": true,
          "internalType": "address",
          "name": "previousAddress",
          "type": "address"
        },
        {
          "indexed": true,
          "internalType": "address",
          "name": "newAddress",
          "type": "address"
        }
      ],
      "name": "StateSyncerAddressChanged",
      "type": "event"
    },
    {
      "anonymous": false,
      "inputs": [
        {
          "indexed": true,
          "internalType": "address",
          "name": "from",
          "type": "address"
        },
        {
          "indexed": true,
          "internalType": "address",
          "name": "to",
          "type": "address"
        },
        {
          "indexed": false,
          "internalType": "uint256",
          "name": "value",
          "type": "uint256"
        }
      ],
      "name": "Transfer",
      "type": "event"
    },
    {
      "anonymous": false,
      "inputs": [
        {
          "indexed": true,
          "internalType": "address",
          "name": "token",
          "type": "address"
        },
        {
          "indexed": true,
          "internalType": "address",
          "name": "from",
          "type": "address"
        },
        {
          "indexed": false,
          "internalType": "uint256",
          "name": "amount",
          "type": "uint256"
        },
        {
          "indexed": false,
          "internalType": "uint256",
          "name": "input1",
          "type": "uint256"
        },
        {
          "indexed": false,
          "internalType": "uint256",
          "name": "output1",
          "type": "uint256"
        }
      ],
      "name": "Withdraw",
      "type": "event"
    },
    {
      "constant": true,
      "inputs": [],
      "name": "CHAINID",
      "outputs": [
        {
          "internalType": "uint256",
          "name": "",
          "type": "uint256"
        }
      ],
      "payable": false,
      "stateMutability": "view",
      "type": "function"
    },
    {
      "constant": true,
      "inputs": [],
      "name": "EIP712_DOMAIN_HASH",
      "outputs": [
        {
          "internalType": "bytes32",
          "name": "",
          "type": "bytes32"
        }
      ],
      "payable": false,
      "stateMutability": "view",
      "type": "function"
    },
    {
      "constant": true,
      "inputs": [],
      "name": "EIP712_DOMAIN_SCHEMA_HASH",
      "outputs": [
        {
          "internalType": "bytes32",
          "name": "",
          "type": "bytes32"
        }
      ],
      "payable": false,
      "stateMutability": "view",
      "type": "function"
    },
    {
      "constant": true,
      "inputs": [],
      "name": "EIP712_TOKEN_TRANSFER_ORDER_SCHEMA_HASH",
      "outputs": [
        {
          "internalType": "bytes32",
          "name": "",
          "type": "bytes32"
        }
      ],
      "payable": false,
      "stateMutability": "view",
      "type": "function"
    },
    {
      "constant": true,
      "inputs": [
        {
          "internalType": "address",
          "name": "",
          "type": "address"
        },
        {
          "internalType": "address",
          "name": "",
          "type": "address"
        }
      ],
      "name": "allowance",
      "outputs": [
        {
          "internalType": "uint256",
          "name": "",
          "type": "uint256"
        }
      ],
      "payable": false,
      "stateMutability": "view",
      "type": "function"
    },
    {
      "constant": false,
      "inputs": [
        {
          "internalType": "address",
          "name": "",
          "type": "address"
        },
        {
          "internalType": "uint256",
          "name": "",
          "type": "uint256"
        }
      ],
      "name": "approve",
      "outputs": [
        {
          "internalType": "bool",
          "name": "",
          "type": "bool"
        }
      ],
      "payable": false,
      "stateMutability": "nonpayable",
      "type": "function"
    },
    {
      "constant": true,
      "inputs": [
        {
          "internalType": "address",
          "name": "owner",
          "type": "address"
        }
      ],
      "name": "balanceOf",
      "outputs": [
        {
          "internalType": "uint256",
          "name": "",
          "type": "uint256"
        }
      ],
      "payable": false,
      "stateMutability": "view",
      "type": "function"
    },
    {
      "constant": false,
      "inputs": [
        {
          "internalType": "address",
          "name": "newAddress",
          "type": "address"
        }
      ],
      "name": "changeChildChain",
      "outputs": [],
      "payable": false,
      "stateMutability": "nonpayable",
      "type": "function"
    },
    {
      "constant": false,
      "inputs": [
        {
          "internalType": "address",
          "name": "newAddress",
          "type": "address"
        }
      ],
      "name": "changeStateSyncerAddress",
      "outputs": [],
      "payable": false,
      "stateMutability": "nonpayable",
      "type": "function"
    },
    {
      "constant": true,
      "inputs": [],
      "name": "childChain",
      "outputs": [
        {
          "internalType": "address",
          "name": "",
          "type": "address"
        }
      ],
      "payable": false,
      "stateMutability": "view",
      "type": "function"
    },
    {
      "constant": true,
      "inputs": [],
      "name": "decimals",
      "outputs": [
        {
          "internalType": "uint8",
          "name": "",
          "type": "uint8"
        }
      ],
      "payable": false,
      "stateMutability": "view",
      "type": "function"
    },
    {
      "constant": false,
      "inputs": [
        {
          "internalType": "address",
          "name": "spender",
          "type": "address"
        },
        {
          "internalType": "uint256",
          "name": "subtractedValue",
          "type": "uint256"
        }
      ],
      "name": "decreaseAllowance",
      "outputs": [
        {
          "internalType": "bool",
          "name": "",
          "type": "bool"
        }
      ],
      "payable": false,
      "stateMutability": "nonpayable",
      "type": "function"
    },
    {
      "constant": false,
      "inputs": [
        {
          "internalType": "address",
          "name": "user",
          "type": "address"
        },
        {
          "internalType": "uint256",
          "name": "amount",
          "type": "uint256"
        }
      ],
      "name": "deposit",
      "outputs": [],
      "payable": false,
      "stateMutability": "nonpayable",
      "type": "function"
    },
    {
      "constant": true,
      "inputs": [
        {
          "internalType": "bytes32",
          "name": "",
          "type": "bytes32"
        }
      ],
      "name": "disabledHashes",
      "outputs": [
        {
          "internalType": "bool",
          "name": "",
          "type": "bool"
        }
      ],
      "payable": false,
      "stateMutability": "view",
      "type": "function"
    },
    {
      "constant": true,
      "inputs": [
        {
          "internalType": "bytes32",
          "name": "hash",
          "type": "bytes32"
        },
        {
          "internalType": "bytes",
          "name": "sig",
          "type": "bytes"
        }
      ],
      "name": "ecrecovery",
      "outputs": [
        {
          "internalType": "address",
          "name": "result",
          "type": "address"
        }
      ],
      "payable": false,
      "stateMutability": "pure",
      "type": "function"
    },
    {
      "constant": true,
      "inputs": [
        {
          "internalType": "address",
          "name": "spender",
          "type": "address"
        },
        {
          "internalType": "uint256",
          "name": "tokenIdOrAmount",
          "type": "uint256"
        },
        {
          "internalType": "bytes32",
          "name": "data",
          "type": "bytes32"
        },
        {
          "internalType": "uint256",
          "name": "expiration",
          "type": "uint256"
        }
      ],
      "name": "getTokenTransferOrderHash",
      "outputs": [
        {
          "internalType": "bytes32",
          "name": "orderHash",
          "type": "bytes32"
        }
      ],
      "payable": false,
      "stateMutability": "view",
      "type": "function"
    },
    {
      "constant": false,
      "inputs": [
        {
          "internalType": "address",
          "name": "spender",
          "type": "address"
        },
        {
          "internalType": "uint256",
          "name": "addedValue",
          "type": "uint256"
        }
      ],
      "name": "increaseAllowance",
      "outputs": [
        {
          "internalType": "bool",
          "name": "",
          "type": "bool"
        }
      ],
      "payable": false,
      "stateMutability": "nonpayable",
      "type": "function"
    },
    {
      "constant": true,
      "inputs": [],
      "name": "isOnlyStateSyncerContract",
      "outputs": [
        {
          "internalType": "bool",
          "name": "",
          "type": "bool"
        }
      ],
      "payable": false,
      "stateMutability": "view",
      "type": "function"
    },
    {
      "constant": true,
      "inputs": [],
      "name": "name",
      "outputs": [
        {
          "internalType": "string",
          "name": "",
          "type": "string"
        }
      ],
      "payable": false,
      "stateMutability": "view",
      "type": "function"
    },
    {
      "constant": true,
      "inputs": [],
      "name": "networkId",
      "outputs": [
        {
          "internalType": "bytes",
          "name": "",
          "type": "bytes"
        }
      ],
      "payable": false,
      "stateMutability": "view",
      "type": "function"
    },
    {
      "constant": false,
      "inputs": [
        {
          "internalType": "uint256",
          "name": "",
          "type": "uint256"
        },
        {
          "internalType": "bytes",
          "name": "data",
          "type": "bytes"
        }
      ],
      "name": "onStateReceive",
      "outputs": [],
      "payable": false,
      "stateMutability": "nonpayable",
      "type": "function"
    },
    {
      "constant": true,
      "inputs": [],
      "name": "owner",
      "outputs": [
        {
          "internalType": "address",
          "name": "",
          "type": "address"
        }
      ],
      "payable": false,
      "stateMutability": "view",
      "type": "function"
    },
    {
      "constant": true,
      "inputs": [],
      "name": "parent",
      "outputs": [
        {
          "internalType": "address",
          "name": "",
          "type": "address"
        }
      ],
      "payable": false,
      "stateMutability": "view",
      "type": "function"
    },
    {
      "constant": false,
      "inputs": [],
      "name": "renounceOwnership",
      "outputs": [],
      "payable": false,
      "stateMutability": "nonpayable",
      "type": "function"
    },
    {
      "constant": false,
      "inputs": [
        {
          "internalType": "address",
          "name": "newAddress",
          "type": "address"
        }
      ],
      "name": "setParent",
      "outputs": [],
      "payable": false,
      "stateMutability": "nonpayable",
      "type": "function"
    },
    {
      "constant": true,
      "inputs": [],
      "name": "stateSyncer",
      "outputs": [
        {
          "internalType": "address",
          "name": "",
          "type": "address"
        }
      ],
      "payable": false,
      "stateMutability": "view",
      "type": "function"
    },
    {
      "constant": true,
      "inputs": [],
      "name": "symbol",
      "outputs": [
        {
          "internalType": "string",
          "name": "",
          "type": "string"
        }
      ],
      "payable": false,
      "stateMutability": "view",
      "type": "function"
    },
    {
      "constant": true,
      "inputs": [],
      "name": "token",
      "outputs": [
        {
          "internalType": "address",
          "name": "",
          "type": "address"
        }
      ],
      "payable": false,
      "stateMutability": "view",
      "type": "function"
    },
    {
      "constant": true,
      "inputs": [],
      "name": "totalSupply",
      "outputs": [
        {
          "internalType": "uint256",
          "name": "",
          "type": "uint256"
        }
      ],
      "payable": false,
      "stateMutability": "view",
      "type": "function"
    },
    {
      "constant": false,
      "inputs": [
        {
          "internalType": "address",
          "name": "to",
          "type": "address"
        },
        {
          "internalType": "uint256",
          "name": "value",
          "type": "uint256"
        }
      ],
      "name": "transfer",
      "outputs": [
        {
          "internalType": "bool",
          "name": "",
          "type": "bool"
        }
      ],
      "payable": false,
      "stateMutability": "nonpayable",
      "type": "function"
    },
    {
      "constant": false,
      "inputs": [
        {
          "internalType": "address",
          "name": "",
          "type": "address"
        },
        {
          "internalType": "address",
          "name": "",
          "type": "address"
        },
        {
          "internalType": "uint256",
          "name": "",
          "type": "uint256"
        }
      ],
      "name": "transferFrom",
      "outputs": [
        {
          "internalType": "bool",
          "name": "",
          "type": "bool"
        }
      ],
      "payable": false,
      "stateMutability": "nonpayable",
      "type": "function"
    },
    {
      "constant": false,
      "inputs": [
        {
          "internalType": "address",
          "name": "newOwner",
          "type": "address"
        }
      ],
      "name": "transferOwnership",
      "outputs": [],
      "payable": false,
      "stateMutability": "nonpayable",
      "type": "function"
    },
    {
      "constant": false,
      "inputs": [
        {
          "internalType": "bytes",
          "name": "sig",
          "type": "bytes"
        },
        {
          "internalType": "uint256",
          "name": "amount",
          "type": "uint256"
        },
        {
          "internalType": "bytes32",
          "name": "data",
          "type": "bytes32"
        },
        {
          "internalType": "uint256",
          "name": "expiration",
          "type": "uint256"
        },
        {
          "internalType": "address",
          "name": "to",
          "type": "address"
        }
      ],
      "name": "transferWithSig",
      "outputs": [
        {
          "internalType": "address",
          "name": "from",
          "type": "address"
        }
      ],
      "payable": false,
      "stateMutability": "nonpayable",
      "type": "function"
    },
    {
      "constant": false,
      "inputs": [
        {
          "internalType": "uint256",
          "name": "amount",
          "type": "uint256"
        }
      ],
      "name": "withdraw",
      "outputs": [],
      "payable": true,
      "stateMutability": "payable",
      "type": "function"
    },
    {
      "constant": false,
      "inputs": [
        {
          "internalType": "address",
          "name": "_token",
          "type": "address"
        },
        {
          "internalType": "string",
          "name": "name",
          "type": "string"
        },
        {
          "internalType": "string",
          "name": "symbol",
          "type": "string"
        },
        {
          "internalType": "uint8",
          "name": "decimals",
          "type": "uint8"
        }
      ],
      "name": "initialize",
      "outputs": [],
      "payable": false,
      "stateMutability": "nonpayable",
      "type": "function"
    },
    {
      "constant": true,
      "inputs": [],
      "name": "isOwner",
      "outputs": [
        {
          "internalType": "bool",
          "name": "",
          "type": "bool"
        }
      ],
      "payable": false,
      "stateMutability": "view",
      "type": "function"
    }
  ],
  "bytecode": "0x6080604052600b805460ff60a81b191690553480156200001e57600080fd5b50604080516020808201835260008083528351918201845280825280546001600160a01b03191633178082559351600194859493926012928592859285926001600160a01b0392909216917f8be0079c531659141344cd1fd0a4f28419497f9722a3daafe3b4186f6b6457e0908290a360405180608001604052806052815260200162002414605291396040516020018082805190602001908083835b60208310620000dc5780518252601f199092019160209182019101620000bb565b51815160209384036101000a60001901801990921691161790526040805192909401828103601f190183528085528251928201929092208285018552600d83527f4d61746963204e6574776f726b00000000000000000000000000000000000000928201929092528351808501855260018082527f3100000000000000000000000000000000000000000000000000000000000000918301919091528451808301939093527fd26430275d0d30693378daeb558f6ed30c3a48ba5d665f52c16608e1c41b5cd7838601527fc89efdaa54c0f20c7adf612882df0950f5a951637e0307cdcb4c672f298b8bc660608401526201388160808401523060a0808501919091528551808503909101815260c09093019094528151918101919091209092555085516200021493506009925090860190620002d1565b5081516200022a90600a906020850190620002d1565b50600b805460ff191660ff9290921691909117610100600160a81b0319166210010017908190556040516001600160a01b03610100909204919091169250600091507f98e6a46aa139a033b9c7f3ae4ad1c103ffdce3e7cf509326808ba8c4b5af11c0908290a36001600160a01b038416620002a557600080fd5b5050600280546001600160a01b0319166001600160a01b03939093169290921790915550620003769050565b828054600181600116156101000203166002900490600052602060002090601f016020900481019282601f106200031457805160ff191683800117855562000344565b8280016001018555821562000344579182015b828111156200034457825182559160200191906001019062000327565b506200035292915062000356565b5090565b6200037391905b808211156200035257600081556001016200035d565b90565b61208e80620003866000396000f3fe60806040526004361061020f5760003560e01c80638f32d59b11610118578063dd62ed3e116100a0578063ed9ef5241161006f578063ed9ef524146108ae578063f2fde38b146108e1578063f4ef4d6914610914578063f6d2ee8614610929578063fc0c546a14610a075761020f565b8063dd62ed3e14610816578063df55500714610851578063e306f77914610884578063e614d0d6146108995761020f565b8063a9059cbb116100e7578063a9059cbb14610744578063abceeba21461077d578063acd06cb314610792578063b789543c146107bc578063cc79f97b146108015761020f565b80638f32d59b146106cc5780639025e64c146106e157806395d89b41146106f6578063a457c2d71461070b5761020f565b8063395093511161019b57806360f96a8f1161016a57806360f96a8f146105a257806370a08231146105b7578063715018a6146105ea57806377d32e94146105ff5780638da5cb5b146106b75761020f565b8063395093511461050657806342fc47fb1461053f57806347e7ef241461055457806355651f711461058d5761020f565b806319d27d9c116101e257806319d27d9c1461034757806323b872dd146103f957806326c53bea1461043c5780632e1a7d4d146104be578063313ce567146104db5761020f565b806306fdde0314610214578063095ea7b31461029e5780631499c592146102eb57806318160ddd14610320575b600080fd5b34801561022057600080fd5b50610229610a1c565b6040805160208082528351818301528351919283929083019185019080838360005b8381101561026357818101518382015260200161024b565b50505050905090810190601f1680156102905780820380516001836020036101000a031916815260200191505b509250505060405180910390f35b3480156102aa57600080fd5b506102d7600480360360408110156102c157600080fd5b506001600160a01b038135169060200135610ab3565b604080519115158252519081900360200190f35b3480156102f757600080fd5b5061031e6004803603602081101561030e57600080fd5b50356001600160a01b0316610af5565b005b34801561032c57600080fd5b50610335610ba7565b60408051918252519081900360200190f35b34801561035357600080fd5b506103dd600480360360a081101561036a57600080fd5b810190602081018135600160201b81111561038457600080fd5b82018360208201111561039657600080fd5b803590602001918460018302840111600160201b831117156103b757600080fd5b9193509150803590602081013590604081013590606001356001600160a01b0316610bad565b604080516001600160a01b039092168252519081900360200190f35b34801561040557600080fd5b506102d76004803603606081101561041c57600080fd5b506001600160a01b03813581169160208101359091169060400135610ab3565b34801561044857600080fd5b5061031e6004803603604081101561045f57600080fd5b81359190810190604081016020820135600160201b81111561048057600080fd5b82018360208201111561049257600080fd5b803590602001918460018302840111600160201b831117156104b357600080fd5b509092509050610cf1565b61031e600480360360208110156104d457600080fd5b5035610d86565b3480156104e757600080fd5b506104f0610d93565b6040805160ff9092168252519081900360200190f35b34801561051257600080fd5b506102d76004803603604081101561052957600080fd5b506001600160a01b038135169060200135610d9c565b34801561054b57600080fd5b506103dd610de7565b34801561056057600080fd5b5061031e6004803603604081101561057757600080fd5b506001600160a01b038135169060200135610df6565b34801561059957600080fd5b506102d7610ed5565b3480156105ae57600080fd5b506103dd610eeb565b3480156105c357600080fd5b50610335600480360360208110156105da57600080fd5b50356001600160a01b0316610efa565b3480156105f657600080fd5b5061031e610f15565b34801561060b57600080fd5b506103dd6004803603604081101561062257600080fd5b81359190810190604081016020820135600160201b81111561064357600080fd5b82018360208201111561065557600080fd5b803590602001918460018302840111600160201b8311171561067657600080fd5b91908080601f016020809104026020016040519081016040528093929190818152602001838380828437600092019190915250929550610f70945050505050565b3480156106c357600080fd5b506103dd611093565b3480156106d857600080fd5b506102d76110a2565b3480156106ed57600080fd5b506102296110e5565b34801561070257600080fd5b50610229611104565b34801561071757600080fd5b506102d76004803603604081101561072e57600080fd5b506001600160a01b038135169060200135611165565b34801561075057600080fd5b506102d76004803603604081101561076757600080fd5b506001600160a01b0381351690602001356111a1565b34801561078957600080fd5b50610335611263565b34801561079e57600080fd5b506102d7600480360360208110156107b557600080fd5b50356112ec565b3480156107c857600080fd5b50610335600480360360808110156107df57600080fd5b506001600160a01b038135169060208101359060408101359060600135611301565b34801561080d57600080fd5b50610335611320565b34801561082257600080fd5b506103356004803603604081101561083957600080fd5b506001600160a01b0381358116916020013516610ab3565b34801561085d57600080fd5b5061031e6004803603602081101561087457600080fd5b50356001600160a01b0316611327565b34801561089057600080fd5b506103356113e4565b3480156108a557600080fd5b506103356113ea565b3480156108ba57600080fd5b5061031e600480360360208110156108d157600080fd5b50356001600160a01b0316611434565b3480156108ed57600080fd5b5061031e6004803603602081101561090457600080fd5b50356001600160a01b03166114e6565b34801561092057600080fd5b506103dd611500565b34801561093557600080fd5b5061031e6004803603608081101561094c57600080fd5b6001600160a01b038235169190810190604081016020820135600160201b81111561097657600080fd5b82018360208201111561098857600080fd5b803590602001918460018302840111600160201b831117156109a957600080fd5b919390929091602081019035600160201b8111156109c657600080fd5b8201836020820111156109d857600080fd5b803590602001918460018302840111600160201b831117156109f957600080fd5b91935091503560ff16611514565b348015610a1357600080fd5b506103dd6115da565b60098054604080516020601f6002600019610100600188161502019095169490940493840181900481028201810190925282815260609390929091830182828015610aa85780601f10610a7d57610100808354040283529160200191610aa8565b820191906000526020600020905b815481529060010190602001808311610a8b57829003601f168201915b505050505090505b90565b6040805162461bcd60e51b815260206004820152601060248201526f44697361626c6564206665617475726560801b6044820152905160009181900360640190fd5b610afd6110a2565b610b0657600080fd5b6001600160a01b038116610b4b5760405162461bcd60e51b8152600401808060200182810382526033815260200180611ea66033913960400191505060405180910390fd5b6004546040516001600160a01b038084169216907fc9e4c719f349d4c91a37138eb5cf0ba2670c592a764f8c0b18c603ba9178cc1d90600090a3600480546001600160a01b0319166001600160a01b0392909216919091179055565b60085490565b6000808511610bbb57600080fd5b821580610bc85750824311155b610c10576040805162461bcd60e51b815260206004820152601460248201527314da59db985d1d5c99481a5cc8195e1c1a5c995960621b604482015290519081900360640190fd5b6000610c27610c21338888886115e9565b306116a2565b60008181526005602052604090205490915060ff1615610c80576040805162461bcd60e51b815260206004820152600f60248201526e14da59c819195858dd1a5d985d1959608a1b604482015290519081900360640190fd5b600081815260056020908152604091829020805460ff191660011790558151601f8a01829004820281018201909252888252610cd89183918b908b9081908401838280828437600092019190915250610f7092505050565b9150610ce5828488611800565b50509695505050505050565b610cf9610ed5565b610d345760405162461bcd60e51b8152600401808060200182810382526035815260200180611f2b6035913960400191505060405180910390fd5b60008083836040811015610d4757600080fd5b506001600160a01b0381351692506020013590506000610d6683610efa565b905081811015610d74578091505b610d7e8383611a4d565b505050505050565b610d903382611a4d565b50565b600b5460ff1690565b3360008181526007602090815260408083206001600160a01b03871684529091528120549091610ddd918590610dd8908663ffffffff611aa016565b611ab2565b5060015b92915050565b6003546001600160a01b031681565b6003546001600160a01b03163314610e3f5760405162461bcd60e51b8152600401808060200182810382526033815260200180611fed6033913960400191505060405180910390fd5b600081118015610e5757506001600160a01b03821615155b610e6057600080fd5b6000610e6b83610efa565b9050610e778383611b3a565b6002546001600160a01b0380851691167f4e2ca0515ed1aef1395f66b5303bb5d6f1bf9d61a353fa53f73f8ac9973fa9f68484610eb388610efa565b60408051938452602084019290925282820152519081900360600190a3505050565b600b5461010090046001600160a01b0316331490565b6004546001600160a01b031681565b6001600160a01b031660009081526006602052604090205490565b610f1d6110a2565b610f2657600080fd5b600080546040516001600160a01b03909116907f8be0079c531659141344cd1fd0a4f28419497f9722a3daafe3b4186f6b6457e0908390a3600080546001600160a01b0319169055565b6000806000808451604114610f8b5760009350505050610de1565b50505060208201516040830151604184015160ff16601b811015610fad57601b015b8060ff16601b14158015610fc557508060ff16601c14155b15610fd65760009350505050610de1565b6040805160008152602080820180845289905260ff8416828401526060820186905260808201859052915160019260a0808401939192601f1981019281900390910190855afa15801561102d573d6000803e3d6000fd5b5050604051601f1901519450506001600160a01b03841661108a576040805162461bcd60e51b815260206004820152601260248201527122b93937b91034b71032b1b932b1b7bb32b960711b604482015290519081900360640190fd5b50505092915050565b6000546001600160a01b031690565b604080517f6d617469632e6e6574776f726b2e70726f78792e6f776e6572000000000000008152905190819003601901902054336001600160a01b039091161490565b6040518060400160405280600381526020016201388160e81b81525081565b600a8054604080516020601f6002600019610100600188161502019095169490940493840181900481028201810190925282815260609390929091830182828015610aa85780601f10610a7d57610100808354040283529160200191610aa8565b3360008181526007602090815260408083206001600160a01b03871684529091528120549091610ddd918590610dd8908663ffffffff611be416565b6004546000906001600160a01b03161580159061124457506004805460408051631ffb811f60e01b815233938101939093526001600160a01b038681166024850152604484018690529051911691631ffb811f9160648083019260209291908290030181600087803b15801561121657600080fd5b505af115801561122a573d6000803e3d6000fd5b505050506040513d602081101561124057600080fd5b5051155b1561125157506000610de1565b61125c338484611800565b9392505050565b6040518060800160405280605b8152602001611f92605b91396040516020018082805190602001908083835b602083106112ae5780518252601f19909201916020918201910161128f565b6001836020036101000a0380198251168184511680821785525050505050509050019150506040516020818303038152906040528051906020012081565b60056020526000908152604090205460ff1681565b6000611317611312868686866115e9565b611bf9565b95945050505050565b6201388181565b61132f6110a2565b61133857600080fd5b6001600160a01b03811661137d5760405162461bcd60e51b815260040180806020018281038252603a815260200180612020603a913960400191505060405180910390fd5b600b546040516001600160a01b0380841692610100900416907f98e6a46aa139a033b9c7f3ae4ad1c103ffdce3e7cf509326808ba8c4b5af11c090600090a3600b80546001600160a01b0390921661010002610100600160a81b0319909216919091179055565b60015481565b604051806080016040528060528152602001611ed960529139604051602001808280519060200190808383602083106112ae5780518252601f19909201916020918201910161128f565b61143c6110a2565b61144557600080fd5b6001600160a01b03811661148a5760405162461bcd60e51b8152600401808060200182810382526032815260200180611f606032913960400191505060405180910390fd5b6003546040516001600160a01b038084169216907f1f9f3556dd336016cdf20adaead7d5c73665dba664b60e8c17e9a4eb91ce1d3990600090a3600380546001600160a01b0319166001600160a01b0392909216919091179055565b6114ee6110a2565b6114f757600080fd5b610d9081611c07565b600b5461010090046001600160a01b031681565b600b54600160a81b900460ff1615611564576040805162461bcd60e51b815260206004820152600e60248201526d185b1c9958591e481a5b9a5d195960921b604482015290519081900360640190fd5b600b805460ff60a81b1916600160a81b1790556001600160a01b03861661158a57600080fd5b600280546001600160a01b0319166001600160a01b0388161790556115b160098686611e0d565b506115be600a8484611e0d565b50600b805460ff191660ff929092169190911790555050505050565b6002546001600160a01b031681565b6000806040518060800160405280605b8152602001611f92605b91396040516020018082805190602001908083835b602083106116375780518252601f199092019160209182019101611618565b51815160209384036101000a60001901801990921691161790526040805192909401828103601f1901835280855282519282019290922082526001600160a01b039b909b169a81019a909a5250880196909652505050606084019190915260808301525060a0902090565b600080604051806080016040528060528152602001611ed9605291396040516020018082805190602001908083835b602083106116f05780518252601f1990920191602091820191016116d1565b51815160209384036101000a60001901801990921691161790526040805192909401828103601f190183528085528251928201929092208285018552600d83526c4d61746963204e6574776f726b60981b928201929092528351808501855260018152603160f81b908201528351808201929092527fd26430275d0d30693378daeb558f6ed30c3a48ba5d665f52c16608e1c41b5cd7828501527fc89efdaa54c0f20c7adf612882df0950f5a951637e0307cdcb4c672f298b8bc660608301526201388160808301526001600160a01b03891660a0808401919091528451808403909101815260c0909201909352805192019190912093506117f89250869150839050611c75565b949350505050565b604080516370a0823160e01b81526001600160a01b03851660048201529051600091829130916370a08231916024808301926020929190829003018186803b15801561184b57600080fd5b505afa15801561185f573d6000803e3d6000fd5b505050506040513d602081101561187557600080fd5b5051604080516370a0823160e01b81526001600160a01b0387166004820152905191925060009130916370a08231916024808301926020929190829003018186803b1580156118c357600080fd5b505afa1580156118d7573d6000803e3d6000fd5b505050506040513d60208110156118ed57600080fd5b505190506118fc868686611c97565b600254604080516370a0823160e01b81526001600160a01b03898116600483018190529251818a1694909116917fe6497e3ee548a3372136af2fcb0696db31fc6cf20260707645068bd3fe97f3c49189918891889130916370a0823191602480820192602092909190829003018186803b15801561197957600080fd5b505afa15801561198d573d6000803e3d6000fd5b505050506040513d60208110156119a357600080fd5b5051604080516370a0823160e01b81526001600160a01b038f166004820152905130916370a08231916024808301926020929190829003018186803b1580156119eb57600080fd5b505afa1580156119ff573d6000803e3d6000fd5b505050506040513d6020811015611a1557600080fd5b50516040805195865260208601949094528484019290925260608401526080830152519081900360a00190a450600195945050505050565b6000611a5883610efa565b9050611a648383611d64565b6002546001600160a01b0380851691167febff2602b3f468259e1e99f613fed6691f3a6526effe6ef3e768ba7ae7a36c4f8484610eb388610efa565b60008282018381101561125c57600080fd5b6001600160a01b038216611ac557600080fd5b6001600160a01b038316611ad857600080fd5b6001600160a01b03808416600081815260076020908152604080832094871680845294825291829020859055815185815291517f8c5be1e5ebec7d5bd14f71427d1e84f3dd0314c0f7b2291e5b200ac8c7c3b9259281900390910190a3505050565b6001600160a01b038216611b4d57600080fd5b600854611b60908263ffffffff611aa016565b6008556001600160a01b038216600090815260066020526040902054611b8c908263ffffffff611aa016565b6001600160a01b03831660008181526006602090815260408083209490945583518581529351929391927fddf252ad1be2c89b69c2b068fc378daa952ba7f163c4a11628f55a4df523b3ef9281900390910190a35050565b600082821115611bf357600080fd5b50900390565b6000610de182600154611c75565b6001600160a01b038116611c1a57600080fd5b600080546040516001600160a01b03808516939216917f8be0079c531659141344cd1fd0a4f28419497f9722a3daafe3b4186f6b6457e091a3600080546001600160a01b0319166001600160a01b0392909216919091179055565b60405161190160f01b8152600281019190915260228101919091526042902090565b6001600160a01b038216611caa57600080fd5b6001600160a01b038316600090815260066020526040902054611cd3908263ffffffff611be416565b6001600160a01b038085166000908152600660205260408082209390935590841681522054611d08908263ffffffff611aa016565b6001600160a01b0380841660008181526006602090815260409182902094909455805185815290519193928716927fddf252ad1be2c89b69c2b068fc378daa952ba7f163c4a11628f55a4df523b3ef92918290030190a3505050565b6001600160a01b038216611d7757600080fd5b600854611d8a908263ffffffff611be416565b6008556001600160a01b038216600090815260066020526040902054611db6908263ffffffff611be416565b6001600160a01b0383166000818152600660209081526040808320949094558351858152935191937fddf252ad1be2c89b69c2b068fc378daa952ba7f163c4a11628f55a4df523b3ef929081900390910190a35050565b828054600181600116156101000203166002900490600052602060002090601f016020900481019282601f10611e4e5782800160ff19823516178555611e7b565b82800160010185558215611e7b579182015b82811115611e7b578235825591602001919060010190611e60565b50611e87929150611e8b565b5090565b610ab091905b80821115611e875760008155600101611e9156fe4368696c6420746f6b656e3a206e657720706172656e74206164647265737320697320746865207a65726f2061646472657373454950373132446f6d61696e28737472696e67206e616d652c737472696e672076657273696f6e2c75696e7432353620636861696e49642c6164647265737320766572696679696e67436f6e74726163742953746174652073796e6365723a2063616c6c6572206973206e6f74207468652073746174652073796e63657220636f6e74726163744368696c6420746f6b656e3a206e6577206368696c64206164647265737320697320746865207a65726f2061646472657373546f6b656e5472616e736665724f726465722861646472657373207370656e6465722c75696e7432353620746f6b656e49644f72416d6f756e742c6279746573333220646174612c75696e743235362065787069726174696f6e294368696c6420746f6b656e3a2063616c6c6572206973206e6f7420746865206368696c6420636861696e20636f6e747261637453746174652073796e6365723a206e65772073746174652073796e636572206164647265737320697320746865207a65726f2061646472657373a265627a7a723158200418d03e90ef954d457114a14697f43e97d6d1e1aa946c49ed092c39f6b8aacb64736f6c63430005110032454950373132446f6d61696e28737472696e67206e616d652c737472696e672076657273696f6e2c75696e7432353620636861696e49642c6164647265737320766572696679696e67436f6e747261637429",
  "source": "pragma solidity ^0.5.2;\n\nimport {Initializable} from \"../../common/mixin/Initializable.sol\";\nimport \"../ChildERC20.sol\";\n\ncontract ChildERC20Proxified is ChildERC20, Initializable {\n    constructor() public ChildERC20(address(0x1), address(0x1), \"\", \"\", 18) {}\n\n    function initialize(\n        address _token,\n        string calldata name,\n        string calldata symbol,\n        uint8 decimals\n    ) external initializer {\n        require(_token != address(0x0));\n        token = _token;\n        _name = name;\n        _symbol = symbol;\n        _decimals = decimals;\n    }\n\n    // Overriding isOwner from Ownable.sol because owner() and transferOwnership() have been overridden by UpgradableProxy\n    function isOwner() public view returns (bool) {\n        address _owner;\n        bytes32 position = keccak256(\"matic.network.proxy.owner\");\n        assembly {\n            _owner := sload(position)\n        }\n        return msg.sender == _owner;\n    }\n}\n",
  "sourcePath": "/Users/pauloleary/code/maticnetwork/contracts/contracts/child/proxifiedChildToken/ChildERC20Proxified.sol",
  "compiler": {
    "name": "solc",
    "version": "0.5.17+commit.d19bba13.Emscripten.clang"
  },
  "schemaVersion": "3.4.10",
  "updatedAt": "2023-02-04T18:04:25.876Z",
  "devdoc": {
    "methods": {
      "balanceOf(address)": {
        "details": "Gets the balance of the specified address.",
        "params": {
          "owner": "The address to query the balance of."
        },
        "return": "A uint256 representing the amount owned by the passed address."
      },
      "decimals()": {
        "return": "the number of decimals of the token."
      },
      "decreaseAllowance(address,uint256)": {
        "details": "Decrease the amount of tokens that an owner allowed to a spender. approve should be called when _allowed[msg.sender][spender] == 0. To decrement allowed value is better to use this function to avoid 2 calls (and wait until the first transaction is mined) From MonolithDAO Token.sol Emits an Approval event.",
        "params": {
          "spender": "The address which will spend the funds.",
          "subtractedValue": "The amount of tokens to decrease the allowance by."
        }
      },
      "deposit(address,uint256)": {
        "params": {
          "amount": "token balance",
          "user": "address for address"
        }
      },
      "increaseAllowance(address,uint256)": {
        "details": "Increase the amount of tokens that an owner allowed to a spender. approve should be called when _allowed[msg.sender][spender] == 0. To increment allowed value is better to use this function to avoid 2 calls (and wait until the first transaction is mined) From MonolithDAO Token.sol Emits an Approval event.",
        "params": {
          "addedValue": "The amount of tokens to increase the allowance by.",
          "spender": "The address which will spend the funds."
        }
      },
      "isOnlyStateSyncerContract()": {
        "details": "Returns true if the caller is the state syncer contract TODO: replace onlyOwner ownership with 0x1000 for validator majority"
      },
      "name()": {
        "return": "the name of the token."
      },
      "owner()": {
        "return": "the address of the owner."
      },
      "renounceOwnership()": {
        "details": "Allows the current owner to relinquish control of the contract. It will not be possible to call the functions with the `onlyOwner` modifier anymore."
      },
      "symbol()": {
        "return": "the symbol of the token."
      },
      "totalSupply()": {
        "details": "Total number of tokens in existence"
      },
      "transfer(address,uint256)": {
        "details": "Function that is called when a user or another contract wants to transfer funds.",
        "params": {
          "to": "Address of token receiver.",
          "value": "Number of tokens to transfer."
        },
        "return": "Returns success of function call."
      },
      "transferOwnership(address)": {
        "details": "Allows the current owner to transfer control of the contract to a newOwner.",
        "params": {
          "newOwner": "The address to transfer ownership to."
        }
      },
      "withdraw(uint256)": {
        "params": {
          "amount": "tokens"
        }
      }
    }
  },
  "userdoc": {
    "methods": {
      "deposit(address,uint256)": {
        "notice": "Deposit tokens"
      },
      "renounceOwnership()": {
        "notice": "Renouncing ownership will leave the contract without an owner, thereby removing any functionality that is only available to the owner."
      },
      "withdraw(uint256)": {
        "notice": "Withdraw tokens"
      }
    }
  }
}