{
  "contractName": "ChildChain",
  "abi": [
    {
      "inputs": [],
      "payable": false,
      "stateMutability": "nonpayable",
      "type": "constructor"
    },
    {
      "anonymous": false,
      "inputs": [
        {
          "indexed": true,
          "internalType": "address",
          "name": "rootToken",
          "type": "address"
        },
        {
          "indexed": true,
          "internalType": "address",
          "name": "token",
          "type": "address"
        },
        {
          "indexed": false,
          "internalType": "uint8",
          "name": "_decimals",
          "type": "uint8"
        }
      ],
      "name": "NewToken",
      "type": "event"
    },
    {
      "anonymous": false,
      "inputs": [
        {
          "indexed": true,
          "internalType": "address",
          "name": "previousOwner",
          "type": "address"
        },
        {
          "indexed": true,
          "internalType": "address",
          "name": "newOwner",
          "type": "address"
        }
      ],
      "name": "OwnershipTransferred",
      "type": "event"
    },
    {
      "anonymous": false,
      "inputs": [
        {
          "indexed": true,
          "internalType": "address",
          "name": "previousAddress",
          "type": "address"
        },
        {
          "indexed": true,
          "internalType": "address",
          "name": "newAddress",
          "type": "address"
        }
      ],
      "name": "StateSyncerAddressChanged",
      "type": "event"
    },
    {
      "anonymous": false,
      "inputs": [
        {
          "indexed": true,
          "internalType": "address",
          "name": "rootToken",
          "type": "address"
        },
        {
          "indexed": true,
          "internalType": "address",
          "name": "childToken",
          "type": "address"
        },
        {
          "indexed": true,
          "internalType": "address",
          "name": "user",
          "type": "address"
        },
        {
          "indexed": false,
          "internalType": "uint256",
          "name": "amount",
          "type": "uint256"
        },
        {
          "indexed": false,
          "internalType": "uint256",
          "name": "depositCount",
          "type": "uint256"
        }
      ],
      "name": "TokenDeposited",
      "type": "event"
    },
    {
      "anonymous": false,
      "inputs": [
        {
          "indexed": true,
          "internalType": "address",
          "name": "rootToken",
          "type": "address"
        },
        {
          "indexed": true,
          "internalType": "address",
          "name": "childToken",
          "type": "address"
        },
        {
          "indexed": true,
          "internalType": "address",
          "name": "user",
          "type": "address"
        },
        {
          "indexed": false,
          "internalType": "uint256",
          "name": "amount",
          "type": "uint256"
        },
        {
          "indexed": false,
          "internalType": "uint256",
          "name": "withrawCount",
          "type": "uint256"
        }
      ],
      "name": "TokenWithdrawn",
      "type": "event"
    },
    {
      "constant": false,
      "inputs": [
        {
          "internalType": "address",
          "name": "newAddress",
          "type": "address"
        }
      ],
      "name": "changeStateSyncerAddress",
      "outputs": [],
      "payable": false,
      "stateMutability": "nonpayable",
      "type": "function"
    },
    {
      "constant": true,
      "inputs": [
        {
          "internalType": "uint256",
          "name": "",
          "type": "uint256"
        }
      ],
      "name": "deposits",
      "outputs": [
        {
          "internalType": "bool",
          "name": "",
          "type": "bool"
        }
      ],
      "payable": false,
      "stateMutability": "view",
      "type": "function"
    },
    {
      "constant": true,
      "inputs": [
        {
          "internalType": "address",
          "name": "",
          "type": "address"
        }
      ],
      "name": "isERC721",
      "outputs": [
        {
          "internalType": "bool",
          "name": "",
          "type": "bool"
        }
      ],
      "payable": false,
      "stateMutability": "view",
      "type": "function"
    },
    {
      "constant": true,
      "inputs": [],
      "name": "isOnlyStateSyncerContract",
      "outputs": [
        {
          "internalType": "bool",
          "name": "",
          "type": "bool"
        }
      ],
      "payable": false,
      "stateMutability": "view",
      "type": "function"
    },
    {
      "constant": true,
      "inputs": [],
      "name": "isOwner",
      "outputs": [
        {
          "internalType": "bool",
          "name": "",
          "type": "bool"
        }
      ],
      "payable": false,
      "stateMutability": "view",
      "type": "function"
    },
    {
      "constant": true,
      "inputs": [],
      "name": "owner",
      "outputs": [
        {
          "internalType": "address",
          "name": "",
          "type": "address"
        }
      ],
      "payable": false,
      "stateMutability": "view",
      "type": "function"
    },
    {
      "constant": false,
      "inputs": [],
      "name": "renounceOwnership",
      "outputs": [],
      "payable": false,
      "stateMutability": "nonpayable",
      "type": "function"
    },
    {
      "constant": true,
      "inputs": [],
      "name": "stateSyncer",
      "outputs": [
        {
          "internalType": "address",
          "name": "",
          "type": "address"
        }
      ],
      "payable": false,
      "stateMutability": "view",
      "type": "function"
    },
    {
      "constant": true,
      "inputs": [
        {
          "internalType": "address",
          "name": "",
          "type": "address"
        }
      ],
      "name": "tokens",
      "outputs": [
        {
          "internalType": "address",
          "name": "",
          "type": "address"
        }
      ],
      "payable": false,
      "stateMutability": "view",
      "type": "function"
    },
    {
      "constant": false,
      "inputs": [
        {
          "internalType": "address",
          "name": "newOwner",
          "type": "address"
        }
      ],
      "name": "transferOwnership",
      "outputs": [],
      "payable": false,
      "stateMutability": "nonpayable",
      "type": "function"
    },
    {
      "constant": true,
      "inputs": [
        {
          "internalType": "uint256",
          "name": "",
          "type": "uint256"
        }
      ],
      "name": "withdraws",
      "outputs": [
        {
          "internalType": "bool",
          "name": "",
          "type": "bool"
        }
      ],
      "payable": false,
      "stateMutability": "view",
      "type": "function"
    },
    {
      "constant": false,
      "inputs": [
        {
          "internalType": "uint256",
          "name": "",
          "type": "uint256"
        },
        {
          "internalType": "bytes",
          "name": "data",
          "type": "bytes"
        }
      ],
      "name": "onStateReceive",
      "outputs": [],
      "payable": false,
      "stateMutability": "nonpayable",
      "type": "function"
    },
    {
      "constant": false,
      "inputs": [
        {
          "internalType": "address",
          "name": "_owner",
          "type": "address"
        },
        {
          "internalType": "address",
          "name": "_rootToken",
          "type": "address"
        },
        {
          "internalType": "string",
          "name": "_name",
          "type": "string"
        },
        {
          "internalType": "string",
          "name": "_symbol",
          "type": "string"
        },
        {
          "internalType": "uint8",
          "name": "_decimals",
          "type": "uint8"
        },
        {
          "internalType": "bool",
          "name": "_isERC721",
          "type": "bool"
        }
      ],
      "name": "addToken",
      "outputs": [
        {
          "internalType": "address",
          "name": "token",
          "type": "address"
        }
      ],
      "payable": false,
      "stateMutability": "nonpayable",
      "type": "function"
    },
    {
      "constant": false,
      "inputs": [
        {
          "internalType": "address",
          "name": "rootToken",
          "type": "address"
        },
        {
          "internalType": "address",
          "name": "token",
          "type": "address"
        },
        {
          "internalType": "bool",
          "name": "isErc721",
          "type": "bool"
        }
      ],
      "name": "mapToken",
      "outputs": [],
      "payable": false,
      "stateMutability": "nonpayable",
      "type": "function"
    },
    {
      "constant": false,
      "inputs": [
        {
          "internalType": "address",
          "name": "rootToken",
          "type": "address"
        },
        {
          "internalType": "address",
          "name": "user",
          "type": "address"
        },
        {
          "internalType": "uint256",
          "name": "amountOrTokenId",
          "type": "uint256"
        },
        {
          "internalType": "uint256",
          "name": "withdrawCount",
          "type": "uint256"
        }
      ],
      "name": "withdrawTokens",
      "outputs": [],
      "payable": false,
      "stateMutability": "nonpayable",
      "type": "function"
    }
  ],
  "bytecode": "0x608060405234801561001057600080fd5b50600080546001600160a01b03191633178082556040516001600160a01b039190911691907f8be0079c531659141344cd1fd0a4f28419497f9722a3daafe3b4186f6b6457e0908290a3600180546001600160a01b03191661100117908190556040516001600160a01b0391909116906000907f98e6a46aa139a033b9c7f3ae4ad1c103ffdce3e7cf509326808ba8c4b5af11c0908290a3737d1afa7b718fb893db30a3abc0cfc608aacfebb060005260026020527fa6b538c9a0f90a58a2d51d8b41372745652182421068cf734937a5df014e586980546001600160a01b031916611010179055615cf2806101076000396000f3fe60806040523480156200001157600080fd5b50600436106200010c5760003560e01c8063b02c43d011620000a5578063e117694b116200006f578063e117694b1462000412578063e4860339146200044d578063f2fde38b1462000476578063f4ef4d69146200049f576200010c565b8063b02c43d01462000247578063bb9b9fa21462000267578063daa09e5414620003c0578063df55500714620003e9576200010c565b806355651f7111620000e757806355651f711462000203578063715018a6146200020d5780638da5cb5b14620002175780638f32d59b146200023d576200010c565b806307a06d37146200011157806326c53bea146200015257806355466c3714620001cf575b600080fd5b62000150600480360360808110156200012957600080fd5b506001600160a01b03813581169160208101359091169060408101359060600135620004a9565b005b62000150600480360360408110156200016a57600080fd5b813591908101906040810160208201356401000000008111156200018d57600080fd5b820183602082011115620001a057600080fd5b80359060200191846001830284011164010000000083111715620001c357600080fd5b50909250905062000640565b620001ef60048036036020811015620001e757600080fd5b5035620006d9565b604080519115158252519081900360200190f35b620001ef620006ee565b62000150620006ff565b620002216200075d565b604080516001600160a01b039092168252519081900360200190f35b620001ef6200076c565b620001ef600480360360208110156200025f57600080fd5b50356200077d565b62000221600480360360c08110156200027f57600080fd5b6001600160a01b038235811692602081013590911691810190606081016040820135640100000000811115620002b457600080fd5b820183602082011115620002c757600080fd5b80359060200191846001830284011164010000000083111715620002ea57600080fd5b91908080601f01602080910402602001604051908101604052809392919081815260200183838082843760009201919091525092959493602081019350359150506401000000008111156200033e57600080fd5b8201836020820111156200035157600080fd5b803590602001918460018302840111640100000000831117156200037457600080fd5b91908080601f0160208091040260200160405190810160405280939291908181526020018383808284376000920191909152509295505060ff8335169350505060200135151562000792565b620001ef60048036036020811015620003d857600080fd5b50356001600160a01b031662000b1b565b62000150600480360360208110156200040157600080fd5b50356001600160a01b031662000b30565b62000150600480360360608110156200042a57600080fd5b506001600160a01b03813581169160208101359091169060400135151562000be7565b62000221600480360360208110156200046557600080fd5b50356001600160a01b031662000c46565b62000150600480360360208110156200048e57600080fd5b50356001600160a01b031662000c61565b6200022162000c83565b620004b36200076c565b620004bd57600080fd5b60008181526005602052604090205460ff1615620004da57600080fd5b6000818152600560209081526040808320805460ff191660011790556001600160a01b038088168452600290925290912054168062000560576040805162461bcd60e51b815260206004820152601960248201527f6368696c6420746f6b656e206973206e6f74206d617070656400000000000000604482015290519081900360640190fd5b6001600160a01b03851660009081526003602052604081205460ff16156200058a5750806200058d565b50805b806001600160a01b0316632e1a7d4d856040518263ffffffff1660e01b815260040180828152602001915050600060405180830381600087803b158015620005d457600080fd5b505af1158015620005e9573d6000803e3d6000fd5b5050604080518781526020810187905281516001600160a01b03808b16955087811694508b16927f7ec90ada0dee6c6d3ea251a8236eb33077411c39b9c26fc24045ae009599def3928290030190a4505050505050565b6200064a620006ee565b620006875760405162461bcd60e51b815260040180806020018281038252603581526020018062005c4f6035913960400191505060405180910390fd5b600080600080858560808110156200069e57600080fd5b506001600160a01b03813581169550602082013516935060408101359250606001359050620006d08385848462000c92565b50505050505050565b60056020526000908152604090205460ff1681565b6001546001600160a01b0316331490565b620007096200076c565b6200071357600080fd5b600080546040516001600160a01b03909116907f8be0079c531659141344cd1fd0a4f28419497f9722a3daafe3b4186f6b6457e0908390a3600080546001600160a01b0319169055565b6000546001600160a01b031690565b6000546001600160a01b0316331490565b60046020526000908152604090205460ff1681565b60006200079e6200076c565b620007a857600080fd5b6001600160a01b0386811660009081526002602052604090205416156200080d576040805162461bcd60e51b8152602060048201526014602482015273151bdad95b88185b1c9958591e481b585c1c195960621b604482015290519081900360640190fd5b8115620009795786868686604051620008269062000e56565b80856001600160a01b03166001600160a01b03168152602001846001600160a01b03166001600160a01b031681526020018060200180602001838103835285818151815260200191508051906020019080838360005b83811015620008965781810151838201526020016200087c565b50505050905090810190601f168015620008c45780820380516001836020036101000a031916815260200191505b50838103825284518152845160209182019186019080838360005b83811015620008f9578181015183820152602001620008df565b50505050905090810190601f168015620009275780820380516001836020036101000a031916815260200191505b509650505050505050604051809103906000f0801580156200094d573d6000803e3d6000fd5b506001600160a01b0387166000908152600360205260409020805460ff19166001179055905062000aac565b86868686866040516200098c9062000e64565b6001600160a01b038087168252851660208083019190915260ff8316608083015260a06040830181815286519184019190915285519091606084019160c085019188019080838360005b83811015620009f0578181015183820152602001620009d6565b50505050905090810190601f16801562000a1e5780820380516001836020036101000a031916815260200191505b50838103825285518152855160209182019187019080838360005b8381101562000a5357818101518382015260200162000a39565b50505050905090810190601f16801562000a815780820380516001836020036101000a031916815260200191505b50975050505050505050604051809103906000f08015801562000aa8573d6000803e3d6000fd5b5090505b6001600160a01b0386811660008181526002602090815260409182902080546001600160a01b0319169486169485179055815160ff8816815291517f9894b680cecb28f00988b0d91ed301a55bba06a8befd7fdb0b1ff36d0d3950ff9281900390910190a39695505050505050565b60036020526000908152604090205460ff1681565b62000b3a6200076c565b62000b4457600080fd5b6001600160a01b03811662000b8b5760405162461bcd60e51b815260040180806020018281038252603a81526020018062005c84603a913960400191505060405180910390fd5b6001546040516001600160a01b038084169216907f98e6a46aa139a033b9c7f3ae4ad1c103ffdce3e7cf509326808ba8c4b5af11c090600090a3600180546001600160a01b0319166001600160a01b0392909216919091179055565b62000bf16200076c565b62000bfb57600080fd5b6001600160a01b03928316600090815260026020908152604080832080546001600160a01b031916959096169490941790945560039093529120805460ff1916911515919091179055565b6002602052600090815260409020546001600160a01b031681565b62000c6b6200076c565b62000c7557600080fd5b62000c808162000de7565b50565b6001546001600160a01b031681565b60008181526004602052604090205460ff161562000caf57600080fd5b6000818152600460209081526040808320805460ff191660011790556001600160a01b038088168452600290925290912054168062000ced57600080fd5b6001600160a01b03851660009081526003602052604081205460ff161562000d1757508062000d1a565b50805b806001600160a01b03166347e7ef2486866040518363ffffffff1660e01b815260040180836001600160a01b03166001600160a01b0316815260200182815260200192505050600060405180830381600087803b15801562000d7b57600080fd5b505af115801562000d90573d6000803e3d6000fd5b5050604080518781526020810187905281516001600160a01b03808b16955087811694508b16927fec3afb067bce33c5a294470ec5b29e6759301cd3928550490c6d48816cdc2f5d928290030190a4505050505050565b6001600160a01b03811662000dfb57600080fd5b600080546040516001600160a01b03808516939216917f8be0079c531659141344cd1fd0a4f28419497f9722a3daafe3b4186f6b6457e091a3600080546001600160a01b0319166001600160a01b0392909216919091179055565b612a7b8062000e7383390190565b61236180620038ee8339019056fe60806040523480156200001157600080fd5b5060405162002a7b38038062002a7b833981810160405260808110156200003757600080fd5b815160208301516040808501805191519395929483019291846401000000008211156200006357600080fd5b9083019060208201858111156200007957600080fd5b82516401000000008111828201881017156200009457600080fd5b82525081516020918201929091019080838360005b83811015620000c3578181015183820152602001620000a9565b50505050905090810190601f168015620000f15780820380516001836020036101000a031916815260200191505b50604052602001805160405193929190846401000000008211156200011557600080fd5b9083019060208201858111156200012b57600080fd5b82516401000000008111828201881017156200014657600080fd5b82525081516020918201929091019080838360005b83811015620001755781810151838201526020016200015b565b50505050905090810190601f168015620001a35780820380516001836020036101000a031916815260200191505b506040819052600080546001600160a01b031916331780825587955086945085935084926001600160a01b039190911691907f8be0079c531659141344cd1fd0a4f28419497f9722a3daafe3b4186f6b6457e0908290a360405180608001604052806052815260200162002a29605291396040516020018082805190602001908083835b60208310620002485780518252601f19909201916020918201910162000227565b51815160209384036101000a60001901801990921691161790526040805192909401828103601f190183528085528251928201929092208285018552600d83527f4d61746963204e6574776f726b00000000000000000000000000000000000000928201929092528351808501855260018082527f3100000000000000000000000000000000000000000000000000000000000000918301919091528451808301939093527fd26430275d0d30693378daeb558f6ed30c3a48ba5d665f52c16608e1c41b5cd7838601527fc89efdaa54c0f20c7adf612882df0950f5a951637e0307cdcb4c672f298b8bc660608401526201388160808401523060a0808501919091528551808503909101815260c09093019094528151910120909155506200039591507f01ffc9a7000000000000000000000000000000000000000000000000000000009050620004ec565b620003c97f80ac58cd000000000000000000000000000000000000000000000000000000006001600160e01b03620004ec16565b620003fd7f780e9d63000000000000000000000000000000000000000000000000000000006001600160e01b03620004ec16565b81516200041290600f90602085019062000559565b5080516200042890601090602084019062000559565b506200045d7f5b5e139f000000000000000000000000000000000000000000000000000000006001600160e01b03620004ec16565b5050601280546001600160a01b03191661100117908190556040516001600160a01b03919091169250600091507f98e6a46aa139a033b9c7f3ae4ad1c103ffdce3e7cf509326808ba8c4b5af11c0908290a36001600160a01b038316620004c357600080fd5b5050600280546001600160a01b0319166001600160a01b039290921691909117905550620005fe565b7fffffffff0000000000000000000000000000000000000000000000000000000080821614156200051c57600080fd5b7fffffffff00000000000000000000000000000000000000000000000000000000166000908152600660205260409020805460ff19166001179055565b828054600181600116156101000203166002900490600052602060002090601f016020900481019282601f106200059c57805160ff1916838001178555620005cc565b82800160010185558215620005cc579182015b82811115620005cc578251825591602001919060010190620005af565b50620005da929150620005de565b5090565b620005fb91905b80821115620005da5760008155600101620005e5565b90565b61241b806200060e6000396000f3fe60806040526004361061023b5760003560e01c806377d32e941161012e578063c87b56dd116100ab578063e985e9c51161006f578063e985e9c514610a2d578063ed9ef52414610a68578063f2fde38b14610a9b578063f4ef4d6914610ace578063fc0c546a14610ae35761023b565b8063c87b56dd14610991578063cc79f97b146109bb578063df555007146109d0578063e306f77914610a03578063e614d0d614610a185761023b565b8063a22cb465116100f2578063a22cb46514610801578063abceeba21461083c578063acd06cb314610851578063b789543c1461087b578063b88d4fde146108c05761023b565b806377d32e94146106f55780638da5cb5b146107ad5780638f32d59b146107c25780639025e64c146107d757806395d89b41146107ec5761023b565b80632f745c59116101bc57806355651f711161018057806355651f711461065957806360f96a8f1461066e5780636352211e1461068357806370a08231146106ad578063715018a6146106e05761023b565b80632f745c591461056557806342842e0e1461059e57806342fc47fb146105e157806347e7ef24146105f65780634f6ccce71461062f5761023b565b806318160ddd1161020357806318160ddd146103c657806319d27d9c146103ed57806323b872dd1461048357806326c53bea146104c65780632e1a7d4d146105485761023b565b806301ffc9a71461024057806306fdde0314610288578063081812fc14610312578063095ea7b3146103585780631499c59214610393575b600080fd5b34801561024c57600080fd5b506102746004803603602081101561026357600080fd5b50356001600160e01b031916610af8565b604080519115158252519081900360200190f35b34801561029457600080fd5b5061029d610b17565b6040805160208082528351818301528351919283929083019185019080838360005b838110156102d75781810151838201526020016102bf565b50505050905090810190601f1680156103045780820380516001836020036101000a031916815260200191505b509250505060405180910390f35b34801561031e57600080fd5b5061033c6004803603602081101561033557600080fd5b5035610bae565b604080516001600160a01b039092168252519081900360200190f35b34801561036457600080fd5b506103916004803603604081101561037b57600080fd5b506001600160a01b038135169060200135610bf0565b005b34801561039f57600080fd5b50610391600480360360208110156103b657600080fd5b50356001600160a01b0316610c30565b3480156103d257600080fd5b506103db610ce2565b60408051918252519081900360200190f35b3480156103f957600080fd5b5061033c600480360360a081101561041057600080fd5b810190602081018135600160201b81111561042a57600080fd5b82018360208201111561043c57600080fd5b803590602001918460018302840111600160201b8311171561045d57600080fd5b9193509150803590602081013590604081013590606001356001600160a01b0316610ce8565b34801561048f57600080fd5b50610391600480360360608110156104a657600080fd5b506001600160a01b03813581169160208101359091169060400135610e8c565b3480156104d257600080fd5b50610391600480360360408110156104e957600080fd5b81359190810190604081016020820135600160201b81111561050a57600080fd5b82018360208201111561051c57600080fd5b803590602001918460018302840111600160201b8311171561053d57600080fd5b509092509050610f46565b6103916004803603602081101561055e57600080fd5b5035611006565b34801561057157600080fd5b506103db6004803603604081101561058857600080fd5b506001600160a01b038135169060200135611073565b3480156105aa57600080fd5b50610391600480360360608110156105c157600080fd5b506001600160a01b038135811691602081013590911690604001356110c1565b3480156105ed57600080fd5b5061033c6110dc565b34801561060257600080fd5b506103916004803603604081101561061957600080fd5b506001600160a01b0381351690602001356110eb565b34801561063b57600080fd5b506103db6004803603602081101561065257600080fd5b503561119a565b34801561066557600080fd5b506102746111ce565b34801561067a57600080fd5b5061033c6111df565b34801561068f57600080fd5b5061033c600480360360208110156106a657600080fd5b50356111ee565b3480156106b957600080fd5b506103db600480360360208110156106d057600080fd5b50356001600160a01b0316611210565b3480156106ec57600080fd5b50610391611246565b34801561070157600080fd5b5061033c6004803603604081101561071857600080fd5b81359190810190604081016020820135600160201b81111561073957600080fd5b82018360208201111561074b57600080fd5b803590602001918460018302840111600160201b8311171561076c57600080fd5b91908080601f0160208091040260200160405190810160405280939291908181526020018383808284376000920191909152509295506112a1945050505050565b3480156107b957600080fd5b5061033c6113c4565b3480156107ce57600080fd5b506102746113d3565b3480156107e357600080fd5b5061029d6113e4565b3480156107f857600080fd5b5061029d611403565b34801561080d57600080fd5b506103916004803603604081101561082457600080fd5b506001600160a01b0381351690602001351515610bf0565b34801561084857600080fd5b506103db611464565b34801561085d57600080fd5b506102746004803603602081101561087457600080fd5b50356114ed565b34801561088757600080fd5b506103db6004803603608081101561089e57600080fd5b506001600160a01b038135169060208101359060408101359060600135611502565b3480156108cc57600080fd5b50610391600480360360808110156108e357600080fd5b6001600160a01b03823581169260208101359091169160408201359190810190608081016060820135600160201b81111561091d57600080fd5b82018360208201111561092f57600080fd5b803590602001918460018302840111600160201b8311171561095057600080fd5b91908080601f016020809104026020016040519081016040528093929190818152602001838380828437600092019190915250929550611521945050505050565b34801561099d57600080fd5b5061029d600480360360208110156109b457600080fd5b5035611547565b3480156109c757600080fd5b506103db6115fa565b3480156109dc57600080fd5b50610391600480360360208110156109f357600080fd5b50356001600160a01b0316611601565b348015610a0f57600080fd5b506103db6116b3565b348015610a2457600080fd5b506103db6116b9565b348015610a3957600080fd5b5061027460048036036040811015610a5057600080fd5b506001600160a01b0381358116916020013516610bae565b348015610a7457600080fd5b5061039160048036036020811015610a8b57600080fd5b50356001600160a01b0316611703565b348015610aa757600080fd5b5061039160048036036020811015610abe57600080fd5b50356001600160a01b03166117b5565b348015610ada57600080fd5b5061033c6117d2565b348015610aef57600080fd5b5061033c6117e1565b6001600160e01b03191660009081526006602052604090205460ff1690565b600f8054604080516020601f6002600019610100600188161502019095169490940493840181900481028201810190925282815260609390929091830182828015610ba35780601f10610b7857610100808354040283529160200191610ba3565b820191906000526020600020905b815481529060010190602001808311610b8657829003601f168201915b505050505090505b90565b6040805162461bcd60e51b815260206004820152601060248201526f44697361626c6564206665617475726560801b6044820152905160009181900360640190fd5b6040805162461bcd60e51b815260206004820152601060248201526f44697361626c6564206665617475726560801b604482015290519081900360640190fd5b610c386113d3565b610c4157600080fd5b6001600160a01b038116610c865760405162461bcd60e51b81526004018080602001828103825260338152602001806122336033913960400191505060405180910390fd5b6004546040516001600160a01b038084169216907fc9e4c719f349d4c91a37138eb5cf0ba2670c592a764f8c0b18c603ba9178cc1d90600090a3600480546001600160a01b0319166001600160a01b0392909216919091179055565b600d5490565b6000821580610cf75750824311155b610d3f576040805162461bcd60e51b815260206004820152601460248201527314da59db985d1d5c99481a5cc8195e1c1a5c995960621b604482015290519081900360640190fd5b6000610d56610d50338888886117f0565b306118ac565b60008181526005602052604090205490915060ff1615610daf576040805162461bcd60e51b815260206004820152600f60248201526e14da59c819195858dd1a5d985d1959608a1b604482015290519081900360640190fd5b6000818152600560209081526040808320805460ff191660011790558051601f8b01839004830281018301909152898152610e07918491908c908c90819084018382808284376000920191909152506112a192505050565b9050610e14818589611a02565b610e2f81858960405180602001604052806000815250611a5b565b610e80576040805162461bcd60e51b815260206004820152601d60248201527f5f636865636b4f6e4552433732315265636569766564206661696c6564000000604482015290519081900360640190fd5b98975050505050505050565b6004546001600160a01b031615801590610f2c57506004805460408051631ffb811f60e01b815233938101939093526001600160a01b038581166024850152604484018590529051911691631ffb811f9160648083019260209291908290030181600087803b158015610efe57600080fd5b505af1158015610f12573d6000803e3d6000fd5b505050506040513d6020811015610f2857600080fd5b5051155b15610f3657610f41565b610f41838383611a02565b505050565b610f4e6111ce565b610f895760405162461bcd60e51b81526004018080602001828103825260358152602001806122b86035913960400191505060405180910390fd5b60008083836040811015610f9c57600080fd5b506001600160a01b038135169250602001359050610fba8282611b8e565b6002546040805183815290516001600160a01b038086169316917f9b1bfa7fa9ee420a16e124f794c35ac9f90472acc99140eb2f6447c714cad8eb919081900360200190a35050505050565b33611010826111ee565b6001600160a01b03161461102357600080fd5b61102d3382611b8e565b60025460408051838152905133926001600160a01b0316917f9b1bfa7fa9ee420a16e124f794c35ac9f90472acc99140eb2f6447c714cad8eb919081900360200190a350565b600061107e83611210565b821061108957600080fd5b6001600160a01b0383166000908152600b602052604090208054839081106110ad57fe5b906000526020600020015490505b92915050565b610f4183838360405180602001604052806000815250611521565b6003546001600160a01b031681565b6003546001600160a01b031633146111345760405162461bcd60e51b815260040180806020018281038252603381526020018061237a6033913960400191505060405180910390fd5b6001600160a01b03821661114757600080fd5b6111518282611bda565b6002546040805183815290516001600160a01b038086169316917f5548c837ab068cf56a2c2479df0882a4922fd203edb7517321831d95078c5f62919081900360200190a35050565b60006111a4610ce2565b82106111af57600080fd5b600d82815481106111bc57fe5b90600052602060002001549050919050565b6012546001600160a01b0316331490565b6004546001600160a01b031681565b6000818152600760205260408120546001600160a01b0316806110bb57600080fd5b60006001600160a01b03821661122557600080fd5b6001600160a01b03821660009081526009602052604090206110bb90611bf7565b61124e6113d3565b61125757600080fd5b600080546040516001600160a01b03909116907f8be0079c531659141344cd1fd0a4f28419497f9722a3daafe3b4186f6b6457e0908390a3600080546001600160a01b0319169055565b60008060008084516041146112bc57600093505050506110bb565b50505060208201516040830151604184015160ff16601b8110156112de57601b015b8060ff16601b141580156112f657508060ff16601c14155b1561130757600093505050506110bb565b6040805160008152602080820180845289905260ff8416828401526060820186905260808201859052915160019260a0808401939192601f1981019281900390910190855afa15801561135e573d6000803e3d6000fd5b5050604051601f1901519450506001600160a01b0384166113bb576040805162461bcd60e51b815260206004820152601260248201527122b93937b91034b71032b1b932b1b7bb32b960711b604482015290519081900360640190fd5b50505092915050565b6000546001600160a01b031690565b6000546001600160a01b0316331490565b6040518060400160405280600381526020016201388160e81b81525081565b60108054604080516020601f6002600019610100600188161502019095169490940493840181900481028201810190925282815260609390929091830182828015610ba35780601f10610b7857610100808354040283529160200191610ba3565b6040518060800160405280605b815260200161231f605b91396040516020018082805190602001908083835b602083106114af5780518252601f199092019160209182019101611490565b6001836020036101000a0380198251168184511680821785525050505050509050019150506040516020818303038152906040528051906020012081565b60056020526000908152604090205460ff1681565b6000611518611513868686866117f0565b611bfb565b95945050505050565b61152c848484610e8c565b61153884848484611a5b565b61154157600080fd5b50505050565b606061155282611c09565b61155b57600080fd5b60008281526011602090815260409182902080548351601f6002600019610100600186161502019093169290920491820184900484028101840190945280845290918301828280156115ee5780601f106115c3576101008083540402835291602001916115ee565b820191906000526020600020905b8154815290600101906020018083116115d157829003601f168201915b50505050509050919050565b6201388181565b6116096113d3565b61161257600080fd5b6001600160a01b0381166116575760405162461bcd60e51b815260040180806020018281038252603a8152602001806123ad603a913960400191505060405180910390fd5b6012546040516001600160a01b038084169216907f98e6a46aa139a033b9c7f3ae4ad1c103ffdce3e7cf509326808ba8c4b5af11c090600090a3601280546001600160a01b0319166001600160a01b0392909216919091179055565b60015481565b60405180608001604052806052815260200161226660529139604051602001808280519060200190808383602083106114af5780518252601f199092019160209182019101611490565b61170b6113d3565b61171457600080fd5b6001600160a01b0381166117595760405162461bcd60e51b81526004018080602001828103825260328152602001806122ed6032913960400191505060405180910390fd5b6003546040516001600160a01b038084169216907f1f9f3556dd336016cdf20adaead7d5c73665dba664b60e8c17e9a4eb91ce1d3990600090a3600380546001600160a01b0319166001600160a01b0392909216919091179055565b6117bd6113d3565b6117c657600080fd5b6117cf81611c26565b50565b6012546001600160a01b031681565b6002546001600160a01b031681565b6000806040518060800160405280605b815260200161231f605b91396040516020018082805190602001908083835b6020831061183e5780518252601f19909201916020918201910161181f565b51815160209384036101000a60001901801990921691161790526040805192909401828103601f1901835280855282519282019290922082526001600160a01b038c169082015291820189905250606081018790526080810186905260a0902093505050505b949350505050565b600080604051806080016040528060528152602001612266605291396040516020018082805190602001908083835b602083106118fa5780518252601f1990920191602091820191016118db565b51815160209384036101000a60001901801990921691161790526040805192909401828103601f190183528085528251928201929092208285018552600d83526c4d61746963204e6574776f726b60981b928201929092528351808501855260018152603160f81b908201528351808201929092527fd26430275d0d30693378daeb558f6ed30c3a48ba5d665f52c16608e1c41b5cd7828501527fc89efdaa54c0f20c7adf612882df0950f5a951637e0307cdcb4c672f298b8bc660608301526201388160808301526001600160a01b03891660a0808401919091528451808403909101815260c0909201909352805192019190912093506118a49250869150839050611c94565b611a0d838383611cb6565b6002546040805183815290516001600160a01b0380861693878216939116917f6eabe333476233fd382224f233210cb808a7bc4c4de64f9d76628bf63c677b1a9181900360200190a4505050565b6000611a6f846001600160a01b0316611cd5565b611a7b575060016118a4565b604051630a85bd0160e11b815233600482018181526001600160a01b03888116602485015260448401879052608060648501908152865160848601528651600095928a169463150b7a029490938c938b938b939260a4019060208501908083838e5b83811015611af5578181015183820152602001611add565b50505050905090810190601f168015611b225780820380516001836020036101000a031916815260200191505b5095505050505050602060405180830381600087803b158015611b4457600080fd5b505af1158015611b58573d6000803e3d6000fd5b505050506040513d6020811015611b6e57600080fd5b50516001600160e01b031916630a85bd0160e11b14915050949350505050565b611b988282611cdb565b6000818152601160205260409020546002600019610100600184161502019091160415611bd6576000818152601160205260408120611bd6916121b0565b5050565b611be48282611d07565b611bee8282611da8565b611bd681611de6565b5490565b60006110bb82600154611c94565b6000908152600760205260409020546001600160a01b0316151590565b6001600160a01b038116611c3957600080fd5b600080546040516001600160a01b03808516939216917f8be0079c531659141344cd1fd0a4f28419497f9722a3daafe3b4186f6b6457e091a3600080546001600160a01b0319166001600160a01b0392909216919091179055565b60405161190160f01b8152600281019190915260228101919091526042902090565b611cc1838383611e2a565b611ccb8382611f0a565b610f418282611da8565b3b151590565b611ce58282611fff565b611cef8282611f0a565b6000818152600c6020526040812055611bd6816120a4565b6001600160a01b038216611d1a57600080fd5b611d2381611c09565b15611d2d57600080fd5b600081815260076020908152604080832080546001600160a01b0319166001600160a01b038716908117909155835260099091529020611d6c90612140565b60405181906001600160a01b038416906000907fddf252ad1be2c89b69c2b068fc378daa952ba7f163c4a11628f55a4df523b3ef908290a45050565b6001600160a01b039091166000908152600b602081815260408084208054868652600c84529185208290559282526001810183559183529091200155565b600d80546000838152600e60205260408120829055600182018355919091527fd7b6990105719101dabeb77144f2a3385c8033acd3af97e9423a695e81ad1eb50155565b826001600160a01b0316611e3d826111ee565b6001600160a01b031614611e5057600080fd5b6001600160a01b038216611e6357600080fd5b611e6c81612149565b6001600160a01b0383166000908152600960205260409020611e8d90612184565b6001600160a01b0382166000908152600960205260409020611eae90612140565b60008181526007602052604080822080546001600160a01b0319166001600160a01b0386811691821790925591518493918716917fddf252ad1be2c89b69c2b068fc378daa952ba7f163c4a11628f55a4df523b3ef91a4505050565b6001600160a01b0382166000908152600b6020526040812054611f3490600163ffffffff61219b16565b6000838152600c6020526040902054909150808214611fcf576001600160a01b0384166000908152600b60205260408120805484908110611f7157fe5b9060005260206000200154905080600b6000876001600160a01b03166001600160a01b031681526020019081526020016000208381548110611faf57fe5b6000918252602080832090910192909255918252600c9052604090208190555b6001600160a01b0384166000908152600b60205260409020805490611ff89060001983016121f4565b5050505050565b816001600160a01b0316612012826111ee565b6001600160a01b03161461202557600080fd5b61202e81612149565b6001600160a01b038216600090815260096020526040902061204f90612184565b60008181526007602052604080822080546001600160a01b0319169055518291906001600160a01b038516907fddf252ad1be2c89b69c2b068fc378daa952ba7f163c4a11628f55a4df523b3ef908390a45050565b600d546000906120bb90600163ffffffff61219b16565b6000838152600e6020526040812054600d80549394509092849081106120dd57fe5b9060005260206000200154905080600d83815481106120f857fe5b6000918252602080832090910192909255828152600e90915260409020829055600d80549061212b9060001983016121f4565b505050600091825250600e6020526040812055565b80546001019055565b6000818152600860205260409020546001600160a01b0316156117cf57600090815260086020526040902080546001600160a01b0319169055565b805461219790600163ffffffff61219b16565b9055565b6000828211156121aa57600080fd5b50900390565b50805460018160011615610100020316600290046000825580601f106121d657506117cf565b601f0160209004906000526020600020908101906117cf9190612214565b815481835581811115610f4157600083815260209020610f419181019083015b610bab91905b8082111561222e576000815560010161221a565b509056fe4368696c6420746f6b656e3a206e657720706172656e74206164647265737320697320746865207a65726f2061646472657373454950373132446f6d61696e28737472696e67206e616d652c737472696e672076657273696f6e2c75696e7432353620636861696e49642c6164647265737320766572696679696e67436f6e74726163742953746174652073796e6365723a2063616c6c6572206973206e6f74207468652073746174652073796e63657220636f6e74726163744368696c6420746f6b656e3a206e6577206368696c64206164647265737320697320746865207a65726f2061646472657373546f6b656e5472616e736665724f726465722861646472657373207370656e6465722c75696e7432353620746f6b656e49644f72416d6f756e742c6279746573333220646174612c75696e743235362065787069726174696f6e294368696c6420746f6b656e3a2063616c6c6572206973206e6f7420746865206368696c6420636861696e20636f6e747261637453746174652073796e6365723a206e65772073746174652073796e636572206164647265737320697320746865207a65726f2061646472657373a265627a7a7231582095f9aaea15d340a459b6be2dc2206ead70f3e949a6062a06f3b827f9d007bd7964736f6c63430005110032454950373132446f6d61696e28737472696e67206e616d652c737472696e672076657273696f6e2c75696e7432353620636861696e49642c6164647265737320766572696679696e67436f6e74726163742960806040523480156200001157600080fd5b506040516200236138038062002361833981810160405260a08110156200003757600080fd5b815160208301516040808501805191519395929483019291846401000000008211156200006357600080fd5b9083019060208201858111156200007957600080fd5b82516401000000008111828201881017156200009457600080fd5b82525081516020918201929091019080838360005b83811015620000c3578181015183820152602001620000a9565b50505050905090810190601f168015620000f15780820380516001836020036101000a031916815260200191505b50604052602001805160405193929190846401000000008211156200011557600080fd5b9083019060208201858111156200012b57600080fd5b82516401000000008111828201881017156200014657600080fd5b82525081516020918201929091019080838360005b83811015620001755781810151838201526020016200015b565b50505050905090810190601f168015620001a35780820380516001836020036101000a031916815260200191505b50604081905260209190910151600080546001600160a01b0319163317808255919450869350859285926001600160a01b031691907f8be0079c531659141344cd1fd0a4f28419497f9722a3daafe3b4186f6b6457e0908290a36040518060800160405280605281526020016200230f605291396040516020018082805190602001908083835b602083106200024b5780518252601f1990920191602091820191016200022a565b51815160209384036101000a60001901801990921691161790526040805192909401828103601f190183528085528251928201929092208285018552600d83527f4d61746963204e6574776f726b00000000000000000000000000000000000000928201929092528351808501855260018082527f3100000000000000000000000000000000000000000000000000000000000000918301919091528451808301939093527fd26430275d0d30693378daeb558f6ed30c3a48ba5d665f52c16608e1c41b5cd7838601527fc89efdaa54c0f20c7adf612882df0950f5a951637e0307cdcb4c672f298b8bc660608401526201388160808401523060a0808501919091528551808503909101815260c0909301909452815191810191909120909255508551620003839350600992509086019062000440565b5081516200039990600a90602085019062000440565b50600b805460ff191660ff9290921691909117610100600160a81b0319166210010017908190556040516001600160a01b03610100909204919091169250600091507f98e6a46aa139a033b9c7f3ae4ad1c103ffdce3e7cf509326808ba8c4b5af11c0908290a36001600160a01b0384166200041457600080fd5b5050600280546001600160a01b0319166001600160a01b03939093169290921790915550620004e59050565b828054600181600116156101000203166002900490600052602060002090601f016020900481019282601f106200048357805160ff1916838001178555620004b3565b82800160010185558215620004b3579182015b82811115620004b357825182559160200191906001019062000496565b50620004c1929150620004c5565b5090565b620004e291905b80821115620004c15760008155600101620004cc565b90565b611e1a80620004f56000396000f3fe6080604052600436106102045760003560e01c80638da5cb5b11610118578063cc79f97b116100a0578063e614d0d61161006f578063e614d0d614610894578063ed9ef524146108a9578063f2fde38b146108dc578063f4ef4d691461090f578063fc0c546a1461092457610204565b8063cc79f97b146107fc578063dd62ed3e14610811578063df5550071461084c578063e306f7791461087f57610204565b8063a457c2d7116100e7578063a457c2d714610706578063a9059cbb1461073f578063abceeba214610778578063acd06cb31461078d578063b789543c146107b757610204565b80638da5cb5b146106b25780638f32d59b146106c75780639025e64c146106dc57806395d89b41146106f157610204565b8063313ce5671161019b57806355651f711161016a57806355651f711461058657806360f96a8f1461059b57806370a08231146105b0578063715018a6146105e357806377d32e94146105f857610204565b8063313ce567146104d457806339509351146104ff57806342fc47fb1461053857806347e7ef241461054d57610204565b806319d27d9c116101d757806319d27d9c1461033c57806323b872dd146103f057806326c53bea146104335780632e1a7d4d146104b757610204565b806306fdde0314610209578063095ea7b3146102935780631499c592146102e057806318160ddd14610315575b600080fd5b34801561021557600080fd5b5061021e610939565b6040805160208082528351818301528351919283929083019185019080838360005b83811015610258578181015183820152602001610240565b50505050905090810190601f1680156102855780820380516001836020036101000a031916815260200191505b509250505060405180910390f35b34801561029f57600080fd5b506102cc600480360360408110156102b657600080fd5b506001600160a01b0381351690602001356109cf565b604080519115158252519081900360200190f35b3480156102ec57600080fd5b506103136004803603602081101561030357600080fd5b50356001600160a01b0316610a11565b005b34801561032157600080fd5b5061032a610ac3565b60408051918252519081900360200190f35b34801561034857600080fd5b506103d4600480360360a081101561035f57600080fd5b81019060208101813564010000000081111561037a57600080fd5b82018360208201111561038c57600080fd5b803590602001918460018302840111640100000000831117156103ae57600080fd5b9193509150803590602081013590604081013590606001356001600160a01b0316610ac9565b604080516001600160a01b039092168252519081900360200190f35b3480156103fc57600080fd5b506102cc6004803603606081101561041357600080fd5b506001600160a01b038135811691602081013590911690604001356109cf565b34801561043f57600080fd5b506103136004803603604081101561045657600080fd5b8135919081019060408101602082013564010000000081111561047857600080fd5b82018360208201111561048a57600080fd5b803590602001918460018302840111640100000000831117156104ac57600080fd5b509092509050610c0d565b610313600480360360208110156104cd57600080fd5b5035610ca2565b3480156104e057600080fd5b506104e9610caf565b6040805160ff9092168252519081900360200190f35b34801561050b57600080fd5b506102cc6004803603604081101561052257600080fd5b506001600160a01b038135169060200135610cb8565b34801561054457600080fd5b506103d4610d03565b34801561055957600080fd5b506103136004803603604081101561057057600080fd5b506001600160a01b038135169060200135610d12565b34801561059257600080fd5b506102cc610df1565b3480156105a757600080fd5b506103d4610e07565b3480156105bc57600080fd5b5061032a600480360360208110156105d357600080fd5b50356001600160a01b0316610e16565b3480156105ef57600080fd5b50610313610e31565b34801561060457600080fd5b506103d46004803603604081101561061b57600080fd5b8135919081019060408101602082013564010000000081111561063d57600080fd5b82018360208201111561064f57600080fd5b8035906020019184600183028401116401000000008311171561067157600080fd5b91908080601f016020809104026020016040519081016040528093929190818152602001838380828437600092019190915250929550610e8c945050505050565b3480156106be57600080fd5b506103d4610faf565b3480156106d357600080fd5b506102cc610fbe565b3480156106e857600080fd5b5061021e610fcf565b3480156106fd57600080fd5b5061021e610fee565b34801561071257600080fd5b506102cc6004803603604081101561072957600080fd5b506001600160a01b03813516906020013561104f565b34801561074b57600080fd5b506102cc6004803603604081101561076257600080fd5b506001600160a01b03813516906020013561108b565b34801561078457600080fd5b5061032a61114d565b34801561079957600080fd5b506102cc600480360360208110156107b057600080fd5b50356111d6565b3480156107c357600080fd5b5061032a600480360360808110156107da57600080fd5b506001600160a01b0381351690602081013590604081013590606001356111eb565b34801561080857600080fd5b5061032a61120a565b34801561081d57600080fd5b5061032a6004803603604081101561083457600080fd5b506001600160a01b03813581169160200135166109cf565b34801561085857600080fd5b506103136004803603602081101561086f57600080fd5b50356001600160a01b0316611211565b34801561088b57600080fd5b5061032a6112ce565b3480156108a057600080fd5b5061032a6112d4565b3480156108b557600080fd5b50610313600480360360208110156108cc57600080fd5b50356001600160a01b031661131e565b3480156108e857600080fd5b50610313600480360360208110156108ff57600080fd5b50356001600160a01b03166113d0565b34801561091b57600080fd5b506103d46113ea565b34801561093057600080fd5b506103d46113fe565b60098054604080516020601f60026000196101006001881615020190951694909404938401819004810282018101909252828152606093909290918301828280156109c55780601f1061099a576101008083540402835291602001916109c5565b820191906000526020600020905b8154815290600101906020018083116109a857829003601f168201915b5050505050905090565b6040805162461bcd60e51b815260206004820152601060248201526f44697361626c6564206665617475726560801b6044820152905160009181900360640190fd5b610a19610fbe565b610a2257600080fd5b6001600160a01b038116610a675760405162461bcd60e51b8152600401808060200182810382526033815260200180611c326033913960400191505060405180910390fd5b6004546040516001600160a01b038084169216907fc9e4c719f349d4c91a37138eb5cf0ba2670c592a764f8c0b18c603ba9178cc1d90600090a3600480546001600160a01b0319166001600160a01b0392909216919091179055565b60085490565b6000808511610ad757600080fd5b821580610ae45750824311155b610b2c576040805162461bcd60e51b815260206004820152601460248201527314da59db985d1d5c99481a5cc8195e1c1a5c995960621b604482015290519081900360640190fd5b6000610b43610b3d3388888861140d565b306114c6565b60008181526005602052604090205490915060ff1615610b9c576040805162461bcd60e51b815260206004820152600f60248201526e14da59c819195858dd1a5d985d1959608a1b604482015290519081900360640190fd5b600081815260056020908152604091829020805460ff191660011790558151601f8a01829004820281018201909252888252610bf49183918b908b9081908401838280828437600092019190915250610e8c92505050565b9150610c01828488611624565b50509695505050505050565b610c15610df1565b610c505760405162461bcd60e51b8152600401808060200182810382526035815260200180611cb76035913960400191505060405180910390fd5b60008083836040811015610c6357600080fd5b506001600160a01b0381351692506020013590506000610c8283610e16565b905081811015610c90578091505b610c9a8383611871565b505050505050565b610cac3382611871565b50565b600b5460ff1690565b3360008181526007602090815260408083206001600160a01b03871684529091528120549091610cf9918590610cf4908663ffffffff6118c416565b6118d6565b5060015b92915050565b6003546001600160a01b031681565b6003546001600160a01b03163314610d5b5760405162461bcd60e51b8152600401808060200182810382526033815260200180611d796033913960400191505060405180910390fd5b600081118015610d7357506001600160a01b03821615155b610d7c57600080fd5b6000610d8783610e16565b9050610d93838361195e565b6002546001600160a01b0380851691167f4e2ca0515ed1aef1395f66b5303bb5d6f1bf9d61a353fa53f73f8ac9973fa9f68484610dcf88610e16565b60408051938452602084019290925282820152519081900360600190a3505050565b600b5461010090046001600160a01b0316331490565b6004546001600160a01b031681565b6001600160a01b031660009081526006602052604090205490565b610e39610fbe565b610e4257600080fd5b600080546040516001600160a01b03909116907f8be0079c531659141344cd1fd0a4f28419497f9722a3daafe3b4186f6b6457e0908390a3600080546001600160a01b0319169055565b6000806000808451604114610ea75760009350505050610cfd565b50505060208201516040830151604184015160ff16601b811015610ec957601b015b8060ff16601b14158015610ee157508060ff16601c14155b15610ef25760009350505050610cfd565b6040805160008152602080820180845289905260ff8416828401526060820186905260808201859052915160019260a0808401939192601f1981019281900390910190855afa158015610f49573d6000803e3d6000fd5b5050604051601f1901519450506001600160a01b038416610fa6576040805162461bcd60e51b815260206004820152601260248201527122b93937b91034b71032b1b932b1b7bb32b960711b604482015290519081900360640190fd5b50505092915050565b6000546001600160a01b031690565b6000546001600160a01b0316331490565b6040518060400160405280600381526020016201388160e81b81525081565b600a8054604080516020601f60026000196101006001881615020190951694909404938401819004810282018101909252828152606093909290918301828280156109c55780601f1061099a576101008083540402835291602001916109c5565b3360008181526007602090815260408083206001600160a01b03871684529091528120549091610cf9918590610cf4908663ffffffff611a0816565b6004546000906001600160a01b03161580159061112e57506004805460408051631ffb811f60e01b815233938101939093526001600160a01b038681166024850152604484018690529051911691631ffb811f9160648083019260209291908290030181600087803b15801561110057600080fd5b505af1158015611114573d6000803e3d6000fd5b505050506040513d602081101561112a57600080fd5b5051155b1561113b57506000610cfd565b611146338484611624565b9392505050565b6040518060800160405280605b8152602001611d1e605b91396040516020018082805190602001908083835b602083106111985780518252601f199092019160209182019101611179565b6001836020036101000a0380198251168184511680821785525050505050509050019150506040516020818303038152906040528051906020012081565b60056020526000908152604090205460ff1681565b60006112016111fc8686868661140d565b611a1d565b95945050505050565b6201388181565b611219610fbe565b61122257600080fd5b6001600160a01b0381166112675760405162461bcd60e51b815260040180806020018281038252603a815260200180611dac603a913960400191505060405180910390fd5b600b546040516001600160a01b0380841692610100900416907f98e6a46aa139a033b9c7f3ae4ad1c103ffdce3e7cf509326808ba8c4b5af11c090600090a3600b80546001600160a01b0390921661010002610100600160a81b0319909216919091179055565b60015481565b604051806080016040528060528152602001611c6560529139604051602001808280519060200190808383602083106111985780518252601f199092019160209182019101611179565b611326610fbe565b61132f57600080fd5b6001600160a01b0381166113745760405162461bcd60e51b8152600401808060200182810382526032815260200180611cec6032913960400191505060405180910390fd5b6003546040516001600160a01b038084169216907f1f9f3556dd336016cdf20adaead7d5c73665dba664b60e8c17e9a4eb91ce1d3990600090a3600380546001600160a01b0319166001600160a01b0392909216919091179055565b6113d8610fbe565b6113e157600080fd5b610cac81611a2b565b600b5461010090046001600160a01b031681565b6002546001600160a01b031681565b6000806040518060800160405280605b8152602001611d1e605b91396040516020018082805190602001908083835b6020831061145b5780518252601f19909201916020918201910161143c565b51815160209384036101000a60001901801990921691161790526040805192909401828103601f1901835280855282519282019290922082526001600160a01b039b909b169a81019a909a5250880196909652505050606084019190915260808301525060a0902090565b600080604051806080016040528060528152602001611c65605291396040516020018082805190602001908083835b602083106115145780518252601f1990920191602091820191016114f5565b51815160209384036101000a60001901801990921691161790526040805192909401828103601f190183528085528251928201929092208285018552600d83526c4d61746963204e6574776f726b60981b928201929092528351808501855260018152603160f81b908201528351808201929092527fd26430275d0d30693378daeb558f6ed30c3a48ba5d665f52c16608e1c41b5cd7828501527fc89efdaa54c0f20c7adf612882df0950f5a951637e0307cdcb4c672f298b8bc660608301526201388160808301526001600160a01b03891660a0808401919091528451808403909101815260c09092019093528051920191909120935061161c9250869150839050611a99565b949350505050565b604080516370a0823160e01b81526001600160a01b03851660048201529051600091829130916370a08231916024808301926020929190829003018186803b15801561166f57600080fd5b505afa158015611683573d6000803e3d6000fd5b505050506040513d602081101561169957600080fd5b5051604080516370a0823160e01b81526001600160a01b0387166004820152905191925060009130916370a08231916024808301926020929190829003018186803b1580156116e757600080fd5b505afa1580156116fb573d6000803e3d6000fd5b505050506040513d602081101561171157600080fd5b50519050611720868686611abb565b600254604080516370a0823160e01b81526001600160a01b03898116600483018190529251818a1694909116917fe6497e3ee548a3372136af2fcb0696db31fc6cf20260707645068bd3fe97f3c49189918891889130916370a0823191602480820192602092909190829003018186803b15801561179d57600080fd5b505afa1580156117b1573d6000803e3d6000fd5b505050506040513d60208110156117c757600080fd5b5051604080516370a0823160e01b81526001600160a01b038f166004820152905130916370a08231916024808301926020929190829003018186803b15801561180f57600080fd5b505afa158015611823573d6000803e3d6000fd5b505050506040513d602081101561183957600080fd5b50516040805195865260208601949094528484019290925260608401526080830152519081900360a00190a450600195945050505050565b600061187c83610e16565b90506118888383611b88565b6002546001600160a01b0380851691167febff2602b3f468259e1e99f613fed6691f3a6526effe6ef3e768ba7ae7a36c4f8484610dcf88610e16565b60008282018381101561114657600080fd5b6001600160a01b0382166118e957600080fd5b6001600160a01b0383166118fc57600080fd5b6001600160a01b03808416600081815260076020908152604080832094871680845294825291829020859055815185815291517f8c5be1e5ebec7d5bd14f71427d1e84f3dd0314c0f7b2291e5b200ac8c7c3b9259281900390910190a3505050565b6001600160a01b03821661197157600080fd5b600854611984908263ffffffff6118c416565b6008556001600160a01b0382166000908152600660205260409020546119b0908263ffffffff6118c416565b6001600160a01b03831660008181526006602090815260408083209490945583518581529351929391927fddf252ad1be2c89b69c2b068fc378daa952ba7f163c4a11628f55a4df523b3ef9281900390910190a35050565b600082821115611a1757600080fd5b50900390565b6000610cfd82600154611a99565b6001600160a01b038116611a3e57600080fd5b600080546040516001600160a01b03808516939216917f8be0079c531659141344cd1fd0a4f28419497f9722a3daafe3b4186f6b6457e091a3600080546001600160a01b0319166001600160a01b0392909216919091179055565b60405161190160f01b8152600281019190915260228101919091526042902090565b6001600160a01b038216611ace57600080fd5b6001600160a01b038316600090815260066020526040902054611af7908263ffffffff611a0816565b6001600160a01b038085166000908152600660205260408082209390935590841681522054611b2c908263ffffffff6118c416565b6001600160a01b0380841660008181526006602090815260409182902094909455805185815290519193928716927fddf252ad1be2c89b69c2b068fc378daa952ba7f163c4a11628f55a4df523b3ef92918290030190a3505050565b6001600160a01b038216611b9b57600080fd5b600854611bae908263ffffffff611a0816565b6008556001600160a01b038216600090815260066020526040902054611bda908263ffffffff611a0816565b6001600160a01b0383166000818152600660209081526040808320949094558351858152935191937fddf252ad1be2c89b69c2b068fc378daa952ba7f163c4a11628f55a4df523b3ef929081900390910190a3505056fe4368696c6420746f6b656e3a206e657720706172656e74206164647265737320697320746865207a65726f2061646472657373454950373132446f6d61696e28737472696e67206e616d652c737472696e672076657273696f6e2c75696e7432353620636861696e49642c6164647265737320766572696679696e67436f6e74726163742953746174652073796e6365723a2063616c6c6572206973206e6f74207468652073746174652073796e63657220636f6e74726163744368696c6420746f6b656e3a206e6577206368696c64206164647265737320697320746865207a65726f2061646472657373546f6b656e5472616e736665724f726465722861646472657373207370656e6465722c75696e7432353620746f6b656e49644f72416d6f756e742c6279746573333220646174612c75696e743235362065787069726174696f6e294368696c6420746f6b656e3a2063616c6c6572206973206e6f7420746865206368696c6420636861696e20636f6e747261637453746174652073796e6365723a206e65772073746174652073796e636572206164647265737320697320746865207a65726f2061646472657373a265627a7a72315820f9f514c6a1a740ec3c47b08b0eb703408f51b009d38adddb9a86cff71d88e35864736f6c63430005110032454950373132446f6d61696e28737472696e67206e616d652c737472696e672076657273696f6e2c75696e7432353620636861696e49642c6164647265737320766572696679696e67436f6e74726163742953746174652073796e6365723a2063616c6c6572206973206e6f74207468652073746174652073796e63657220636f6e747261637453746174652073796e6365723a206e65772073746174652073796e636572206164647265737320697320746865207a65726f2061646472657373a265627a7a72315820fbd71729753a6ae5de83da5e41dceae1b99532784b39333a122cd743a0362a4e64736f6c63430005110032",
  "source": "pragma solidity ^0.5.2;\n\nimport {Ownable} from \"openzeppelin-solidity/contracts/ownership/Ownable.sol\";\n\nimport {StateSyncerVerifier} from \"./bor/StateSyncerVerifier.sol\";\nimport {StateReceiver} from \"./bor/StateReceiver.sol\";\n\nimport \"./ChildToken.sol\";\nimport \"./ChildERC20.sol\";\nimport \"./ChildERC721.sol\";\n\ncontract ChildChain is Ownable, StateSyncerVerifier, StateReceiver {\n    // mapping for (root token => child token)\n    mapping(address => address) public tokens;\n    mapping(address => bool) public isERC721;\n    mapping(uint256 => bool) public deposits;\n    mapping(uint256 => bool) public withdraws;\n\n    event NewToken(\n        address indexed rootToken,\n        address indexed token,\n        uint8 _decimals\n    );\n\n    event TokenDeposited(\n        address indexed rootToken,\n        address indexed childToken,\n        address indexed user,\n        uint256 amount,\n        uint256 depositCount\n    );\n\n    event TokenWithdrawn(\n        address indexed rootToken,\n        address indexed childToken,\n        address indexed user,\n        uint256 amount,\n        uint256 withrawCount\n    );\n\n    constructor() public {\n        //Mapping matic Token\n        tokens[0x7D1AfA7B718fb893dB30A3aBc0Cfc608AaCfeBB0] = 0x0000000000000000000000000000000000001010;\n    }\n\n    function onStateReceive(\n        uint256, /* id */\n        bytes calldata data\n    ) external onlyStateSyncer {\n        (address user, address rootToken, uint256 amountOrTokenId, uint256 depositId) = abi\n            .decode(data, (address, address, uint256, uint256));\n        depositTokens(rootToken, user, amountOrTokenId, depositId);\n    }\n\n    function addToken(\n        address _owner,\n        address _rootToken,\n        string memory _name,\n        string memory _symbol,\n        uint8 _decimals,\n        bool _isERC721\n    ) public onlyOwner returns (address token) {\n        // check if root token already exists\n        require(tokens[_rootToken] == address(0x0), \"Token already mapped\");\n\n        // create new token contract\n        if (_isERC721) {\n            token = address(\n                new ChildERC721(_owner, _rootToken, _name, _symbol)\n            );\n            isERC721[_rootToken] = true;\n        } else {\n            token = address(\n                new ChildERC20(_owner, _rootToken, _name, _symbol, _decimals)\n            );\n        }\n\n        // add mapping with root token\n        tokens[_rootToken] = token;\n\n        // broadcast new token's event\n        emit NewToken(_rootToken, token, _decimals);\n    }\n\n    // for testnet updates remove for mainnet\n    function mapToken(address rootToken, address token, bool isErc721)\n        public\n        onlyOwner\n    {\n        tokens[rootToken] = token;\n        isERC721[rootToken] = isErc721;\n    }\n\n    function withdrawTokens(\n        address rootToken,\n        address user,\n        uint256 amountOrTokenId,\n        uint256 withdrawCount\n    ) public onlyOwner {\n        // check if withdrawal happens only once\n        require(withdraws[withdrawCount] == false);\n\n        // set withdrawal flag\n        withdraws[withdrawCount] = true;\n\n        // retrieve child tokens\n        address childToken = tokens[rootToken];\n\n        // check if child token is mapped\n        require(childToken != address(0x0), \"child token is not mapped\");\n\n        ChildToken obj;\n\n        if (isERC721[rootToken]) {\n            obj = ChildERC721(childToken);\n        } else {\n            obj = ChildERC20(childToken);\n        }\n        // withdraw tokens\n        obj.withdraw(amountOrTokenId);\n\n        // Emit TokenWithdrawn event\n        emit TokenWithdrawn(\n            rootToken,\n            childToken,\n            user,\n            amountOrTokenId,\n            withdrawCount\n        );\n    }\n\n    function depositTokens(\n        address rootToken,\n        address user,\n        uint256 amountOrTokenId,\n        uint256 depositId\n    ) internal {\n        // check if deposit happens only once\n        require(deposits[depositId] == false);\n\n        // set deposit flag\n        deposits[depositId] = true;\n\n        // retrieve child tokens\n        address childToken = tokens[rootToken];\n\n        // check if child token is mapped\n        require(childToken != address(0x0));\n\n        ChildToken obj;\n\n        if (isERC721[rootToken]) {\n            obj = ChildERC721(childToken);\n        } else {\n            obj = ChildERC20(childToken);\n        }\n\n        // deposit tokens\n        obj.deposit(user, amountOrTokenId);\n\n        // Emit TokenDeposited event\n        emit TokenDeposited(\n            rootToken,\n            childToken,\n            user,\n            amountOrTokenId,\n            depositId\n        );\n    }\n\n}\n",
  "sourcePath": "/Users/pauloleary/code/maticnetwork/contracts/contracts/child/ChildChain.sol",
  "compiler": {
    "name": "solc",
    "version": "0.5.17+commit.d19bba13.Emscripten.clang"
  },
  "schemaVersion": "3.4.10",
  "updatedAt": "2023-02-04T18:04:25.855Z",
  "devdoc": {
    "methods": {
      "isOnlyStateSyncerContract()": {
        "details": "Returns true if the caller is the state syncer contract TODO: replace onlyOwner ownership with 0x1000 for validator majority"
      },
      "isOwner()": {
        "return": "true if `msg.sender` is the owner of the contract."
      },
      "owner()": {
        "return": "the address of the owner."
      },
      "renounceOwnership()": {
        "details": "Allows the current owner to relinquish control of the contract. It will not be possible to call the functions with the `onlyOwner` modifier anymore."
      },
      "transferOwnership(address)": {
        "details": "Allows the current owner to transfer control of the contract to a newOwner.",
        "params": {
          "newOwner": "The address to transfer ownership to."
        }
      }
    }
  },
  "userdoc": {
    "methods": {
      "renounceOwnership()": {
        "notice": "Renouncing ownership will leave the contract without an owner, thereby removing any functionality that is only available to the owner."
      }
    }
  }
}