{
  "contractName": "ContractWitRevertingFallback",
  "abi": [
    {
      "payable": true,
      "stateMutability": "payable",
      "type": "fallback"
    },
    {
      "constant": false,
      "inputs": [
        {
          "internalType": "address",
          "name": "depositManager",
          "type": "address"
        },
        {
          "internalType": "address",
          "name": "token",
          "type": "address"
        },
        {
          "internalType": "uint256",
          "name": "amount",
          "type": "uint256"
        }
      ],
      "name": "deposit",
      "outputs": [],
      "payable": false,
      "stateMutability": "nonpayable",
      "type": "function"
    },
    {
      "constant": false,
      "inputs": [
        {
          "internalType": "address payable",
          "name": "withdrawManager",
          "type": "address"
        },
        {
          "internalType": "uint256",
          "name": "depositId",
          "type": "uint256"
        },
        {
          "internalType": "address",
          "name": "token",
          "type": "address"
        },
        {
          "internalType": "uint256",
          "name": "amountOrToken",
          "type": "uint256"
        }
      ],
      "name": "startExitWithDepositedTokens",
      "outputs": [],
      "payable": true,
      "stateMutability": "payable",
      "type": "function"
    }
  ],
  "bytecode": "0x608060405234801561001057600080fd5b50610298806100206000396000f3fe6080604052600436106100295760003560e01c80631756baa0146100685780638340f549146100a4575b6040805162461bcd60e51b815260206004820152600f60248201526e1b9bdd081a5b5c1b195b595b9d1959608a1b604482015290519081900360640190fd5b6100a26004803603608081101561007e57600080fd5b506001600160a01b03813581169160208101359160408201351690606001356100e7565b005b3480156100b057600080fd5b506100a2600480360360608110156100c757600080fd5b506001600160a01b03813581169160208101359091169060400135610168565b6040805163144a03b360e01b8152600481018590526001600160a01b0384811660248301526044820184905291519186169163144a03b39167016345785d8a000091606480830192600092919082900301818588803b15801561014957600080fd5b505af115801561015d573d6000803e3d6000fd5b505050505050505050565b816001600160a01b031663095ea7b384836040518363ffffffff1660e01b815260040180836001600160a01b03166001600160a01b0316815260200182815260200192505050602060405180830381600087803b1580156101c857600080fd5b505af11580156101dc573d6000803e3d6000fd5b505050506040513d60208110156101f257600080fd5b505060408051634bff5c9360e11b81526001600160a01b038481166004830152602482018490529151918516916397feb9269160448082019260009290919082900301818387803b15801561024657600080fd5b505af115801561025a573d6000803e3d6000fd5b5050505050505056fea265627a7a723158209844c3fbc1129c246f7d6638eb3538546c71cc9b9f5bf364848d7e266bb9816d64736f6c63430005110032",
  "source": "pragma solidity ^0.5.2;\n\nimport {IERC20} from \"openzeppelin-solidity/contracts/token/ERC20/IERC20.sol\";\nimport \"../root/depositManager/IDepositManager.sol\";\nimport \"../root/withdrawManager/WithdrawManager.sol\";\n\ncontract ContractWithFallback {\n  function deposit(address depositManager, address token, uint256 amount) public {\n    IERC20(token).approve(depositManager, amount);\n    IDepositManager(depositManager).depositERC20(token, amount);\n  }\n\n  function startExitWithDepositedTokens(\n    address payable withdrawManager,\n    uint256 depositId,\n    address token,\n    uint256 amountOrToken) public payable {\n    WithdrawManager(withdrawManager).startExitWithDepositedTokens.value(10**17)(depositId, token, amountOrToken);\n  }\n\n  function() external payable {}\n}\n\ncontract ContractWithoutFallback {\n  function deposit(address depositManager, address token, uint256 amount) public {\n    IERC20(token).approve(depositManager, amount);\n    IDepositManager(depositManager).depositERC20(token, amount);\n  }\n\n  function startExitWithDepositedTokens(\n    address payable withdrawManager,\n    uint256 depositId,\n    address token,\n    uint256 amountOrToken) public payable {\n    WithdrawManager(withdrawManager).startExitWithDepositedTokens.value(10**17)(depositId, token, amountOrToken);\n  }\n}\n\ncontract ContractWitRevertingFallback {\n  function deposit(address depositManager, address token, uint256 amount) public {\n    IERC20(token).approve(depositManager, amount);\n    IDepositManager(depositManager).depositERC20(token, amount);\n  }\n\n  function startExitWithDepositedTokens(\n    address payable withdrawManager,\n    uint256 depositId,\n    address token,\n    uint256 amountOrToken) public payable {\n    WithdrawManager(withdrawManager).startExitWithDepositedTokens.value(10**17)(depositId, token, amountOrToken);\n  }\n\n  function() external payable {\n    revert(\"not implemented\");\n  }\n}\n",
  "sourcePath": "/Users/pauloleary/code/maticnetwork/contracts/contracts/test/ContractActor.sol",
  "compiler": {
    "name": "solc",
    "version": "0.5.17+commit.d19bba13.Emscripten.clang"
  },
  "schemaVersion": "3.4.10",
  "updatedAt": "2023-02-09T23:27:17.107Z",
  "devdoc": {
    "methods": {}
  },
  "userdoc": {
    "methods": {}
  }
}