{
  "contractName": "StakeManagerTest",
  "abi": [
    {
      "anonymous": false,
      "inputs": [
        {
          "indexed": true,
          "internalType": "address",
          "name": "previousOwner",
          "type": "address"
        },
        {
          "indexed": true,
          "internalType": "address",
          "name": "newOwner",
          "type": "address"
        }
      ],
      "name": "OwnershipTransferred",
      "type": "event"
    },
    {
      "anonymous": false,
      "inputs": [
        {
          "indexed": true,
          "internalType": "address",
          "name": "previousRootChain",
          "type": "address"
        },
        {
          "indexed": true,
          "internalType": "address",
          "name": "newRootChain",
          "type": "address"
        }
      ],
      "name": "RootChainChanged",
      "type": "event"
    },
    {
      "constant": true,
      "inputs": [],
      "name": "CHECKPOINT_REWARD",
      "outputs": [
        {
          "internalType": "uint256",
          "name": "",
          "type": "uint256"
        }
      ],
      "payable": false,
      "stateMutability": "view",
      "type": "function"
    },
    {
      "constant": true,
      "inputs": [],
      "name": "NFTContract",
      "outputs": [
        {
          "internalType": "contract StakingNFT",
          "name": "",
          "type": "address"
        }
      ],
      "payable": false,
      "stateMutability": "view",
      "type": "function"
    },
    {
      "constant": true,
      "inputs": [],
      "name": "NFTCounter",
      "outputs": [
        {
          "internalType": "uint256",
          "name": "",
          "type": "uint256"
        }
      ],
      "payable": false,
      "stateMutability": "view",
      "type": "function"
    },
    {
      "constant": true,
      "inputs": [],
      "name": "WITHDRAWAL_DELAY",
      "outputs": [
        {
          "internalType": "uint256",
          "name": "",
          "type": "uint256"
        }
      ],
      "payable": false,
      "stateMutability": "view",
      "type": "function"
    },
    {
      "constant": true,
      "inputs": [],
      "name": "accountStateRoot",
      "outputs": [
        {
          "internalType": "bytes32",
          "name": "",
          "type": "bytes32"
        }
      ],
      "payable": false,
      "stateMutability": "view",
      "type": "function"
    },
    {
      "constant": true,
      "inputs": [],
      "name": "auctionPeriod",
      "outputs": [
        {
          "internalType": "uint256",
          "name": "",
          "type": "uint256"
        }
      ],
      "payable": false,
      "stateMutability": "view",
      "type": "function"
    },
    {
      "constant": false,
      "inputs": [
        {
          "internalType": "address",
          "name": "newRootChain",
          "type": "address"
        }
      ],
      "name": "changeRootChain",
      "outputs": [],
      "payable": false,
      "stateMutability": "nonpayable",
      "type": "function"
    },
    {
      "constant": true,
      "inputs": [],
      "name": "checkPointBlockInterval",
      "outputs": [
        {
          "internalType": "uint256",
          "name": "",
          "type": "uint256"
        }
      ],
      "payable": false,
      "stateMutability": "view",
      "type": "function"
    },
    {
      "constant": true,
      "inputs": [],
      "name": "checkpointRewardDelta",
      "outputs": [
        {
          "internalType": "uint256",
          "name": "",
          "type": "uint256"
        }
      ],
      "payable": false,
      "stateMutability": "view",
      "type": "function"
    },
    {
      "constant": false,
      "inputs": [
        {
          "internalType": "uint256",
          "name": "accumFeeAmount",
          "type": "uint256"
        },
        {
          "internalType": "uint256",
          "name": "index",
          "type": "uint256"
        },
        {
          "internalType": "bytes",
          "name": "proof",
          "type": "bytes"
        }
      ],
      "name": "claimFee",
      "outputs": [],
      "payable": false,
      "stateMutability": "nonpayable",
      "type": "function"
    },
    {
      "constant": false,
      "inputs": [
        {
          "internalType": "uint256",
          "name": "validatorId",
          "type": "uint256"
        },
        {
          "internalType": "uint256",
          "name": "heimdallFee",
          "type": "uint256"
        }
      ],
      "name": "confirmAuctionBid",
      "outputs": [],
      "payable": false,
      "stateMutability": "nonpayable",
      "type": "function"
    },
    {
      "constant": true,
      "inputs": [],
      "name": "currentEpoch",
      "outputs": [
        {
          "internalType": "uint256",
          "name": "",
          "type": "uint256"
        }
      ],
      "payable": false,
      "stateMutability": "view",
      "type": "function"
    },
    {
      "constant": true,
      "inputs": [],
      "name": "currentValidatorSetSize",
      "outputs": [
        {
          "internalType": "uint256",
          "name": "",
          "type": "uint256"
        }
      ],
      "payable": false,
      "stateMutability": "view",
      "type": "function"
    },
    {
      "constant": true,
      "inputs": [],
      "name": "currentValidatorSetTotalStake",
      "outputs": [
        {
          "internalType": "uint256",
          "name": "",
          "type": "uint256"
        }
      ],
      "payable": false,
      "stateMutability": "view",
      "type": "function"
    },
    {
      "constant": false,
      "inputs": [
        {
          "internalType": "uint256",
          "name": "validatorId",
          "type": "uint256"
        },
        {
          "internalType": "uint256",
          "name": "amount",
          "type": "uint256"
        }
      ],
      "name": "decreaseValidatorDelegatedAmount",
      "outputs": [],
      "payable": false,
      "stateMutability": "nonpayable",
      "type": "function"
    },
    {
      "constant": true,
      "inputs": [
        {
          "internalType": "uint256",
          "name": "validatorId",
          "type": "uint256"
        }
      ],
      "name": "delegatedAmount",
      "outputs": [
        {
          "internalType": "uint256",
          "name": "",
          "type": "uint256"
        }
      ],
      "payable": false,
      "stateMutability": "view",
      "type": "function"
    },
    {
      "constant": false,
      "inputs": [
        {
          "internalType": "uint256",
          "name": "validatorId",
          "type": "uint256"
        },
        {
          "internalType": "uint256",
          "name": "amount",
          "type": "uint256"
        },
        {
          "internalType": "address",
          "name": "delegator",
          "type": "address"
        }
      ],
      "name": "delegationDeposit",
      "outputs": [
        {
          "internalType": "bool",
          "name": "",
          "type": "bool"
        }
      ],
      "payable": false,
      "stateMutability": "nonpayable",
      "type": "function"
    },
    {
      "constant": true,
      "inputs": [],
      "name": "delegationEnabled",
      "outputs": [
        {
          "internalType": "bool",
          "name": "",
          "type": "bool"
        }
      ],
      "payable": false,
      "stateMutability": "view",
      "type": "function"
    },
    {
      "constant": true,
      "inputs": [
        {
          "internalType": "uint256",
          "name": "validatorId",
          "type": "uint256"
        }
      ],
      "name": "delegatorsReward",
      "outputs": [
        {
          "internalType": "uint256",
          "name": "",
          "type": "uint256"
        }
      ],
      "payable": false,
      "stateMutability": "view",
      "type": "function"
    },
    {
      "constant": false,
      "inputs": [
        {
          "internalType": "address",
          "name": "auctionUser",
          "type": "address"
        },
        {
          "internalType": "uint256",
          "name": "heimdallFee",
          "type": "uint256"
        },
        {
          "internalType": "uint256",
          "name": "validatorId",
          "type": "uint256"
        },
        {
          "internalType": "uint256",
          "name": "auctionAmount",
          "type": "uint256"
        },
        {
          "internalType": "bool",
          "name": "acceptDelegation",
          "type": "bool"
        },
        {
          "internalType": "bytes",
          "name": "signerPubkey",
          "type": "bytes"
        }
      ],
      "name": "dethroneAndStake",
      "outputs": [],
      "payable": false,
      "stateMutability": "nonpayable",
      "type": "function"
    },
    {
      "constant": false,
      "inputs": [
        {
          "internalType": "address",
          "name": "destination",
          "type": "address"
        },
        {
          "internalType": "uint256",
          "name": "amount",
          "type": "uint256"
        }
      ],
      "name": "drain",
      "outputs": [],
      "payable": false,
      "stateMutability": "nonpayable",
      "type": "function"
    },
    {
      "constant": false,
      "inputs": [
        {
          "internalType": "uint256",
          "name": "validatorId",
          "type": "uint256"
        },
        {
          "internalType": "address",
          "name": "tokenAddr",
          "type": "address"
        },
        {
          "internalType": "address payable",
          "name": "destination",
          "type": "address"
        },
        {
          "internalType": "uint256",
          "name": "amount",
          "type": "uint256"
        }
      ],
      "name": "drainValidatorShares",
      "outputs": [],
      "payable": false,
      "stateMutability": "nonpayable",
      "type": "function"
    },
    {
      "constant": true,
      "inputs": [],
      "name": "dynasty",
      "outputs": [
        {
          "internalType": "uint256",
          "name": "",
          "type": "uint256"
        }
      ],
      "payable": false,
      "stateMutability": "view",
      "type": "function"
    },
    {
      "constant": true,
      "inputs": [],
      "name": "epoch",
      "outputs": [
        {
          "internalType": "uint256",
          "name": "",
          "type": "uint256"
        }
      ],
      "payable": false,
      "stateMutability": "view",
      "type": "function"
    },
    {
      "constant": true,
      "inputs": [],
      "name": "eventsHub",
      "outputs": [
        {
          "internalType": "address",
          "name": "",
          "type": "address"
        }
      ],
      "payable": false,
      "stateMutability": "view",
      "type": "function"
    },
    {
      "constant": true,
      "inputs": [],
      "name": "extensionCode",
      "outputs": [
        {
          "internalType": "address",
          "name": "",
          "type": "address"
        }
      ],
      "payable": false,
      "stateMutability": "view",
      "type": "function"
    },
    {
      "constant": false,
      "inputs": [
        {
          "internalType": "uint256",
          "name": "validatorId",
          "type": "uint256"
        }
      ],
      "name": "forceUnstake",
      "outputs": [],
      "payable": false,
      "stateMutability": "nonpayable",
      "type": "function"
    },
    {
      "constant": true,
      "inputs": [],
      "name": "getRegistry",
      "outputs": [
        {
          "internalType": "address",
          "name": "",
          "type": "address"
        }
      ],
      "payable": false,
      "stateMutability": "view",
      "type": "function"
    },
    {
      "constant": true,
      "inputs": [
        {
          "internalType": "uint256",
          "name": "validatorId",
          "type": "uint256"
        }
      ],
      "name": "getValidatorContract",
      "outputs": [
        {
          "internalType": "address",
          "name": "",
          "type": "address"
        }
      ],
      "payable": false,
      "stateMutability": "view",
      "type": "function"
    },
    {
      "constant": true,
      "inputs": [
        {
          "internalType": "address",
          "name": "user",
          "type": "address"
        }
      ],
      "name": "getValidatorId",
      "outputs": [
        {
          "internalType": "uint256",
          "name": "",
          "type": "uint256"
        }
      ],
      "payable": false,
      "stateMutability": "view",
      "type": "function"
    },
    {
      "constant": true,
      "inputs": [],
      "name": "governance",
      "outputs": [
        {
          "internalType": "contract IGovernance",
          "name": "",
          "type": "address"
        }
      ],
      "payable": false,
      "stateMutability": "view",
      "type": "function"
    },
    {
      "constant": false,
      "inputs": [
        {
          "internalType": "address",
          "name": "_registry",
          "type": "address"
        },
        {
          "internalType": "address",
          "name": "_rootchain",
          "type": "address"
        },
        {
          "internalType": "address",
          "name": "_token",
          "type": "address"
        },
        {
          "internalType": "address",
          "name": "_NFTContract",
          "type": "address"
        },
        {
          "internalType": "address",
          "name": "_stakingLogger",
          "type": "address"
        },
        {
          "internalType": "address",
          "name": "_validatorShareFactory",
          "type": "address"
        },
        {
          "internalType": "address",
          "name": "_governance",
          "type": "address"
        },
        {
          "internalType": "address",
          "name": "_owner",
          "type": "address"
        },
        {
          "internalType": "address",
          "name": "_extensionCode",
          "type": "address"
        }
      ],
      "name": "initialize",
      "outputs": [],
      "payable": false,
      "stateMutability": "nonpayable",
      "type": "function"
    },
    {
      "constant": false,
      "inputs": [
        {
          "internalType": "address[]",
          "name": "_signers",
          "type": "address[]"
        }
      ],
      "name": "insertSigners",
      "outputs": [],
      "payable": false,
      "stateMutability": "nonpayable",
      "type": "function"
    },
    {
      "constant": true,
      "inputs": [],
      "name": "isOwner",
      "outputs": [
        {
          "internalType": "bool",
          "name": "",
          "type": "bool"
        }
      ],
      "payable": false,
      "stateMutability": "view",
      "type": "function"
    },
    {
      "constant": true,
      "inputs": [
        {
          "internalType": "uint256",
          "name": "validatorId",
          "type": "uint256"
        }
      ],
      "name": "isValidator",
      "outputs": [
        {
          "internalType": "bool",
          "name": "",
          "type": "bool"
        }
      ],
      "payable": false,
      "stateMutability": "view",
      "type": "function"
    },
    {
      "constant": true,
      "inputs": [
        {
          "internalType": "uint256",
          "name": "",
          "type": "uint256"
        }
      ],
      "name": "latestSignerUpdateEpoch",
      "outputs": [
        {
          "internalType": "uint256",
          "name": "",
          "type": "uint256"
        }
      ],
      "payable": false,
      "stateMutability": "view",
      "type": "function"
    },
    {
      "constant": false,
      "inputs": [],
      "name": "lock",
      "outputs": [],
      "payable": false,
      "stateMutability": "nonpayable",
      "type": "function"
    },
    {
      "constant": true,
      "inputs": [],
      "name": "locked",
      "outputs": [
        {
          "internalType": "bool",
          "name": "",
          "type": "bool"
        }
      ],
      "payable": false,
      "stateMutability": "view",
      "type": "function"
    },
    {
      "constant": true,
      "inputs": [],
      "name": "logger",
      "outputs": [
        {
          "internalType": "contract StakingInfo",
          "name": "",
          "type": "address"
        }
      ],
      "payable": false,
      "stateMutability": "view",
      "type": "function"
    },
    {
      "constant": true,
      "inputs": [],
      "name": "maxRewardedCheckpoints",
      "outputs": [
        {
          "internalType": "uint256",
          "name": "",
          "type": "uint256"
        }
      ],
      "payable": false,
      "stateMutability": "view",
      "type": "function"
    },
    {
      "constant": false,
      "inputs": [
        {
          "internalType": "uint256",
          "name": "fromValidatorId",
          "type": "uint256"
        },
        {
          "internalType": "uint256",
          "name": "toValidatorId",
          "type": "uint256"
        },
        {
          "internalType": "uint256",
          "name": "amount",
          "type": "uint256"
        }
      ],
      "name": "migrateDelegation",
      "outputs": [],
      "payable": false,
      "stateMutability": "nonpayable",
      "type": "function"
    },
    {
      "constant": false,
      "inputs": [
        {
          "internalType": "uint256",
          "name": "validatorIdFrom",
          "type": "uint256"
        },
        {
          "internalType": "uint256",
          "name": "validatorIdTo",
          "type": "uint256"
        }
      ],
      "name": "migrateValidatorsData",
      "outputs": [],
      "payable": false,
      "stateMutability": "nonpayable",
      "type": "function"
    },
    {
      "constant": true,
      "inputs": [],
      "name": "minDeposit",
      "outputs": [
        {
          "internalType": "uint256",
          "name": "",
          "type": "uint256"
        }
      ],
      "payable": false,
      "stateMutability": "view",
      "type": "function"
    },
    {
      "constant": true,
      "inputs": [],
      "name": "minHeimdallFee",
      "outputs": [
        {
          "internalType": "uint256",
          "name": "",
          "type": "uint256"
        }
      ],
      "payable": false,
      "stateMutability": "view",
      "type": "function"
    },
    {
      "constant": true,
      "inputs": [],
      "name": "owner",
      "outputs": [
        {
          "internalType": "address",
          "name": "",
          "type": "address"
        }
      ],
      "payable": false,
      "stateMutability": "view",
      "type": "function"
    },
    {
      "constant": true,
      "inputs": [
        {
          "internalType": "uint256",
          "name": "tokenId",
          "type": "uint256"
        }
      ],
      "name": "ownerOf",
      "outputs": [
        {
          "internalType": "address",
          "name": "",
          "type": "address"
        }
      ],
      "payable": false,
      "stateMutability": "view",
      "type": "function"
    },
    {
      "constant": true,
      "inputs": [],
      "name": "prevBlockInterval",
      "outputs": [
        {
          "internalType": "uint256",
          "name": "",
          "type": "uint256"
        }
      ],
      "payable": false,
      "stateMutability": "view",
      "type": "function"
    },
    {
      "constant": true,
      "inputs": [],
      "name": "proposerBonus",
      "outputs": [
        {
          "internalType": "uint256",
          "name": "",
          "type": "uint256"
        }
      ],
      "payable": false,
      "stateMutability": "view",
      "type": "function"
    },
    {
      "constant": true,
      "inputs": [],
      "name": "registry",
      "outputs": [
        {
          "internalType": "address",
          "name": "",
          "type": "address"
        }
      ],
      "payable": false,
      "stateMutability": "view",
      "type": "function"
    },
    {
      "constant": false,
      "inputs": [
        {
          "internalType": "address",
          "name": "_NFTContract",
          "type": "address"
        },
        {
          "internalType": "address",
          "name": "_stakingLogger",
          "type": "address"
        },
        {
          "internalType": "address",
          "name": "_validatorShareFactory",
          "type": "address"
        },
        {
          "internalType": "address",
          "name": "_extensionCode",
          "type": "address"
        }
      ],
      "name": "reinitialize",
      "outputs": [],
      "payable": false,
      "stateMutability": "nonpayable",
      "type": "function"
    },
    {
      "constant": false,
      "inputs": [],
      "name": "renounceOwnership",
      "outputs": [],
      "payable": false,
      "stateMutability": "nonpayable",
      "type": "function"
    },
    {
      "constant": true,
      "inputs": [],
      "name": "replacementCoolDown",
      "outputs": [
        {
          "internalType": "uint256",
          "name": "",
          "type": "uint256"
        }
      ],
      "payable": false,
      "stateMutability": "view",
      "type": "function"
    },
    {
      "constant": false,
      "inputs": [
        {
          "internalType": "uint256",
          "name": "validatorId",
          "type": "uint256"
        },
        {
          "internalType": "uint256",
          "name": "amount",
          "type": "uint256"
        },
        {
          "internalType": "bool",
          "name": "stakeRewards",
          "type": "bool"
        }
      ],
      "name": "restake",
      "outputs": [],
      "payable": false,
      "stateMutability": "nonpayable",
      "type": "function"
    },
    {
      "constant": true,
      "inputs": [],
      "name": "rewardDecreasePerCheckpoint",
      "outputs": [
        {
          "internalType": "uint256",
          "name": "",
          "type": "uint256"
        }
      ],
      "payable": false,
      "stateMutability": "view",
      "type": "function"
    },
    {
      "constant": true,
      "inputs": [],
      "name": "rewardPerStake",
      "outputs": [
        {
          "internalType": "uint256",
          "name": "",
          "type": "uint256"
        }
      ],
      "payable": false,
      "stateMutability": "view",
      "type": "function"
    },
    {
      "constant": true,
      "inputs": [],
      "name": "rootChain",
      "outputs": [
        {
          "internalType": "address",
          "name": "",
          "type": "address"
        }
      ],
      "payable": false,
      "stateMutability": "view",
      "type": "function"
    },
    {
      "constant": false,
      "inputs": [
        {
          "internalType": "uint256",
          "name": "_currentEpoch",
          "type": "uint256"
        }
      ],
      "name": "setCurrentEpoch",
      "outputs": [],
      "payable": false,
      "stateMutability": "nonpayable",
      "type": "function"
    },
    {
      "constant": false,
      "inputs": [
        {
          "internalType": "bool",
          "name": "enabled",
          "type": "bool"
        }
      ],
      "name": "setDelegationEnabled",
      "outputs": [],
      "payable": false,
      "stateMutability": "nonpayable",
      "type": "function"
    },
    {
      "constant": false,
      "inputs": [
        {
          "internalType": "address",
          "name": "_token",
          "type": "address"
        }
      ],
      "name": "setStakingToken",
      "outputs": [],
      "payable": false,
      "stateMutability": "nonpayable",
      "type": "function"
    },
    {
      "constant": true,
      "inputs": [
        {
          "internalType": "address",
          "name": "",
          "type": "address"
        }
      ],
      "name": "signerToValidator",
      "outputs": [
        {
          "internalType": "uint256",
          "name": "",
          "type": "uint256"
        }
      ],
      "payable": false,
      "stateMutability": "view",
      "type": "function"
    },
    {
      "constant": true,
      "inputs": [],
      "name": "signerUpdateLimit",
      "outputs": [
        {
          "internalType": "uint256",
          "name": "",
          "type": "uint256"
        }
      ],
      "payable": false,
      "stateMutability": "view",
      "type": "function"
    },
    {
      "constant": true,
      "inputs": [
        {
          "internalType": "uint256",
          "name": "",
          "type": "uint256"
        }
      ],
      "name": "signers",
      "outputs": [
        {
          "internalType": "address",
          "name": "",
          "type": "address"
        }
      ],
      "payable": false,
      "stateMutability": "view",
      "type": "function"
    },
    {
      "constant": false,
      "inputs": [
        {
          "internalType": "bytes",
          "name": "_slashingInfoList",
          "type": "bytes"
        }
      ],
      "name": "slash",
      "outputs": [
        {
          "internalType": "uint256",
          "name": "",
          "type": "uint256"
        }
      ],
      "payable": false,
      "stateMutability": "nonpayable",
      "type": "function"
    },
    {
      "constant": false,
      "inputs": [
        {
          "internalType": "address",
          "name": "user",
          "type": "address"
        },
        {
          "internalType": "uint256",
          "name": "amount",
          "type": "uint256"
        },
        {
          "internalType": "uint256",
          "name": "heimdallFee",
          "type": "uint256"
        },
        {
          "internalType": "bool",
          "name": "acceptDelegation",
          "type": "bool"
        },
        {
          "internalType": "bytes",
          "name": "signerPubkey",
          "type": "bytes"
        }
      ],
      "name": "stakeFor",
      "outputs": [],
      "payable": false,
      "stateMutability": "nonpayable",
      "type": "function"
    },
    {
      "constant": false,
      "inputs": [
        {
          "internalType": "uint256",
          "name": "validatorId",
          "type": "uint256"
        },
        {
          "internalType": "uint256",
          "name": "amount",
          "type": "uint256"
        },
        {
          "internalType": "bool",
          "name": "_acceptDelegation",
          "type": "bool"
        },
        {
          "internalType": "bytes",
          "name": "_signerPubkey",
          "type": "bytes"
        }
      ],
      "name": "startAuction",
      "outputs": [],
      "payable": false,
      "stateMutability": "nonpayable",
      "type": "function"
    },
    {
      "constant": false,
      "inputs": [
        {
          "internalType": "uint256",
          "name": "forNCheckpoints",
          "type": "uint256"
        }
      ],
      "name": "stopAuctions",
      "outputs": [],
      "payable": false,
      "stateMutability": "nonpayable",
      "type": "function"
    },
    {
      "constant": true,
      "inputs": [],
      "name": "token",
      "outputs": [
        {
          "internalType": "contract IERC20",
          "name": "",
          "type": "address"
        }
      ],
      "payable": false,
      "stateMutability": "view",
      "type": "function"
    },
    {
      "constant": false,
      "inputs": [
        {
          "internalType": "address",
          "name": "user",
          "type": "address"
        },
        {
          "internalType": "uint256",
          "name": "heimdallFee",
          "type": "uint256"
        }
      ],
      "name": "topUpForFee",
      "outputs": [],
      "payable": false,
      "stateMutability": "nonpayable",
      "type": "function"
    },
    {
      "constant": true,
      "inputs": [],
      "name": "totalHeimdallFee",
      "outputs": [
        {
          "internalType": "uint256",
          "name": "",
          "type": "uint256"
        }
      ],
      "payable": false,
      "stateMutability": "view",
      "type": "function"
    },
    {
      "constant": true,
      "inputs": [],
      "name": "totalRewards",
      "outputs": [
        {
          "internalType": "uint256",
          "name": "",
          "type": "uint256"
        }
      ],
      "payable": false,
      "stateMutability": "view",
      "type": "function"
    },
    {
      "constant": true,
      "inputs": [],
      "name": "totalRewardsLiquidated",
      "outputs": [
        {
          "internalType": "uint256",
          "name": "",
          "type": "uint256"
        }
      ],
      "payable": false,
      "stateMutability": "view",
      "type": "function"
    },
    {
      "constant": true,
      "inputs": [],
      "name": "totalStaked",
      "outputs": [
        {
          "internalType": "uint256",
          "name": "",
          "type": "uint256"
        }
      ],
      "payable": false,
      "stateMutability": "view",
      "type": "function"
    },
    {
      "constant": true,
      "inputs": [
        {
          "internalType": "address",
          "name": "user",
          "type": "address"
        }
      ],
      "name": "totalStakedFor",
      "outputs": [
        {
          "internalType": "uint256",
          "name": "",
          "type": "uint256"
        }
      ],
      "payable": false,
      "stateMutability": "view",
      "type": "function"
    },
    {
      "constant": false,
      "inputs": [
        {
          "internalType": "uint256",
          "name": "validatorId",
          "type": "uint256"
        },
        {
          "internalType": "uint256",
          "name": "amount",
          "type": "uint256"
        },
        {
          "internalType": "address",
          "name": "delegator",
          "type": "address"
        }
      ],
      "name": "transferFunds",
      "outputs": [
        {
          "internalType": "bool",
          "name": "",
          "type": "bool"
        }
      ],
      "payable": false,
      "stateMutability": "nonpayable",
      "type": "function"
    },
    {
      "constant": false,
      "inputs": [
        {
          "internalType": "address",
          "name": "newOwner",
          "type": "address"
        }
      ],
      "name": "transferOwnership",
      "outputs": [],
      "payable": false,
      "stateMutability": "nonpayable",
      "type": "function"
    },
    {
      "constant": false,
      "inputs": [
        {
          "internalType": "uint256",
          "name": "validatorId",
          "type": "uint256"
        }
      ],
      "name": "unjail",
      "outputs": [],
      "payable": false,
      "stateMutability": "nonpayable",
      "type": "function"
    },
    {
      "constant": false,
      "inputs": [],
      "name": "unlock",
      "outputs": [],
      "payable": false,
      "stateMutability": "nonpayable",
      "type": "function"
    },
    {
      "constant": false,
      "inputs": [
        {
          "internalType": "uint256",
          "name": "validatorId",
          "type": "uint256"
        }
      ],
      "name": "unstake",
      "outputs": [],
      "payable": false,
      "stateMutability": "nonpayable",
      "type": "function"
    },
    {
      "constant": false,
      "inputs": [
        {
          "internalType": "uint256",
          "name": "validatorId",
          "type": "uint256"
        }
      ],
      "name": "unstakeClaim",
      "outputs": [],
      "payable": false,
      "stateMutability": "nonpayable",
      "type": "function"
    },
    {
      "constant": false,
      "inputs": [
        {
          "internalType": "uint256",
          "name": "_blocks",
          "type": "uint256"
        }
      ],
      "name": "updateCheckPointBlockInterval",
      "outputs": [],
      "payable": false,
      "stateMutability": "nonpayable",
      "type": "function"
    },
    {
      "constant": false,
      "inputs": [
        {
          "internalType": "uint256",
          "name": "newReward",
          "type": "uint256"
        }
      ],
      "name": "updateCheckpointReward",
      "outputs": [],
      "payable": false,
      "stateMutability": "nonpayable",
      "type": "function"
    },
    {
      "constant": false,
      "inputs": [
        {
          "internalType": "uint256",
          "name": "_rewardDecreasePerCheckpoint",
          "type": "uint256"
        },
        {
          "internalType": "uint256",
          "name": "_maxRewardedCheckpoints",
          "type": "uint256"
        },
        {
          "internalType": "uint256",
          "name": "_checkpointRewardDelta",
          "type": "uint256"
        }
      ],
      "name": "updateCheckpointRewardParams",
      "outputs": [],
      "payable": false,
      "stateMutability": "nonpayable",
      "type": "function"
    },
    {
      "constant": false,
      "inputs": [
        {
          "internalType": "uint256",
          "name": "validatorId",
          "type": "uint256"
        },
        {
          "internalType": "uint256",
          "name": "newCommissionRate",
          "type": "uint256"
        }
      ],
      "name": "updateCommissionRate",
      "outputs": [],
      "payable": false,
      "stateMutability": "nonpayable",
      "type": "function"
    },
    {
      "constant": false,
      "inputs": [
        {
          "internalType": "uint256",
          "name": "newDynasty",
          "type": "uint256"
        }
      ],
      "name": "updateDynastyValue",
      "outputs": [],
      "payable": false,
      "stateMutability": "nonpayable",
      "type": "function"
    },
    {
      "constant": false,
      "inputs": [
        {
          "internalType": "uint256",
          "name": "_minDeposit",
          "type": "uint256"
        },
        {
          "internalType": "uint256",
          "name": "_minHeimdallFee",
          "type": "uint256"
        }
      ],
      "name": "updateMinAmounts",
      "outputs": [],
      "payable": false,
      "stateMutability": "nonpayable",
      "type": "function"
    },
    {
      "constant": false,
      "inputs": [
        {
          "internalType": "uint256",
          "name": "newProposerBonus",
          "type": "uint256"
        }
      ],
      "name": "updateProposerBonus",
      "outputs": [],
      "payable": false,
      "stateMutability": "nonpayable",
      "type": "function"
    },
    {
      "constant": false,
      "inputs": [
        {
          "internalType": "uint256",
          "name": "validatorId",
          "type": "uint256"
        },
        {
          "internalType": "bytes",
          "name": "signerPubkey",
          "type": "bytes"
        }
      ],
      "name": "updateSigner",
      "outputs": [],
      "payable": false,
      "stateMutability": "nonpayable",
      "type": "function"
    },
    {
      "constant": false,
      "inputs": [
        {
          "internalType": "uint256",
          "name": "_limit",
          "type": "uint256"
        }
      ],
      "name": "updateSignerUpdateLimit",
      "outputs": [],
      "payable": false,
      "stateMutability": "nonpayable",
      "type": "function"
    },
    {
      "constant": false,
      "inputs": [
        {
          "internalType": "uint256",
          "name": "validatorId",
          "type": "uint256"
        },
        {
          "internalType": "address",
          "name": "newContractAddress",
          "type": "address"
        }
      ],
      "name": "updateValidatorContractAddress",
      "outputs": [],
      "payable": false,
      "stateMutability": "nonpayable",
      "type": "function"
    },
    {
      "constant": false,
      "inputs": [
        {
          "internalType": "bool",
          "name": "delegation",
          "type": "bool"
        }
      ],
      "name": "updateValidatorDelegation",
      "outputs": [],
      "payable": false,
      "stateMutability": "nonpayable",
      "type": "function"
    },
    {
      "constant": false,
      "inputs": [
        {
          "internalType": "uint256",
          "name": "validatorId",
          "type": "uint256"
        },
        {
          "internalType": "int256",
          "name": "amount",
          "type": "int256"
        }
      ],
      "name": "updateValidatorState",
      "outputs": [],
      "payable": false,
      "stateMutability": "nonpayable",
      "type": "function"
    },
    {
      "constant": false,
      "inputs": [
        {
          "internalType": "uint256",
          "name": "newThreshold",
          "type": "uint256"
        }
      ],
      "name": "updateValidatorThreshold",
      "outputs": [],
      "payable": false,
      "stateMutability": "nonpayable",
      "type": "function"
    },
    {
      "constant": true,
      "inputs": [
        {
          "internalType": "address",
          "name": "",
          "type": "address"
        }
      ],
      "name": "userFeeExit",
      "outputs": [
        {
          "internalType": "uint256",
          "name": "",
          "type": "uint256"
        }
      ],
      "payable": false,
      "stateMutability": "view",
      "type": "function"
    },
    {
      "constant": true,
      "inputs": [
        {
          "internalType": "uint256",
          "name": "",
          "type": "uint256"
        }
      ],
      "name": "validatorAuction",
      "outputs": [
        {
          "internalType": "uint256",
          "name": "amount",
          "type": "uint256"
        },
        {
          "internalType": "uint256",
          "name": "startEpoch",
          "type": "uint256"
        },
        {
          "internalType": "address",
          "name": "user",
          "type": "address"
        },
        {
          "internalType": "bool",
          "name": "acceptDelegation",
          "type": "bool"
        },
        {
          "internalType": "bytes",
          "name": "signerPubkey",
          "type": "bytes"
        }
      ],
      "payable": false,
      "stateMutability": "view",
      "type": "function"
    },
    {
      "constant": true,
      "inputs": [
        {
          "internalType": "uint256",
          "name": "validatorId",
          "type": "uint256"
        }
      ],
      "name": "validatorReward",
      "outputs": [
        {
          "internalType": "uint256",
          "name": "",
          "type": "uint256"
        }
      ],
      "payable": false,
      "stateMutability": "view",
      "type": "function"
    },
    {
      "constant": true,
      "inputs": [],
      "name": "validatorShareFactory",
      "outputs": [
        {
          "internalType": "contract ValidatorShareFactory",
          "name": "",
          "type": "address"
        }
      ],
      "payable": false,
      "stateMutability": "view",
      "type": "function"
    },
    {
      "constant": true,
      "inputs": [
        {
          "internalType": "uint256",
          "name": "validatorId",
          "type": "uint256"
        }
      ],
      "name": "validatorStake",
      "outputs": [
        {
          "internalType": "uint256",
          "name": "",
          "type": "uint256"
        }
      ],
      "payable": false,
      "stateMutability": "view",
      "type": "function"
    },
    {
      "constant": true,
      "inputs": [],
      "name": "validatorState",
      "outputs": [
        {
          "internalType": "uint256",
          "name": "amount",
          "type": "uint256"
        },
        {
          "internalType": "uint256",
          "name": "stakerCount",
          "type": "uint256"
        }
      ],
      "payable": false,
      "stateMutability": "view",
      "type": "function"
    },
    {
      "constant": true,
      "inputs": [
        {
          "internalType": "uint256",
          "name": "",
          "type": "uint256"
        }
      ],
      "name": "validatorStateChanges",
      "outputs": [
        {
          "internalType": "int256",
          "name": "amount",
          "type": "int256"
        },
        {
          "internalType": "int256",
          "name": "stakerCount",
          "type": "int256"
        }
      ],
      "payable": false,
      "stateMutability": "view",
      "type": "function"
    },
    {
      "constant": true,
      "inputs": [],
      "name": "validatorThreshold",
      "outputs": [
        {
          "internalType": "uint256",
          "name": "",
          "type": "uint256"
        }
      ],
      "payable": false,
      "stateMutability": "view",
      "type": "function"
    },
    {
      "constant": true,
      "inputs": [
        {
          "internalType": "uint256",
          "name": "",
          "type": "uint256"
        }
      ],
      "name": "validators",
      "outputs": [
        {
          "internalType": "uint256",
          "name": "amount",
          "type": "uint256"
        },
        {
          "internalType": "uint256",
          "name": "reward",
          "type": "uint256"
        },
        {
          "internalType": "uint256",
          "name": "activationEpoch",
          "type": "uint256"
        },
        {
          "internalType": "uint256",
          "name": "deactivationEpoch",
          "type": "uint256"
        },
        {
          "internalType": "uint256",
          "name": "jailTime",
          "type": "uint256"
        },
        {
          "internalType": "address",
          "name": "signer",
          "type": "address"
        },
        {
          "internalType": "address",
          "name": "contractAddress",
          "type": "address"
        },
        {
          "internalType": "enum StakeManagerStorage.Status",
          "name": "status",
          "type": "uint8"
        },
        {
          "internalType": "uint256",
          "name": "commissionRate",
          "type": "uint256"
        },
        {
          "internalType": "uint256",
          "name": "lastCommissionUpdate",
          "type": "uint256"
        },
        {
          "internalType": "uint256",
          "name": "delegatorsReward",
          "type": "uint256"
        },
        {
          "internalType": "uint256",
          "name": "delegatedAmount",
          "type": "uint256"
        },
        {
          "internalType": "uint256",
          "name": "initialRewardPerStake",
          "type": "uint256"
        }
      ],
      "payable": false,
      "stateMutability": "view",
      "type": "function"
    },
    {
      "constant": false,
      "inputs": [
        {
          "internalType": "uint256",
          "name": "validatorId",
          "type": "uint256"
        }
      ],
      "name": "withdrawDelegatorsReward",
      "outputs": [
        {
          "internalType": "uint256",
          "name": "",
          "type": "uint256"
        }
      ],
      "payable": false,
      "stateMutability": "nonpayable",
      "type": "function"
    },
    {
      "constant": false,
      "inputs": [
        {
          "internalType": "uint256",
          "name": "validatorId",
          "type": "uint256"
        }
      ],
      "name": "withdrawRewards",
      "outputs": [],
      "payable": false,
      "stateMutability": "nonpayable",
      "type": "function"
    },
    {
      "constant": true,
      "inputs": [],
      "name": "withdrawalDelay",
      "outputs": [
        {
          "internalType": "uint256",
          "name": "",
          "type": "uint256"
        }
      ],
      "payable": false,
      "stateMutability": "view",
      "type": "function"
    },
    {
      "constant": false,
      "inputs": [
        {
          "internalType": "uint256",
          "name": "blockInterval",
          "type": "uint256"
        },
        {
          "internalType": "bytes32",
          "name": "voteHash",
          "type": "bytes32"
        },
        {
          "internalType": "bytes32",
          "name": "stateRoot",
          "type": "bytes32"
        },
        {
          "internalType": "address",
          "name": "proposer",
          "type": "address"
        },
        {
          "internalType": "uint256[3][]",
          "name": "sigs",
          "type": "uint256[3][]"
        }
      ],
      "name": "checkSignatures",
      "outputs": [
        {
          "internalType": "uint256",
          "name": "",
          "type": "uint256"
        }
      ],
      "payable": false,
      "stateMutability": "nonpayable",
      "type": "function"
    }
  ],
  "bytecode": "0x608060408190526023805460ff1916905560008054610100600160a81b0319168155600180546001600160a01b0319163317908190556001600160a01b0316917f8be0079c531659141344cd1fd0a4f28419497f9722a3daafe3b4186f6b6457e0908290a3615575806100736000396000f3fe608060405234801561001057600080fd5b50600436106106235760003560e01c80637d66975211610336578063b1d23f02116101c3578063e6692f491161010f578063f5e95acb116100ad578063f8a3176c11610087578063f8a3176c14611522578063fb1ef52c1461152a578063fba58f3414611553578063fc0c546a1461155b57610623565b8063f5e95acb14611493578063f771fc87146114fd578063f83d08ba1461151a57610623565b8063f24ccbfe116100e9578063f24ccbfe1461139b578063f28699fa146113a3578063f2fde38b146113c2578063f41a9642146113e857610623565b8063e6692f491461133b578063e8afa8e814611358578063eceec1d31461137e57610623565b8063cf3090121161017c578063d86d53e711610156578063d86d53e7146112eb578063dcd962b214611308578063e568959a1461132b578063e59ee0c61461133357610623565b8063cf309012146112a7578063d6de07d0146112af578063d7f5549d146112ce57610623565b8063b1d23f02146111e4578063b65de35e14611207578063bc8756a914611224578063c710e92214611256578063cbf383d514611282578063cd6b83881461129f57610623565b8063987ab9db11610282578063a440ab1e1161023b578063a69df4b511610215578063a69df4b5146111a0578063a7ab6961146111a8578063a8dc889b146111b0578063b184be81146111b857610623565b8063a440ab1e146110f8578063a476907114611115578063a68548771461111d57610623565b8063987ab9db1461106257806399d18f6f1461106a5780639a8a62431461108d5780639b33f434146110955780639ddbbf85146110b25780639ff11500146110d557610623565b8063883b455f116102ef578063900cf0cf116102c9578063900cf0cf14611018578063914601491461102057806391f1a3a51461103d5780639342c8f41461104557610623565b8063883b455f146110005780638da5cb5b146110085780638f32d59b1461101057610623565b80637d66975214610f8b5780637ed4b27c14610f935780637f4b432314610fb05780637f952d9514610fcd578063817b1cd214610fd5578063858a7c0314610fdd57610623565b8063451b5985116104b45780635e47655f116104005780637060054d116103b957806377939d101161039357806377939d1014610f4d57806378f84a4414610f555780637b10399914610f7b5780637c7eaf1a14610f8357610623565b80637060054d14610f35578063715018a614610f3d5780637667180814610f4557610623565b80635e47655f14610d7357806360c8d12214610de15780636352211e14610e0a5780636365679814610e2757806368cb812a14610e535780636901b25314610f0357610623565b806352b8115d1161046d5780635508d8e1116104475780635508d8e114610d3e57806356342d8c14610d465780635aa6e67514610d635780635ab1bd5314610d6b57610623565b806352b8115d14610bd75780635325e14414610c6f57806354b8c60114610d3657610623565b8063451b598514610a9657806348ab8b2a14610a9e5780634b341aed14610ada5780634e3c83f114610b005780634fd101d714610b085780634fdd20f114610b1057610623565b806325316411116105735780632fa9d18b1161052c57806335aa2e441161050657806335aa2e44146109925780633862da0b14610a4b57806339610f7814610a7157806341b3d18514610a8e57610623565b80632fa9d18b146108f357806331c2273b14610982578063342745861461098a57610623565b8063253164111461079b57806325726df2146107a35780632649263a146107d957806328cc4e411461080a5780632cf44a43146108355780632e17de78146108d657610623565b8063174e6832116105e05780631ae4818f116105ba5780631ae4818f146107175780631dd6b9b11461073b5780631e9b12ef146107585780632079fb9a1461077e57610623565b8063174e6832146106cc578063178c2c83146106f257806317c2b9101461070f57610623565b806306cfb10414610628578063078a13b1146106475780630cccfc58146106855780630e15561a1461069f5780630ebb172a146106a757806316827b1b146106af575b600080fd5b6106456004803603602081101561063e57600080fd5b5035611563565b005b6106456004803603608081101561065d57600080fd5b506001600160a01b038135811691602081013582169160408201358116916060013516611570565b61068d6115e8565b60408051918252519081900360200190f35b61068d6115ee565b61068d6115f4565b610645600480360360208110156106c557600080fd5b50356115fa565b61068d600480360360208110156106e257600080fd5b50356001600160a01b0316611683565b6106456004803603602081101561070857600080fd5b503561170d565b61068d61199a565b61071f6119a0565b604080516001600160a01b039092168252519081900360200190f35b6106456004803603602081101561075157600080fd5b50356119af565b6106456004803603602081101561076e57600080fd5b50356001600160a01b03166119bc565b61071f6004803603602081101561079457600080fd5b50356119f9565b61068d611a20565b6107c0600480360360208110156107b957600080fd5b5035611a26565b6040805192835260208301919091528051918290030190f35b6107f6600480360360208110156107ef57600080fd5b5035611a3f565b604080519115158252519081900360200190f35b6106456004803603606081101561082057600080fd5b50803590602081013590604001351515611a7a565b6106456004803603602081101561084b57600080fd5b810190602081018135600160201b81111561086557600080fd5b82018360208201111561087757600080fd5b803590602001918460208302840111600160201b8311171561089857600080fd5b919080806020026020016040519081016040528093929190818152602001838360200280828437600092019190915250929550611c90945050505050565b610645600480360360208110156108ec57600080fd5b5035611cb8565b61068d600480360360a081101561090957600080fd5b8135916020810135916040820135916001600160a01b036060820135169181019060a081016080820135600160201b81111561094457600080fd5b82018360208201111561095657600080fd5b803590602001918460608302840111600160201b8311171561097757600080fd5b509092509050611d7a565b61071f611da2565b61068d611db1565b6109af600480360360208110156109a857600080fd5b5035611db7565b604051808e81526020018d81526020018c81526020018b81526020018a8152602001896001600160a01b03166001600160a01b03168152602001886001600160a01b03166001600160a01b03168152602001876003811115610a0d57fe5b60ff1681526020018681526020018581526020018481526020018381526020018281526020019d505050505050505050505050505060405180910390f35b61068d60048036036020811015610a6157600080fd5b50356001600160a01b0316611e28565b61068d60048036036020811015610a8757600080fd5b5035611e3a565b61068d611e7a565b61068d611e80565b61064560048036036080811015610ab457600080fd5b508035906001600160a01b03602082013581169160408101359091169060600135611e86565b61068d60048036036020811015610af057600080fd5b50356001600160a01b0316611f0d565b61068d612044565b61068d61204a565b610645600480360360a0811015610b2657600080fd5b6001600160a01b0382351691602081013591604082013591606081013515159181019060a081016080820135600160201b811115610b6357600080fd5b820183602082011115610b7557600080fd5b803590602001918460018302840111600160201b83111715610b9657600080fd5b91908080601f016020809104026020016040519081016040528093929190818152602001838380828437600092019190915250929550612050945050505050565b610645600480360360c0811015610bed57600080fd5b6001600160a01b038235169160208101359160408201359160608101359160808201351515919081019060c0810160a0820135600160201b811115610c3157600080fd5b820183602082011115610c4357600080fd5b803590602001918460018302840111600160201b83111715610c6457600080fd5b509092509050612111565b610c8c60048036036020811015610c8557600080fd5b5035612230565b60405180868152602001858152602001846001600160a01b03166001600160a01b031681526020018315151515815260200180602001828103825283818151815260200191508051906020019080838360005b83811015610cf7578181015183820152602001610cdf565b50505050905090810190601f168015610d245780820380516001836020036101000a031916815260200191505b50965050505050505060405180910390f35b6107f66122f6565b61068d6122ff565b61071f60048036036020811015610d5c57600080fd5b5035612305565b61071f612323565b61071f612337565b61068d60048036036020811015610d8957600080fd5b810190602081018135600160201b811115610da357600080fd5b820183602082011115610db557600080fd5b803590602001918460018302840111600160201b83111715610dd657600080fd5b509092509050612347565b61064560048036036060811015610df757600080fd5b5080359060208101359060400135612668565b61071f60048036036020811015610e2057600080fd5b50356126d1565b61064560048036036040811015610e3d57600080fd5b506001600160a01b03813516906020013561271d565b61064560048036036060811015610e6957600080fd5b813591602081013591810190606081016040820135600160201b811115610e8f57600080fd5b820183602082011115610ea157600080fd5b803590602001918460018302840111600160201b83111715610ec257600080fd5b91908080601f016020809104026020016040519081016040528093929190818152602001838380828437600092019190915250929550612732945050505050565b6107f660048036036060811015610f1957600080fd5b50803590602081013590604001356001600160a01b03166127fd565b61068d61289a565b6106456128a0565b61068d6128fb565b61068d612901565b61068d60048036036020811015610f6b57600080fd5b50356001600160a01b0316612907565b61071f612919565b61068d612928565b61068d61292e565b61068d60048036036020811015610fa957600080fd5b5035612934565b61068d60048036036020811015610fc657600080fd5b503561298b565b61068d6129a0565b61068d6129a6565b61064560048036036040811015610ff357600080fd5b50803590602001356129ac565b61071f6129f2565b61071f612a06565b6107f6612a15565b61068d612a58565b6106456004803603602081101561103657600080fd5b5035612a5e565b61068d612a75565b6106456004803603602081101561105b57600080fd5b5035612a7b565b61071f612a98565b6106456004803603604081101561108057600080fd5b5080359060200135612aa7565b61068d612b0d565b610645600480360360208110156110ab57600080fd5b5035612b13565b610645600480360360408110156110c857600080fd5b5080359060200135612bcf565b610645600480360360408110156110eb57600080fd5b5080359060200135612c35565b6106456004803603602081101561110e57600080fd5b5035612cc9565b61068d612ce0565b6106456004803603608081101561113357600080fd5b813591602081013591604082013515159190810190608081016060820135600160201b81111561116257600080fd5b82018360208201111561117457600080fd5b803590602001918460018302840111600160201b8311171561119557600080fd5b509092509050612ce6565b610645612d9e565b61068d612db0565b61068d612db6565b610645600480360360408110156111ce57600080fd5b506001600160a01b038135169060200135612dbc565b610645600480360360408110156111fa57600080fd5b5080359060200135612dce565b61068d6004803603602081101561121d57600080fd5b5035612de1565b6107f66004803603606081101561123a57600080fd5b50803590602081013590604001356001600160a01b0316612e2f565b6106456004803603604081101561126c57600080fd5b50803590602001356001600160a01b0316612f97565b6106456004803603602081101561129857600080fd5b5035613052565b61068d6130db565b6107f66130e1565b610645600480360360208110156112c557600080fd5b503515156130ea565b61068d600480360360208110156112e457600080fd5b503561323c565b6106456004803603602081101561130157600080fd5b503561324e565b6106456004803603604081101561131e57600080fd5b5080359060200135613434565b61068d61349c565b6107c06134a2565b6106456004803603602081101561135157600080fd5b50356134ab565b6106456004803603602081101561136e57600080fd5b50356001600160a01b0316613567565b61068d6004803603602081101561139457600080fd5b50356135e7565b61071f6135f9565b610645600480360360208110156113b957600080fd5b50351515613608565b610645600480360360208110156113d857600080fd5b50356001600160a01b0316613623565b610645600480360360408110156113fe57600080fd5b81359190810190604081016020820135600160201b81111561141f57600080fd5b82018360208201111561143157600080fd5b803590602001918460018302840111600160201b8311171561145257600080fd5b91908080601f01602080910402602001604051908101604052809392919081815260200183838082843760009201919091525092955061363d945050505050565b61064560048036036101208110156114aa57600080fd5b506001600160a01b038135811691602081013582169160408201358116916060810135821691608082013581169160a081013582169160c082013581169160e0810135821691610100909101351661382b565b6106456004803603602081101561151357600080fd5b50356139ce565b6106456139e9565b61071f6139f9565b6106456004803603606081101561154057600080fd5b5080359060208101359060400135613a08565b61068d613b23565b61071f613b29565b61156b613b38565b600f55565b611578613b38565b61158181613b86565b61158a57600080fd5b60238054610100600160a81b0319169055602580546001600160a01b03199081166001600160a01b03938416179091556006805482169583169590951790945560058054851693821693909317909255600780549093169116179055565b60155481565b60135481565b60085481565b611602613b38565b8061160c57600080fd5b60055460105460408051630f1980a560e41b8152600481018590526024810192909252516001600160a01b039092169163f1980a509160448082019260009290919082900301818387803b15801561166357600080fd5b505af1158015611677573d6000803e3d6000fd5b50505060109190915550565b60065460408051632f745c5960e01b81526001600160a01b038481166004830152600060248301819052925192931691632f745c5991604480820192602092909190829003018186803b1580156116d957600080fd5b505afa1580156116ed573d6000803e3d6000fd5b505050506040513d602081101561170357600080fd5b505190505b919050565b8061171781613ba5565b60026000838152601a6020526040902060060154600160a01b900460ff16600381111561174057fe5b1461177f576040805162461bcd60e51b815260206004820152600a602482015269139bdd081a985a5b195960b21b604482015290519081900360640190fd5b6000828152601a6020526040902060030154156117d7576040805162461bcd60e51b8152602060048201526011602482015270416c726561647920756e7374616b696e6760781b604482015290519081900360640190fd5b6009546000838152601a6020526040902060040154811015611839576040805162461bcd60e51b8152602060048201526016602482015275125b98dbdb5c1b195d19481a985a5b081c195c9a5bd960521b604482015290519081900360640190fd5b6000838152601a6020526040902054600c5481101561185757600080fd5b6000848152601a60205260409020600601546001600160a01b031680156118cc57806001600160a01b031663a69df4b56040518163ffffffff1660e01b8152600401600060405180830381600087803b1580156118b357600080fd5b505af11580156118c7573d6000803e3d6000fd5b505050505b6000858152601a60205260409020600a01546118fc906118f390849063ffffffff613c2f16565b60016000613c41565b6000858152601a602052604080822060068101805460ff60a01b1916600160a01b1790556005908101549054825163f92ec5af60e01b8152600481018a90526001600160a01b039283166024820181905293519394929091169263f92ec5af9260448084019391929182900301818387803b15801561197a57600080fd5b505af115801561198e573d6000803e3d6000fd5b50505050505050505050565b60175481565b6007546001600160a01b031681565b6119b7613b38565b600955565b6119c4613b38565b6001600160a01b0381166119d757600080fd5b600380546001600160a01b0319166001600160a01b0392909216919091179055565b60268181548110611a0657fe5b6000918252602090912001546001600160a01b0316905081565b600e5481565b601e602052600090815260409020805460019091015482565b6000818152601a6020526040812060068101548154600390920154600954611a7493600160a01b90930460ff16929190613cfc565b92915050565b611a82613d34565b82611a8c81613ba5565b6000848152601a602052604090206003015415611adf576040805162461bcd60e51b815260206004820152600c60248201526b4e6f2072657374616b696e6760a01b604482015290519081900360640190fd5b8215611af057611af0333085613d75565b611af984613e47565b8115611b4c576000848152601a60205260409020600190810154611b359190611b2990869063ffffffff613c2f16565b9063ffffffff613e5616565b6000858152601a6020526040902060019081015592505b601154600090611b62908563ffffffff613c2f16565b60118190556000868152601a6020526040902054909150611b89908563ffffffff613c2f16565b6000868152601a6020526040812091909155611ba790859080613c41565b6005546040805163532e19a960e01b81526004810188905290516001600160a01b039092169163532e19a99160248082019260009290919082900301818387803b158015611bf457600080fd5b505af1158015611c08573d6000803e3d6000fd5b50506005546000888152601a6020526040808220548151631585a9f360e21b8152600481018c905260248101919091526044810187905290516001600160a01b039093169450635616a7cc93506064808201939182900301818387803b158015611c7157600080fd5b505af1158015611c85573d6000803e3d6000fd5b505050505050505050565b611c98612a15565b611ca157600080fd5b8051611cb4906026906020840190615439565b5050565b80611cc281613ba5565b600082815260208052604090205415611cda57600080fd5b6000828152601a602052604090206006810154600290910154600160a01b90910460ff169015801590611d1c57506000838152601a6020526040902060030154155b8015611d4857506001816003811115611d3157fe5b1480611d4857506002816003811115611d4657fe5b145b611d5157600080fd5b600954600090611d6890600163ffffffff613c2f16565b9050611d748482613e6b565b50505050565b6002546000906001600160a01b03163314611d9457600080fd5b50600b549695505050505050565b6006546001600160a01b031681565b60165481565b601a60205260009081526040902080546001820154600283015460038401546004850154600586015460068701546007880154600889015460098a0154600a8b0154600b909b0154999a98999798969795966001600160a01b039586169695851695600160a01b90950460ff16948d565b601b6020526000908152604090205481565b600080611e4683613fef565b6000858152601a6020526040902060090154909250611e739150600190611b29908463ffffffff613c2f16565b9392505050565b600c5481565b60295481565b611e8e613b38565b6000848152601a60205260409020600601546001600160a01b031680611eb357600080fd5b6040805163abf59fc960e01b81526001600160a01b03868116600483015285811660248301526044820185905291519183169163abf59fc99160648082019260009290919082900301818387803b158015611c7157600080fd5b60006001600160a01b0382161580611f9b5750600654604080516370a0823160e01b81526001600160a01b038581166004830152915191909216916370a08231916024808301926020929190829003018186803b158015611f6d57600080fd5b505afa158015611f81573d6000803e3d6000fd5b505050506040513d6020811015611f9757600080fd5b5051155b15611fa857506000611708565b60065460408051632f745c5960e01b81526001600160a01b0385811660048301526000602483018190529251601a949190911691632f745c59916044808301926020929190829003018186803b15801561200157600080fd5b505afa158015612015573d6000803e3d6000fd5b505050506040513d602081101561202b57600080fd5b5051815260208101919091526040016000205492915050565b600f5481565b60105481565b612058613d34565b6010546120636129a0565b106120a5576040805162461bcd60e51b815260206004820152600d60248201526c6e6f206d6f726520736c6f747360981b604482015290519081900360640190fd5b600c548410156120f1576040805162461bcd60e51b81526020600482015260126024820152711b9bdd08195b9bdd59da0819195c1bdcda5d60721b604482015290519081900360640190fd5b6120fd85338587614077565b61210985858484614161565b505050505050565b333014612153576040805162461bcd60e51b815260206004820152600b60248201526a1b9bdd08185b1b1bddd95960aa1b604482015290519081900360640190fd5b6121608788886000614077565b61216c85600954613e6b565b60006121b088868686868080601f01602080910402602001604051908101604052809392919081815260200183838082843760009201919091525061416192505050565b6005546040805163e12ab1af60e01b815260048101849052602481018a90526044810189905290519293506001600160a01b039091169163e12ab1af9160648082019260009290919082900301818387803b15801561220e57600080fd5b505af1158015612222573d6000803e3d6000fd5b505050505050505050505050565b60208080526000918252604091829020805460018083015460028085015460038601805489516101009682161596909602600019011692909204601f8101889004880285018801909852878452939691956001600160a01b03851695600160a01b90950460ff16949392908301828280156122ec5780601f106122c1576101008083540402835291602001916122ec565b820191906000526020600020905b8154815290600101906020018083116122cf57829003601f168201915b5050505050905085565b60195460ff1681565b60125481565b6000908152601a60205260409020600601546001600160a01b031690565b60005461010090046001600160a01b031681565b6004546001600160a01b03165b90565b6004805460408051631ab0168360e31b8152905160009333936001600160a01b03169263d580b4189281830192602092829003018186803b15801561238b57600080fd5b505afa15801561239f573d6000803e3d6000fd5b505050506040513d60208110156123b557600080fd5b50516001600160a01b031614612406576040805162461bcd60e51b81526020600482015260116024820152702737ba1039b630b9b41036b0b730b3b2b960791b604482015290519081900360640190fd5b606061244f61244a85858080601f01602080910402602001604051908101604052809392919081815260200183838082843760009201919091525061456e92505050565b614593565b90506000806000805b845181101561263c57606061247f86838151811061247257fe5b6020026020010151614593565b905060006124a08260008151811061249357fe5b6020026020010151614664565b90506124ab81613e47565b60006124bd8360018151811061249357fe5b90506124cf858263ffffffff613c2f16565b6000838152601a60205260409020600601549095506001600160a01b0316801561259d576000838152601a602090815260408083208054600a9091015482516306cbb60560e41b8152600481019290925260248201526044810186905290516001600160a01b03851692636cbb6050926064808201939182900301818787803b15801561255b57600080fd5b505af115801561256f573d6000803e3d6000fd5b505050506040513d602081101561258557600080fd5b50519050612599838263ffffffff613e5616565b9250505b6000838152601a60205260408120546125bc908463ffffffff613e5616565b6000858152601a602052604090208190559050806125e5576125e084600954613e6b565b61262b565b612602856002815181106125f557fe5b60200260200101516146b2565b1561262b576126226126158560016146f6565b899063ffffffff613c2f16565b60019099019897505b505060019093019250612458915050565b61265d61264f838563ffffffff613c2f16565b600003856000036000613c41565b509695505050505050565b612670613b38565b60255460408051602481018690526044810185905260648082018590528251808303909101815260849091019091526020810180516001600160e01b0316633064689160e11b1790526126cc916001600160a01b031690614840565b505050565b600654604080516331a9108f60e11b81526004810184905290516000926001600160a01b031691636352211e916024808301926020929190829003018186803b1580156116d957600080fd5b612725613d34565b611cb48233836000614077565b6017546040805133602080830191909152818301879052825180830384018152606090920190925280519101206127719184908463ffffffff61486816565b6127b4576040805162461bcd60e51b815260206004820152600f60248201526e2bb937b7339030b1b190383937b7b360891b604482015290519081900360640190fd5b336000908152601f60205260408120546127d590859063ffffffff613e5616565b90506127e133826149be565b336000818152601f60205260409020859055611d749082614a3d565b60008361280981614b02565b600354604080516323b872dd60e01b81526001600160a01b03868116600483015230602483015260448201889052915191909216916323b872dd9160648083019260209291908290030181600087803b15801561286557600080fd5b505af1158015612879573d6000803e3d6000fd5b505050506040513d602081101561288f57600080fd5b505195945050505050565b600a5481565b6128a8612a15565b6128b157600080fd5b6001546040516000916001600160a01b0316907f8be0079c531659141344cd1fd0a4f28419497f9722a3daafe3b4186f6b6457e0908390a3600180546001600160a01b0319169055565b60095481565b60185481565b601f6020526000908152604090205481565b6004546001600160a01b031681565b602a5481565b600b5481565b60008161294081614b02565b61294983613e47565b6000838152601a602052604081206009015461296c90600163ffffffff613e5616565b6000858152601a60205260409020600160099091015592505050919050565b6000908152601a60205260409020600a015490565b601d5490565b60115481565b816129b681614b02565b6000838152601a60205260409020600a01546129d8908363ffffffff613e5616565b6000938452601a6020526040909320600a01929092555050565b60235461010090046001600160a01b031681565b6001546001600160a01b031690565b604080517f6d617469632e6e6574776f726b2e70726f78792e6f776e6572000000000000008152905190819003601901902054336001600160a01b039091161490565b60095490565b612a66613b38565b612a7281600954613e6b565b50565b60275481565b80612a8581613ba5565b612a8e82613e47565b611cb48233614b70565b6002546001600160a01b031681565b612aaf613d34565b602554604080516024810185905260448101849052306064808301919091528251808303909101815260849091019091526020810180516001600160e01b031663561ad5c960e11b179052611cb4916001600160a01b031690614840565b60225481565b612b1b613b38565b6005546016546040805163a3b1d8cb60e01b8152600481018590526024810192909252516001600160a01b039092169163a3b1d8cb9160448082019260009290919082900301818387803b158015612b7257600080fd5b505af1158015612b86573d6000803e3d6000fd5b505050506064811115612bca576040805162461bcd60e51b8152602060048201526007602482015266746f6f2062696760c81b604482015290519081900360640190fd5b601655565b612bd7612a15565b612be057600080fd5b602554604080516024810185905260448082018590528251808303909101815260649091019091526020810180516001600160e01b0316639ddbbf8560e01b179052611cb4916001600160a01b031690614840565b81612c3f81614b02565b6000821315612c985760195460ff16612c98576040805162461bcd60e51b815260206004820152601660248201527511195b1959d85d1a5bdb881a5cc8191a5cd8589b195960521b604482015290519081900360640190fd5b612ca482600080613c41565b60008212612cbb57612cb68383614c31565b6126cc565b6126cc8383600019026129ac565b612cd1613b38565b80612cdb57600080fd5b600e55565b601c5490565b612cee613d34565b6025546040516024810187815260448201879052851515606483015260806084830190815260a48301859052612d97936001600160a01b03169263a685487760e01b928a928a928a928a928a9260c40184848082843760008184015260408051601f19601f9093018316909401848103909201845252506020810180516001600160e01b03199a909a166001600160e01b03909a16999099179098525061484095505050505050565b5050505050565b612da6613b38565b612dae614c6c565b565b60085490565b60245481565b612dc4613b38565b611cb48282614a3d565b612dd6613b38565b600c91909155600d55565b6000818152601a60205260408120600301548190612e0657612e0283613fef565b5090505b6000838152601a60205260409020600190810154611e739190611b29908463ffffffff613c2f16565b6000838152601a60205260408120600601546001600160a01b0316331480612ece57506004805460408051631ab0168360e31b8152905133936001600160a01b039093169263d580b41892808201926020929091829003018186803b158015612e9757600080fd5b505afa158015612eab573d6000803e3d6000fd5b505050506040513d6020811015612ec157600080fd5b50516001600160a01b0316145b612f0d576040805162461bcd60e51b815260206004820152600b60248201526a1b9bdd08185b1b1bddd95960aa1b604482015290519081900360640190fd5b6003546040805163a9059cbb60e01b81526001600160a01b038581166004830152602482018790529151919092169163a9059cbb9160448083019260209291908290030181600087803b158015612f6357600080fd5b505af1158015612f77573d6000803e3d6000fd5b505050506040513d6020811015612f8d57600080fd5b5051949350505050565b612f9f613b38565b306001600160a01b0316816001600160a01b0316638da5cb5b6040518163ffffffff1660e01b815260040160206040518083038186803b158015612fe257600080fd5b505afa158015612ff6573d6000803e3d6000fd5b505050506040513d602081101561300c57600080fd5b50516001600160a01b03161461302157600080fd5b6000918252601a602052604090912060060180546001600160a01b0319166001600160a01b03909216919091179055565b61305a613b38565b8061306457600080fd5b600554600b5460408051632dbe9d3160e21b8152600481018590526024810192909252516001600160a01b039092169163b6fa74c49160448082019260009290919082900301818387803b1580156130bb57600080fd5b505af11580156130cf573d6000803e3d6000fd5b505050600b9190915550565b60145481565b60005460ff1681565b336000908152601b6020908152604080832054808452601a9092529091206006810154815460039092015460095461312f93600160a01b90930460ff16929190613cfc565b613170576040805162461bcd60e51b815260206004820152600d60248201526c3737ba103b30b634b230ba37b960991b604482015290519081900360640190fd5b6000818152601a60205260409020600601546001600160a01b0316806131d6576040805162461bcd60e51b815260206004820152601660248201527511195b1959d85d1a5bdb881a5cc8191a5cd8589b195960521b604482015290519081900360640190fd5b604080516303dd464160e51b8152841515600482015290516001600160a01b03831691637ba8c82091602480830192600092919082900301818387803b15801561321f57600080fd5b505af1158015613233573d6000803e3d6000fd5b50505050505050565b60216020526000908152604090205481565b8061325881613ba5565b6000828152601a6020526040902060030154801580159061328e575060095460085461328b90839063ffffffff613c2f16565b11155b80156132c1575060036000848152601a6020526040902060060154600160a01b900460ff1660038111156132be57fe5b14155b6132ca57600080fd5b6000838152601a60205260408120546011549091906132ef908363ffffffff613e5616565b601181905590506133008533614b70565b60065460408051630852cd8d60e31b81526004810188905290516001600160a01b03909216916342966c689160248082019260009290919082900301818387803b15801561334d57600080fd5b505af1158015613361573d6000803e3d6000fd5b5050506000868152601a6020526040812081815560048101919091556005810180546001600160a01b03191690556000197f584f46c60af19681376031579adb04a2416e54ee5505351c2a8435e3766026ea55600601805460ff60a01b1916600360a01b179055506133d33383614a3d565b6005546040805163ae2e26b160e01b815233600482015260248101889052604481018590526064810184905290516001600160a01b039092169163ae2e26b19160848082019260009290919082900301818387803b158015611c7157600080fd5b8161343e81613ba5565b61344783613e47565b602554604080516024810186905260448082018690528251808303909101815260649091019091526020810180516001600160e01b0316636e6cb15960e11b1790526126cc916001600160a01b031690614840565b60285481565b601c54601d5482565b6134b3613b38565b600081116134c057600080fd5b600554600a5460408051635071805360e11b8152600481018590526024810192909252516001600160a01b039092169163a0e300a69160448082019260009290919082900301818387803b15801561351757600080fd5b505af115801561352b573d6000803e3d6000fd5b505050600a82905550600881905561354a81600463ffffffff614c7816565b60158190556009546135619163ffffffff613c2f16565b60185550565b61356f612a15565b61357857600080fd5b6001600160a01b03811661358b57600080fd5b6002546040516001600160a01b038084169216907f211c9015fc81c0dbd45bd99f0f29fc1c143bfd53442d5ffd722bbbef7a887fe990600090a3600280546001600160a01b0319166001600160a01b0392909216919091179055565b6000908152601a602052604090205490565b6005546001600160a01b031681565b613610613b38565b6019805460ff1916911515919091179055565b61362b612a15565b61363457600080fd5b612a7281614c9a565b8161364781613ba5565b600061365283614d09565b600954600f54600087815260216020526040902054929350909161367b9163ffffffff613c2f16565b8110156136bd576040805162461bcd60e51b815260206004820152600b60248201526a139bdd08185b1b1bddd95960aa1b604482015290519081900360640190fd5b6000858152601a602090815260408083206005908101549054915163b80fbce560e01b8152600481018a81526001600160a01b039283166024830181905288841660448401526080606484019081528b5160848501528b519197949095169563b80fbce5958d9589958c958f95909460a490920192918601918190849084905b8381101561375557818101518382015260200161373d565b50505050905090810190601f1680156137825780820380516001836020036101000a031916815260200191505b5095505050505050600060405180830381600087803b1580156137a457600080fd5b505af11580156137b8573d6000803e3d6000fd5b5050506001600160a01b038083166000908152601b6020908152604080832060001990559287168083528383208b90558a8352601a90915291902060050180546001600160a01b0319169091179055506138128184614dc2565b5060009485526021602052604090942093909355505050565b60235460ff1615613874576040805162461bcd60e51b815260206004820152600e60248201526d185b1c9958591e481a5b9a5d195960921b604482015290519081900360640190fd5b6023805460ff1916600117905561388a81613b86565b6138d4576040805162461bcd60e51b8152602060048201526016602482015275185d58dd1a5bdb881a5b5c1b081a5b98dbdc9c9958dd60521b604482015290519081900360640190fd5b602580546001600160a01b03199081166001600160a01b038481169190911790925560008054610100600160a81b031916610100878516021790556004805482168c84161790556002805482168b84161790556003805482168a84161790556006805482168984161790556005805482168884161790556007805490911691861691909117905561396482614c9a565b5050612000600855505060016009819055610376600a90815569044664c7bf6451f00000600b55670de0b6b3a7640000600c819055600d55610400600e556064600f55600760105560128290556108006015556016556019805460ff191690911790555050505050565b6139d6613b38565b600954613561908263ffffffff613c2f16565b6139f1613b38565b612dae614dd4565b6025546001600160a01b031681565b60078211613a51576040805162461bcd60e51b815260206004820152601160248201527024b73b30b634b21036b4b3b930ba34b7b760791b604482015290519081900360640190fd5b6000838152601a6020526040808220600601548151636e7ce59160e01b81523360048201526024810185905291516001600160a01b0390911692636e7ce591926044808201939182900301818387803b158015613aad57600080fd5b505af1158015613ac1573d6000803e3d6000fd5b5050506000838152601a6020526040808220600601548151632830728d60e21b81523360048201526024810186905291516001600160a01b03909116935063a0c1ca349260448084019391929182900301818387803b15801561321f57600080fd5b600d5481565b6003546001600160a01b031681565b60005461010090046001600160a01b03163314612dae5760405162461bcd60e51b815260040180806020018281038252602681526020018061551b6026913960400191505060405180910390fd5b60006001600160a01b038216613b9e57506000611708565b503b151590565b600654604080516331a9108f60e11b815260048101849052905133926001600160a01b031691636352211e916024808301926020929190829003018186803b158015613bf057600080fd5b505afa158015613c04573d6000803e3d6000fd5b505050506040513d6020811015613c1a57600080fd5b50516001600160a01b031614612a7257600080fd5b600082820183811015611e7357600080fd5b80613cda576000831315613c6a57601c54613c62908463ffffffff613c2f16565b601c55613c8e565b6000831215613c8e57601c54613c8a90600085900363ffffffff613e5616565b601c555b6000821315613cb257601d54613caa908363ffffffff613c2f16565b601d55612cb6565b6000821215612cb657601d54613cd290600084900363ffffffff613e5616565b601d556126cc565b6000818152601e60205260409020805484018155600101805483019055505050565b60008084118015613d145750821580613d1457508183115b8015613d2b57506001856003811115613d2957fe5b145b95945050505050565b60005460ff1615612dae576040805162461bcd60e51b81526020600482015260066024820152651b1bd8dad95960d21b604482015290519081900360640190fd5b600354604080516323b872dd60e01b81526001600160a01b038681166004830152858116602483015260448201859052915191909216916323b872dd9160648083019260209291908290030181600087803b158015613dd357600080fd5b505af1158015613de7573d6000803e3d6000fd5b505050506040513d6020811015613dfd57600080fd5b50516126cc576040805162461bcd60e51b81526020600482015260146024820152731d1c985b9cd9995c88199c9bdb4819985a5b195960621b604482015290519081900360640190fd5b612a7281602454602454614de3565b600082821115613e6557600080fd5b50900390565b613e7482613e47565b6000828152601a602052604081205490613e8d846126d1565b6000858152601a6020526040902060038101859055600a810154600690910154919250906001600160a01b03168015613f1457806001600160a01b031663f83d08ba6040518163ffffffff1660e01b8152600401600060405180830381600087803b158015613efb57600080fd5b505af1158015613f0f573d6000803e3d6000fd5b505050505b6000868152601a6020526040902060050154613f38906001600160a01b0316614e84565b613f428684614b70565b6000600954861115613f545785613f57565b60005b9050613f6b83860160000360001983613c41565b60055460408051635e04d48360e01b81526001600160a01b038781166004830152602482018b9052604482018a90526064820189905291519190921691635e04d48391608480830192600092919082900301818387803b158015613fce57600080fd5b505af1158015613fe2573d6000803e3d6000fd5b5050505050505050505050565b6000818152601a602052604081208054600a90910154829190829061401b90839063ffffffff613c2f16565b6000868152601a60205260409020600b0154602454919250900361406b86846140656a084595161401484a000000614059868863ffffffff614f8e16565b9063ffffffff614c7816565b85614fb5565b94509450505050915091565b600d548210156140be576040805162461bcd60e51b815260206004820152600d60248201526c199959481d1bdbc81cdb585b1b609a1b604482015290519081900360640190fd5b6140d883306140d3858563ffffffff613c2f16565b613d75565b6022546140eb908363ffffffff613c2f16565b6022556005546040805163a449d79560e01b81526001600160a01b038781166004830152602482018690529151919092169163a449d79591604480830192600092919082900301818387803b15801561414357600080fd5b505af1158015614157573d6000803e3d6000fd5b5050505050505050565b60008061416d83614d09565b600954601254600554601154939450919290916001600160a01b03169060009061419d908a63ffffffff613c2f16565b905080601181905550604051806101a001604052808a8152602001600181526020018581526020016000815260200160008152602001866001600160a01b03168152602001896141ee57600061427a565b600754600480546040805163d4ad267360e01b81529283018990526001600160a01b03888116602485015291821660448401525192169163d4ad2673916064808201926020929091908290030181600087803b15801561424d57600080fd5b505af1158015614261573d6000803e3d6000fd5b505050506040513d602081101561427757600080fd5b50515b6001600160a01b031681526020016001815260006020808301829052604080840183905260016060808601829052608080870186905260245460a0978801528a8652601a855294839020875181559387015191840191909155908501516002830155840151600380830191909155918401516004820155918301516005830180546001600160a01b039283166001600160a01b03199182161790915560c08501516006850180549190931691161780825560e08501519260ff60a01b1990911690600160a01b90849081111561434c57fe5b0217905550610100820151600782015561012082015160088201556101408201516009820155610160820151600a82015561018090910151600b9091015560008381526021602052604080822086905560065481516340c10f1960e01b81526001600160a01b038e8116600483015260248201889052925192909116926340c10f199260448084019382900301818387803b1580156143ea57600080fd5b505af11580156143fe573d6000803e3d6000fd5b5050506001600160a01b0386166000908152601b6020526040812085905561442b91508a90600190613c41565b836020600085815260200190815260200160002060010181905550816001600160a01b03166333a8383c868986888e876040518763ffffffff1660e01b815260040180876001600160a01b03166001600160a01b0316815260200180602001868152602001858152602001848152602001838152602001828103825287818151815260200191508051906020019080838360005b838110156144d75781810151838201526020016144bf565b50505050905090810190601f1680156145045780820380516001836020036101000a031916815260200191505b50975050505050505050600060405180830381600087803b15801561452857600080fd5b505af115801561453c573d6000803e3d6000fd5b50505050614554600184613c2f90919063ffffffff16565b60125561456085615055565b509098975050505050505050565b61457661549e565b506040805180820190915281518152602082810190820152919050565b606061459e8261516f565b6145a757600080fd5b60006145b2836151a9565b90506060816040519080825280602002602001820160405280156145f057816020015b6145dd61549e565b8152602001906001900390816145d55790505b50905060006146028560200151615205565b60208601510190506000805b848110156146595761461f83615268565b915060405180604001604052808381526020018481525084828151811061464257fe5b60209081029190910101529181019160010161460e565b509195945050505050565b80516000901580159061467957508151602110155b61468257600080fd5b60008061468e84615301565b8151919350915060208210156146aa5760208290036101000a90045b949350505050565b80516000906001146146c357600080fd5b6020820151805160001a908115806146db5750608082145b156146eb57600092505050611708565b600192505050611708565b6000828152601a60205260408120600601546001600160a01b0316801561476b57806001600160a01b031663f83d08ba6040518163ffffffff1660e01b8152600401600060405180830381600087803b15801561475257600080fd5b505af1158015614766573d6000803e3d6000fd5b505050505b60095461477e818563ffffffff613c2f16565b6000868152601a602052604080822060048082019490945560068101805460ff60a01b1916600160a11b1790556005805491015482516381dc101b60e01b81529485018a9052602485018690526001600160a01b03908116604486015291519116926381dc101b92606480830193919282900301818387803b15801561480357600080fd5b505af1158015614817573d6000803e3d6000fd5b5050506000868152601a60205260409020600a8101549054613d2b92509063ffffffff613c2f16565b600080825160208401856127105a03f43d604051816000823e828015614864578282f35b8282fd5b6000602082518161487557fe5b06156148bf576040805162461bcd60e51b8152602060048201526014602482015273092dcecc2d8d2c840e0e4dedecc40d8cadccee8d60631b604482015290519081900360640190fd5b600060208351816148cc57fe5b0490508060020a851061491e576040805162461bcd60e51b81526020600482015260156024820152744c65616620696e64657820697320746f6f2062696760581b604482015290519081900360640190fd5b60008660205b855181116149b0578581015192506002880661497057818360405160200180838152602001828152602001925050506040516020818303038152906040528051906020012091506149a2565b828260405160200180838152602001828152602001925050506040516020818303038152906040528051906020012091505b600288049750602001614924565b509094149695505050505050565b6022546149d1908263ffffffff613e5616565b6022556005546040805163122b648160e01b81526001600160a01b038581166004830152602482018590529151919092169163122b648191604480830192600092919082900301818387803b158015614a2957600080fd5b505af1158015612109573d6000803e3d6000fd5b6003546040805163a9059cbb60e01b81526001600160a01b038581166004830152602482018590529151919092169163a9059cbb9160448083019260209291908290030181600087803b158015614a9357600080fd5b505af1158015614aa7573d6000803e3d6000fd5b505050506040513d6020811015614abd57600080fd5b5051611cb4576040805162461bcd60e51b815260206004820152600f60248201526e1d1c985b9cd9995c8819985a5b1959608a1b604482015290519081900360640190fd5b6000818152601a60205260409020600601546001600160a01b03163314612a72576040805162461bcd60e51b815260206004820152601860248201527f496e76616c696420636f6e747261637420616464726573730000000000000000604482015290519081900360640190fd5b6000828152601a60205260408120600190810154614b939163ffffffff613e5616565b601454909150614ba9908263ffffffff613c2f16565b6014556000838152601a60205260409020600181810155602454600b90910155614bd38282614a3d565b60055460145460408051635b42d93560e11b815260048101879052602481018590526044810192909252516001600160a01b039092169163b685b26a9160648082019260009290919082900301818387803b15801561321f57600080fd5b6000828152601a60205260409020600a0154614c53908263ffffffff613c2f16565b6000928352601a6020526040909220600a019190915550565b6000805460ff19169055565b6000808211614c8657600080fd5b6000828481614c9157fe5b04949350505050565b6001600160a01b038116614cad57600080fd5b6001546040516001600160a01b038084169216907f8be0079c531659141344cd1fd0a4f28419497f9722a3daafe3b4186f6b6457e090600090a3600180546001600160a01b0319166001600160a01b0392909216919091179055565b60008151604014614d4b576040805162461bcd60e51b81526020600482015260076024820152663737ba10383ab160c91b604482015290519081900360640190fd5b815160208301206001600160a01b03811615801590614d8057506001600160a01b0381166000908152601b6020526040902054155b611a74576040805162461bcd60e51b815260206004820152600e60248201526d24b73b30b634b21039b4b3b732b960911b604482015290519081900360640190fd5b614dcb82614e84565b611cb481615055565b6000805460ff19166001179055565b6000838152601a60205260409020600b015482811015614e62576000848152601a602052604090208054600a909101548015614e4a576000614e2b838363ffffffff613c2f16565b9050614e44878484614e3f8b868c8b615327565b615355565b50614e5f565b614e5f86614e5a88858988615327565b6153fb565b50505b80821115611d74576000848152601a60205260409020600b0182905550505050565b60268054906000906000198301838110614e9a57fe5b600091825260209091200154602680546001600160a01b039092169250906000198401908110614ec657fe5b600091825260209091200180546001600160a01b031916905560001982015b8015614f7d57836001600160a01b0316826001600160a01b03161415614f0a57614f7d565b60266001820381548110614f1a57fe5b9060005260206000200160009054906101000a90046001600160a01b03168260266001840381548110614f4957fe5b600091825260209091200180546001600160a01b0319166001600160a01b0392909216919091179055915060001901614ee5565b506000198201611d746026826154b8565b600082614f9d57506000611a74565b82820282848281614faa57fe5b0414611e7357600080fd5b60008082614fc85750600090508061504c565b6000614fde84614059888863ffffffff614f8e16565b6000888152601a602052604090206007015490915080156150315761502e6150216064614059846150158b8863ffffffff613e5616565b9063ffffffff614f8e16565b839063ffffffff613c2f16565b91505b6000615043878463ffffffff613e5616565b92945091925050505b94509492505050565b6026805460018101825560008290527f744a2cf8fd7008e3d53b67916e73460df9fa5214e3ef23dd4259ca09493a35940180546001600160a01b0319166001600160a01b0384161790555460001901805b8015615127576000602660018303815481106150be57fe5b6000918252602090912001546001600160a01b03908116915084168110156150e65750615127565b80602683815481106150f457fe5b600091825260209091200180546001600160a01b0319166001600160a01b039290921691909117905550600019016150a6565b8181146126cc57826026828154811061513c57fe5b9060005260206000200160006101000a8154816001600160a01b0302191690836001600160a01b03160217905550505050565b805160009061518057506000611708565b6020820151805160001a9060c082101561519f57600092505050611708565b5060019392505050565b80516000906151ba57506000611708565b600080905060006151ce8460200151615205565b602085015185519181019250015b808210156151fc576151ed82615268565b600190930192909101906151dc565b50909392505050565b8051600090811a608081101561521f576000915050611708565b60b881108061523a575060c0811080159061523a575060f881105b15615249576001915050611708565b60c081101561525d5760b519019050611708565b60f519019050611708565b80516000908190811a608081101561528357600191506152fa565b60b881101561529857607e19810191506152fa565b60c08110156152c55760b78103600185019450806020036101000a855104600182018101935050506152fa565b60f88110156152da5760be19810191506152fa565b60f78103600185019450806020036101000a855104600182018101935050505b5092915050565b60008060006153138460200151615205565b602085015194519481019594039392505050565b600081830361534b6a084595161401484a000000614059838863ffffffff614f8e16565b9695505050505050565b6000615367838563ffffffff613c2f16565b905060008061537887878686614fb5565b909250905080156153b8576000878152601a60205260409020600901546153a5908263ffffffff613c2f16565b6000888152601a60205260409020600901555b8115613233576000878152601a60205260409020600101546153e0908363ffffffff613c2f16565b6000888152601a602052604090206001015550505050505050565b8015611cb4576000828152601a6020526040902060010154615423908263ffffffff613c2f16565b6000838152601a60205260409020600101555050565b82805482825590600052602060002090810192821561548e579160200282015b8281111561548e57825182546001600160a01b0319166001600160a01b03909116178255602090920191600190910190615459565b5061549a9291506154dc565b5090565b604051806040016040528060008152602001600081525090565b8154818355818111156126cc576000838152602090206126cc918101908301615500565b61234491905b8082111561549a5780546001600160a01b03191681556001016154e2565b61234491905b8082111561549a576000815560010161550656fe4f6e6c7920676f7665726e616e636520636f6e747261637420697320617574686f72697a6564a265627a7a723158205951fa4d1623db6d9f575e4c576e0d7c366dfb0bf87cdae0afea6b8ed7950f8064736f6c63430005110032",
  "source": "pragma solidity ^0.5.2;\n\nimport {StakeManager} from \"../staking/stakeManager/StakeManager.sol\";\n\n\ncontract StakeManagerTest is StakeManager {\n    function checkSignatures(\n        uint256 blockInterval,\n        bytes32 voteHash,\n        bytes32 stateRoot,\n        address proposer,\n        uint[3][] calldata sigs\n    ) external onlyRootChain returns (uint256) {\n        return CHECKPOINT_REWARD; // for dummy tests return full reward\n    }\n}\n",
  "sourcePath": "/Users/pauloleary/code/maticnetwork/contracts/contracts/test/StakeManagerTest.sol",
  "compiler": {
    "name": "solc",
    "version": "0.5.17+commit.d19bba13.Emscripten.clang"
  },
  "schemaVersion": "3.4.10",
  "updatedAt": "2023-02-09T23:27:17.122Z",
  "devdoc": {
    "methods": {
      "changeRootChain(address)": {
        "details": "Allows the current owner to change root chain address.",
        "params": {
          "newRootChain": "The address to new rootchain."
        }
      },
      "owner()": {
        "return": "the address of the owner."
      },
      "ownerOf(uint256)": {
        "details": "Owner of validator slot NFT"
      },
      "renounceOwnership()": {
        "details": "Allows the current owner to relinquish control of the contract. It will not be possible to call the functions with the `onlyOwner` modifier anymore."
      },
      "transferOwnership(address)": {
        "details": "Allows the current owner to transfer control of the contract to a newOwner.",
        "params": {
          "newOwner": "The address to transfer ownership to."
        }
      },
      "updateValidatorContractAddress(uint256,address)": {
        "details": "Users must exit before this update or all funds may get lost"
      },
      "updateValidatorThreshold(uint256)": {
        "details": "Change the number of validators required to allow a passed header root"
      }
    }
  },
  "userdoc": {
    "methods": {
      "getRegistry()": {
        "notice": "Public View Methods"
      },
      "renounceOwnership()": {
        "notice": "Renouncing ownership will leave the contract without an owner, thereby removing any functionality that is only available to the owner."
      },
      "setDelegationEnabled(bool)": {
        "notice": "Governance Methods"
      },
      "topUpForFee(address,uint256)": {
        "notice": "Public Methods"
      }
    }
  }
}