{
  "contractName": "ValidatorShareTest",
  "abi": [
    {
      "anonymous": false,
      "inputs": [
        {
          "indexed": true,
          "internalType": "address",
          "name": "owner",
          "type": "address"
        },
        {
          "indexed": true,
          "internalType": "address",
          "name": "spender",
          "type": "address"
        },
        {
          "indexed": false,
          "internalType": "uint256",
          "name": "value",
          "type": "uint256"
        }
      ],
      "name": "Approval",
      "type": "event"
    },
    {
      "anonymous": false,
      "inputs": [
        {
          "indexed": true,
          "internalType": "address",
          "name": "previousOwner",
          "type": "address"
        },
        {
          "indexed": true,
          "internalType": "address",
          "name": "newOwner",
          "type": "address"
        }
      ],
      "name": "OwnershipTransferred",
      "type": "event"
    },
    {
      "anonymous": false,
      "inputs": [
        {
          "indexed": true,
          "internalType": "address",
          "name": "from",
          "type": "address"
        },
        {
          "indexed": true,
          "internalType": "address",
          "name": "to",
          "type": "address"
        },
        {
          "indexed": false,
          "internalType": "uint256",
          "name": "value",
          "type": "uint256"
        }
      ],
      "name": "Transfer",
      "type": "event"
    },
    {
      "constant": true,
      "inputs": [],
      "name": "activeAmount",
      "outputs": [
        {
          "internalType": "uint256",
          "name": "",
          "type": "uint256"
        }
      ],
      "payable": false,
      "stateMutability": "view",
      "type": "function"
    },
    {
      "constant": true,
      "inputs": [
        {
          "internalType": "address",
          "name": "owner",
          "type": "address"
        },
        {
          "internalType": "address",
          "name": "spender",
          "type": "address"
        }
      ],
      "name": "allowance",
      "outputs": [
        {
          "internalType": "uint256",
          "name": "",
          "type": "uint256"
        }
      ],
      "payable": false,
      "stateMutability": "view",
      "type": "function"
    },
    {
      "constant": false,
      "inputs": [
        {
          "internalType": "address",
          "name": "spender",
          "type": "address"
        },
        {
          "internalType": "uint256",
          "name": "value",
          "type": "uint256"
        }
      ],
      "name": "approve",
      "outputs": [
        {
          "internalType": "bool",
          "name": "",
          "type": "bool"
        }
      ],
      "payable": false,
      "stateMutability": "nonpayable",
      "type": "function"
    },
    {
      "constant": true,
      "inputs": [
        {
          "internalType": "address",
          "name": "owner",
          "type": "address"
        }
      ],
      "name": "balanceOf",
      "outputs": [
        {
          "internalType": "uint256",
          "name": "",
          "type": "uint256"
        }
      ],
      "payable": false,
      "stateMutability": "view",
      "type": "function"
    },
    {
      "constant": false,
      "inputs": [
        {
          "internalType": "uint256",
          "name": "_amount",
          "type": "uint256"
        },
        {
          "internalType": "uint256",
          "name": "_minSharesToMint",
          "type": "uint256"
        }
      ],
      "name": "buyVoucher",
      "outputs": [
        {
          "internalType": "uint256",
          "name": "amountToDeposit",
          "type": "uint256"
        }
      ],
      "payable": false,
      "stateMutability": "nonpayable",
      "type": "function"
    },
    {
      "constant": true,
      "inputs": [],
      "name": "commissionRate_deprecated",
      "outputs": [
        {
          "internalType": "uint256",
          "name": "",
          "type": "uint256"
        }
      ],
      "payable": false,
      "stateMutability": "view",
      "type": "function"
    },
    {
      "constant": false,
      "inputs": [
        {
          "internalType": "address",
          "name": "spender",
          "type": "address"
        },
        {
          "internalType": "uint256",
          "name": "subtractedValue",
          "type": "uint256"
        }
      ],
      "name": "decreaseAllowance",
      "outputs": [
        {
          "internalType": "bool",
          "name": "",
          "type": "bool"
        }
      ],
      "payable": false,
      "stateMutability": "nonpayable",
      "type": "function"
    },
    {
      "constant": true,
      "inputs": [],
      "name": "delegation",
      "outputs": [
        {
          "internalType": "bool",
          "name": "",
          "type": "bool"
        }
      ],
      "payable": false,
      "stateMutability": "view",
      "type": "function"
    },
    {
      "constant": false,
      "inputs": [
        {
          "internalType": "address",
          "name": "token",
          "type": "address"
        },
        {
          "internalType": "address payable",
          "name": "destination",
          "type": "address"
        },
        {
          "internalType": "uint256",
          "name": "amount",
          "type": "uint256"
        }
      ],
      "name": "drain",
      "outputs": [],
      "payable": false,
      "stateMutability": "nonpayable",
      "type": "function"
    },
    {
      "constant": true,
      "inputs": [],
      "name": "eventsHub",
      "outputs": [
        {
          "internalType": "contract EventsHub",
          "name": "",
          "type": "address"
        }
      ],
      "payable": false,
      "stateMutability": "view",
      "type": "function"
    },
    {
      "constant": true,
      "inputs": [],
      "name": "exchangeRate",
      "outputs": [
        {
          "internalType": "uint256",
          "name": "",
          "type": "uint256"
        }
      ],
      "payable": false,
      "stateMutability": "view",
      "type": "function"
    },
    {
      "constant": true,
      "inputs": [
        {
          "internalType": "address",
          "name": "user",
          "type": "address"
        }
      ],
      "name": "getLiquidRewards",
      "outputs": [
        {
          "internalType": "uint256",
          "name": "",
          "type": "uint256"
        }
      ],
      "payable": false,
      "stateMutability": "view",
      "type": "function"
    },
    {
      "constant": true,
      "inputs": [],
      "name": "getRewardPerShare",
      "outputs": [
        {
          "internalType": "uint256",
          "name": "",
          "type": "uint256"
        }
      ],
      "payable": false,
      "stateMutability": "view",
      "type": "function"
    },
    {
      "constant": true,
      "inputs": [
        {
          "internalType": "address",
          "name": "user",
          "type": "address"
        }
      ],
      "name": "getTotalStake",
      "outputs": [
        {
          "internalType": "uint256",
          "name": "",
          "type": "uint256"
        },
        {
          "internalType": "uint256",
          "name": "",
          "type": "uint256"
        }
      ],
      "payable": false,
      "stateMutability": "view",
      "type": "function"
    },
    {
      "constant": false,
      "inputs": [
        {
          "internalType": "address",
          "name": "spender",
          "type": "address"
        },
        {
          "internalType": "uint256",
          "name": "addedValue",
          "type": "uint256"
        }
      ],
      "name": "increaseAllowance",
      "outputs": [
        {
          "internalType": "bool",
          "name": "",
          "type": "bool"
        }
      ],
      "payable": false,
      "stateMutability": "nonpayable",
      "type": "function"
    },
    {
      "constant": true,
      "inputs": [
        {
          "internalType": "address",
          "name": "",
          "type": "address"
        }
      ],
      "name": "initalRewardPerShare",
      "outputs": [
        {
          "internalType": "uint256",
          "name": "",
          "type": "uint256"
        }
      ],
      "payable": false,
      "stateMutability": "view",
      "type": "function"
    },
    {
      "constant": false,
      "inputs": [
        {
          "internalType": "uint256",
          "name": "_validatorId",
          "type": "uint256"
        },
        {
          "internalType": "address",
          "name": "_stakingLogger",
          "type": "address"
        },
        {
          "internalType": "address",
          "name": "_stakeManager",
          "type": "address"
        }
      ],
      "name": "initialize",
      "outputs": [],
      "payable": false,
      "stateMutability": "nonpayable",
      "type": "function"
    },
    {
      "constant": true,
      "inputs": [],
      "name": "isOwner",
      "outputs": [
        {
          "internalType": "bool",
          "name": "",
          "type": "bool"
        }
      ],
      "payable": false,
      "stateMutability": "view",
      "type": "function"
    },
    {
      "constant": true,
      "inputs": [],
      "name": "lastCommissionUpdate_deprecated",
      "outputs": [
        {
          "internalType": "uint256",
          "name": "",
          "type": "uint256"
        }
      ],
      "payable": false,
      "stateMutability": "view",
      "type": "function"
    },
    {
      "constant": false,
      "inputs": [],
      "name": "lock",
      "outputs": [],
      "payable": false,
      "stateMutability": "nonpayable",
      "type": "function"
    },
    {
      "constant": true,
      "inputs": [],
      "name": "locked",
      "outputs": [
        {
          "internalType": "bool",
          "name": "",
          "type": "bool"
        }
      ],
      "payable": false,
      "stateMutability": "view",
      "type": "function"
    },
    {
      "constant": false,
      "inputs": [
        {
          "internalType": "address",
          "name": "user",
          "type": "address"
        },
        {
          "internalType": "uint256",
          "name": "amount",
          "type": "uint256"
        }
      ],
      "name": "migrateIn",
      "outputs": [],
      "payable": false,
      "stateMutability": "nonpayable",
      "type": "function"
    },
    {
      "constant": false,
      "inputs": [
        {
          "internalType": "address",
          "name": "user",
          "type": "address"
        },
        {
          "internalType": "uint256",
          "name": "amount",
          "type": "uint256"
        }
      ],
      "name": "migrateOut",
      "outputs": [],
      "payable": false,
      "stateMutability": "nonpayable",
      "type": "function"
    },
    {
      "constant": true,
      "inputs": [],
      "name": "minAmount",
      "outputs": [
        {
          "internalType": "uint256",
          "name": "",
          "type": "uint256"
        }
      ],
      "payable": false,
      "stateMutability": "view",
      "type": "function"
    },
    {
      "constant": true,
      "inputs": [],
      "name": "owner",
      "outputs": [
        {
          "internalType": "address",
          "name": "",
          "type": "address"
        }
      ],
      "payable": false,
      "stateMutability": "view",
      "type": "function"
    },
    {
      "constant": false,
      "inputs": [],
      "name": "renounceOwnership",
      "outputs": [],
      "payable": false,
      "stateMutability": "nonpayable",
      "type": "function"
    },
    {
      "constant": false,
      "inputs": [],
      "name": "restake",
      "outputs": [
        {
          "internalType": "uint256",
          "name": "",
          "type": "uint256"
        },
        {
          "internalType": "uint256",
          "name": "",
          "type": "uint256"
        }
      ],
      "payable": false,
      "stateMutability": "nonpayable",
      "type": "function"
    },
    {
      "constant": true,
      "inputs": [],
      "name": "rewardPerShare",
      "outputs": [
        {
          "internalType": "uint256",
          "name": "",
          "type": "uint256"
        }
      ],
      "payable": false,
      "stateMutability": "view",
      "type": "function"
    },
    {
      "constant": false,
      "inputs": [
        {
          "internalType": "uint256",
          "name": "claimAmount",
          "type": "uint256"
        },
        {
          "internalType": "uint256",
          "name": "maximumSharesToBurn",
          "type": "uint256"
        }
      ],
      "name": "sellVoucher",
      "outputs": [],
      "payable": false,
      "stateMutability": "nonpayable",
      "type": "function"
    },
    {
      "constant": false,
      "inputs": [
        {
          "internalType": "uint256",
          "name": "claimAmount",
          "type": "uint256"
        },
        {
          "internalType": "uint256",
          "name": "maximumSharesToBurn",
          "type": "uint256"
        }
      ],
      "name": "sellVoucher_new",
      "outputs": [],
      "payable": false,
      "stateMutability": "nonpayable",
      "type": "function"
    },
    {
      "constant": false,
      "inputs": [
        {
          "internalType": "uint256",
          "name": "validatorStake",
          "type": "uint256"
        },
        {
          "internalType": "uint256",
          "name": "delegatedAmount",
          "type": "uint256"
        },
        {
          "internalType": "uint256",
          "name": "totalAmountToSlash",
          "type": "uint256"
        }
      ],
      "name": "slash",
      "outputs": [
        {
          "internalType": "uint256",
          "name": "",
          "type": "uint256"
        }
      ],
      "payable": false,
      "stateMutability": "nonpayable",
      "type": "function"
    },
    {
      "constant": true,
      "inputs": [],
      "name": "stakeManager",
      "outputs": [
        {
          "internalType": "contract IStakeManager",
          "name": "",
          "type": "address"
        }
      ],
      "payable": false,
      "stateMutability": "view",
      "type": "function"
    },
    {
      "constant": true,
      "inputs": [],
      "name": "stakingLogger",
      "outputs": [
        {
          "internalType": "contract StakingInfo",
          "name": "",
          "type": "address"
        }
      ],
      "payable": false,
      "stateMutability": "view",
      "type": "function"
    },
    {
      "constant": true,
      "inputs": [],
      "name": "totalStake_deprecated",
      "outputs": [
        {
          "internalType": "uint256",
          "name": "",
          "type": "uint256"
        }
      ],
      "payable": false,
      "stateMutability": "view",
      "type": "function"
    },
    {
      "constant": true,
      "inputs": [],
      "name": "totalSupply",
      "outputs": [
        {
          "internalType": "uint256",
          "name": "",
          "type": "uint256"
        }
      ],
      "payable": false,
      "stateMutability": "view",
      "type": "function"
    },
    {
      "constant": false,
      "inputs": [
        {
          "internalType": "address",
          "name": "to",
          "type": "address"
        },
        {
          "internalType": "uint256",
          "name": "value",
          "type": "uint256"
        }
      ],
      "name": "transfer",
      "outputs": [
        {
          "internalType": "bool",
          "name": "",
          "type": "bool"
        }
      ],
      "payable": false,
      "stateMutability": "nonpayable",
      "type": "function"
    },
    {
      "constant": false,
      "inputs": [
        {
          "internalType": "address",
          "name": "from",
          "type": "address"
        },
        {
          "internalType": "address",
          "name": "to",
          "type": "address"
        },
        {
          "internalType": "uint256",
          "name": "value",
          "type": "uint256"
        }
      ],
      "name": "transferFrom",
      "outputs": [
        {
          "internalType": "bool",
          "name": "",
          "type": "bool"
        }
      ],
      "payable": false,
      "stateMutability": "nonpayable",
      "type": "function"
    },
    {
      "constant": false,
      "inputs": [
        {
          "internalType": "address",
          "name": "newOwner",
          "type": "address"
        }
      ],
      "name": "transferOwnership",
      "outputs": [],
      "payable": false,
      "stateMutability": "nonpayable",
      "type": "function"
    },
    {
      "constant": true,
      "inputs": [
        {
          "internalType": "address",
          "name": "",
          "type": "address"
        }
      ],
      "name": "unbondNonces",
      "outputs": [
        {
          "internalType": "uint256",
          "name": "",
          "type": "uint256"
        }
      ],
      "payable": false,
      "stateMutability": "view",
      "type": "function"
    },
    {
      "constant": true,
      "inputs": [
        {
          "internalType": "address",
          "name": "",
          "type": "address"
        }
      ],
      "name": "unbonds",
      "outputs": [
        {
          "internalType": "uint256",
          "name": "shares",
          "type": "uint256"
        },
        {
          "internalType": "uint256",
          "name": "withdrawEpoch",
          "type": "uint256"
        }
      ],
      "payable": false,
      "stateMutability": "view",
      "type": "function"
    },
    {
      "constant": true,
      "inputs": [
        {
          "internalType": "address",
          "name": "",
          "type": "address"
        },
        {
          "internalType": "uint256",
          "name": "",
          "type": "uint256"
        }
      ],
      "name": "unbonds_new",
      "outputs": [
        {
          "internalType": "uint256",
          "name": "shares",
          "type": "uint256"
        },
        {
          "internalType": "uint256",
          "name": "withdrawEpoch",
          "type": "uint256"
        }
      ],
      "payable": false,
      "stateMutability": "view",
      "type": "function"
    },
    {
      "constant": false,
      "inputs": [],
      "name": "unlock",
      "outputs": [],
      "payable": false,
      "stateMutability": "nonpayable",
      "type": "function"
    },
    {
      "constant": false,
      "inputs": [],
      "name": "unstakeClaimTokens",
      "outputs": [],
      "payable": false,
      "stateMutability": "nonpayable",
      "type": "function"
    },
    {
      "constant": false,
      "inputs": [
        {
          "internalType": "uint256",
          "name": "unbondNonce",
          "type": "uint256"
        }
      ],
      "name": "unstakeClaimTokens_new",
      "outputs": [],
      "payable": false,
      "stateMutability": "nonpayable",
      "type": "function"
    },
    {
      "constant": false,
      "inputs": [
        {
          "internalType": "bool",
          "name": "_delegation",
          "type": "bool"
        }
      ],
      "name": "updateDelegation",
      "outputs": [],
      "payable": false,
      "stateMutability": "nonpayable",
      "type": "function"
    },
    {
      "constant": true,
      "inputs": [],
      "name": "validatorId",
      "outputs": [
        {
          "internalType": "uint256",
          "name": "",
          "type": "uint256"
        }
      ],
      "payable": false,
      "stateMutability": "view",
      "type": "function"
    },
    {
      "constant": true,
      "inputs": [],
      "name": "validatorRewards_deprecated",
      "outputs": [
        {
          "internalType": "uint256",
          "name": "",
          "type": "uint256"
        }
      ],
      "payable": false,
      "stateMutability": "view",
      "type": "function"
    },
    {
      "constant": true,
      "inputs": [],
      "name": "withdrawExchangeRate",
      "outputs": [
        {
          "internalType": "uint256",
          "name": "",
          "type": "uint256"
        }
      ],
      "payable": false,
      "stateMutability": "view",
      "type": "function"
    },
    {
      "constant": true,
      "inputs": [],
      "name": "withdrawPool",
      "outputs": [
        {
          "internalType": "uint256",
          "name": "",
          "type": "uint256"
        }
      ],
      "payable": false,
      "stateMutability": "view",
      "type": "function"
    },
    {
      "constant": false,
      "inputs": [],
      "name": "withdrawRewards",
      "outputs": [],
      "payable": false,
      "stateMutability": "nonpayable",
      "type": "function"
    },
    {
      "constant": true,
      "inputs": [],
      "name": "withdrawShares",
      "outputs": [
        {
          "internalType": "uint256",
          "name": "",
          "type": "uint256"
        }
      ],
      "payable": false,
      "stateMutability": "view",
      "type": "function"
    },
    {
      "constant": true,
      "inputs": [
        {
          "internalType": "address",
          "name": "user",
          "type": "address"
        }
      ],
      "name": "amountStaked",
      "outputs": [
        {
          "internalType": "uint256",
          "name": "",
          "type": "uint256"
        }
      ],
      "payable": false,
      "stateMutability": "view",
      "type": "function"
    }
  ],
  "bytecode": "0x6080604081905260038054610100600160b01b03191661010033810291909117918290556001600160a01b03910416906000907f8be0079c531659141344cd1fd0a4f28419497f9722a3daafe3b4186f6b6457e0908290a3612b8e806100666000396000f3fe608060405234801561001057600080fd5b506004361061030c5760003560e01c8063795be5871161019d578063abf59fc9116100e9578063dd62ed3e116100a2578063e97fddc21161007c578063e97fddc2146107d5578063ef40a670146107f2578063f2fde38b14610818578063f83d08ba1461083e5761030c565b8063dd62ed3e14610779578063df5cf723146107a7578063e4cd1aec146107af5761030c565b8063abf59fc9146106d4578063b4988fd01461070a578063bfb18f291461073e578063c7b8981c14610746578063c83ec04d1461074e578063cf309012146107715761030c565b80638da5cb5b11610156578063a0c1ca3411610130578063a0c1ca3414610648578063a457c2d714610674578063a69df4b5146106a0578063a9059cbb146106a85761030c565b80638da5cb5b146106305780638f32d59b146106385780639b2cb5d8146106405761030c565b8063795be587146105c55780637ba8c820146105f1578063883b455f146106105780638ccdd289146106185780638d086da4146106205780638d16a14a146106285761030c565b8063446a2ec81161025c578063676e5550116102155780636e7ce591116101ef5780636e7ce5911461056357806370a082311461058f578063715018a6146105b55780637542ff95146105bd5761030c565b8063676e5550146104f15780636ab15071146105175780636cbb60501461053a5761030c565b8063446a2ec8146104a35780634f91440d146104ab5780635c42c733146104b35780635c5f7dae146104bb5780635f0c80cc146104c3578063653ec134146104cb5761030c565b806323b872dd116102c957806339c31e93116102a357806339c31e93146104675780633a09bf441461046f5780633ba0b9a9146104775780633d94eb051461047f5761030c565b806323b872dd146103df5780633046c20414610415578063395093511461043b5761030c565b8063029d304014610311578063095ea7b31461033657806318160ddd146103765780631bf494a7146103905780631e7ff8f61461039857806323440679146103d7575b600080fd5b6103346004803603604081101561032757600080fd5b5080359060200135610846565b005b6103626004803603604081101561034c57600080fd5b506001600160a01b038135169060200135610a15565b604080519115158252519081900360200190f35b61037e610a2c565b60408051918252519081900360200190f35b61037e610a33565b6103be600480360360208110156103ae57600080fd5b50356001600160a01b0316610abf565b6040805192835260208301919091528051918290030190f35b61037e610b1f565b610362600480360360608110156103f557600080fd5b506001600160a01b03813581169160208101359091169060400135610b25565b61037e6004803603602081101561042b57600080fd5b50356001600160a01b0316610b7d565b6103626004803603604081101561045157600080fd5b506001600160a01b038135169060200135610b8f565b61037e610bcb565b61037e610bd1565b61037e610bd7565b610487610c94565b604080516001600160a01b039092168252519081900360200190f35b61037e610ca3565b6103be610ca9565b61037e610f0a565b61037e610f10565b61037e610f16565b6103be600480360360208110156104e157600080fd5b50356001600160a01b0316610f1c565b61037e6004803603602081101561050757600080fd5b50356001600160a01b0316610f35565b61037e6004803603604081101561052d57600080fd5b5080359060200135610f48565b61037e6004803603606081101561055057600080fd5b508035906020810135906040013561102e565b6103346004803603604081101561057957600080fd5b506001600160a01b038135169060200135611165565b61037e600480360360208110156105a557600080fd5b50356001600160a01b03166113cf565b6103346113ea565b61048761144b565b6103be600480360360408110156105db57600080fd5b506001600160a01b03813516906020013561145a565b6103346004803603602081101561060757600080fd5b5035151561147e565b6104876114a2565b61037e6114b1565b61037e6114b7565b6103346114bd565b610487611588565b61036261159c565b61037e6115b2565b6103346004803603604081101561065e57600080fd5b506001600160a01b0381351690602001356115b8565b6103626004803603604081101561068a57600080fd5b506001600160a01b0381351690602001356115e4565b610334611620565b610362600480360360408110156106be57600080fd5b506001600160a01b03813516906020013561163b565b610334600480360360608110156106ea57600080fd5b506001600160a01b03813581169160208101359091169060400135611648565b6103346004803603606081101561072057600080fd5b508035906001600160a01b036020820135811691604001351661176f565b61037e611837565b61033461187e565b6103346004803603604081101561076457600080fd5b50803590602001356118e5565b610362611abe565b61037e6004803603604081101561078f57600080fd5b506001600160a01b0381358116916020013516611ac7565b610362611af2565b61037e600480360360208110156107c557600080fd5b50356001600160a01b0316611afb565b610334600480360360208110156107eb57600080fd5b5035611b0d565b61037e6004803603602081101561080857600080fd5b50356001600160a01b0316611bfb565b6103346004803603602081101561082e57600080fd5b50356001600160a01b0316611c0f565b610334611c29565b6000806108538484611c42565b9150915061085f612b3f565b5033600090815260126020908152604091829020825180840190935280548084526001909101549183019190915261089d908363ffffffff611e0c16565b81526005546040805163900cf0cf60e01b815290516001600160a01b039092169163900cf0cf91600480820192602092909190829003018186803b1580156108e457600080fd5b505afa1580156108f8573d6000803e3d6000fd5b505050506040513d602081101561090e57600080fd5b505160208281019182523360008181526012909252604080832085518155935160019094019390935560048054600654855163f1382b5360e01b8152928301526024820192909252604481018990526064810187905292516001600160a01b0390911692839263f1382b539260848084019382900301818387803b15801561099557600080fd5b505af11580156109a9573d6000803e3d6000fd5b50505050806001600160a01b031663532e19a96006546040518263ffffffff1660e01b815260040180828152602001915050600060405180830381600087803b1580156109f557600080fd5b505af1158015610a09573d6000803e3d6000fd5b50505050505050505050565b6000610a22338484611e1e565b5060015b92915050565b6002545b90565b6005546006546040805163072c21ef60e31b8152600481019290925251600092610aba926001600160a01b03909116916339610f7891602480820192602092909190829003018186803b158015610a8957600080fd5b505afa158015610a9d573d6000803e3d6000fd5b505050506040513d6020811015610ab357600080fd5b5051611e56565b905090565b6000806000610acd846113cf565b90506000610ad9610bd7565b905081610aed57600093509150610b1a9050565b610b14610af8611ead565b610b08838563ffffffff611ed416565b9063ffffffff611efb16565b93509150505b915091565b60095481565b6000610b32848484611f1d565b6001600160a01b038416600090815260016020908152604080832033808552925290912054610b72918691610b6d908663ffffffff611f3c16565b611e1e565b5060015b9392505050565b60146020526000908152604090205481565b3360008181526001602090815260408083206001600160a01b03871684529091528120549091610a22918590610b6d908663ffffffff611e0c16565b60075481565b600d5481565b600080610be2610a2c565b90506000610bee611ead565b90508115610c8b5760055460065460408051637f4b432360e01b8152600481019290925251610c86928592610b089286926001600160a01b031691637f4b4323916024808301926020929190829003018186803b158015610c4e57600080fd5b505afa158015610c62573d6000803e3d6000fd5b505050506040513d6020811015610c7857600080fd5b50519063ffffffff611ed416565b610c8d565b805b9250505090565b6004546001600160a01b031681565b600c5481565b6000803381610cb782611f51565b90506000600a54821015610d12576040805162461bcd60e51b815260206004820152601c60248201527f546f6f20736d616c6c207265776172647320746f2072657374616b6500000000604482015290519081900360640190fd5b8115610f0157610d2482600085611fff565b905080821115610e7a576005546006546040805163bc8756a960e01b8152600481019290925283850360248301526001600160a01b038681166044840152905192169163bc8756a9916064808201926020929091908290030181600087803b158015610d8f57600080fd5b505af1158015610da3573d6000803e3d6000fd5b505050506040513d6020811015610db957600080fd5b5051610e02576040805162461bcd60e51b8152602060048201526013602482015272496e737566666963656e74207265776172647360681b604482015290519081900360640190fd5b600480546006546040805163b7721d2d60e01b8152938401919091526001600160a01b0386811660248501528486036044850152905191169163b7721d2d91606480830192600092919082900301818387803b158015610e6157600080fd5b505af1158015610e75573d6000803e3d6000fd5b505050505b6000610e8584610abf565b506004805460065460408051637f88a95760e01b8152938401919091526001600160a01b0388811660248501526044840185905290519394501691637f88a9579160648082019260009290919082900301818387803b158015610ee757600080fd5b505af1158015610efb573d6000803e3d6000fd5b50505050505b93509150509091565b600f5481565b60065481565b600b5481565b6012602052600090815260409020805460019091015482565b6000610a2682610f43610a33565b6122be565b6000610f533361233f565b50610f5f838333611fff565b60055460065460408051636901b25360e01b8152600481019290925260248201849052336044830152519293506001600160a01b0390911691636901b253916064808201926020929091908290030181600087803b158015610fc057600080fd5b505af1158015610fd4573d6000803e3d6000fd5b505050506040513d6020811015610fea57600080fd5b5051610a26576040805162461bcd60e51b815260206004820152600e60248201526d19195c1bdcda5d0819985a5b195960921b604482015290519081900360640190fd5b600061103861159c565b61104157600080fd5b600f546000611056858363ffffffff611e0c16565b90508061106857600092505050610b76565b600061108d61107d888463ffffffff611e0c16565b610b08848863ffffffff611ed416565b905060006110a583610b08868563ffffffff611ed416565b905060006110b9838363ffffffff611f3c16565b6005546006546040805163858a7c0360e01b8152600481019290925260248201849052519293506001600160a01b039091169163858a7c039160448082019260009290919082900301818387803b15801561111357600080fd5b505af1158015611127573d6000803e3d6000fd5b5050600d5461113f925090508263ffffffff611f3c16565b600d55600f54611155908363ffffffff611f3c16565b600f555090979650505050505050565b61116d61159c565b61117657600080fd5b61117f8261233f565b5060008061118c84610abf565b91509150828210156111da576040805162461bcd60e51b815260206004820152601260248201527109ad2cee4c2e8d2dcce40e8dede40daeac6d60731b604482015290519081900360640190fd5b60006111e4611ead565b905060006111fc83610b08878563ffffffff611ed416565b905061120886826124a3565b60055460065460408051629ff11560e81b815260048101929092526000888103602484015290516001600160a01b0390931692639ff1150092604480820193929182900301818387803b15801561125e57600080fd5b505af1158015611272573d6000803e3d6000fd5b5050600d5461128a925090508663ffffffff611f3c16565b600d55600480546006546040805163f1382b5360e01b8152938401919091526001600160a01b0389811660248501526044840189905260648401859052905191169163f1382b5391608480830192600092919082900301818387803b1580156112f257600080fd5b505af1158015611306573d6000803e3d6000fd5b5050600480546006546040805163532e19a960e01b815293840191909152516001600160a01b03909116935063532e19a99250602480830192600092919082900301818387803b15801561135957600080fd5b505af115801561136d573d6000803e3d6000fd5b5050600480546006546040805163302df4df60e11b8152938401919091526001600160a01b038b81166024850152604484018b905290519116935063605be9be9250606480830192600092919082900301818387803b1580156109f557600080fd5b6001600160a01b031660009081526020819052604090205490565b6113f261159c565b6113fb57600080fd5b60035460405160009161010090046001600160a01b0316907f8be0079c531659141344cd1fd0a4f28419497f9722a3daafe3b4186f6b6457e0908390a360038054610100600160a81b0319169055565b6005546001600160a01b031681565b60156020908152600092835260408084209091529082529020805460019091015482565b61148661159c565b61148f57600080fd5b600e805460ff1916911515919091179055565b6016546001600160a01b031681565b60085481565b60105481565b6114c5612b3f565b503360009081526012602090815260408083208151808301909252805482526001015491810191909152906114f98261254a565b3360008181526012602052604080822082815560010182905560048054600654835163302df4df60e11b81529283015260248201949094526044810185905290519394506001600160a01b039092169263605be9be92606480820193929182900301818387803b15801561156c57600080fd5b505af1158015611580573d6000803e3d6000fd5b505050505050565b60035461010090046001600160a01b031690565b60035461010090046001600160a01b0316331490565b600a5481565b6115c061159c565b6115c957600080fd5b6115d28261233f565b506115df81600084611fff565b505050565b3360008181526001602090815260408083206001600160a01b03871684529091528120549091610a22918590610b6d908663ffffffff611f3c16565b61162861159c565b61163157600080fd5b6116396127b9565b565b6000610a22338484611f1d565b61165061159c565b61165957600080fd5b6001600160a01b0383166116a3576040516001600160a01b0383169082156108fc029083906000818181858888f1935050505015801561169d573d6000803e3d6000fd5b506115df565b826001600160a01b031663a9059cbb83836040518363ffffffff1660e01b815260040180836001600160a01b03166001600160a01b0316815260200182815260200192505050602060405180830381600087803b15801561170357600080fd5b505af1158015611717573d6000803e3d6000fd5b505050506040513d602081101561172d57600080fd5b50516115df576040805162461bcd60e51b815260206004820152600c60248201526b111c985a5b8819985a5b195960a21b604482015290519081900360640190fd5b600354600160a81b900460ff16156117bf576040805162461bcd60e51b815260206004820152600e60248201526d185b1c9958591e481a5b9a5d195960921b604482015290519081900360640190fd5b6003805460ff60a81b1916600160a81b1790556006839055600480546001600160a01b038085166001600160a01b0319928316179092556005805492841692909116919091179055611810816127c5565b61181861283f565b5050670de0b6b3a7640000600a555050600e805460ff19166001179055565b600080611842611ead565b905060086006541015611856579050610a30565b601054801561187857610c8681610b0884600f54611ed490919063ffffffff16565b50919050565b60006118893361233f565b9050600a548110156118e2576040805162461bcd60e51b815260206004820152601860248201527f546f6f20736d616c6c207265776172647320616d6f756e740000000000000000604482015290519081900360640190fd5b50565b6000806118f28484611c42565b336000908152601460205260408120549294509092509061191a90600163ffffffff611e0c16565b9050611924612b3f565b6040518060400160405280848152602001600560009054906101000a90046001600160a01b03166001600160a01b031663900cf0cf6040518163ffffffff1660e01b815260040160206040518083038186803b15801561198357600080fd5b505afa158015611997573d6000803e3d6000fd5b505050506040513d60208110156119ad57600080fd5b5051905233600081815260156020908152604080832087845282528083208551815585830151600190910155928252601490522083905590506119ee61283f565b60065460408051632a9b5b4160e11b81526004810192909252336024830152604482018990526064820187905260848201859052516001600160a01b039290921691635536b6829160a48082019260009290919082900301818387803b158015611a5757600080fd5b505af1158015611a6b573d6000803e3d6000fd5b5050600480546006546040805163532e19a960e01b815293840191909152516001600160a01b03909116935063532e19a99250602480830192600092919082900301818387803b1580156109f557600080fd5b60035460ff1681565b6001600160a01b03918216600090815260016020908152604080832093909416825291909152205490565b600e5460ff1681565b60136020526000908152604090205481565b611b15612b3f565b503360009081526015602090815260408083208484528252808320815180830190925280548252600101549181019190915290611b518261254a565b3360009081526015602090815260408083208784529091528120818155600101559050611b7c61283f565b60065460408051636e699d8760e01b815260048101929092523360248301526044820184905260648201869052516001600160a01b039290921691636e699d879160848082019260009290919082900301818387803b158015611bde57600080fd5b505af1158015611bf2573d6000803e3d6000fd5b50505050505050565b600080611c0783610abf565b509392505050565b611c1761159c565b611c2057600080fd5b6118e2816127c5565b611c3161159c565b611c3a57600080fd5b61163961297c565b600080600080611c5133610abf565b9150915081600014158015611c665750858210155b611cac576040805162461bcd60e51b8152602060048201526012602482015271151bdbc81b5d58da081c995c5d595cdd195960721b604482015290519081900360640190fd5b6000611cb6611ead565b90506000611cce83610b088a8563ffffffff611ed416565b905086811115611d19576040805162461bcd60e51b8152602060048201526011602482015270746f6f206d75636820736c69707061676560781b604482015290519081900360640190fd5b611d223361233f565b50611d2d33826124a3565b60055460065460408051629ff11560e81b8152600481019290925260008b8103602484015290516001600160a01b0390931692639ff1150092604480820193929182900301818387803b158015611d8357600080fd5b505af1158015611d97573d6000803e3d6000fd5b5050600d54611daf925090508963ffffffff611f3c16565b600d556000611dcf611dbf611837565b610b088b8663ffffffff611ed416565b600f54909150611de5908a63ffffffff611e0c16565b600f55601054611dfb908263ffffffff611e0c16565b601055909890975095505050505050565b600082820183811015610b7657600080fd5b6040805162461bcd60e51b8152602060048201526008602482015267191a5cd8589b195960c21b604482015290519081900360640190fd5b600c546000908215610a26576000611e6c610a2c565b90508015611ea657611ea3611e9682610b08876a084595161401484a00000063ffffffff611ed416565b839063ffffffff611e0c16565b91505b5092915050565b600060086006541015611ec257506064610a30565b506c01431e0fae6d7217caa000000090565b600082611ee357506000610a26565b82820282848281611ef057fe5b0414610b7657600080fd5b6000808211611f0957600080fd5b6000828481611f1457fe5b04949350505050565b611f268261233f565b50611f308361233f565b506115df83838361298b565b600082821115611f4b57600080fd5b50900390565b600080611fc8600560009054906101000a90046001600160a01b03166001600160a01b0316637ed4b27c6006546040518263ffffffff1660e01b815260040180828152602001915050602060405180830381600087803b158015611fb457600080fd5b505af1158015610a9d573d6000803e3d6000fd5b90506000611fd684836122be565b600c8390556001600160a01b038516600090815260136020526040902092909255509050919050565b6000612009612a56565b600e5460ff16612059576040805162461bcd60e51b815260206004820152601660248201527511195b1959d85d1a5bdb881a5cc8191a5cd8589b195960521b604482015290519081900360640190fd5b6000612063610bd7565b9050600061206f611ead565b9050600061208783610b08898563ffffffff611ed416565b9050858110156120d2576040805162461bcd60e51b8152602060048201526011602482015270546f6f206d75636820736c69707061676560781b604482015290519081900360640190fd5b6001600160a01b0385166000908152601260205260409020541561212c576040805162461bcd60e51b815260206004820152600c60248201526b13db99dbda5b99c8195e1a5d60a21b604482015290519081900360640190fd5b6121368582612a97565b61214a82610b08858463ffffffff611ed416565b60055460065460408051629ff11560e81b8152600481019290925260248201849052519299506001600160a01b0390911691639ff115009160448082019260009290919082900301818387803b1580156121a357600080fd5b505af11580156121b7573d6000803e3d6000fd5b5050600d546121cf925090508863ffffffff611e0c16565b600d55600480546006546040805163c69d057360e01b8152938401919091526001600160a01b038881166024850152604484018b9052606484018590529051911691829163c69d05739160848082019260009290919082900301818387803b15801561223a57600080fd5b505af115801561224e573d6000803e3d6000fd5b50505050806001600160a01b031663532e19a96006546040518263ffffffff1660e01b815260040180828152602001915050600060405180830381600087803b15801561229a57600080fd5b505af11580156122ae573d6000803e3d6000fd5b50999a9950505050505050505050565b6000806122ca846113cf565b9050806122db576000915050610a26565b6001600160a01b0384166000908152601360205260409020548381141561230757600092505050610a26565b6123366a084595161401484a000000610b088461232a888663ffffffff611f3c16565b9063ffffffff611ed416565b95945050505050565b60008061234b83611f51565b90508015610a26576005546006546040805163bc8756a960e01b81526004810192909252602482018490526001600160a01b038681166044840152905192169163bc8756a9916064808201926020929091908290030181600087803b1580156123b357600080fd5b505af11580156123c7573d6000803e3d6000fd5b505050506040513d60208110156123dd57600080fd5b5051612426576040805162461bcd60e51b8152602060048201526013602482015272496e737566666963656e74207265776172647360681b604482015290519081900360640190fd5b600480546006546040805163b7721d2d60e01b8152938401919091526001600160a01b03868116602485015260448401859052905191169163b7721d2d91606480830192600092919082900301818387803b15801561248457600080fd5b505af1158015612498573d6000803e3d6000fd5b505050509050919050565b6001600160a01b0382166124b657600080fd5b6002546124c9908263ffffffff611f3c16565b6002556001600160a01b0382166000908152602081905260409020546124f5908263ffffffff611f3c16565b6001600160a01b038316600081815260208181526040808320949094558351858152935191937fddf252ad1be2c89b69c2b068fc378daa952ba7f163c4a11628f55a4df523b3ef929081900390910190a35050565b80516005546040805163900cf0cf60e01b81529051600093926001600160a01b03169163900cf0cf916004808301926020929190829003018186803b15801561259257600080fd5b505afa1580156125a6573d6000803e3d6000fd5b505050506040513d60208110156125bc57600080fd5b50516005546040805163a7ab696160e01b81529051612641926001600160a01b03169163a7ab6961916004808301926020929190829003018186803b15801561260457600080fd5b505afa158015612618573d6000803e3d6000fd5b505050506040513d602081101561262e57600080fd5b505160208601519063ffffffff611e0c16565b1115801561264f5750600081115b6126a0576040805162461bcd60e51b815260206004820152601c60248201527f496e636f6d706c657465207769746864726177616c20706572696f6400000000604482015290519081900360640190fd5b60006126b96126ad611ead565b610b088461232a611837565b6010549091506126cf908363ffffffff611f3c16565b601055600f546126e5908263ffffffff611f3c16565b600f556005546006546040805163bc8756a960e01b8152600481019290925260248201849052336044830152516001600160a01b039092169163bc8756a9916064808201926020929091908290030181600087803b15801561274657600080fd5b505af115801561275a573d6000803e3d6000fd5b505050506040513d602081101561277057600080fd5b5051610b76576040805162461bcd60e51b8152602060048201526013602482015272496e737566666963656e74207265776172647360681b604482015290519081900360640190fd5b6003805460ff19169055565b6001600160a01b0381166127d857600080fd5b6003546040516001600160a01b0380841692610100900416907f8be0079c531659141344cd1fd0a4f28419497f9722a3daafe3b4186f6b6457e090600090a3600380546001600160a01b0390921661010002610100600160a81b0319909216919091179055565b6016546000906001600160a01b031680610aba57600560009054906101000a90046001600160a01b03166001600160a01b0316635ab1bd536040518163ffffffff1660e01b815260040160206040518083038186803b1580156128a157600080fd5b505afa1580156128b5573d6000803e3d6000fd5b505050506040513d60208110156128cb57600080fd5b5051604080516832bb32b73a39a43ab160b91b8152815190819003600901812063cac39a0560e01b8252600482015290516001600160a01b039092169163cac39a0591602480820192602092909190829003018186803b15801561292e57600080fd5b505afa158015612942573d6000803e3d6000fd5b505050506040513d602081101561295857600080fd5b5051601680546001600160a01b0319166001600160a01b0383161790559050905090565b6003805460ff19166001179055565b6001600160a01b03821661299e57600080fd5b6001600160a01b0383166000908152602081905260409020546129c7908263ffffffff611f3c16565b6001600160a01b0380851660009081526020819052604080822093909355908416815220546129fc908263ffffffff611e0c16565b6001600160a01b038084166000818152602081815260409182902094909455805185815290519193928716927fddf252ad1be2c89b69c2b068fc378daa952ba7f163c4a11628f55a4df523b3ef92918290030190a3505050565b60035460ff1615611639576040805162461bcd60e51b81526020600482015260066024820152651b1bd8dad95960d21b604482015290519081900360640190fd5b6001600160a01b038216612aaa57600080fd5b600254612abd908263ffffffff611e0c16565b6002556001600160a01b038216600090815260208190526040902054612ae9908263ffffffff611e0c16565b6001600160a01b0383166000818152602081815260408083209490945583518581529351929391927fddf252ad1be2c89b69c2b068fc378daa952ba7f163c4a11628f55a4df523b3ef9281900390910190a35050565b60405180604001604052806000815260200160008152509056fea265627a7a7231582077a8101e8cf4048113ee75e02e4b80200f64e19ea1a02b4bd4092cf77de67f9964736f6c63430005110032",
  "source": "pragma solidity ^0.5.2;\nimport {ValidatorShare} from \"../staking/validatorShare/ValidatorShare.sol\";\n\ncontract ValidatorShareTest is ValidatorShare {\n    function amountStaked(address user) public view returns(uint256) {\n        (uint256 totalStaked, ) = getTotalStake(user);\n        return totalStaked;\n    }\n}\n",
  "sourcePath": "/Users/pauloleary/code/maticnetwork/contracts/contracts/test/ValidatorShareTest.sol",
  "compiler": {
    "name": "solc",
    "version": "0.5.17+commit.d19bba13.Emscripten.clang"
  },
  "schemaVersion": "3.4.10",
  "updatedAt": "2023-02-04T18:04:26.237Z",
  "devdoc": {
    "methods": {
      "allowance(address,address)": {
        "details": "Function to check the amount of tokens that an owner allowed to a spender.",
        "params": {
          "owner": "address The address which owns the funds.",
          "spender": "address The address which will spend the funds."
        },
        "return": "A uint256 specifying the amount of tokens still available for the spender."
      },
      "approve(address,uint256)": {
        "details": "Approve the passed address to spend the specified amount of tokens on behalf of msg.sender. Beware that changing an allowance with this method brings the risk that someone may use both the old and the new allowance by unfortunate transaction ordering. One possible solution to mitigate this race condition is to first reduce the spender's allowance to 0 and set the desired value afterwards: https://github.com/ethereum/EIPs/issues/20#issuecomment-263524729",
        "params": {
          "spender": "The address which will spend the funds.",
          "value": "The amount of tokens to be spent."
        }
      },
      "balanceOf(address)": {
        "details": "Gets the balance of the specified address.",
        "params": {
          "owner": "The address to query the balance of."
        },
        "return": "A uint256 representing the amount owned by the passed address."
      },
      "decreaseAllowance(address,uint256)": {
        "details": "Decrease the amount of tokens that an owner allowed to a spender. approve should be called when _allowed[msg.sender][spender] == 0. To decrement allowed value is better to use this function to avoid 2 calls (and wait until the first transaction is mined) From MonolithDAO Token.sol Emits an Approval event.",
        "params": {
          "spender": "The address which will spend the funds.",
          "subtractedValue": "The amount of tokens to decrease the allowance by."
        }
      },
      "increaseAllowance(address,uint256)": {
        "details": "Increase the amount of tokens that an owner allowed to a spender. approve should be called when _allowed[msg.sender][spender] == 0. To increment allowed value is better to use this function to avoid 2 calls (and wait until the first transaction is mined) From MonolithDAO Token.sol Emits an Approval event.",
        "params": {
          "addedValue": "The amount of tokens to increase the allowance by.",
          "spender": "The address which will spend the funds."
        }
      },
      "isOwner()": {
        "return": "true if `msg.sender` is the owner of the contract."
      },
      "owner()": {
        "return": "the address of the owner."
      },
      "renounceOwnership()": {
        "details": "Allows the current owner to relinquish control of the contract. It will not be possible to call the functions with the `onlyOwner` modifier anymore."
      },
      "totalSupply()": {
        "details": "Total number of tokens in existence"
      },
      "transfer(address,uint256)": {
        "details": "Transfer token to a specified address",
        "params": {
          "to": "The address to transfer to.",
          "value": "The amount to be transferred."
        }
      },
      "transferFrom(address,address,uint256)": {
        "details": "Transfer tokens from one address to another. Note that while this function emits an Approval event, this is not required as per the specification, and other compliant implementations may not emit the event.",
        "params": {
          "from": "address The address which you want to send tokens from",
          "to": "address The address which you want to transfer to",
          "value": "uint256 the amount of tokens to be transferred"
        }
      },
      "transferOwnership(address)": {
        "details": "Allows the current owner to transfer control of the contract to a newOwner.",
        "params": {
          "newOwner": "The address to transfer ownership to."
        }
      }
    }
  },
  "userdoc": {
    "methods": {
      "buyVoucher(uint256,uint256)": {
        "notice": "Public Methods"
      },
      "exchangeRate()": {
        "notice": "Public View Methods"
      },
      "renounceOwnership()": {
        "notice": "Renouncing ownership will leave the contract without an owner, thereby removing any functionality that is only available to the owner."
      },
      "sellVoucher_new(uint256,uint256)": {
        "notice": "New shares exit API"
      }
    }
  }
}