{
  "_format": "hh-sol-artifact-1",
  "contractName": "MRC20",
  "sourceName": "contracts/child/MRC20.sol",
  "abi": [
    {
      "inputs": [
        {
          "internalType": "string",
          "name": "only",
          "type": "string"
        }
      ],
      "name": "Unauthorized",
      "type": "error"
    },
    {
      "anonymous": false,
      "inputs": [
        {
          "indexed": true,
          "internalType": "address",
          "name": "owner",
          "type": "address"
        },
        {
          "indexed": true,
          "internalType": "address",
          "name": "spender",
          "type": "address"
        },
        {
          "indexed": false,
          "internalType": "uint256",
          "name": "value",
          "type": "uint256"
        }
      ],
      "name": "Approval",
      "type": "event"
    },
    {
      "anonymous": false,
      "inputs": [
        {
          "indexed": true,
          "internalType": "address",
          "name": "from",
          "type": "address"
        },
        {
          "indexed": true,
          "internalType": "address",
          "name": "to",
          "type": "address"
        },
        {
          "indexed": false,
          "internalType": "uint256",
          "name": "value",
          "type": "uint256"
        }
      ],
      "name": "Transfer",
      "type": "event"
    },
    {
      "inputs": [],
      "name": "NATIVE_TOKEN_CONTRACT",
      "outputs": [
        {
          "internalType": "address",
          "name": "",
          "type": "address"
        }
      ],
      "stateMutability": "view",
      "type": "function"
    },
    {
      "inputs": [],
      "name": "NATIVE_TRANSFER_PRECOMPILE",
      "outputs": [
        {
          "internalType": "address",
          "name": "",
          "type": "address"
        }
      ],
      "stateMutability": "view",
      "type": "function"
    },
    {
      "inputs": [],
      "name": "NATIVE_TRANSFER_PRECOMPILE_GAS",
      "outputs": [
        {
          "internalType": "uint256",
          "name": "",
          "type": "uint256"
        }
      ],
      "stateMutability": "view",
      "type": "function"
    },
    {
      "inputs": [],
      "name": "SYSTEM",
      "outputs": [
        {
          "internalType": "address",
          "name": "",
          "type": "address"
        }
      ],
      "stateMutability": "view",
      "type": "function"
    },
    {
      "inputs": [],
      "name": "VALIDATOR_PKCHECK_PRECOMPILE",
      "outputs": [
        {
          "internalType": "address",
          "name": "",
          "type": "address"
        }
      ],
      "stateMutability": "view",
      "type": "function"
    },
    {
      "inputs": [],
      "name": "VALIDATOR_PKCHECK_PRECOMPILE_GAS",
      "outputs": [
        {
          "internalType": "uint256",
          "name": "",
          "type": "uint256"
        }
      ],
      "stateMutability": "view",
      "type": "function"
    },
    {
      "inputs": [
        {
          "internalType": "address",
          "name": "owner",
          "type": "address"
        },
        {
          "internalType": "address",
          "name": "spender",
          "type": "address"
        }
      ],
      "name": "allowance",
      "outputs": [
        {
          "internalType": "uint256",
          "name": "",
          "type": "uint256"
        }
      ],
      "stateMutability": "view",
      "type": "function"
    },
    {
      "inputs": [
        {
          "internalType": "address",
          "name": "spender",
          "type": "address"
        },
        {
          "internalType": "uint256",
          "name": "amount",
          "type": "uint256"
        }
      ],
      "name": "approve",
      "outputs": [
        {
          "internalType": "bool",
          "name": "",
          "type": "bool"
        }
      ],
      "stateMutability": "nonpayable",
      "type": "function"
    },
    {
      "inputs": [
        {
          "internalType": "address",
          "name": "account",
          "type": "address"
        }
      ],
      "name": "balanceOf",
      "outputs": [
        {
          "internalType": "uint256",
          "name": "",
          "type": "uint256"
        }
      ],
      "stateMutability": "view",
      "type": "function"
    },
    {
      "inputs": [],
      "name": "decimals",
      "outputs": [
        {
          "internalType": "uint8",
          "name": "",
          "type": "uint8"
        }
      ],
      "stateMutability": "pure",
      "type": "function"
    },
    {
      "inputs": [
        {
          "internalType": "address",
          "name": "spender",
          "type": "address"
        },
        {
          "internalType": "uint256",
          "name": "subtractedValue",
          "type": "uint256"
        }
      ],
      "name": "decreaseAllowance",
      "outputs": [
        {
          "internalType": "bool",
          "name": "",
          "type": "bool"
        }
      ],
      "stateMutability": "nonpayable",
      "type": "function"
    },
    {
      "inputs": [
        {
          "internalType": "address",
          "name": "spender",
          "type": "address"
        },
        {
          "internalType": "uint256",
          "name": "addedValue",
          "type": "uint256"
        }
      ],
      "name": "increaseAllowance",
      "outputs": [
        {
          "internalType": "bool",
          "name": "",
          "type": "bool"
        }
      ],
      "stateMutability": "nonpayable",
      "type": "function"
    },
    {
      "inputs": [
        {
          "internalType": "address",
          "name": "predicate_",
          "type": "address"
        },
        {
          "internalType": "string",
          "name": "name_",
          "type": "string"
        },
        {
          "internalType": "string",
          "name": "symbol_",
          "type": "string"
        }
      ],
      "name": "initialize",
      "outputs": [],
      "stateMutability": "nonpayable",
      "type": "function"
    },
    {
      "inputs": [],
      "name": "name",
      "outputs": [
        {
          "internalType": "string",
          "name": "",
          "type": "string"
        }
      ],
      "stateMutability": "view",
      "type": "function"
    },
    {
      "inputs": [
        {
          "internalType": "uint256",
          "name": "",
          "type": "uint256"
        },
        {
          "internalType": "address",
          "name": "sender",
          "type": "address"
        },
        {
          "internalType": "bytes",
          "name": "data",
          "type": "bytes"
        }
      ],
      "name": "onStateReceive",
      "outputs": [],
      "stateMutability": "nonpayable",
      "type": "function"
    },
    {
      "inputs": [],
      "name": "predicate",
      "outputs": [
        {
          "internalType": "address",
          "name": "",
          "type": "address"
        }
      ],
      "stateMutability": "view",
      "type": "function"
    },
    {
      "inputs": [],
      "name": "symbol",
      "outputs": [
        {
          "internalType": "string",
          "name": "",
          "type": "string"
        }
      ],
      "stateMutability": "view",
      "type": "function"
    },
    {
      "inputs": [],
      "name": "totalSupply",
      "outputs": [
        {
          "internalType": "uint256",
          "name": "",
          "type": "uint256"
        }
      ],
      "stateMutability": "view",
      "type": "function"
    },
    {
      "inputs": [
        {
          "internalType": "address",
          "name": "to",
          "type": "address"
        },
        {
          "internalType": "uint256",
          "name": "amount",
          "type": "uint256"
        }
      ],
      "name": "transfer",
      "outputs": [
        {
          "internalType": "bool",
          "name": "",
          "type": "bool"
        }
      ],
      "stateMutability": "nonpayable",
      "type": "function"
    },
    {
      "inputs": [
        {
          "internalType": "address",
          "name": "from",
          "type": "address"
        },
        {
          "internalType": "address",
          "name": "to",
          "type": "address"
        },
        {
          "internalType": "uint256",
          "name": "amount",
          "type": "uint256"
        }
      ],
      "name": "transferFrom",
      "outputs": [
        {
          "internalType": "bool",
          "name": "",
          "type": "bool"
        }
      ],
      "stateMutability": "nonpayable",
      "type": "function"
    },
    {
      "inputs": [
        {
          "internalType": "uint256",
          "name": "amount",
          "type": "uint256"
        }
      ],
      "name": "withdraw",
      "outputs": [
        {
          "internalType": "bool",
          "name": "",
          "type": "bool"
        }
      ],
      "stateMutability": "nonpayable",
      "type": "function"
    }
  ],
  "bytecode": "0x608060405234801561001057600080fd5b50611150806100206000396000f3fe608060405234801561001057600080fd5b50600436106101375760003560e01c806370a08231116100b8578063a457c2d71161007c578063a457c2d71461025a578063a9059cbb1461026d578063dd62ed3e14610280578063e0563ab114610293578063e61987051461029c578063eeb49945146102af57600080fd5b806370a082311461020f578063906571471461022a578063947287cf1461023f57806395d89b411461024857806397e5230d1461025057600080fd5b80632e1a7d4d116100ff5780632e1a7d4d146101c3578063313ce567146101d657806339509351146101e55780633b878c22146101f857806351351d531461020157600080fd5b806306fdde031461013c578063095ea7b31461015a57806318160ddd1461017d57806323b872dd1461018f578063284017f5146101a2575b600080fd5b6101446102c2565b6040516101519190610c5b565b60405180910390f35b61016d610168366004610ca6565b610354565b6040519015158152602001610151565b6033545b604051908152602001610151565b61016d61019d366004610cd2565b61036e565b6101ab61202081565b6040516001600160a01b039091168152602001610151565b61016d6101d1366004610d13565b610392565b60405160128152602001610151565b61016d6101f3366004610ca6565b6103a6565b6101ab61101081565b6101ab6002600160a01b0381565b61018161021d366004610d2c565b6001600160a01b03163190565b61023d610238366004610df3565b6103c8565b005b61018161520881565b61014461044b565b610181620249f081565b61016d610268366004610ca6565b61045a565b61016d61027b366004610ca6565b6104d5565b61018161028e366004610e69565b6104e3565b6101ab61203081565b6036546101ab906001600160a01b031681565b61023d6102bd366004610ea2565b61050e565b6060603480546102d190610f2b565b80601f01602080910402602001604051908101604052809291908181526020018280546102fd90610f2b565b801561034a5780601f1061031f5761010080835404028352916020019161034a565b820191906000526020600020905b81548152906001019060200180831161032d57829003601f168201915b5050505050905090565b6000336103628185856105c7565b60019150505b92915050565b60003361037c8582856106eb565b61038785858561075f565b506001949350505050565b600061039e3383610942565b506001919050565b6000336103628185856103b983836104e3565b6103c39190610f7b565b6105c7565b336002600160a01b03146104115760405163973d02cb60e01b815260206004820152600a60248201526914d654d5115350d0531360b21b60448201526064015b60405180910390fd5b603680546001600160a01b0319166001600160a01b03851617905560346104388382610fd9565b5060356104458282610fd9565b50505050565b6060603580546102d190610f2b565b6000338161046882866104e3565b9050838110156104c85760405162461bcd60e51b815260206004820152602560248201527f45524332303a2064656372656173656420616c6c6f77616e63652062656c6f77604482015264207a65726f60d81b6064820152608401610408565b61038782868684036105c7565b60003361036281858561075f565b6001600160a01b03918216600090815260326020908152604080832093909416825291909152205490565b61100133146105545760405162461bcd60e51b815260206004820152601260248201527127a7262cafa9aa20aa22a922a1a2a4ab22a960711b6044820152606401610408565b6036546001600160a01b038481169116146105a25760405162461bcd60e51b815260206004820152600e60248201526d24a72b20a624a22fa9a2a72222a960911b6044820152606401610408565b6000806105b183850185610ca6565b915091506105bf8282610ac5565b505050505050565b6001600160a01b0383166106295760405162461bcd60e51b8152602060048201526024808201527f45524332303a20617070726f76652066726f6d20746865207a65726f206164646044820152637265737360e01b6064820152608401610408565b6001600160a01b03821661068a5760405162461bcd60e51b815260206004820152602260248201527f45524332303a20617070726f766520746f20746865207a65726f206164647265604482015261737360f01b6064820152608401610408565b6001600160a01b0383811660008181526032602090815260408083209487168084529482529182902085905590518481527f8c5be1e5ebec7d5bd14f71427d1e84f3dd0314c0f7b2291e5b200ac8c7c3b925910160405180910390a3505050565b60006106f784846104e3565b9050600019811461044557818110156107525760405162461bcd60e51b815260206004820152601d60248201527f45524332303a20696e73756666696369656e7420616c6c6f77616e63650000006044820152606401610408565b61044584848484036105c7565b6001600160a01b0383166107c35760405162461bcd60e51b815260206004820152602560248201527f45524332303a207472616e736665722066726f6d20746865207a65726f206164604482015264647265737360d81b6064820152608401610408565b6001600160a01b0382166108255760405162461bcd60e51b815260206004820152602360248201527f45524332303a207472616e7366657220746f20746865207a65726f206164647260448201526265737360e81b6064820152608401610408565b604080516001600160a01b0385811660208301528416918101919091526060810182905260009081906120209060800160408051601f198184030181529082905261086f91611099565b6000604051808303816000865af19150503d80600081146108ac576040519150601f19603f3d011682016040523d82523d6000602084013e6108b1565b606091505b50915091508180156108d25750808060200190518101906108d291906110b5565b6108ee5760405162461bcd60e51b8152600401610408906110d7565b836001600160a01b0316856001600160a01b03167fddf252ad1be2c89b69c2b068fc378daa952ba7f163c4a11628f55a4df523b3ef8560405161093391815260200190565b60405180910390a35050505050565b6001600160a01b0382166109a25760405162461bcd60e51b815260206004820152602160248201527f45524332303a206275726e2066726f6d20746865207a65726f206164647265736044820152607360f81b6064820152608401610408565b80603360008282546109b49190611107565b9091555050604080516001600160a01b038416602082015260009181018290526060810183905281906120209060800160408051601f19818403018152908290526109fe91611099565b6000604051808303816000865af19150503d8060008114610a3b576040519150601f19603f3d011682016040523d82523d6000602084013e610a40565b606091505b5091509150818015610a61575080806020019051810190610a6191906110b5565b610a7d5760405162461bcd60e51b8152600401610408906110d7565b6040518381526000906001600160a01b038616907fddf252ad1be2c89b69c2b068fc378daa952ba7f163c4a11628f55a4df523b3ef906020015b60405180910390a350505050565b6001600160a01b038216610b1b5760405162461bcd60e51b815260206004820152601f60248201527f45524332303a206d696e7420746f20746865207a65726f2061646472657373006044820152606401610408565b8060336000828254610b2d9190610f7b565b9091555050604080516000602082018190526001600160a01b038516928201929092526060810183905281906120209060800160408051601f1981840301815290829052610b7a91611099565b6000604051808303816000865af19150503d8060008114610bb7576040519150601f19603f3d011682016040523d82523d6000602084013e610bbc565b606091505b5091509150818015610bdd575080806020019051810190610bdd91906110b5565b610bf95760405162461bcd60e51b8152600401610408906110d7565b6040518381526001600160a01b038516906000907fddf252ad1be2c89b69c2b068fc378daa952ba7f163c4a11628f55a4df523b3ef90602001610ab7565b60005b83811015610c52578181015183820152602001610c3a565b50506000910152565b6020815260008251806020840152610c7a816040850160208701610c37565b601f01601f19169190910160400192915050565b6001600160a01b0381168114610ca357600080fd5b50565b60008060408385031215610cb957600080fd5b8235610cc481610c8e565b946020939093013593505050565b600080600060608486031215610ce757600080fd5b8335610cf281610c8e565b92506020840135610d0281610c8e565b929592945050506040919091013590565b600060208284031215610d2557600080fd5b5035919050565b600060208284031215610d3e57600080fd5b8135610d4981610c8e565b9392505050565b634e487b7160e01b600052604160045260246000fd5b600082601f830112610d7757600080fd5b813567ffffffffffffffff80821115610d9257610d92610d50565b604051601f8301601f19908116603f01168101908282118183101715610dba57610dba610d50565b81604052838152866020858801011115610dd357600080fd5b836020870160208301376000602085830101528094505050505092915050565b600080600060608486031215610e0857600080fd5b8335610e1381610c8e565b9250602084013567ffffffffffffffff80821115610e3057600080fd5b610e3c87838801610d66565b93506040860135915080821115610e5257600080fd5b50610e5f86828701610d66565b9150509250925092565b60008060408385031215610e7c57600080fd5b8235610e8781610c8e565b91506020830135610e9781610c8e565b809150509250929050565b60008060008060608587031215610eb857600080fd5b843593506020850135610eca81610c8e565b9250604085013567ffffffffffffffff80821115610ee757600080fd5b818701915087601f830112610efb57600080fd5b813581811115610f0a57600080fd5b886020828501011115610f1c57600080fd5b95989497505060200194505050565b600181811c90821680610f3f57607f821691505b602082108103610f5f57634e487b7160e01b600052602260045260246000fd5b50919050565b634e487b7160e01b600052601160045260246000fd5b8082018082111561036857610368610f65565b601f821115610fd457600081815260208120601f850160051c81016020861015610fb55750805b601f850160051c820191505b818110156105bf57828155600101610fc1565b505050565b815167ffffffffffffffff811115610ff357610ff3610d50565b611007816110018454610f2b565b84610f8e565b602080601f83116001811461103c57600084156110245750858301515b600019600386901b1c1916600185901b1785556105bf565b600085815260208120601f198616915b8281101561106b5788860151825594840194600190910190840161104c565b50858210156110895787850151600019600388901b60f8161c191681555b5050505050600190811b01905550565b600082516110ab818460208701610c37565b9190910192915050565b6000602082840312156110c757600080fd5b81518015158114610d4957600080fd5b60208082526016908201527514149150d3d35412531157d0d0531317d1905253115160521b604082015260600190565b8181038181111561036857610368610f6556fea26469706673582212200a4f2adc0378171ca90233f56329b96082518b0938115ae96de2e1055f36eb6964736f6c63430008110033",
  "linkReferences": {},
  "deployedLinkReferences": {}
}